:20000000FAC200001EC300001CC300001AC3000018C3000016C3000014C3000012C3000027
:2000200010C300000EC300000CC300000AC3000008C3000006C3000004C3000002C3000060
:2000400000C30000FEC20000FCC20000FAC20000F8C20000F6C20000F4C20000F2C20000C7
:20006000F0C20000EEC20000ECC20000EAC20000E8C20000E6C20000E4C20000E2C2000028
:20008000E0C20000DEC20000DCC20000DAC20000D8C20000D6C20000D4C20000D2C2000088
:2000A000D0C20000CEC20000CCC20000CAC20000C8C20000C6C20000C4C20000C2C20000E8
:2000C000C0C20000BEC20000BCC20000BAC20000B8C20000B6C20000B4C20000B2C2000048
:2000E000B0C20000AEC20000ACC20000AAC20000A8C20000A6C20000A4C20000A2C20000A8
:20010000A0C200009EC200009CC200009AC2000098C2000096C2000094C2000092C2000007
:2001200090C200008EC200008CC200008AC2000088C2000086C2000084C2000082C2000067
:2001400080C200007EC200007CC200007AC2000078C2000076C2000074C2000072C20000C7
:2001600070C200006EC200006CC200006AC2000068C2000066C2000064C2000062C2000027
:2001800060C200005EC200005CC200005AC2000058C2000056C2000054C2000052C2000087
:2001A00050C200004EC200004CC200004AC2000048C2000046C2000044C2000042C20000E7
:2001C00040C200003EC200003CC200003AC2000038C2000036C2000034C2000032C2000047
:2001E00030C200002EC200002CC200002AC2000028C2000000407A10F35A00A0724E1809C1
:200200000010A5D4E80000E87648170000E40B54020000CA9A3B000000E1F50500008096DB
:200220009800000040420F000000A08601000000102700000000E8030000000064000000E8
:2002400000000A00000000000100000000002C76D888DC674F0823DFC1DFAE59E1B1B7966F
:20026000E5E3E453C63AE651997696E8E6C28426EB898C9B62ED407C6FFCEFBC9C9F40F240
:20028000BAA56FA5F490055A2AF75C936B6CF9676DC11BFCE0E40D47FEF520E6B500D0EDF9
:2002A000902E0300943577050080841E080000204E0A000000C80C333333330F986E12834C
:2002C0001141EF8D2114893BE65516CFFEE6DB18D1844B381BF77C1D901DA4BBE424203277
:2002E00084725E228100C9F124ECA1E53D2708080800000000000000000000000000307893
:200300007830300030006C6C6C00000000006C6CFE6CFE6C6C00183E603C067C180000638A
:20032000660C183363001C361C3B6E663B0030306000000000000C18303030180C00301805
:200340000C0C0C18300000663CFF3C660000003030FC3030000000000000001818300000D2
:20036000007E00000000000000000018180003060C18306040003E63636B63633E0018380F
:20038000581818187E003C66061C30667E003C66061C06663C000E1E36667F060F007E60C1
:2003A0007C0606663C001C30607C66663C007E66060C181818003C66663C66663C003C66B7
:2003C000663E060C3800001818000018180000181800001818300C18306030180C00000037
:2003E0007E00007E000030180C060C1830003C66060C180018003E636F696F603E00183C95
:2004000066667E6666007E33333E33337E001E33606060331E007C36333333367C007F3151
:20042000343C34317F007F31343C343078001E33606067331F006666667E666666003C186C
:20044000181818183C000F06060666663C007333363C363373007830303031337F0063771E
:200460007F7F6B63630063737B6F676363003E63636363633E007E33333E303078003C6659
:2004800066666E3C0E007E33333E363373003C6630180C663C007E5A181818183C00666602
:2004A000666666667E0066666666663C18006363636B7F7763006363361C1C36630066664E
:2004C000663C18183C007F63460C19337F003C30303030303C006030180C060301003C0CA1
:2004E0000C0C0C0C3C00081C36630000000000000000000000FF18180C0000000000000098
:200500003C063E663B0070303E3333336E0000003C6660663C000E063E6666663B00000072
:200520003C667E603C001C3630783030780000003B66663E067C7030363B33337300180064
:20054000381818183C00060006060666663C703033363C3673003818181818183C000000E5
:20056000667F7F6B630000007C666666660000003C6666663C0000006E33333E30780000D1
:200580003B66663E060F00006E3B3330780000003E603C067C0008183E18181A0C0000006D
:2005A000666666663B0000006666663C18000000636B7F7F3600000063361C366300000092
:2005C0006666663E067C00007E4C18327E000E18187018180E000C0C0C000C0C0C007018DB
:2005E000180E181870003B6E0000000000001C36361C0000000011241FBECFEFCDBFDFE3CA
:20060000DEBF00E00CBF18BE19BE1ABE1BBE11E2A0E0B0E2EEEAFFE300E00BBF02C0079072
:200620000D92AC34B107D9F71BBE24E2ACE4B1E201C01D92A233B207E1F70E94E7140C949E
:20064000D51FDECCE4E0F7E090819460908390819F7D908390819F7E908380932407808189
:20066000877F80838AE08A95F1F700C0808188608083808180618083089580932407E4E0D0
:20068000F7E08081877F80838AE08A95F1F700C08081886080830895CF9395E0892780FFB9
:2006A00002C0C8E001C0C8E481FDC06882FDC06286E3C8DF8C2FE1DFE4E0F7E08081806213
:2006C0008083CF910895CF92DF92EF92FF92CF93DF934115510561057105A9F06A017B015A
:2006E000C92FD82F8CE2AEDF8D2FC7DF8C2FC5DF81E0C81AD108E108F108B1F7E4E0F7E0FE
:20070000808180628083DF91CF91FF90EF90DF90CF9008950F931F93CF93DF93D82F162F36
:20072000072F8AE28FDF80E0A8DFC0EFCD1B8C2FA4DF80E0A2DF8C2FA0DFC4E0D7E088816E
:20074000806288838BE27EDF802F97DF812F95DF802F93DF812F91DF888180628883DF91F2
:20076000CF911F910F910895CF93DF93EA01D2DF41E050E060E070E0CE01A5DFDF91CF91B8
:2007800008952F923F924F925F926F927F928F929F92AF92BF92CF92EF92FF920F931F939B
:2007A000CF93DF9300D000D0CDB7DEB75C016D837E8349835A832B833C834901861A970ABD
:2007C0001A01281A390A99203CF491948194910844244A94542C03C044244394512C332025
:2007E0003CF431942194310866246A94762C03C066246394712C880C991C220C331C20E243
:20080000E29E7001112430EEE32233E0F32210E0102F0027110F110F110FE02AF12A8C2DD3
:200820008F71E82AA7016D817E81C5019DDF821493042CF5C101959587958401081B190BAD
:2008400089819A818A159B0509F43FC0112344F02D813E81240D351D2D833E830219130938
:20086000A60CB71C080D191DA7016D817E81C5017BDF89819A818A159B0541F726C0C401AC
:20088000959587958101081B190B2B813C818D819E8128173907C9F0112324F0A60CB71CAE
:2008A000081919092D813E81240D351D2D833E83020D131DA701B901C50156DF8B819C81CF
:2008C0002D813E818217930739F72696CDBFDEBFDF91CF911F910F91FF90EF90CF90BF9087
:2008E000AF909F908F907F906F905F904F903F902F9008954F925F926F927F928F929F922E
:20090000AF92BF92CF92EF92FF920F931F93CF93DF932C014B013A015901C02FDE2D8AE236
:2009200091DE80E0AADE00EF802F8619A6DE80E0A4DE802F8419A1DE0F2EF4E0EF2EF7E0ED
:20094000FF2EF02DF7018081806280838BE27ADE892D93DE882D91DE8B2D8FDE8A2D8DDE18
:20096000F701808180628083930124193509C50188199909289FA001299F500D389F500DC0
:200980001124052E000C660B770BF0E2DF9FC00111249C01207E33708C2F90E0982F88272B
:2009A000990F990F990F822B932B2C2D2F71822B8ADEED2E0C2F9401A301B401C201E1DE00
:2009C00021E0A21AB1089501A301B501C201D9DE9501A201B401C201D4DE9501A301B401E5
:2009E000C301CFDEDF91CF911F910F91FF90EF90CF90BF90AF909F908F907F906F905F9020
:200A00004F9008952F923F924F925F926F927F928F929F92AF92BF92CF92DF92EF92FF921C
:200A20000F931F93CF93DF93CDB7DEB72D97CDBFDEBF8D839E83B62E7B874F8358872C870D
:200A40003D870987EA865C2C3BA0822F861B09F46BC0062F172F98012F5F3F4F81503901BA
:200A6000680E711C4984CE2CD52C80EF282E241A982E2D81921A0F2EF4E0EF2EF7E0FF2E56
:200A8000F02DCA014D815E81841B950B9C01990F440B550B29833A834B835C83B52C532C18
:200AA0003A2C992D922C282C892EA62E8AE2CADD80E0E3DD892DE1DD80E0DFDD882DDDDD3B
:200AC000F7018081806280838BE2BCDD812FD5DD802FD3DD812FD1DD802FCFDDF7018081BF
:200AE000806280838D2D8F71242D30E0322F2227330F330F330F282BF0E2CF9EC0011124FE
:200B0000807E937049815A816B817C81822B932BDADD0F5F1F4FD518C218431806151705EF
:200B200009F0C4CF5B2CBA2CC52CEA8409852B2D3B854F8158856B2D732F8D819E8121DEA4
:200B40002C843D8421E0221A3108EA84098591014F815885B1018D819E8113DEEA840985A7
:200B600091014D815E816B2D7B85CA010ADEEA84098591014F8158856B2D7B85CA0101DE6E
:200B80002D96CDBFDEBFDF91CF911F910F91FF90EF90DF90CF90BF90AF909F908F907F9082
:200BA0006F905F904F903F902F9008952F923F924F925F926F927F928F929F92AF92BF92E3
:200BC000CF92DF92EF92FF920F931F93CF93DF9300D01F92CDB7DEB7EEEEF2E0E490EFEE70
:200BE000F2E05491E0EFF2E09491E82FF0E07F979E9FD0019F9FB00D1124CD0182519D4FB0
:200C00005523C9F13C01650E711C4C01F12C70E0FB01E81BF90BE983FA83A42EB12C222EC0
:200C2000332E412EF40154901E141F04F4F410E81B821C82C980DA80C80CD91C852D8123D9
:200C400019F4402F542D02C0422D532DB6018B819C818A0D9B1D88DD16958B819C810196E7
:200C60008B839C838E159F0549F79FEF891A990A86149704B9F62496CDBFDEBFDF91CF9155
:200C80001F910F91FF90EF90DF90CF90BF90AF909F908F907F906F905F904F903F902F90E2
:200CA0000895AF92BF92CF92DF92EF92FF920F931F93CF93DF93D62FC42F590168017C01C1
:200CC00008C0860195014C2F6D2F70DFC85FD43828F4F70181917F018111F3CFDF91CF91CC
:200CE0001F910F91FF90EF90DF90CF90BF90AF9008950F931F93CF93DF938C018AE2A2DCFE
:200D000080E0BBDC80E0B9DC80E0B7DC8FEEB5DCC4E0D7E08881806288838BE293DC80E059
:200D2000ACDC80E0AADC81E0A8DC8FE3A6DC88818062888340E05CE261E070E0C801C3DC1F
:200D4000DF91CF911F910F910895CF93DF938FEF80930007C4E0D7E09EEF9883809320072D
:200D60001092240788818F7D88832AE02A95F1F700C08881826088838FE39FE10197F1F7AD
:200D800000C0000088818D7F88839FEF29EF80E0915020408040E1F700C0000088818260E9
:200DA00088839FEF29EF80E0915020408040E1F700C000008881806288839FEF27EB8BE088
:200DC000915020408040E1F700C0000081E13ADC8881806288839FEF25EA8EE091502040C0
:200DE0008040E1F700C0000089E22CDC8881806288839FEF25EA8EE0915020408040E1F74E
:200E000000C000009FEF27EB8BE0915020408040E1F700C0000088E215DC8881806288831D
:200E200081E110DC8881806288839FEF27EB8BE0915020408040E1F700C000008AE302DC7F
:200E400085E61BDC88818062888380ECFBDB85E214DC88818062888381ECF4DB81E10DDC24
:200E600088818062888385ECEDDB8CE506DC8CE404DC88818062888387ECE4DB84E9FDDB33
:200E800088818062888388E3DDDB88818062888388EBD8DB86E0F1DB88818062888389EB81
:200EA000D1DB86E6EADB88818062888380EBCADB82ECE3DB88818062888388EEC3DB85E8AC
:200EC000DCDB81E0DADB88E7D8DB8881806288838AEEB8DB80E0D1DB8881806288838DECA7
:200EE000B1DB89E3CADB8CE2C8DB80E0C6DB84E3C4DB82E0C2DB8881806288838FECA2DB50
:200F000080E0BBDB8AEAB9DB80EBB7DB88818062888382EF97DB80E0B0DB8881806288831C
:200F200086EF90DB81E0A9DB80E3A7DB80E3A5DB88818062888387EF85DB80E29EDB888174
:200F40008062888389E27EDB88818062888384E0A3DB81E177DB8881806288839FEF23ECC1
:200F600089E0915020408040E1F700C0000089E269DB8881806288839FEF23EC89E09150E3
:200F800020408040E1F700C00000DF91CF9108958F92AF92CF92EF920F93CF93DF93CDB7EE
:200FA000DEB7260F371F480F591FEB85EF932ADD0F90DF91CF910F91EF90CF90AF908F90FE
:200FC00008952F923F924F925F926F927F928F92AF92CF92EF92FF920F931F93CF93DF9301
:200FE000CDB7DEB76A97CDBFDEBF8D8B9E8BFB0188EE90E02D893E89821B930B63E070E040
:201000000E94D91C9B012D5F3F4F84EE90E04D895E89841B950B63E070E00E94D91C6D8787
:201020007E8781E391E08E1B9F0BAC0112F44D5F5F4FCA0195958795959587958F87988BE6
:2010400046E351E04E1B5F0BCA0199230CF403969595879595958795AC014D5F5F4F4F8BD6
:20106000588FEB87FC87198A1A8A3901FF24F3941F2D53C05FEF451A550AE981FA81298D63
:201080003A8D21933193E983FA83ED81FE812B813C8121933193ED83FE83EF81F8852192C9
:2010A0003192EF83F887E985FA852B893C8921933193E987FA87FF92812EA12E0F2EFFE37F
:2010C000CF2EF02D0F2EFFE3EF2EF02D0FE32F8538894D855E856B817C81898D9A8D58DF24
:2010E000498D5A8D460D571D498F5A8F260C371C0F9053E04516510409F0BCCF89899A89EB
:201100000696898B9A8BEB85FC852F89388DE20FF31FEB87FC87489769F14B855C854B83DC
:201120005C838F859889840F951F8B8B9C8BED89FE89E98FFA8F89899A8902969C012A5A2B
:201140003E4D29833A83AC0148545E4D4D835E831F01ED85FE852E0E3F1E9C012E573E4D9B
:201160002F833887AC014F5F5B4D49875A87412C512C80CF6A96CDBFDEBFDF91CF911F9168
:201180000F91FF90EF90CF90AF908F907F906F905F904F903F902F900895AF92BF92CF92EA
:2011A000DF92FF920F931F93CF93DF936B01E8E5F1E2A4E8B1E20F2EFAEBAF2EF1E2BF2E1B
:2011C000F02D03E014E2F12C70E021E030E041915191841795079CF14D915C911197481751
:2011E0005907C4F0E50148815981C416D506ACF0E801488159814C155D05BCF44F2D572F00
:201200000EC01296D2E0AD0EB11C0E5F1F4FF42E752FDDCF4F2D572F02C04F2D572F2F5F7D
:201220003F4F2D30310581F0ECCFF22E732F0CC0129642E0A40EB11C0E5F1F4FC8CF2F5F8A
:201240003F4F2D303105A1F78F2D972FDF91CF911F910F91FF90DF90CF90BF90AF900895AB
:20126000FC01848191E09483AFEFB3E01197F1F700C0000084830895AAECB1E092E09C93F7
:20128000E82FF0E084911C920895CF93DF93EC01C11582E0D80749F480E2EEDFC0E0D2E071
:2012A0008C8781E2E9DF8D8706C084E2E5DF8C8785E2E2DF8D87DF91CF910895E0E4F6E096
:2012C00080818F7B80838081806A808382E58093C00808958093C308E0ECF8E08281882303
:2012E000ECF708958FEFF6DF8091C3080895CF92DF92EF92FF921F93CF93DF93182F6A0186
:201300007B018091F423811115C08FEE810F823040F088EE810F823020F080EE810F82305B
:2013200048F40B2EB9E0CC0CDD1CEE1CFF1CBA95D1F7B02DE4EAF6E080818F7D8083812F51
:201340008064C8DF8F2DC6DF8E2DC4DF8D2DC2DF8C2DC0DF183019F487E8BCDF06C085E9FD
:20136000B9DF03C0C15011F415C0C0E0BBDFD82F8F3FC1F381110EC01A3361F4B3DF86FF4B
:2013800004C081E08093F42302C01092F423AADFA9DFA8DFA7DFE4EAF6E0808180628083DB
:2013A0008D2FDF91CF911F91FF90EF90DF90CF9008950F931F93CF93DF931AE08FEF8ADF6F
:2013C0001150E1F7E4EAF6E080818F7D808340E050E0BA0180E08BDFC0E2D0E008C040E011
:2013E00050E0BA0180E083DF219709F45EC08130B1F7E4EAF6E08081806280838FEF6ADFC3
:201400008FEF68DF4AEA51E060E070E088E06FDFCEEFD0E00DC04AEA51E060E070E088E0C5
:2014200066DF219729F481E08093FF2301E003C0813089F702E040E050E0BA0187E357DF9A
:2014400040E050E060E070E489E251DFCEEFD0E00DC040E050E0BA0187E349DF40E050E0E6
:2014600060E070E489E243DF219709F18111F1CF1092F423023029F51CC040E050E0BA0157
:201480008AE335DF219719F41092FF2302C08111F4CF8091F423813021F482E08093FF23A6
:2014A00010C083E08093FF230CC011E00AC012E008C040E050E0BA018AE319DFCEEFD0E0A6
:2014C000E6CF812FDF91CF911F910F910895CF93DF93AB01BC0181E10ADF811129C0E4EA19
:2014E000F6E080818F7D8083C0E0D0E009C0219739F4E4EAF6E080818062808381E018C045
:20150000F1DE8E3FA1F7C0E0D0E0ECDEFE01E251FE4D80832196C11582E0D807B1F7E2DEC7
:20152000E1DEE0DEE4EAF6E080818062808380E0DF91CF9108950F931F93CF93DF93AB0103
:20154000BC0188E1D4DE811152C0E4EAF6E080818F7D80838EEFBEDEC0E0D0E0FE01E251C0
:20156000FE4D8081B7DE2196C11522E0D207B1F78FEFB0DE8FEFAEDEB5DE982F9F71953035
:2015800079F0E4EAF6E090819062908330C0219649F4E4EAF6E080818062808381E027C072
:2015A000C0E0D0E09FDE882391F304EA16E0F8018081806280838FEF8DDEF80180818F7D7D
:2015C00080830CC0CE010196219639F4E4EAF6E080818062808381E00AC0EC0183DE882344
:2015E00089F3E4EAF6E080818062808380E0DF91CF911F910F910895CF92DF92EF92FF92E4
:20160000A091EE23B091EF23C090AA21D090AB21E090AC21F090AD219B01AC01225031096E
:20162000410951090E940E1D6C0D7D1D8E1D9F1DFF90EF90DF90CF9008954F925F926F9273
:201640007F928F929F92AF92BF92CF92DF92EF92FF920F931F93CF93DF93D42F2801390123
:201660004091F9235091FA234B015C01880C991CAA1CBB1C880C991CAA1CBB1C2091B22186
:201680003091B321C090F023D090F123E090F223F090F323C40ED51EE11CF11C40E050E0A4
:2016A000C501B4010E94EC1CC20ED31EE41EF51E2091B2213091B32140E050E0C501B4014B
:2016C0000E94EC1C4B015C01CAE0C701B601FFDE882311F0C150C9F7F401E251FE4DD111DF
:2016E00008C080819181A281B381BC01CD019F700AC04082518262827382C701B6011BDF6D
:2017000060E070E0CB01DF91CF911F910F91FF90EF90DF90CF90BF90AF909F908F907F9086
:201720006F905F904F900895CF92DF92EF92FF92CF93DF93D82FC62F69017A018091F02382
:201740009091F123A091F223B091F323BC01CD016F5F7F4F8F4F9F4FBADE8091EE219091EB
:20176000EF21A091F021B091F12182359245A146B14409F057C08091D2239091D323A091FC
:20178000D423B091D52382379247A144B14609F04DC08091EA239091EB23A091EC23B091D7
:2017A000ED230097A545BA4A09F044C0C11114C0D13049F46091D6237091D7238091D823C2
:2017C0009091D9233AC06091DA237091DB238091DC239091DD2331C0D13049F4C092D6235A
:2017E000D092D723E092D823F092D92308C0C092DA23D092DB23E092DC23F092DD23809127
:20180000F0239091F123A091F223B091F323BC01CD016F5F7F4F8F4F9F4F8DDE6FEF7FEFB9
:20182000CB010BC06FEF7FEFCB0107C06FEF7FEFCB0103C06FEF7FEFCB01DF91CF91FF9060
:20184000EF90DF90CF900895EF92FF920F931F93CF93DF931092F0231092F1231092F22342
:201860001092F32360E070E0CB0131DE8091EE218D7F893EF9F08091EC239091ED2385355E
:201880009A4A09F095C06091B4237091B5238091B6239091B7236093F0237093F123809360
:2018A000F2239093F32313DE8091EE218D7F893E09F080C0EEEEF1E2838594858093B22107
:2018C0009093B321858590E08093EE239093EF23C685D785C093F923D093FA2384A595A545
:2018E000A6A5B7A58093E0219093E121A093E221B093E3210091F9231091FA23A08924A132
:2019000035A146A157A1B0E00E940E1DAB01BC01848D958DA68DB78D800F911FA11DB11DD7
:20192000840F951FA61FB71F8093AA219093AB21A093AC21B093AD212091EE233091EF2352
:2019400080A191A1A2A1B3A18C1B9D0BA109B1097C018D01E41AF50A060B170BC801B7012E
:2019600040E050E00E94EC1C2093B4213093B5214093B6215093B72120E030E0A90160E0ED
:2019800081E0D2DE0091B4211091B5212091B6213091B721061717072807390720F41092D8
:2019A000292480E008C081E08093292480E003C081E001C081E0DF91CF911F910F91FF909C
:2019C000EF9008950F931F93CF93DF93CDB7DEB72B97CDBFDEBFBC01DC018C918E3209F44B
:2019E00040C0FB01319691E081918E3221F09F5F9C30D1F706C0993020F491111CC0292FC5
:201A000032C080E098EF75D900E018EF2FEF3BEF42E068E188E090E244D9BFEFEFE4F3ECAE
:201A2000B150E040F040E1F700C000008FEF9BEF60D981E062C0FB019E012F5F3F4F4FEF04
:201A4000490F50E04F5F5F4F460F571F8191D9018D939D014E175F07C9F7983078F4292F16
:201A600002C090E020E080E2E1E0F0E0EC0FFD1FE20FF11D80832F5F2830B0F321E0290F66
:201A800098E0FB01E20FF11D8081811103C09B3050F015C02F5FE1E0F0E0EC0FFD1FE90F6F
:201AA000F11D80830CC020E2E1E0F0E0EC0FFD1FE90FF11D20839F5F9B30B1F703C09F5FC4
:201AC0009B30F8F29E012F5F3F4FAE01445F5F4FF90180819FE9980F9A3110F480528083C8
:201AE00031964E175F07A9F7FB01D9018D919D018193A417B507C9F780E02B96CDBFDEBF8D
:201B0000DF91CF911F910F910895CF92DF92EF92FF92CF939A01AB01CCE00F2EFAE0CF2EBB
:201B2000D12CE12CF12CF02DC53011F0C93009F4C150CA01B901A70196010E94EC1C2115C0
:201B400031054105510511F0C15071F7CF91FF90EF90DF90CF900895CF92DF92EF92FF927C
:201B6000CF936A017B0191E0D922EE24FF24CD28CE28CF2851F4032E39E076956795579517
:201B800047953A95D1F7302D0DC0032E39E076956795579547953A95D1F7302D4F5F5F4F3F
:201BA0006F4F7F4F6A017B0197E0C922DD24EE24FF24CD28CE28CF2859F46A017B01689408
:201BC00012F8F694E794D794C7941694D1F70FC0689412F876956795579547951694D1F7A8
:201BE0006A017B019FEFC91AD90AE90AF90A909129249923C9F0C82F20E030E0A90160E0E0
:201C000081E092DDC11107C0A7019601260F371F481F591F06C09B01AC012C193D094E09C1
:201C20005F0961E081E080DDCF91FF90EF90DF90CF9008952F923F924F925F926F927F92EE
:201C40008F929F92AF92BF92CF92DF92EF92FF920F931F93CF93DF93CDB7DEB72B97CDBF2D
:201C6000DEBF8D831B018091E0219091E121A091E221B091E3218E839F83A887B9878FEFCD
:201C80009BEF37D89D81915099836E817F8188859985B2DC2B013C018091EE239091EF232A
:201CA000892B09F45EC1812C912C5401A981AA87D301C201880D991DAA1DBB1D89839A8390
:201CC000AB83BC83BC01CD0102DC8091B2219091B321892B09F432C1AEEEB1E28C918823BA
:201CE00069F07D01C12CD12CBA85BB8719C0E0E2EE0EF11CD7018C91811112C08D818150C6
:201D0000823008F052C10FEF1BEF20E038EF42E064E08BE190E20E94510680E090E04AC1BF
:201D2000853E09F4FEC0F70183858F3009F4F9C0FB85F23008F0C1C0D7019C91F10180819D
:201D40009813EFC01196319681E02D919191291304C08F5F8B30C9F703C08B3009F0E1C0F9
:201D6000AD81A13009F041C089819A81AB81BC8180932A2490932B24A0932C24B0932D24F2
:201D8000C601A0E0B0E080937E2190937F21A0938021B0938121D70154968D919C91559745
:201DA000A0E0B0E0BC0155274427F701828D938DA0E0B0E0842B952BA62BB72B8093FB23E5
:201DC0009093FC23A093FD23B093FE23848D958DA68DB78D8093AE219093AF21A093B02187
:201DE000B093B1218E2D9F2DE5C00FEF1BEF20E038EF46E964E080E390E20E945106D7015A
:201E000054968D909C905597A12CB12CD40199278827F701828C938CA12CB12C882A992A71
:201E2000AA2ABB2A85EE808369817A818B819C8182DBD7015C964D915D916D917C915F9771
:201E400080E08ADE20E030E0A90160E082E06CDC86169706A806B90628F4A501940161E0D8
:201E600082E062DC00E010E0980140E0C501B401E4DBE62EF72E8D83998300E010E0980131
:201E800041E0C501B401D9DB8E2C9F2CAD80B980B7EF8B16BFEF9B06AB06BFE0BB0610F35D
:201EA0000FEF1BEF20E038EF42E06EE08BE390E20E94510680E090E07DC0EBE0EA87D70189
:201EC0001B961C920FEF1BEF20E038EF42E066E3C7010E945106BA85B150BA87B111EFCF47
:201EE000D7011B968C91803191F0883081F020E038EF42E068E189E490E20E945106F7017F
:201F0000448D558D668D778D80E0FFDD0AC00FEF1BEF20E038EF42E062E28EE490E20E94F6
:201F20005106F0E2CF0ED11C8091B2219091B321C816D90608F4DBCE2B852A878FEF881AF2
:201F4000980AA80AB80A8091EE239091EF23A0E0B0E088169906AA06BB0608F4A9CE9A85C6
:201F6000998300E010E0980140E06E817F818885998563DB6E837F8388879987673FAFEFFE
:201F80007A078A07AFE09A0798F4672B682B692B09F07BCE0FEF1BEF20E038EF42E06CE2D9
:201FA00089E590E20E94510670CE80E090E002C080E090E02B96CDBFDEBFDF91CF911F913E
:201FC0000F91FF90EF90DF90CF90BF90AF909F908F907F906F905F904F903F902F900895A2
:201FE0002F923F924F925F926F927F928F929F92AF92BF92CF92DF92EF92FF920F931F934F
:20200000CF93DF93CDB7DEB7E597CDBFDEBF182F7B01CB01D7DC81113FC1B70181E00ADE59
:20202000009709F43BC1113009F43AC1DC0154964D915C91559760E070E0BA015527442727
:202040005A96CD90DC905B97E12CF12C8A019B010C291D292E293F290AA71BA72CA73DA720
:202060005C962D913D914D915C915F9729A33AA34BA35CA38FEF9BEF0E947906412C512C78
:20208000320189A09AA0ABA0BCA0BFEF8B1A9B0AAB0ABB0AFE0131961F01ECAB3DAA6AA51E
:2020A0007BA58CA59DA5A8DA6EA37FA388A799A78091EE239091EF23892B09F4BEC01DA226
:2020C0006EA17FA188A599A5FDA16F0F711D811D911DFDD909A11AA12BA13CA140165106DF
:2020E0006206730698F4B301A2014F5F5D4F6F4F7F4F12E0410E511C611C711C02C02C018F
:202100003D0184149504A604B70411F480E0C9C0D301C2010196A11DB11D481759076A0713
:202120007B0769F7EEEEF1E201900020E9F731979F012E5E31426901AE014F5F5F4F48ABAE
:2021400059AB1AAA1BAA1EA61FA640E050E07A018EE1E80EF11C4E155F0524F5CA01EAA9EE
:20216000FBA99C01241B350BDC01A251BE4D6C91D101A20FB31F6C93BA01680F791F6C1528
:202180007D0554F0E2E0F0E0EC0FFD1FE20FF31F1082C701E1E0F0E001968E159F050CF305
:2021A000EAABFBABA8A9B9A95E961C926EA5660F862F880F880F680F645D00E018EF2FEFE7
:2021C0003BEF42E08CA99DA90E945106EEA5FFA53196EEA7FFA779977CF0FFEF07EA11E6B4
:2021E000F15000401040E1F700C000008FEF9BEF0E9479061EA61FA62FEF33EC49E02150ED
:2022000030404040E1F700C0000088A999A94E9688AB99ABA701AAA9BBA9119709F097CF02
:20222000BDA1BF5FBDA38091EE239091EF232B2F30E02817390708F443CF00E010E098010D
:2022400040E06AA57BA58CA59DA5F7D96AA77BA78CA79DA7672B682B692B09F020CF80E041
:2022600098EF0E94790600E018EF2FEF3BEF42E068E189E590E20E945106EFEFFFE403EC93
:20228000E150F0400040E1F700C000008FEF9BEF0E94790680E005C082E003C080E001C071
:2022A00081E0E596CDBFDEBFDF91CF911F910F91FF90EF90DF90CF90BF90AF909F908F9041
:2022C0007F906F905F904F903F902F900895E0E6F6E081818160818381818260818383E227
:2022E0008093950488EF8093910481E08093940408958AE380939604809194048871D9F4E1
:20230000E4E9F4E0808186FFFDCF8DE280939704E4E9F4E0808186FFFDCF88E080939704A4
:20232000E4E9F4E0808186FFFDCF83E08093960480E090E0089581E090E008959AE390931F
:202340009604E4E9F4E0908196FFFDCF80939704E4E9F4E0808186FFFDCF8BE38093960414
:20236000E4E9F4E080818823ECF7E4E9F4E080818823ECF72091970430E0E3E9F4E0808100
:2023800082E08083E4E9F4E090819923ECF78091970497E090939304A901582BCA01089515
:2023A00082E0809350002FEF83EF91E0215080409040E1F700C0000088ED84BF81E0809392
:2023C00040000895CF93DF93EC0180E092E00E944509E0E0F2E08181897E80618183138288
:2023E000C130D105C9F482818F7C806182838481887F81608483A8E2B2E08C91807E816059
:202400008C9389E011968C9380818160808380E092E00E9430093AC0C230D105D9F4E0E08D
:20242000F2E082818F7C806182838481887F81608483A0E3B2E08C91807E81608C9382E14F
:2024400011968C9380818160808380E092E00E9430091CC02397D1F4E0E0F2E082818F7C29
:20246000806182838481887F81608483A8E3B2E08C91807E81608C938BE111968C93808117
:202480008160808380E092E00E943009DF91CF9108950F931F93CF93DF931F921F92CDB730
:2024A000DEB78C018FDF03301105B9F4E8E3F2E0808180688083838180FFFDCF20910024E9
:2024C000E8E3F2E081E0838384819581821B910927FD939589839A8333C002301105B9F449
:2024E000E0E3F2E0808180688083838180FFFDCF20910024E0E3F2E081E083838481958120
:20250000821B910927FD939589839A8319C001301105B1F4E8E2F2E08081806880838381BE
:2025200080FFFDCF20910024E8E2F2E081E0838384819581821B910927FD939589839A83B1
:2025400089819A810F900F90DF91CF911F910F9108954F925F926F927F928F929F92AF92E4
:20256000BF92CF92DF92EF92FF920F931F93CF93DF93CDB7DEB72A97CDBFDEBF0F2EF4ECDE
:20258000AF2EF7E0BF2EF02DF5018081877F80838081846080830F2EE12CF6E0FF2EF02D2B
:2025A000F7018081846080830F2EF4E0CF2EF6E0DF2EF02DF6018081846080830FEF1BEF46
:2025C00020E038EF4CE464E387E491E20E94510681E090E05EDF4C014AE0BE016F5F7F4FA6
:2025E0000E945A1D20E038EF4CE464E3CE0101960E945106F60180818B7F8083F7018081C7
:202600008B7F808310921206F50180818B7F8083808188608083F701808182608083F6012E
:2026200080818260808320E038EF44E764E387E491E20E94510682E090E02BDF5C014AE0E1
:20264000BE016F5F7F4F0E945A1D20E038EF44E764E3CE0101960E945106F60180818D7F0A
:202660008083F70180818D7F80831092110620E038EF4CE964E387E491E20E94510683E0B9
:2026800090E007DF7C01BC01990F880B990B0E94C21B60932E2470932F2480933024909327
:2026A00031244AE0BE016F5F7F4FC7010E945A1D20E038EF4CE964E3CE0101960E9451065D
:2026C000E0900620F0900720C0900420D0900520B5016C197D09072E000C880B990B0E94E9
:2026E000C21B20E030E040EA53E40E94761C2B013C0160910020709101206C197D09072E7C
:20270000000C880B990B0E94C21B9B01AC01C301B2019DD79B01AC0160E070E080EA93E409
:202720002DD7FDD72B013C01B4016E197F09072E000C880B990B0E94C21B20E030E040E766
:2027400053E40E94761C4B015C0160910220709103206E197F09072E000C880B990B0E9405
:20276000C21B9B01AC01C501B40171D7D8D7DC01CB01B2010E94CD082A96CDBFDEBFDF9195
:20278000CF911F910F91FF90EF90DF90CF90BF90AF909F908F907F906F905F904F90089558
:2027A0004F925F926F927F928F929F92AF92BF92CF92DF92EF92FF920F931F93CF93DF9345
:2027C000CDB7DEB7C654D109CDBFDEBF0E945E090AE010E00E94D909E82EF12CE114F1043F
:2027E00009F475C001501109A9F79BC00FEF1BEF20E038EF44E068E482E790E20E945106CE
:2028000022E0E216F10451F40FEF1BEF20E038EF44E068E48FE890E20E945106FFCF0FEF37
:202820001BEF20E038EF42E064E08CEA90E20E945106E12CF12C0F2EF2EA4F2EF2E05F2E01
:20284000612C712CF02D812C912C540183948FEF9BEF0E9479067DDE6C0143E050E060EACD
:2028600070E084E090E00E94E107E114F10459F40FEF1BEF20E038EF42E068E68DEB90E2EA
:202880000E9451061EC04092EA215092EB216092EC217092ED218092F5239092F623A092F0
:2028A000F723B092F82385E0E5EDF0E2DE01119601900D928A95E1F7BE016F5F7F4F80E030
:2028C0008FDB3CE0C316D10409F0C1CF30C00FEF1BEF20E038EF42E062E58AED90E20E9428
:2028E00051068FEF93E224EF30E08150904020403040D9F700C000008FEF9BEF0E94790641
:2029000081ED8093C0088FE39FE10197F1F700C000000E94240C811182CFEE24E394F12CE1
:202920008ACF91E0E916F10409F06ACF5FCFCA5BDF4FCDBFDEBFDF91CF911F910F91FF904E
:20294000EF90DF90CF90BF90AF909F908F907F906F905F904F900895CF93DF938AE20E94F3
:20296000220380E00E943D0380E00E943D0380E00E943D038FEE0E943D03C4E0D7E08881A9
:20298000806288838BE20E94220380E00E943D0380E00E943D0381E00E943D038FE30E943B
:2029A0003D0388818062888340E05CE261E070E08FEF9BEF0E94630343E050E060EA70E0F5
:2029C00084E090E00E94E107DF91CF910895CF93DF93CDB7DEB7A297CDBFDEBF00E416E003
:2029E000D8018C9180618C93E4E4F6E08081806180838FE39CE90197F1F700C00000808126
:202A00008F7E8083AFE3BCE91197F1F700C00000808180618083C4DC109211061092120627
:202A2000E0E0F6E080818B7F808380818D7F80838081877F80830F2EE12CF7E0FF2EF02D6D
:202A4000F70180818F7B8083E0ECF7E080818C608083E4ECF7E08081846080838081877F47
:202A60008083D8018C918F7B8C938C91806A8C93E0EEF6E080818067808300EA16E0D801C6
:202A80008C9180628C93A0E2B6E08C9180688C9314968C911497806814968C9384818064D0
:202AA000848384818062848384818F7E848381E090E088DC0E94A506F70180818F7B808380
:202AC000D80118968C9184FD26C0C12CE12C0FE32AE030E042ED50E062E070E08CEC90E00C
:202AE0000E947A042AE030E045ED50E065E070E083ED90E00E947A0426E030E044ED50E02E
:202B000064E070E083ED90E00E947A04E1E0F0E0EB8FFC8F02C01B8E1C8E0F2EF4ECEF2E3C
:202B2000F7E0FF2EF02DD7018C91877F8C938C918B7F8C930FEF1BEF20E038EF4CE464E36E
:202B400087E491E20E94510681E090E0A2DC40E1BE01695F7F4FAED720E038EF4CE464E3B6
:202B6000CE0107960E945106F70180818860808380818460808320E038EF4AE664E387E41B
:202B800091E20E94510682E090E083DC40E1BE01695F7F4F8FD720E038EF4AE664E3CE014F
:202BA00007960E94510693DBA4DB892BE9F780E0C5DB8FEF9BEF0E94790643E050E060EA38
:202BC00070E084E090E00E94E107812C912C0F2EFFED2F2E312CF02D29A23AA20F2EF7EB17
:202BE0004F2E512CF02D0FEF1BEF20E038EF4CE060E289EF90E20E94510620E038EF4CE4E7
:202C00006AE289E091E20E945106A4ECB7E08C91877F8C938C9184608C93E0E0F6E0808173
:202C200084608083A4E0B6E08C9184608C9320E038EF4CE464E387E491E20E94510681E09D
:202C400090E027DC5C014AE0BE016F5F7F4F32D720E038EF4CE464E3CE0101960E94510619
:202C6000E4E0F6E080818B7F8083A0E0B6E08C918B7F8C93E2E1F6E01082A4ECB7E08C91E1
:202C80008B7F8C938C9188608C93E0E0F6E0808182608083A4E0B6E08C9182608C9320E033
:202CA00038EF44E764E387E491E20E94510682E090E0EFDB3C014AE0BE016F5F7F4FFAD676
:202CC00020E038EF44E764E3CE0101960E945106E4E0F6E080818D7F8083A0E0B6E08C911F
:202CE0008D7F8C931092110620E038EF4CE964E387E491E20E94510683E090E0CADB8C0171
:202D0000BC01990F880B990B3DD560932E2470932F2480933024909331244AE0BE016F5FD4
:202D20007F4FC801C7D60FEF1BEF20E038EF4CE964E3CE0101960E9451068091A80684FD15
:202D400028C0EB8DFC8D319769F5C12CE12C0FE32AE030E042ED50E062E070E08CEC90E085
:202D60000E947A042AE030E045ED50E065E070E083ED90E00E947A0426E030E044ED50E0AB
:202D800064E070E083ED90E00E947A041B8E1C8E09C08B8D9C8D892B29F4DEDDA1E0B0E0A5
:202DA000AB8FBC8F8091080786FD7EC00FEF1BEF20E038EF44E662E08CE191E20E94510639
:202DC00080E090E4A7E9B4E480932E2490932F24A0933024B0933124C12CE12C0FE322E00F
:202DE00030E048EE50E062E070E08CED90E00E94C10323E030E048EE50E063E070E08CEDF7
:202E000090E00E94C1032AE030E048EE50E06AE070E08CED90E00E94C10329E030E048EE24
:202E200050E069E070E08CED90E00E94C1032AE030E04CED50E062E070E08CED90E00E94DA
:202E4000C1032AE030E04DED50E062E070E08DED90E00E94C1032AE030E048EE50E062E086
:202E600070E088EE90E00E94C1032AE030E047EE50E062E070E087EE90E00E94C10328E052
:202E800030E04BEE50E064E070E089EE90E00E947A0427E030E04AEE50E065E070E08AEE92
:202EA00090E00E947A0456C10FEF1BEF20E038EF44E662E087E291E20E945106C0902E2459
:202EC000D0902F24E0903024F0903124A70196016091E4217091E5218091E6219091E72129
:202EE000B2D3882309F436C12EEA37E441E750E4C701B601FBD420E030EC42E954E4A7D3D8
:202F00008E010F5E1F4F22E042E0B5D50FEF1BEF20E038EF48EC6EE0CE0141960E94510649
:202F200080912E2490912F24A0913024B09131248093E4219093E521A093E621B093E721D9
:202F4000C12C0F2EFFE7EF2EF02D0FE322E030E048EE50E062E070E08CED90E00E94C103DC
:202F600023E030E047EE50E063E070E08DED90E00E94C1032AE030E048EE50E06AE070E0DC
:202F80008CED90E00E94C10329E030E047EE50E069E070E08DED90E00E94C1032AE030E061
:202FA0004CED50E062E070E08CED90E00E94C10329E030E04DED50E063E070E08DED90E0C7
:202FC0000E94C1032AE030E048EE50E062E070E088EE90E00E94C10329E030E047EE50E0AF
:202FE00063E070E087EE90E00E94C10328E030E04BEE50E064E070E089EE90E00E947A04D7
:20300000C0902E24D0902F24E0903024F090312420E030E246E954E4C701B60163D4181665
:2030200034F487EE90E08093E8219093E92120E030EE44E954E4C701B60154D418167CF472
:2030400020E030E046E954E4C701B601FCD2882334F483EE90E08093E8219093E92120E0AF
:2030600030EA43E954E4C701B6013CD418167CF420E030EC44E954E4C701B601E4D2882344
:2030800034F482EE90E08093E8219093E92120E030E642E954E4C701B60124D418167CF451
:2030A00020E030E843E954E4C701B601CCD2882334F481EE90E08093E8219093E92120E07C
:2030C00030E241E954E4C701B6010CD418167CF420E030E442E954E4C701B601B4D2882358
:2030E00034F499A19093E821AAA1A093E92120E030E041E954E4C701B601A5D2882334F47F
:203100008DED90E08093E8219093E9214091E8215091E921C12C0F2EFFE7EF2EF02D0FE37B
:2031200029E030E064E070E08EED90E00E947A048091E8219091E921873E91055CF4E12CDA
:2031400000E029E030E046EE50E064E070E001960E947A04BDE0AB16B4E0BB060CF443CD04
:20316000E1ED6E16E3E07E060CF43DCDE0900620F09007200091042010910520B301601BC5
:20318000710B072E000C880B990BFCD220E030E040EA53E4ABD36D8F7E8F8F8F98A360912B
:2031A000002070910120601B710B072E000C880B990BE8D29B01AC016D8D7E8D8F8D98A101
:2031C00046D29B01AC0160E070E080EA93E4D6D1A6D26D8F7E8F8F8F98A3B5016E197F09D7
:2031E000072E000C880B990BCDD220E030E040E753E47CD35B016C016091022070910320FB
:203200006E197F09072E000C880B990BBBD29B01AC01C601B5011BD282D2DC01CB016D8DF0
:203220007E8D0E94CD083C018530910509F084C022C0A601440F551F42955295507F5427EF
:20324000407F5427407E53704E295F29B801C2018C199D090E94B4032FEFC21AD20A8FE34C
:20326000C816D10431F79FEFA91AB90AAFE7AA16B10419F425C0A12CB12C7501FE2CEE2406
:20328000FF0CFF0CFF0CC12CD12C85010F5D1F4FD0CFA8014F7155274E295F29B601C801C0
:2032A000C9960E94B4030F5F1F4F0F33110589F7BFEFAB1ABB0AEFE7AE16B10419F429C025
:2032C000A12CB12C7501FE2CEE24FF0CFF0CFF0C00E010E06501F1E2CF0ED11CDACFA6014E
:2032E0004F715527402B512BB1016C197D09C7010E94B4032FEFC21AD20A8FE3C816D104D2
:2033000071F79FEFA91AB90AAFE3AA16B10419F4AAC0A12CB12C8501000F111F0295129506
:20332000107F1027007F1027007E1370C12CD12C7201EA18FB08D3CF8230910509F05FC0AC
:203340001F9288248394A12CC12C0F2EFFE7EF2EF02D00E02FE330E040EF50E060E070E0F1
:2033600080E090E00E94020511E01F93812C0F2EFFE3CF2EF02DE12C2FE730E040EF50E0B9
:2033800060E470E080E090E00E9402051F92AA24A394C12C0FE32FEB30E040EF50E060E8BA
:2033A00070E080E090E00E9402051F93882483940F2EFFE3CF2EF02D0F2EFFE7EF2EF02D39
:2033C0002FEF30E040EF50E060EC70E080E090E00E9402051F92C12C20E431E040EF50E039
:2033E00060E071E080E090E00E9402050F900F900F900F900F904301612C712CB1C003972F
:20340000A9F5CED9FFEF27EA81E6F15020408040E1F700C000008091A80684FDE4CBC12C2C
:20342000E12C0FE32AE030E042ED50E062E070E08CEC90E00E947A042AE030E045ED50E0FE
:2034400065E070E083ED90E00E947A0426E030E044ED50E064E070E083ED90E00E947A04CC
:203460001B8E1C8EC0CB4301612C712C94E06916710409F075C08FEF9BEF0E9479060FEF43
:203480001BEF20E038EF4AE06AE282E391E20E945106AFEFB3EDE0E3A150B040E040E1F7DA
:2034A00000C000008FEF9BEF0E9479060E9467110E947911892BE1F780E00E949E1149D87F
:2034C0000C9709F44BC045D87C010FEF1BEF20E038EF4AEA6EE384E491E20E94510620E01F
:2034E00038EF4AEA68E484E491E20E94510620E038EF4AEA62E584E491E20E94510682E376
:203500000E949E114AE0BE016F5E7F4FD3D220E038EF4AEA6EE30E94510684E30E949E11D4
:203520004AE0BE016F5E7F4FC5D220E038EF4AEA68E40E94510686E30E949E114AE0BE012D
:203540006F5E7F4FB7D220E038EF4AEA62E50E945106FCE0EF16F10409F0B5CF430143CB07
:20356000C4010297049708F03ECB2CE06216710409F039CBF1D9812C912C35CB5058BB279D
:20358000AA270ED075C166D130F06BD120F031F49F3F11F41EF45BC10EF4E095E7FB51C102
:2035A000E92F77D180F3BA17620773078407950718F071F49EF58FC10EF4E0950B2EBA2F74
:2035C000A02D0B01B90190010C01CA01A0011124FF27591B99F0593F50F4503E68F11A1603
:2035E000F040A22F232F342F4427585FF3CF469537952795A795F0405395C9F77EF41F1613
:20360000BA0B620B730B840BBAF09150A1F0FF0FBB1F661F771F881FC2F70EC0BA0F621FD4
:20362000731F841F48F4879577956795B795F7959E3F08F0B3CF9395880F08F09927EE0F52
:20364000979587950895D9D008F481E008950CD00FC107D140F0FED030F021F45F3F19F084
:20366000F0C0511139C1F3C014D198F39923C9F35523B1F3951B550BBB27AA2762177307D1
:20368000840738F09F5F5F4F220F331F441FAA1FA9F333D00E2E3AF0E0E830D091505040DE
:2036A000E695001CCAF729D0FE2F27D0660F771F881FBB1F261737074807AB07B0E809F0FC
:2036C000BB0B802DBF01FF2793585F4F2AF09E3F510568F0B6C000C15F3FECF3983EDCF3FA
:2036E000869577956795B795F7959F5FC9F7880F911D9695879597F90895E1E0660F771F8C
:20370000881FBB1F621773078407BA0720F0621B730B840BBA0BEE1F88F7E095089504D018
:203720006894B111D9C00895BCD088F09F5790F0B92F9927B751A0F0D1F0660F771F881F68
:20374000991F1AF0BA95C9F712C0B13081F0C3D0B1E00895C0C0672F782F8827B85F39F007
:20376000B93FCCF3869577956795B395D9F73EF490958095709561957F4F8F4F9F4F0895B9
:20378000E89409C097FB3EF490958095709561957F4F8F4F9F4F9923A9F0F92F96E9BB2773
:2037A0009395F695879577956795B795F111F8CFFAF4BB0F11F460FF1BC06F5F7F4F8F4FAC
:2037C0009F4F16C0882311F096E911C0772321F09EE8872F762F05C0662371F096E8862FBB
:2037E00070E060E02AF09A95660F771F881FDAF7880F9695879597F90895990F0008550F4E
:20380000AA0BE0E8FEEF16161706E807F907C0F012161306E407F50798F0621B730B840B1C
:20382000950B39F40A2661F0232B242B252B21F408950A2609F4A140A6958FEF811D811D98
:20384000089597F99F6780E870E060E008959FEF80EC089500240A941616170618060906D1
:20386000089500240A9412161306140605060895092E0394000C11F4882352F0BB0F40F41C
:20388000BF2B11F460FF04C06F5F7F4F8F4F9F4F089557FD9058440F551F59F05F3F71F0C6
:2038A0004795880F97FB991F61F09F3F79F087950895121613061406551FF2CF4695F1DFBF
:2038C00008C0161617061806991FF1CF86957105610508940895E894BB2766277727CB01BC
:2038E00097F908958ADF08F48FEF08950BD0C0CFB1DF28F0B6DF18F0952309F0A2CFA7CFD4
:203900001124EACFC6DFA0F3959FD1F3950F50E0551F629FF001729FBB27F00DB11D639F8F
:20392000AA27F00DB11DAA1F649F6627B00DA11D661F829F2227B00DA11D621F739FB00D5D
:20394000A11D621F839FA00D611D221F749F3327A00D611D231F849F600D211D822F762F9C
:203960006A2F11249F5750408AF0E1F088234AF0EE0FFF1FBB1F661F771F881F915050409B
:20398000A9F79E3F510570F05CCFA6CF5F3FECF3983EDCF3869577956795B795F795E795BB
:2039A0009F5FC1F7FE2B880F911D9695879597F9089597FB072E16F4009406D077FD08D0E8
:2039C00037D007FC05D03EF4909581959F4F0895709561957F4F0895A1E21A2EAA1BBB1B44
:2039E000FD010DC0AA1FBB1FEE1FFF1FA217B307E407F50720F0A21BB30BE40BF50B661FD5
:203A0000771F881F991F1A9469F760957095809590959B01AC01BD01CF0108951DD0A59FCA
:203A2000900DB49F900DA49F800D911D11240895AA1BBB1B51E107C0AA1FBB1FA617B707F7
:203A400010F0A61BB70B881F991F5A95A9F780959095BC01CD010895A29FB001B39FC0018E
:203A6000A39F700D811D1124911DB29F700D811D1124911D0895EF920F931F93CF93DF9371
:203A8000E80147FD02C034E001C034E1042E000C550B57FF03C0519541955109E32E022F3E
:203AA000242FAE012AD0CE01DF91CF911F910F91EF900895BB274A3031F4992322F4BDE20D
:203AC000909581959F4F01C0BB27FB015527AA27880F991FAA1FA41710F0A41B8395505186
:203AE000B9F7A05DAA3308F0A95DA193009779F7B111B1931192CB0148C28F929F92AF92F1
:203B0000BF92CF92DF92EF92FF920F931F93CF93DF93CDB7DEB72997CDBFDEBF6A01122F9A
:203B2000B02E2BE3201720F0FF24F394F00E02C02CE3F22E0F2D27E0AE014F5F5F4F4DD14D
:203B4000BC014981842F8970813031F0E1FC06C0E0FE06C090E205C09DE203C09BE201C062
:203B600090E05E2D507143FF3CC0911102C083E001C084E0811718F4212F281B01C020E067
:203B800051110BC0F601822F30E2882319F031938150FBCFC20ED11C20E0992329F0D601C2
:203BA0009C93F60131966F01C6010396E2FE0AC03EE4D6013C9341E411964C9311971296DB
:203BC0003C9306C03EE6F601308341E641833283FC01322F40E2332309F442C041933150B8
:203BE000FACF42FF44C0911102C083E001C084E0811718F4212F281B01C020E051110BC0A6
:203C0000F601822F30E2882319F031938150FBCFC20ED11C20E0992329F0D6019C93F60148
:203C200031966F01C6010396E2FE0BC039E4D6013C933EE411963C93119736E412963C93AE
:203C400007C039E6F60130833EE6318336E63283FC01322F40E2332319F041933150FBCF2D
:203C6000FC01E20FF11D10828EEF9FEFA6C021E030E0911102C020E030E0161617061CF467
:203C8000FB01319602C0E1E0F0E02E0F3F1FBB2021F0EB2DF0E0319602C0E0E0F0E02E0F49
:203CA0003F1FE12FF0E02E173F071CF4121B212F01C020E08E2D887159F4F601822F30E232
:203CC000882319F031938150FBCFC20ED11C20E0992329F0D6019C93F60131966F015111A9
:203CE0000BC0F601822F90E3882319F091938150FBCFC20ED11C20E00F2D060F9A81342FDF
:203D0000307144FF03C0913309F40150101624F4093018F008E001C001E0AB0177FF02C0FD
:203D200040E050E0FB01E41BF50BA1E0B0E0AC0FBD1FEA0FFB1F8EE2A82E4B01801A9108B8
:203D40000B2D10E01195019511094F3FBFEF5B0721F4D601AC9211966D01641775072CF0F5
:203D60008416950614F4818101C080E3415051093196D60111967D014017510724F0D60198
:203D80008C936701E2CF6417750739F4963320F4953319F4311101C081E3F6018083F701BC
:203DA000822F90E2882319F091938150FBCFF701E20FF11D108280E090E02996CDBFDEBF2C
:203DC000DF91CF911F910F91FF90EF90DF90CF90BF90AF909F908F900895283008F027E017
:203DE0003327DA01990F311D87FD916000966105710539F432602E5F3D9330E32A95E1F7EB
:203E000008959F3F30F080387105610509F03C5F3C5F3D93913008F08068911DDF93CF9351
:203E20001F930F93FF92EF92192F987F9695E92F96959695E90FFF27E25BFD4F9927332763
:203E4000EE24FF24A701E70105900894079428F4360FE71EF81E491F511D660F771F881FCD
:203E6000991F0694A1F70590079428F4E70EF81E491F561FC11D770F881F991F661F069442
:203E8000A1F70590079428F4F80E491F561FC71FD11D880F991F661F771F0694A1F7059056
:203EA000079420F4490F561FC71FD81F990F661F771F881F0694A9F784911095177041F093
:203EC000D695C79557954795F794E7941A95C1F7E4EFF1E068941590159135916591959119
:203EE00005907FE27395E118F10A430B560BC90BD009C0F7E10CF11E431F561FC91FD01D15
:203F00007EF4703311F48A95E6CFE894015030F0080F0AF40027021708F4202F2395022F3D
:203F20007A3328F079E37D932A95E9F710C07D932A9589F6069497956795379517951794AE
:203F4000E118F10A430B560BC90BD00998F023957E9173957A3308F070E37C932013B8F7D1
:203F60007E9170617D9330F0839571E37D9370E32A95E1F71124EF90FF900F911F91CF91D8
:203F8000DF91992787FD90950895DC01FC01672F71917723E1F7329704C07C916D9370833A
:203FA0006291AE17BF07C8F30895F894FFCF90068B06D0030C04496E76616C696420666911
:203FC0006C654E616D652E2E0046696C6520646F6573206E6F742065786973742100446560
:203FE0006C6574696E672E2E0046696C652064656C65746564210046494C4500444952202B
:204000007C20524F4F54004572726F7220696E2067657474696E6720636C7573746572008B
:2040200053442063617264206E6F742064657465637465642E2E202020202020004361722A
:204040006420496E697469616C697A6174696F6E206661696C65642E2E00464154333220D3
:204060006E6F7420666F756E6421004641543332206F7074696F6E732064697361626C6532
:2040800064210073642E6300556E6B6E6F776E2053442043617264204465746563746564B0
:2040A0002120202020200050726F6772616D20746573746F7779004461726975737A6120C5
:2040C00050727A6570696F7279004C6164756A6520202020004E6965206C6164756A650086
:1A40E0005445535420414343454C455241544F524100202020202020200020
:00000001FF
