:1000000076C1000099C1000097C1000095C10000B1
:1000100093C1000091C100008FC100008DC100009C
:100020008BC1000089C10000FFC3000085C1000032
:1000300083C1000081C1000091C300007DC10000A8
:100040007BC1000079C1000077C1000075C10000CC
:1000500073C1000071C100006FC100006DC10000DC
:100060006BC100000C946A0A0C94AF0A65C10000D1
:1000700063C1000061C100005FC100005DC10000FC
:100080005BC1000059C1000057C1000055C100000C
:1000900053C1000051C100004FC100004EC100001B
:1000A00080C10000ABC10000D6C1000045C1000006
:1000B00043C1000041C100003FC100003DC100003C
:1000C0003BC1000039C1000037C1000035C100004C
:1000D00033C1000031C100002FC100002DC100005C
:1000E0002BC1000029C100000C94E90A0C942A0BD2
:1000F00023C1000021C100001FC100001DC100007C
:100100001BC1000019C1000017C1000015C100008B
:1001100013C1000011C100000FC10000B6C10000F2
:10012000DCC1000007C2000032C2000005C10000AF
:1001300003C1000001C10000FFC00000FDC00000BD
:10014000FBC00000F9C00000F7C00000F5C00000CF
:10015000F3C00000F1C00000EFC00000EDC00000DF
:10016000EBC00000E9C00000E7C00000E5C00000EF
:10017000E3C00000E1C00000DFC00000DDC00000FF
:10018000DBC00000D9C00000D7C00000D5C000000F
:10019000D3C00000D1C00000CFC00000CDC000001F
:1001A000CBC00000C9C00000C7C00000C5C000002F
:1001B000C3C00000C1C00000BFC00000BDC000003F
:1001C000BBC00000B9C00000B7C00000B5C000004F
:1001D000B3C00000B1C00000AFC00000ADC000005F
:1001E000ABC00000A9C000000C949E0B0C94640BE3
:1001F000A3C0000000407A10F35A00A0724E180904
:100200000010A5D4E80000E87648170000E40B547D
:10021000020000CA9A3B000000E1F505000080964C
:100220009800000040420F000000A086010000007E
:10023000102700000000E803000000006400000038
:1002400000000A00000000000100000000002C7601
:10025000D888DC674F0823DFC1DFAE59E1B1B7961C
:10026000E5E3E453C63AE651997696E8E6C2842679
:10027000EB898C9B62ED407C6FFCEFBC9C9F40F255
:10028000BAA56FA5F490055A2AF75C936B6CF967D1
:100290006DC11BFCE0E40D47FEF520E6B500D0ED96
:1002A000902E0300943577050080841E08000020FE
:1002B0004E0A000000C80C333333330F986E12839C
:1002C0001141EF8D2114893BE65516CFFEE6DB1870
:1002D000D1844B381BF77C1D901DA4BBE424203235
:1002E00084725E228100C9F124ECA1E53D2711242E
:1002F0001FBECFEFCDBFDFE3DEBF00E00CBF18BEF7
:1003000019BE1ABE1BBE11E2A0E0B0E2E0E8F1E2C5
:1003100000E00BBF02C007900D92A631B107D9F7DC
:100320001BBE24E2A6E1B1E201C01D92A939B207C9
:10033000E1F7C6D60C94BE1063CE1F920F920FB693
:100340000F92112408B60F9218BE0BB60F921BBE67
:100350002F933F938F939F93EF93FF93E0E6F2E009
:1003600081E083838481958180939124909392246A
:1003700022E030E0209397243093982480939324B4
:1003800090939424FF91EF919F918F913F912F91A2
:100390000F900BBE0F9008BE0F900FBE0F901F90D6
:1003A00018951F920F920FB60F92112408B60F9254
:1003B00018BE0BB60F921BBE8F939F93EF93FF93C4
:1003C000E8E6F2E081E083838383848195818093F2
:1003D0008F249093902487E090E0809397249093CB
:1003E0009824FF91EF919F918F910F900BBE0F90EA
:1003F00008BE0F900FBE0F901F9018951F920F927E
:100400000FB60F92112408B60F9218BE0BB60F92BA
:100410001BBE8F939F93EF93FF93E0E7F2E081E0A1
:10042000838383838481958180938D2490938E240C
:1004300086E090E08093972490939824FF91EF9129
:100440009F918F910F900BBE0F9008BE0F900FBE23
:100450000F901F9018951F920F920FB60F921124B4
:1004600008B60F9218BE8F939F938091822490E0DC
:1004700080938B2490938C249F918F910F9008BE32
:100480000F900FBE0F901F9018951F920F920FB6EE
:100490000F92112408B60F9218BE2F938F939F933B
:1004A000809112029091130220918124821B910964
:1004B00080939124909392248091822490E0809361
:1004C000892490938A249F918F912F910F9008BE39
:1004D0000F900FBE0F901F9018951F920F920FB69E
:1004E0000F92112408B60F9218BE0BB60F921BBEC6
:1004F0008F939F93EF93FF93E8E2F2E081E0838391
:10050000838384819581809387249093882483E0DA
:1005100090E08093972490939824FF91EF919F917E
:100520008F910F900BBE0F9008BE0F900FBE0F90D3
:100530001F9018951F920F920FB60F92112408B6B4
:100540000F9218BE0BB60F921BBE8F939F93EF9323
:10055000FF93E0E3F2E081E08383838384819581EC
:10056000809385249093862485E090E0809397245F
:1005700090939824FF91EF919F918F910F900BBED4
:100580000F9008BE0F900FBE0F901F9018951F92EE
:100590000F920FB60F92112408B60F9218BE0BB629
:1005A0000F921BBE8F939F93EF93FF93E8E3F2E0CC
:1005B00081E0838384819581809383249093842434
:1005C00081E090E08093972490939824FF91EF919D
:1005D0009F918F910F900BBE0F9008BE0F900FBE92
:1005E0000F901F90189582E08093500087E893E168
:1005F0000197F1F700C0000088ED84BF81E080938F
:1006000040000895E2EAF0E0808181608083E1E0CB
:10061000F4E0808180FDFDCF8FEF93E080930A04AA
:1006200090930B0481E080930004E2E0F4E0808189
:100630008160808385E0809343000895CF93DF93AA
:10064000D2DF109211061092120640E056E0EA0145
:1006500088818B7F888388818D7F88838881877F4D
:100660008883A0E0B7E08C918F7B8C93E0ECF7E07F
:1006700080818C608083E4ECF7E0808184608083FB
:100680008081877F8083E0E4F6E080818F7B8083B8
:100690008081806A808380EE96E0FC012081206763
:1006A0002083E0EAF6E0208120622083E0E2F6E0A9
:1006B000208120682083248120682483EC012C8100
:1006C00020642C832C8120622C832C812F7E2C8310
:1006D00080818160808384818E7F84838081826039
:1006E000808384818D7F84838C9180648C938C91B2
:1006F00080628C938C9181608C938C9182608C93BE
:100700008C9188608C938C9184608C9380818E7F97
:10071000808380818D7F808380818B7F8083109216
:1007200030061092310610923206FA018081877FDE
:10073000808310921306E0E0F8E0108282E080836C
:1007400081E0868385E08093A20084EB90E086A31D
:1007500097A358DF7894DF91CF9108951F920F925D
:100760000FB60F92112408B60F9218BE0BB60F9257
:100770001BBE8F939F93EF93FF93809100209091E6
:100780000120809326089093270880916D249091F2
:100790006E240197D9F48091712490917224892B51
:1007A00061F4E0E0F7E084818160848381E090E09F
:1007B000809371249093722409C0E0E0F7E0848173
:1007C0008E7F8483109271241092722480916B2406
:1007D00090916C240197D9F480916F2490917024AA
:1007E000892B61F4E0E0F7E084818260848381E01A
:1007F00090E080936F249093702409C0E0E0F7E0CC
:1008000084818D7F848310926F2410927024FF91D5
:10081000EF919F918F910F900BBE0F9008BE0F909C
:100820000FBE0F901F9018951F920F920FB60F9248
:10083000112408B60F9218BE2F933F934F935F93E6
:100840006F937F938F939F938091752490917624DB
:10085000019680937524909376242091952430916D
:10086000962421303105A9F44091002050910120B7
:1008700060910220709103204F5F5F4F6F4F7F4F59
:100880004093002050930120609302207093032036
:1008900017C022303105A1F4409100205091012071
:1008A0006091022070910320415051096109710942
:1008B0004093002050930120609302207093032006
:1008C00040910020509101206091022070910320FE
:1008D0004D3D5F4F6105710560F044EB50E060E015
:1008E00070E04093002050930120609302207093A9
:1008F000032020917324309174242F5F3F4F209365
:100900007324309374240A9709F060C0809177248F
:100910009091782401968093772490937824109274
:10092000752410927624069709F050C0809179249E
:1009300090917A2401968093792490937A2410924E
:100940007724109278240A9769F480917B249091FF
:100950007C24019680937B2490937C2410927924AC
:1009600010927A2480917B2490917C24069771F5D3
:1009700080917D2490917E24019680937D24909394
:100980007E2410927B2410927C248A30910571F48D
:1009900080917F2490918024019680937F2490936E
:1009A000802410927D2410927E2410C0049771F44C
:1009B00080917F2490918024029741F410927F24AB
:1009C0001092802410927D2410927E249F918F910A
:1009D0007F916F915F914F913F912F910F9008BE42
:1009E0000F900FBE0F901F901895181619066CF4F3
:1009F00020E030E0E3EDF0E33197F1F700C00000D4
:100A00002F5F3F4F82179307A9F70895FC01958543
:100A100026859F5F937081E0921301C080E0089566
:100A20001F93CF93DF93EC01162FF0DF882379F02B
:100A30009D85FE01E90FF11D17839F5F93709D87D0
:100A4000E881F98193819C7F2A81922B9383DF91A6
:100A5000CF911F910895FC0196858585981307C055
:100A60000190F081E02D83818C7F838308958685BA
:100A7000DF01A80FB11D17968C91A081B1818C93D5
:100A800086858F5F837086870895CF92DF92EF927D
:100A9000FF920F931F93CF93DF936C018B017A0129
:100AA000452B41F4FC0101900020E9F731977F01CB
:100AB000E81AF90A1E141F0484F5C0E0D0E003C050
:100AC000CE15DF0554F5F601EC0FFD1F60818CE4B7
:100AD00094E2A6DF8823A1F32196F2CF1C161D060F
:100AE00034F410161106E4F480E090E008C06DE0E4
:100AF0008CE494E295DF882389F32196EFCF2FE9E8
:100B000036E841E0215030404040E1F700C00000AD
:100B100001960817190799F703C0C0E0D0E0E7CFA6
:100B2000DF91CF911F910F91FF90EF90DF90CF90C9
:100B30000895CF92DF92EF92FF920F931F93CF937E
:100B4000DF936C018B017A01452B41F4FC0101908C
:100B50000020E9F731977F01E81AF90A1E141F04F3
:100B60000CF03DC0C0E0D0E003C0CE15DF05BCF501
:100B7000F601EC0FFD1F60818DE394E251DF8823C5
:100B8000A1F32196F2CF1C161D068CF06DE08DE3CB
:100B900094E246DF8823B9F32196F5CF1C161D0693
:100BA00044F410161106F4F480E090E00AC0C0E0AE
:100BB000D0E06AE08DE394E233DF882379F3219675
:100BC000EDCF2FE936E841E0215030404040E1F7D9
:100BD00000C0000001960817190799F703C0C0E08C
:100BE000D0E0D4CFDF91CF911F910F91FF90EF9084
:100BF000DF90CF9008950F931F93CF93DF939C01C5
:100C0000E0E8F6E098E0918384E08283E0EAF6E0B1
:100C1000A0E8A183A0E4A283E0E4F6E091838283CC
:100C20008FEF80930107ECE4F4E200EB1BE000831C
:100C3000118381E082831486138616861586EDE380
:100C4000F4E2C0EAD8E0C083D1838283148613869D
:100C500016861586EEE2F4E2A0EABAE0A083B1833C
:100C60008283148613861686158683E0F8018583B1
:100C70008D8315968C93159783818F7C80618383F8
:100C80009B819F7C90619B8313969C9113979F7C83
:100C9000906113969C9341305105B9F4E4EBFBE06D
:100CA00080818083E0EBFBE081E18683178283E033
:100CB0008093B50BE0914C24F0914D2484818061A8
:100CC000848384818860848308C0E0EBFBE08481B6
:100CD0008F7E84838481877F848321303105B9F4BA
:100CE000E4EAF8E080818083E0EAF8E081E186834D
:100CF000178283E08093A508E0913D24F0913E2483
:100D00008481806184838481886084830AC0E091C7
:100D10003D24F0913E2484818F7E84838481877F6B
:100D2000848361307105C1F4E4EAFAE08081808354
:100D3000E0EAFAE08CE0868380E3878383E08093B7
:100D4000A50AE0912E24F0912F2484818061848370
:100D50008481886084830AC0E0912E24F0912F243E
:100D600084818F7E84838481877F8483DF91CF9188
:100D70001F910F910895CF93DF9388EB9BE035DEB1
:100D8000C0E0D7E08C8180618C8340E050E061E07E
:100D900070E087E090E2CDDE8C8184608C8340E05F
:100DA00050E061E070E086E190E2C3DE88EB9BE01A
:100DB0001CDE8C8188608C8340E050E061E070E054
:100DC00089E290E2B6DE88EB9BE00FDE80EA9FE0EE
:100DD000A0E0B0E08093002090930120A093022037
:100DE000B093032081E090E080936D2490936E2473
:100DF00010926B2410926C2488EE93E0F6DD8C81C7
:100E00008F7E8C8340E050E061E070E08CE390E204
:100E100090DE88EE93E0E9DD8C81877F8C8340E073
:100E200050E061E070E08BE490E283DE88EB9BE0D1
:100E3000DCDD88EB9BE0D9DD88EB9BE0D6DD8C81A7
:100E40008B7F8C8310926D2410926E2440E050E0D2
:100E500061E070E08EE590E26CDEDF91CF91089565
:100E6000CF93DF9388EB9BE0C0DDC0E0D7E08C81BF
:100E70008F7E8C8340E050E061E070E08CE390E294
:100E800058DE8C8184608C8340E050E061E070E04B
:100E900086E190E24EDE88EB9BE0A7DD8C818860E6
:100EA0008C8340E050E061E070E089E290E241DE56
:100EB00088EB9BE09ADD80EA9FE0A0E0B0E08093C1
:100EC000002090930120A0930220B093032081E0A2
:100ED00090E080936B2490936C2480936D24909386
:100EE0006E2440E050E061E070E08FE690E221DEA9
:100EF00040E050E061E070E080E890E21ADE88EEC9
:100F000093E073DD8C8180628C8340E050E061E08F
:100F100070E081E990E20DDE88EE93E066DD8C8181
:100F200080688C8340E050E061E070E083EA90E20A
:100F300000DE8C8180648C8340E050E061E070E0F2
:100F400083EB90E2F6DD88EE93E04FDD88EE93E0F0
:100F50004CDD88EE93E049DD8C81877F8C8340E017
:100F600050E061E070E08BE490E2E3DD80E797E140
:100F7000A0E0B0E08093002090930120A093022095
:100F8000B093032040E050E061E070E08FEC90E22D
:100F9000D0DD88EB9BE029DD88E893E1A0E0B0E0BC
:100FA0008093002090930120A0930220B09303200F
:100FB00040E050E061E070E08FEC90E2BADD88EB59
:100FC0009BE013DD8CEA9DE0A0E0B0E08093002080
:100FD00090930120A0930220B093032040E050E0C2
:100FE00061E070E08FEC90E2A4DD88EB9BE0FDDC3B
:100FF00088EB9BE0A0E0B0E080930020909301207C
:10100000A0930220B093032040E050E061E070E044
:1010100080EE90E28EDD88EB9BE0E7DC88EB9BE0E6
:10102000E4DC88EB9BE0E1DC88EB9BE0DEDC8C81A0
:101030008B7F8C838C818F7D8C8310926B2410929C
:101040006C2410926D2410926E248C818F778C8387
:101050008C818F7B8C8340E050E061E070E08EE516
:1010600090E267DDDF91CF910895E0E0F7E08481C1
:1010700080618483848184608483848188608483A4
:101080008CEA9DE0A0E0B0E08093002090930120E6
:10109000A0930220B093032081E090E080936B2422
:1010A00090936C2480936D2490936E24848180624D
:1010B00084838481806884838481806484830895A8
:1010C000CF93DF93CDB7DEB7C257D140CDBFDEBFE0
:1010D00010926D2410926E2410926B2410926C2446
:1010E00088EB9BE0A0E0B0E080930020909301208B
:1010F000A0930220B093032081E090E08093972496
:1011000090939824109226241092272441E050E0D6
:1011100061E070E070DD92DA85E0EBE7F0E2DE019D
:10112000DD9601900D928A95E1F710929524109228
:10113000962460916724709168248091692490912D
:101140006A2460935F247093602480936124909359
:1011500062241092672410926824109269241092DD
:101160006A240091632410916424209165243091B5
:10117000662400935B2410935C2420935D243093B9
:101180005E241092632410926424109265241092BD
:101190006624D3D3DC01CB014AE050E0BE016F5F8F
:1011A0007F4F5FD560915B2470915C2480915D24BA
:1011B00090915E24C2D3DC01CB014AE050E0BE0135
:1011C0006B5E7F4F4ED54AE050E0BE01675D7F4FBA
:1011D000809100209091012044D5BE01675D7F4F32
:1011E000CE01855A9F4F36D5609100207091012025
:1011F0008091022090910320D1D320E030E040E89C
:1012000050E47ED49B01AC0160E070E08AEF9BE487
:101210002CD34B015C0191D3DC01CB014AE050E0BF
:10122000BE01655B7E4F1DD58091262490912724B9
:10123000019709F09CC040E050E061E070E088E870
:1012400092E277DC40E050E061E070E084E090E220
:1012500070DC109226241092272410922C241092D5
:101260002D2400E010E0E12CF12C412C512C320116
:101270006894CC24C1F8D12CF801E857FD4D808149
:10128000813409F068C0F801E857FD4D818184354B
:10129000C1F5F801E857FD4D8381833529F410929B
:1012A0009524109296240FC0843439F481E090E0A4
:1012B000809395249093962406C0893421F4C0929B
:1012C0009524D09296240B5F1F4FF801E857FD4DEF
:1012D000DE01DD9603C0EE24E394F12C81918D9321
:1012E0000F5F1F4F80818B3331F0803221F081E01E
:1012F000E816F10499F70E3B11056CF3EE24E39424
:10130000F12CECE3F0E0EC0FFD1FE00FF11F108279
:10131000CE01CD9677D4BC01990F880B990B3ED3A3
:1013200020E030E040E850E4EBD39B01AC0160E00A
:1013300070E08AEF9BE499D22B013C01FED2CB01F5
:10134000770FAA0BBB0B8093002090930120A093F2
:101350000220B09303200F5F1F4F0E3B11050CF4CA
:101360008BCFE1E0EE16F10409F086CF03C0412CEB
:10137000512C32017E01FBE5EF0EF11CD7010D90DF
:101380000020E9F7119788E0E1EFF0E201900D927B
:101390008A95E1F7D7010D900020E9F711978AE0CF
:1013A000E9EFF0E201900D928A95E1F78E01055B7D
:1013B0001E4F23E04CE0C501B40105D4B801C701BC
:1013C0003ED4D7010D900020E9F7119788E0E1EFB6
:1013D000F0E201900D928A95E1F7CE01CD9612D4FC
:1013E000BC01990F880B990BDBD223E04CE0EBD3C7
:1013F000B801C70124D4D7010D900020E9F7119757
:1014000089E0E3E0F1E201900D928A95E1F721E0B5
:1014100048E0C301B201D7D3B801C70110D4D70146
:101420000D900020E9F711978AE0ECE0F1E20190DD
:101430000D928A95E1F77E0183EDE80EF11C81E4BF
:1014400094E5F701808391838FE590E08283938315
:1014500023E045E0C501B401B6D3B801C701EFD31D
:10146000F70101900020E9F731978DE29FE4808336
:1014700091838BE490E0828393836091002070914C
:101480000120809102209091032088D220E030E05A
:10149000A901E7D1882371F040E050E061E070E0FD
:1014A000CE01855A9F4F45DB40E050E061E070E09F
:1014B000C701EBDA88EB9BE098DA88EB9BE095DAE2
:1014C0005ADC88EB9BE091DA88EB9BE08EDAC8DC93
:1014D000CCDDFFCF1F920F920FB60F92112408B6EA
:1014E0000F9218BE0BB60F921BBE2F933F938F9394
:1014F0009F93EF93FF9381E090E080931824909363
:10150000192480912C2490912D242091A008FC0175
:10151000E857FD4D20832B3331F421E030E0209358
:101520002624309327248E3B91052CF010922C24F6
:1015300010922D2405C0019680932C2490932D2485
:10154000FF91EF919F918F913F912F910F900BBE43
:101550000F9008BE0F900FBE0F901F9018951F920E
:101560000F920FB60F92112408B60F9218BE09B64B
:101570000F9219BE0BB60F921BBE2F933F934F9342
:101580005F936F937F938F939F93AF93BF93EF93EB
:10159000FF9381E090E080932824909329248DE3A9
:1015A00094E259DAFF91EF91BF91AF919F918F91A2
:1015B0007F916F915F914F913F912F910F900BBE53
:1015C0000F9009BE0F9008BE0F900FBE0F901F9096
:1015D00018951F920F920FB60F92112408B60F9212
:1015E00018BE0BB60F921BBE2F938F939F93EF9352
:1015F000FF9381E090E080931824909319248091C8
:101600002A2490912B242091A00AFC01E05BFC4D40
:1016100020838E3B91055CF081E090E0809328244C
:101620009093292410922A2410922B2405C001960D
:1016300080932A2490932B24FF91EF919F918F9177
:101640002F910F900BBE0F9008BE0F900FBE0F9002
:101650001F9018951F920F920FB60F92112408B683
:101660000F9218BE09B60F9219BE0BB60F921BBE91
:101670002F933F934F935F936F937F938F939F939A
:10168000AF93BF93EF93FF9381E090E08093282482
:10169000909329248EE294E2DED9FF91EF91BF91DD
:1016A000AF919F918F917F916F915F914F913F91FA
:1016B0002F910F900BBE0F9009BE0F9008BE0F9098
:1016C0000FBE0F901F9018951F920F920FB60F929A
:1016D000112408B60F9218BE09B60F9219BE0BB6A8
:1016E0000F921BBE2F933F934F935F936F937F9304
:1016F0008F939F93AF93BF93EF93FF9381E090E01D
:1017000080932824909329248CE494E2A4D9FF9117
:10171000EF91BF91AF919F918F917F916F915F9169
:101720004F913F912F910F900BBE0F9009BE0F90DC
:1017300008BE0F900FBE0F901F9018951F920F922A
:101740000FB60F92112408B60F9218BE0BB60F9267
:101750001BBE2F933F934F935F938F939F93EF9372
:10176000FF9380912424909125242091B00BFC01BB
:10177000E054FE4D20832535E1F420912224309160
:101780002324232BA9F525E52093162121E030E021
:10179000209322243093232410921E2410921F247D
:1017A00010921C2410921D2410921A2410921B24B3
:1017B00034C040912224509123244115510569F1F0
:1017C0004130510559F42A3A41F52093172122E07E
:1017D00030E020932224309323241FC0FA01E559DE
:1017E000FE4D20834F5F5F4F40932224509323246C
:1017F00020912224309123242135310574F021E0F9
:1018000030E020931E2430931F2410922224109243
:10181000232420931C2430931D24863C91055CF0E6
:1018200081E090E08093202490932124109224243E
:101830001092252405C0019680932424909325249A
:10184000FF91EF919F918F915F914F913F912F91D8
:101850000F900BBE0F9008BE0F900FBE0F901F9001
:101860001895D9D008F481E008950CD00FC107D1A4
:1018700040F0FED030F021F45F3F19F0F0C051117C
:1018800039C1F3C014D198F39923C9F35523B1F3A7
:10189000951B550BBB27AA2762177307840738F0DF
:1018A0009F5F5F4F220F331F441FAA1FA9F333D03E
:1018B0000E2E3AF0E0E830D091505040E695001CF2
:1018C000CAF729D0FE2F27D0660F771F881FBB1FAE
:1018D000261737074807AB07B0E809F0BB0B802D88
:1018E000BF01FF2793585F4F2AF09E3F510568F0D4
:1018F000B6C000C15F3FECF3983EDCF38695779568
:101900006795B795F7959F5FC9F7880F911D9695D5
:10191000879597F90895E1E0660F771F881FBB1F31
:10192000621773078407BA0720F0621B730B840BDE
:10193000BA0BEE1F88F7E095089504D06894B111B2
:10194000D9C00895BCD088F09F5790F0B92F99273F
:10195000B751A0F0D1F0660F771F881F991F1AF0BA
:10196000BA95C9F712C0B13081F0C3D0B1E0089583
:10197000C0C0672F782F8827B85F39F0B93FCCF304
:10198000869577956795B395D9F73EF490958095B0
:10199000709561957F4F8F4F9F4F0895E89409C0D0
:1019A00097FB3EF490958095709561957F4F8F4F92
:1019B0009F4F9923A9F0F92F96E9BB279395F695A8
:1019C000879577956795B795F111F8CFFAF4BB0F26
:1019D00011F460FF1BC06F5F7F4F8F4F9F4F16C08A
:1019E000882311F096E911C0772321F09EE8872F14
:1019F000762F05C0662371F096E8862F70E060E0D0
:101A00002AF09A95660F771F881FDAF7880F969548
:101A1000879597F90895990F0008550FAA0BE0E8EC
:101A2000FEEF16161706E807F907C0F012161306A0
:101A3000E407F50798F0621B730B840B950B39F4E0
:101A40000A2661F0232B242B252B21F408950A2646
:101A500009F4A140A6958FEF811D811D089597F986
:101A60009F6780E870E060E008959FEF80EC089544
:101A700000240A941616170618060906089500246D
:101A80000A9412161306140605060895092E0394E7
:101A9000000C11F4882352F0BB0F40F4BF2B11F45B
:101AA00060FF04C06F5F7F4F8F4F9F4F089557FDBA
:101AB0009058440F551F59F05F3F71F04795880FBC
:101AC00097FB991F61F09F3F79F087950895121653
:101AD00013061406551FF2CF4695F1DF08C01616FF
:101AE00017061806991FF1CF8695710561050894B0
:101AF0000895E894BB2766277727CB0197F90895C7
:101B00000BD0C4CFB5DF28F0BADF18F0952309F069
:101B1000A6CFABCF1124EECFCADFA0F3959FD1F3B0
:101B2000950F50E0551F629FF001729FBB27F00D8B
:101B3000B11D639FAA27F00DB11DAA1F649F6627E0
:101B4000B00DA11D661F829F2227B00DA11D621F2F
:101B5000739FB00DA11D621F839FA00D611D221FE9
:101B6000749F3327A00D611D231F849F600D211DCD
:101B7000822F762F6A2F11249F5750408AF0E1F070
:101B800088234AF0EE0FFF1FBB1F661F771F881FB9
:101B900091505040A9F79E3F510570F060CFAACFF9
:101BA0005F3FECF3983EDCF3869577956795B795A4
:101BB000F795E7959F5FC1F7FE2B880F911D9695CE
:101BC000879597F90895EF920F931F93CF93DF9323
:101BD000E80147FD02C034E001C034E1042E000CEE
:101BE000550B57FF03C0519541955109E32E022F24
:101BF000242FAE016BD0CE01DF91CF911F910F91B9
:101C0000EF900895FC0188279927E89421912032CC
:101C1000E9F3293010F02E30C8F32B3239F02D3291
:101C200031F4689403C031D0820F911D219120536B
:101C30002A30C8F31EF4909581959F4F0895FB01BB
:101C4000DC010D900020E9F7119701900D92002022
:101C5000E1F70895FB01DC0101900D920020E1F70E
:101C600008954532510518F4423008F004C0FB01D4
:101C70001082CB010895BB274A3031F4992322F416
:101C8000BDE2909581959F4F09C07AE0979F902D76
:101C9000879F802D910D11240895BB27FB015527A7
:101CA000AA27880F991FAA1FA41710F0A41B8395B9
:101CB0005051B9F7A05DAA3308F0A95DA193009730
:101CC00079F7B111B1931192CB0148C28F929F92D3
:101CD000AF92BF92CF92DF92EF92FF920F931F933A
:101CE000CF93DF93CDB7DEB72997CDBFDEBF6A01B3
:101CF000122FB02E2BE3201720F0FF24F394F00EC8
:101D000002C02CE3F22E0F2D27E0AE014F5F5F4F94
:101D10004DD1BC014981842F8970813031F0E1FCC3
:101D200006C0E0FE06C090E205C09DE203C09BE253
:101D300001C090E05E2D507143FF3CC0911102C084
:101D400083E001C084E0811718F4212F281B01C013
:101D500020E051110BC0F601822F30E2882319F0E8
:101D600031938150FBCFC20ED11C20E0992329F082
:101D7000D6019C93F60131966F01C6010396E2FEEF
:101D80000AC03EE4D6013C9341E411964C9311976E
:101D900012963C9306C03EE6F601308341E641834D
:101DA0003283FC01322F40E2332309F442C04193D5
:101DB0003150FACF42FF44C0911102C083E001C00C
:101DC00084E0811718F4212F281B01C020E0511155
:101DD0000BC0F601822F30E2882319F03193815035
:101DE000FBCFC20ED11C20E0992329F0D6019C9391
:101DF000F60131966F01C6010396E2FE0BC039E48D
:101E0000D6013C933EE411963C93119736E412962A
:101E10003C9307C039E6F60130833EE6318336E66F
:101E20003283FC01322F40E2332319F041933150C9
:101E3000FBCFFC01E20FF11D10828EEF9FEFA6C0D9
:101E400021E030E0911102C020E030E016161706C4
:101E50001CF4FB01319602C0E1E0F0E02E0F3F1FC1
:101E6000BB2021F0EB2DF0E0319602C0E0E0F0E085
:101E70002E0F3F1FE12FF0E02E173F071CF4121B1F
:101E8000212F01C020E08E2D887159F4F601822F98
:101E900030E2882319F031938150FBCFC20ED11C60
:101EA00020E0992329F0D6019C93F60131966F0129
:101EB00051110BC0F601822F90E3882319F0919302
:101EC0008150FBCFC20ED11C20E00F2D060F9A814E
:101ED000342F307144FF03C0913309F401501016C0
:101EE00024F4093018F008E001C001E0AB0177FFED
:101EF00002C040E050E0FB01E41BF50BA1E0B0E0C4
:101F0000AC0FBD1FEA0FFB1F8EE2A82E4B01801AFB
:101F100091080B2D10E01195019511094F3FBFEF6E
:101F20005B0721F4D601AC9211966D016417750719
:101F30002CF08416950614F4818101C080E3415091
:101F400051093196D60111967D014017510724F0B1
:101F5000D6018C936701E2CF6417750739F4963385
:101F600020F4953319F4311101C081E3F601808327
:101F7000F701822F90E2882319F091938150FBCFD3
:101F8000F701E20FF11D108280E090E02996CDBFAD
:101F9000DEBFDF91CF911F910F91FF90EF90DF9007
:101FA000CF90BF90AF909F908F900895283008F009
:101FB00027E03327DA01990F311D87FD91600096E4
:101FC0006105710539F432602E5F3D9330E32A9547
:101FD000E1F708959F3F30F080387105610509F001
:101FE0003C5F3C5F3D93913008F08068911DDF932A
:101FF000CF931F930F93FF92EF92192F987F96958F
:10200000E92F96959695E90FFF27E25BFD4F9927FB
:102010003327EE24FF24A701E701059008940794D5
:1020200028F4360FE71EF81E491F511D660F771F53
:10203000881F991F0694A1F70590079428F4E70ECE
:10204000F81E491F561FC11D770F881F991F661F55
:102050000694A1F70590079428F4F80E491F561F1F
:10206000C71FD11D880F991F661F771F0694A1F700
:102070000590079420F4490F561FC71FD81F990FCA
:10208000661F771F881F0694A9F784911095177013
:1020900041F0D695C79557954795F794E7941A95CB
:1020A000C1F7E4EFF1E068941590159135916591D1
:1020B000959105907FE27395E118F10A430B560B59
:1020C000C90BD009C0F7E10CF11E431F561FC91FF1
:1020D000D01D7EF4703311F48A95E6CFE894015058
:1020E00030F0080F0AF40027021708F4202F239578
:1020F000022F7A3328F079E37D932A95E9F710C00F
:102100007D932A9589F60694979567953795179547
:102110001794E118F10A430B560BC90BD00998F03C
:1021200023957E9173957A3308F070E37C932013A6
:10213000B8F77E9170617D9330F0839571E37D9364
:1021400070E32A95E1F71124EF90FF900F911F9112
:10215000CF91DF91992787FD90950895DC01FC01CF
:10216000672F71917723E1F7329704C07C916D93CB
:1021700070836291AE17BF07C8F30895F894FFCF3C
:10218000B40000002000004F6C656A207A61B3B98A
:10219000637A6F6E790073746163796A6B61207A18
:1021A00061B361637A6F6E61005370727A65676CB8
:1021B0006F20776369736E69657465004F6C656A3B
:1021C000207779B3B9637A6F6E79005370727A654C
:1021D000676C6F207A776F6C6E696F6E65005369FC
:1021E0006C6E696B207779B3B9637A6F6E79004E44
:1021F0006F7765206F62726F7479203135303000EF
:1022000053696C6E696B207A61B3B9637A6F6E79CA
:102210000048616D756C6563207763699C6E69EA3F
:1022200074790055727563686F6D696F6E792034CB
:1022300057440055727563686F6D696F6E79206DD4
:102240006563682E2072F3BF6E69636F7779004E05
:102250006F7765206F62726F747920323837300083
:102260004E6F7765206F62726F7479203230303034
:102270000020203C3D3E2020002020665F78632027
:102280003D20002074657374203D200020665F525D
:102290005844203D2000FFFFFFFFFFFFFFFFFFFF2F
:1022A000FFFFFFFFFFFFFFFFFFFFFFFFFFFFFFFF3E
:1022B000FFFFFFFFFFFFFFFFFFFFFFFFFFFFFFFF2E
:1022C000FFFFFFFFFFFFFFFFFFFFFFFFFFFFFFFF1E
:1022D000FFFFFFFFFFFFFFFFFFFFFFFFFFFFFFFF0E
:1022E000FFFFFFFFFFFFFFFFFFFFFFFFFFFFFFFFFE
:1022F000FFFFFFFFFFFFFFFFFFFFFFFFFFFFFFFFEE
:10230000FFFFFFFFFFFFFFFFFFFFFFFFFFFFFFFFDD
:10231000FFFFFFFFFFFFFFFFFFFFFFFFFFFFFFFFCD
:10232000FFFFFFFFFFFFFFFFFFFFFFFFFFFFFFFFBD
:10233000FFFFFFFFFFFFFFFFFFFFFFFFFFFFFFFFAD
:10234000FFFFFFFFFFFFFFFFFFFFFFFFFFFFFFFF9D
:10235000FFFFFFFFFFFFFFFFFFFFFFFFFFFFFFFF8D
:10236000FFFFFFFFFFFFFFFFFFFFFFFFFFFFFFFF7D
:10237000FFFFFFFFFFFFFFFFFFFFFFFFFFFFFFFF6D
:10238000FFFFFFFFFFFFFFFFFFFFFFFFFFFFFFFF5D
:10239000FFFFFFFFFFFFFFFFFFFFFFFFFFFFFFFF4D
:1023A000FFFFFFFFFFFFFFFFFFFFFFFFFFFFFFFF3D
:1023B000FFFFFFFFFFFFFFFFFFFFFFFFFFFFFFFF2D
:1023C000FFFFFFFFFFFFFFFFFFFFFFFFFFFFFFFF1D
:1023D000FFFFFFFFFFFFFFFFFFFFFFFFFFFFFFFF0D
:1023E000FFFFFFFFFFFFFFFFFFFFFFFFFFFFFFFFFD
:1023F000FFFFFFFFFFFFFFFFFFFFFFFFFFFFFFFFED
:10240000747920313530300053696C6E696B207AF5
:1024100061B3B9637A6F6E790048616D756C6563FD
:10242000207763699C6E69EA7479005572756368F8
:102430006F6D696F6E79203457440055727563680B
:102440006F6D696F6E79206D6563682E2072F3BFC2
:102450006E69636F7779004E6F7765206F62726F78
:1024600074792032383730004E6F7765206F627292
:102470006F747920323030300020203C3D3E2020E7
:10248000002020665F7863203D200020746573740F
:10249000203D200020665F525844203D2000FFFF71
:1024A000FFFFFFFFFFFFFFFFFFFFFFFFFFFFFFFF3C
:1024B000FFFFFFFFFFFFFFFFFFFFFFFFFFFFFFFF2C
:1024C000FFFFFFFFFFFFFFFFFFFFFFFFFFFFFFFF1C
:1024D000FFFFFFFFFFFFFFFFFFFFFFFFFFFFFFFF0C
:1024E000FFFFFFFFFFFFFFFFFFFFFFFFFFFFFFFFFC
:1024F000FFFFFFFFFFFFFFFFFFFFFFFFFFFFFFFFEC
:10250000FFFFFFFFFFFFFFFFFFFFFFFFFFFFFFFFDB
:10251000FFFFFFFFFFFFFFFFFFFFFFFFFFFFFFFFCB
:10252000FFFFFFFFFFFFFFFFFFFFFFFFFFFFFFFFBB
:10253000FFFFFFFFFFFFFFFFFFFFFFFFFFFFFFFFAB
:10254000FFFFFFFFFFFFFFFFFFFFFFFFFFFFFFFF9B
:10255000FFFFFFFFFFFFFFFFFFFFFFFFFFFFFFFF8B
:10256000FFFFFFFFFFFFFFFFFFFFFFFFFFFFFFFF7B
:10257000FFFFFFFFFFFFFFFFFFFFFFFFFFFFFFFF6B
:10258000FFFFFFFFFFFFFFFFFFFFFFFFFFFFFFFF5B
:10259000FFFFFFFFFFFFFFFFFFFFFFFFFFFFFFFF4B
:1025A000FFFFFFFFFFFFFFFFFFFFFFFFFFFFFFFF3B
:1025B000FFFFFFFFFFFFFFFFFFFFFFFFFFFFFFFF2B
:1025C000FFFFFFFFFFFFFFFFFFFFFFFFFFFFFFFF1B
:1025D000FFFFFFFFFFFFFFFFFFFFFFFFFFFFFFFF0B
:1025E000FFFFFFFFFFFFFFFFFFFFFFFFFFFFFFFFFB
:1025F000FFFFFFFFFFFFFFFFFFFFFFFFFFFFFFFFEB
:10260000808310921206A4E0B6E08C918D7F8C93AB
:10261000E0E0F6E080818D7F8083109211068C913E
:102620008B7F8C9380818B7F808382E090E080938E
:1026300025239093262342C0809125239091262321
:10264000049749F482E090E00E949A0F10922523AB
:10265000109226234EC08091252390912623039724
:1026600069F5A4E0B6E08C918B7F8C93E0E0F6E016
:1026700080818B7F808322E136E0E9011882C4ECFF
:10268000D7E088818B7F8883888188608883E9018F
:1026900018828C918D7F8C9380818D7F80831092A6
:1026A00011068C918B7F8C9380818B7F808384E05B
:1026B00090E080932523909326232AC080912523A0
:1026C000909126230597A9F4E4E0F6E080818D7FC0
:1026D0008083E0E0F6E080818D7F80831092110698
:1026E00082E090E00E942C10109225231092262365
:1026F0001DC08091252390912623069749F481E0FF
:1027000090E00E942C1010922523109226230EC0D8
:102710008091252390912623079741F483E090E050
:102720000E949A0F1092252310922623809127232E
:1027300090912823059724F01092272310922823A4
:1027400080910323909104230A970CF46AC010929D
:10275000032310920423809106238F5F8093062326
:102760008A3009F05EC08091012390910223019686
:10277000809301239093022310920623069709F079
:1027800050C08091FF229091002301968093FF22F8
:102790009093002310920123109202230A9769F468
:1027A0008091FD229091FE2201968093FD229093CC
:1027B000FE221092FF22109200238091FD22909120
:1027C000FE22069771F58091FB229091FC220196E2
:1027D0008093FB229093FC221092FD221092FE2205
:1027E0008A30910571F48091F9229091FA22019634
:1027F0008093F9229093FA221092FB221092FC22ED
:1028000010C0049771F48091F9229091FA220297F6
:1028100041F41092F9221092FA221092FB221092A7
:10282000FC22FF91EF91DF91CF91BF91AF919F91EA
:102830008F917F916F915F914F913F912F910F9069
:102840000BBE0F900ABE0F9009BE0F9008BE0F90EE
:102850000FBE0F901F9018958F929F92AF92BF92CC
:10286000CF92DF92EF92FF926B017C0149015A01F6
:1028700020E030E040EA50E40E942E1C88230CF453
:102880009EC120E030E043E753E4C701B6010E9457
:10289000051B18160CF496C120E030E040EA50E425
:1028A000C501B4010E942E1C88230CF48EC120E0C7
:1028B00030E040EA53E4C501B4010E94051B18163C
:1028C0000CF486C120E030E040EA50E4C701B601D4
:1028D0000E942E1C1816A4F520E030E046EE52E4CB
:1028E000C501B4010E942E1C1816A4F520E030E0AA
:1028F00040E752E4C701B6010E94051B882354F546
:1029000020E030E04DE453E4C501B4010E94051B12
:1029100088230CF06CC180E090E0A0E8BFE38093D6
:102920001D2390931E23A0931F23B093202381E0A7
:1029300090E08093192390931A2385E090E087C15B
:1029400020E030E040EA50E4C701B6010E942E1CAE
:102950001816A4F520E030E042E553E4C501B401C7
:102960000E942E1C1816A4F520E030E040E752E447
:10297000C701B6010E94051B882354F520E030E012
:1029800046E953E4C501B4010E94051B88230CF0FD
:102990003AC180E090E0A0E8BFE380931D239093CC
:1029A0001E23A0931F23B093202381E090E0809307
:1029B000192390931A2386E090E049C120E030E08B
:1029C00040EA50E4C701B6010E942E1C1816ACF56F
:1029D00020E030E040EA51E4C501B4010E942E1C21
:1029E00018165CF520E030E040E752E4C701B6017C
:1029F0000E94051B88230CF0EEC020E030E04CED77
:102A000052E4C501B4010E94051B88230CF0E3C009
:102A100080E090E0A0E8BFE380931D2390931E2305
:102A2000A0931F23B093202381E090E0809319238B
:102A300090931A2384E090E00AC120E030E042E85D
:102A400052E4C701B6010E942E1C181694F520E02E
:102A500030E040EA51E4C501B4010E942E1C181672
:102A600094F520E030E04AE053E4C701B6010E944B
:102A7000051B882344F520E030E04CED52E4C5010D
:102A8000B4010E94051B88230CF0C9C080E090E0CF
:102A9000A0E8BFE380931D2390931E23A0931F23E0
:102AA000B093202381E090E08093192390931A2320
:102AB000CEC020E030E042E852E4C701B6010E94F7
:102AC0002E1C1816A4F520E030E046EE52E4C501B5
:102AD000B4010E942E1C1816A4F520E030E04AE054
:102AE00053E4C701B6010E94051B882354F520E07A
:102AF00030E04DE453E4C501B4010E94051B882376
:102B00000CF099C080E090E0A0E8BFE380931D2323
:102B100090931E23A0931F23B093202381E090E085
:102B20008093192390931A2382E090E090C020E0D4
:102B300030E042E852E4C701B6010E942E1C18168C
:102B40009CF520E030E042E553E4C501B4010E9469
:102B50002E1C18164CF520E030E04AE053E4C70183
:102B6000B6010E94051B8823FCF420E030E046E912
:102B700053E4C501B4010E94051B8823ACF480E036
:102B800090E0A0E8BFE380931D2390931E23A093C1
:102B90001F23B093202381E090E08093192390932A
:102BA0001A2383E090E053C010921D2310921E233D
:102BB00010921F23109220238AE090E048C081E009
:102BC00090E045C081E090E042C081E090E03FC0ED
:102BD00081E090E03CC020E030E042E852E4C701F0
:102BE000B6010E942E1C18160CF063CF3ACF20E0DD
:102BF00030E042E553E4C501B4010E942E1C1816D2
:102C00000CF0E6CEBBCE20E030E040EA51E4C50156
:102C1000B4010E942E1C18160CF00FCFEECE20E04F
:102C200030E046EE52E4C501B4010E942E1C181695
:102C30000CF087CF5CCF20E030E042E553E4C501E3
:102C4000B4010E942E1C18160CF0AECF8ECFFF9050
:102C5000EF90DF90CF90BF90AF909F908F900895AE
:102C60008F929F92AF92BF92CF92DF92EF92FF929C
:102C70006B017C0149015A0120E030E042E353E45A
:102C80000E942E1C18160CF044C020E030E040EAF0
:102C900052E4C501B4010E942E1C18167CF5A50152
:102CA000940160E070EC81ED94E40E94981A20E0B9
:102CB00030E040EA53E40E94331C20E030EC47EC63
:102CC00054E40E940A1B4B015C0120E030E042E327
:102CD00053E4C701B6010E94981A20E030E040E7B3
:102CE00053E40E94331C20E030EE4FEA54E40E948B
:102CF0000A1BA50194010E942C140DC010921D23E3
:102D000010921E2310921F23109220238EE090E039
:102D100002C080E090E0FF90EF90DF90CF90BF90F6
:102D2000AF909F908F9008951F920F920FB60F92C1
:102D3000112408B60F9218BE09B60F9219BE0AB632
:102D40000F921ABE0BB60F921BBECF92DF92EF927C
:102D5000FF922F933F934F935F936F937F938F9344
:102D60009F93AF93BF93CF93DF93EF93FF938091A4
:102D7000C5229091C62201968093C5229093C622C7
:102D80002091C3223091C4222F5F3F4F2093C32252
:102D90003093C4220A9709F060C08091C7229091B5
:102DA000C82201968093C7229093C8221092C52210
:102DB0001092C622069709F050C08091C9229091C6
:102DC000CA2201968093C9229093CA221092C722E8
:102DD0001092C8220A9769F48091CB229091CC225C
:102DE00001968093CB229093CC221092C92210920C
:102DF000CA228091CB229091CC22069771F58091C6
:102E0000CD229091CE2201968093CD229093CE2216
:102E10001092CB221092CC228A30910571F48091CD
:102E2000CF229091D02201968093CF229093D022EE
:102E30001092CD221092CE2210C0049771F480918E
:102E4000CF229091D022029741F41092CF2210927B
:102E5000D0221092CD221092CE226091092370913F
:102E60000A2380E090E00E947C1B6B017C01609152
:102E70000B2370910C2380E090E00E947C1BA70143
:102E800096010E943016EC0120E030E040E85FE35C
:102E900060911D2370911E2380911F239091202308
:102EA0000E94051B81111AC0CE018B7F0A97B1F0D9
:102EB000FE01EE0FFF1FEF52FD4D808191810297C1
:102EC00029F481E090E08083918308C0CC0FDD1F5E
:102ED000CF52DD4D82E090E08883998310921D23CC
:102EE00010921E2310921F2310922023FF91EF9126
:102EF000DF91CF91BF91AF919F918F917F916F9112
:102F00005F914F913F912F91FF90EF90DF90CF9085
:102F10000F900BBE0F900ABE0F9009BE0F9008BE17
:102F20000F900FBE0F901F901895FC019685858518
:102F3000981307C00190F081E02D83818C7F8383FB
:102F400008958685DF01A80FB11D17968C91A08189
:102F5000B1818C9386858F5F8370868708950F93E8
:102F60001F93CF93DF939C01E0E8F6E098E0918314
:102F700084E08283E0EAF6E0A0E8A183A0E4A283F3
:102F8000E0E4F6E0918382838FEF80930107E4EB26
:102F9000F2E200EB1BE00083118381E08283148660
:102FA000138616861586E5EAF2E2C0EAD8E0C08309
:102FB000D18382831486138616861586E6E9F2E2AB
:102FC000A0EABAE0A083B1838283148613861686B2
:102FD000158683E0F80185838D8315968C9315976C
:102FE00083818F7C806183839B819F7C90619B83A5
:102FF00013969C9113979F7C906113969C934130FC
:103000005105B9F4E4EBFBE080818083E0EBFBE069
:1030100081E18683178283E08093B50BE091B4222F
:10302000F091B52284818061848384818860848367
:1030300008C0E0EBFBE084818F7E84838481877FFE
:10304000848321303105B9F4E4EAF8E0808180839B
:10305000E0EAF8E081E18683178283E08093A508A7
:10306000E091A522F091A6228481806184838481ED
:10307000886084830AC0E091A522F091A622848111
:103080008F7E84838481877F848361307105C1F45E
:10309000E4EAFAE080818083E0EAFAE08CE086836B
:1030A00080E3878383E08093A50AE0919622F091E4
:1030B00097228481806184838481886084830AC0AC
:1030C000E0919622F091972284818F7E848384817F
:1030D000877F8483DF91CF911F910F910895109284
:1030E0001B2310921C2310921D2310921E2310925A
:1030F0001F231092202381E090E08093252390935A
:10310000262341E050E061E070E00E94AF170E948A
:103110003F121092292310922A23109227231092F3
:103120002823E1EDF2E225EE32E281E090E08193A6
:103130009193E217F307D9F70E94A90B80E090E082
:103140000E94720B8FE493EC0197F1F700C000002E
:103150001092942210929522109290221092912215
:1031600010927E2210927F2210928E2210928F2235
:10317000609107237091082380E090E00E947C1BFF
:1031800020E030E0A9010E94ED0C609321237093B0
:10319000222380932323909324231092922210922F
:1031A00093221092422010924320109240201092BD
:1031B000412010923C2010923D2010923E2010920F
:1031C0003F2080E090E00E94720BCC24C394D12C6D
:1031D000E12CF12C00E018EF2CE030E048E450E066
:1031E00068E270E089E190E20E941D0B2CE030E083
:1031F0004EE350E06CE370E08AE290E20E941D0B27
:103200009FE32DE083E0915020408040E1F700C033
:10321000000080E090E00E94720BC0E0D0E02091BE
:103220001323309114233550ADECBCEC0E94A01C4C
:1032300096958795929582958F7089279F7089279B
:103240004FEF5BEFBE014E960E944A089FE926E8C9
:1032500081E0915020408040E1F700C000002196BD
:10326000CE3391E0D907D9F680E090E00E94720B4E
:10327000609107237091082380E090E00E947C1BFE
:1032800020E030E0A9010E94ED0C609321237093AF
:1032900022238093232390932423BFCF1F920F9246
:1032A0000FB60F92112408B60F9218BE0BB60F92EC
:1032B0001BBE2F938F939F93EF93FF9381E090E03A
:1032C00080938022909381228091922290919322E8
:1032D0002091A00AFC01EA54FE4D20838E3B91050B
:1032E0005CF081E090E08093902290939122109284
:1032F00092221092932205C001968093922290937D
:103300009322FF91EF919F918F912F910F900BBE80
:103310000F9008BE0F900FBE0F901F9018951F9230
:103320000F920FB60F92112408B60F9218BE09B66D
:103330000F9219BE0BB60F921BBE2F933F934F9364
:103340005F936F937F938F939F93AF93BF93EF930D
:10335000FF9381E090E0809390229093912286E900
:1033600092E20E949517FF91EF91BF91AF919F91CB
:103370008F917F916F915F914F913F912F910F901E
:103380000BBE0F9009BE0F9008BE0F900FBE0F909E
:103390001F9018951F920F920FB60F92112408B626
:1033A0000F9218BE09B60F9219BE0BB60F921BBE34
:1033B0002F933F934F935F936F937F938F939F933D
:1033C000AF93BF93EF93FF9381E090E080939022BF
:1033D0009093912284EB92E20E949517FF91EF91D6
:1033E000BF91AF919F918F917F916F915F914F911D
:1033F0003F912F910F900BBE0F9009BE0F9008BE0A
:103400000F900FBE0F901F9018951F920F920FB63E
:103410000F92112408B60F9218BE0BB60F921BBE66
:103420002F933F934F935F938F939F93EF93FF93CC
:1034300080918C2290918D222091B00BFC01E25161
:10344000FF4D20832535E1F420918A2230918B2293
:10345000232BA9F525E52093442021E030E020939B
:103460008A2230938B221092862210928722109209
:10347000842210928522109282221092832234C0DC
:1034800040918A2250918B224115510569F14130BA
:10349000510559F42A3A41F52093452022E030E0C5
:1034A00020938A2230938B221FC0FA01E756FF4DEA
:1034B00020834F5F5F4F40938A2250938B2220914D
:1034C0008A2230918B222135310574F021E030E0E1
:1034D000209386223093872210928A2210928B2288
:1034E0002093842230938522863C91055CF081E014
:1034F00090E0809388229093892210928C221092DF
:103500008D2205C0019680938C2290938D22FF918D
:10351000EF919F918F915F914F913F912F910F90DC
:103520000BBE0F9008BE0F900FBE0F901F90189506
:103530005058BB27AA270E94B01A0C94F41B0E9473
:10354000E61B38F00E94ED1B20F039F49F3F19F480
:1035500026F40C94E31B0EF4E095E7FB0C94DD1BC2
:10356000E92F0E94051C58F3BA17620773078407F6
:10357000950720F079F4A6F50C94271C0EF4E0953D
:103580000B2EBA2FA02D0B01B90190010C01CA011D
:10359000A0011124FF27591B99F0593F50F4503EC8
:1035A00068F11A16F040A22F232F342F4427585FBA
:1035B000F3CF469537952795A795F0405395C9F7D2
:1035C0007EF41F16BA0B620B730B840BBAF091508A
:1035D000A1F0FF0FBB1F661F771F881FC2F70EC029
:1035E000BA0F621F731F841F48F4879577956795FC
:1035F000B795F7959E3F08F0B0CF9395880F08F0E8
:103600009927EE0F9795879508950E94B91B08F4A6
:1036100081E008950E941E1B0C94F41B0E94ED1B78
:1036200058F00E94E61B40F029F45F3F29F00C940B
:10363000DD1B51110C94281C0C94E31B0E94051CEB
:1036400068F39923B1F3552391F3951B550BBB27D1
:10365000AA2762177307840738F09F5F5F4F220F16
:10366000331F441FAA1FA9F335D00E2E3AF0E0E80D
:1036700032D091505040E695001CCAF72BD0FE2F57
:1036800029D0660F771F881FBB1F261737074807EB
:10369000AB07B0E809F0BB0B802DBF01FF279358A3
:1036A0005F4F3AF09E3F510578F00C94DD1B0C946F
:1036B000281C5F3FE4F3983ED4F386957795679591
:1036C000B795F7959F5FC9F7880F911D96958795D8
:1036D00097F90895E1E0660F771F881FBB1F6217F7
:1036E00073078407BA0720F0621B730B840BBA0BB5
:1036F000EE1F88F7E0950895E89409C097FB3EF423
:1037000090958095709561957F4F8F4F9F4F99232E
:10371000A9F0F92F96E9BB279395F69587957795AC
:103720006795B795F111F8CFFAF4BB0F11F460FF6C
:103730001BC06F5F7F4F8F4F9F4F16C0882311F0C4
:1037400096E911C0772321F09EE8872F762F05C0D8
:10375000662371F096E8862F70E060E02AF09A9573
:10376000660F771F881FDAF7880F9695879597F968
:103770000895990F0008550FAA0BE0E8FEEF161602
:103780001706E807F907C0F012161306E407F50755
:1037900098F0621B730B840B950B39F40A2661F0C9
:1037A000232B242B252B21F408950A2609F4A1406C
:1037B000A6958FEF811D811D089597F99F6780E879
:1037C00070E060E008959FEF80EC089500240A9473
:1037D0001616170618060906089500240A941216EC
:1037E0001306140605060895092E0394000C11F41F
:1037F000882352F0BB0F40F4BF2B11F460FF04C0CC
:103800006F5F7F4F8F4F9F4F089557FD9058440F24
:10381000551F59F05F3F71F04795880F97FB991F2F
:1038200061F09F3F79F087950895121613061406EC
:10383000551FF2CF4695F1DF08C016161706180679
:10384000991FF1CF86957105610508940895E89454
:10385000BB2766277727CB0197F908950E94B91BEC
:1038600008F48FEF08950E94461C0C94F41B0E94EC
:10387000E61B38F00E94ED1B20F0952311F00C940C
:10388000DD1B0C94E31B11240C94281C0E94051CC6
:1038900070F3959FC1F3950F50E0551F629FF001A3
:1038A000729FBB27F00DB11D639FAA27F00DB11DBC
:1038B000AA1F649F6627B00DA11D661F829F222745
:1038C000B00DA11D621F739FB00DA11D621F839FCC
:1038D000A00D611D221F749F3327A00D611D231FA2
:1038E000849F600D211D822F762F6A2F11249F57F0
:1038F00050409AF0F1F088234AF0EE0FFF1FBB1FF3
:10390000661F771F881F91505040A9F79E3F5105B1
:1039100080F00C94DD1B0C94281C5F3FE4F3983E70
:10392000D4F3869577956795B795F795E7959F5F5B
:10393000C1F7FE2B880F911D9695879597F90895ED
:10394000A29FB001B39FC001A39F700D811D1124E0
:10395000911DB29F700D811D1124911D0895EF924C
:103960000F931F93CF93DF93E80147FD02C034E02C
:1039700001C034E1042E000C550B57FF03C05195D4
:1039800041955109E32E022F242FAE010E94CF1C36
:10399000CE01DF91CF911F910F91EF9008958F92FB
:1039A0009F92AF92BF92CF92DF92EF92FF920F93CE
:1039B0001F93CF93DF93CDB7DEB72997CDBFDEBF7F
:1039C0006A01122FB02E2BE3201720F0FF24F3946E
:1039D000F00E02C02CE3F22E0F2D27E0AE014F5F58
:1039E0005F4F0E94401EBC014981842F8970813045
:1039F00031F0E1FC06C0E0FE06C090E205C09DE2A9
:103A000003C09BE201C090E05E2D507143FF3CC0BB
:103A1000911102C083E001C084E0811718F4212FC6
:103A2000281B01C020E051110BC0F601822F30E2AB
:103A3000882319F031938150FBCFC20ED11C20E0B6
:103A4000992329F0D6019C93F60131966F01C601A6
:103A50000396E2FE0AC03EE4D6013C9341E411968F
:103A60004C93119712963C9306C03EE6F6013083C4
:103A700041E641833283FC01322F40E2332309F4D3
:103A800042C041933150FACF42FF44C0911102C06D
:103A900083E001C084E0811718F4212F281B01C0A6
:103AA00020E051110BC0F601822F30E2882319F07B
:103AB00031938150FBCFC20ED11C20E0992329F015
:103AC000D6019C93F60131966F01C6010396E2FE82
:103AD0000BC039E4D6013C933EE411963C93119718
:103AE00036E412963C9307C039E6F60130833EE691
:103AF000318336E63283FC01322F40E2332319F062
:103B000041933150FBCFFC01E20FF11D10828EEF8B
:103B10009FEFA6C021E030E0911102C020E030E02C
:103B2000161617061CF4FB01319602C0E1E0F0E026
:103B30002E0F3F1FBB2021F0EB2DF0E0319602C08D
:103B4000E0E0F0E02E0F3F1FE12FF0E02E173F07DF
:103B50001CF4121B212F01C020E08E2D887159F416
:103B6000F601822F30E2882319F031938150FBCF88
:103B7000C20ED11C20E0992329F0D6019C93F601B6
:103B800031966F0151110BC0F601822F90E388230B
:103B900019F091938150FBCFC20ED11C20E00F2D64
:103BA000060F9A81342F307144FF03C0913309F41A
:103BB0000150101624F4093018F008E001C001E0AB
:103BC000AB0177FF02C040E050E0FB01E41BF50BC6
:103BD000A1E0B0E0AC0FBD1FEA0FFB1F8EE2A82EE4
:103BE0004B01801A91080B2D10E0119501951109D8
:103BF0004F3FBFEF5B0721F4D601AC9211966D01E8
:103C0000641775072CF08416950614F4818101C0A1
:103C100080E3415051093196D60111967D0140173C
:103C2000510724F0D6018C936701E2CF6417750722
:103C300039F4963320F4953319F4311101C081E33E
:103C4000F6018083F701822F90E2882319F0919387
:103C50008150FBCFF701E20FF11D108280E090E070
:103C60002996CDBFDEBFDF91CF911F910F91FF90BD
:103C7000EF90DF90CF90BF90AF909F908F9008957E
:103C8000283008F027E03327DA01990F311D87FD2E
:103C9000916000966105710539F432602E5F3D93A5
:103CA00030E32A95E1F708959F3F30F080387105A1
:103CB000610509F03C5F3C5F3D93913008F08068FE
:103CC000911DDF93CF931F930F93FF92EF92192FC4
:103CD000987F9695E92F96959695E90FFF27E25BD9
:103CE000FD4F99273327EE24FF24A701E701059014
:103CF0000894079428F4360FE71EF81E491F511D3B
:103D0000660F771F881F991F0694A1F705900794E7
:103D100028F4E70EF81E491F561FC11D770F881F94
:103D2000991F661F0694A1F70590079428F4F80ED2
:103D3000491F561FC71FD11D880F991F661F771F68
:103D40000694A1F70590079420F4490F561FC71F4A
:103D5000D81F990F661F771F881F0694A9F78491B3
:103D60001095177041F0D695C79557954795F794DC
:103D7000E7941A95C1F7E4EFF1E068941590159176
:103D800035916591959105907FE27395E118F10A5F
:103D9000430B560BC90BD009C0F7E10CF11E431FB2
:103DA000561FC91FD01D7EF4703311F48A95E6CFDB
:103DB000E894015030F0080F0AF40027021708F4C5
:103DC000202F2395022F7A3328F079E37D932A95CB
:103DD000E9F710C07D932A9589F606949795679523
:103DE000379517951794E118F10A430B560BC90B39
:103DF000D00998F023957E9173957A3308F070E39B
:103E00007C932013B8F77E9170617D9330F0839599
:103E100071E37D9370E32A95E1F71124EF90FF9011
:103E20000F911F91CF91DF91992787FD909508956C
:103E3000F894FFCF20202020005A65776E2E005383
:103E4000616C6F6E004C617A69656E2E00454B4760
:103E50002050726F6772616D656420627900446101
:103E6000726975737A2050727A6570696F72610039
:103E7000FFFFFFFFFFFFFFFFFFFFFFFFFFFFFFFF52
:103E8000FFFFFFFFFFFFFFFFFFFFFFFFFFFFFFFF42
:103E9000FFFFFFFFFFFFFFFFFFFFFFFFFFFFFFFF32
:103EA000FFFFFFFFFFFFFFFFFFFFFFFFFFFFFFFF22
:020000021000EC
:020000022000DC
:10000000BFEFBDBFBFE3BEBF2F923F920091A408D8
:100010000B7F0093A408BBE0B093A608B0E9B093AF
:10002000A7085ED0B2E73B2EB7E62B2EFED000230A
:1000300011F084D001C018D13F902F90FDCF0091D6
:10004000A0080895B3E2B093CA01E0E0F0E0D30164
:100050008DE920E030E0313009F4203058F40D9083
:100060001D9080933400E895329689010F5F1F4FF1
:100070009801F1CF0BB74BBEF101B5E2B093CA01C5
:1000800080933400E895B091CF01B7FF01C0FBCF5A
:100090000BBF08950090A108002707FC0395089561
:1000A0001DE00CEF0A95F1F71A95E1F700000895AD
:1000B000B091A108B5FD01C0FBCFB091A108B6FF7A
:1000C00005C0B091A108B064B093A1082092A00827
:1000D0000895089505900D920197E1F70895089508
:1000E000B0E0B0930622B1E0B0930722B2E0B09343
:1000F0000022B1E0B0930122B8E0B0930222B1E057
:10010000B0930322BFEFB0930422BFEFB093052258
:10011000B0914206B460B0934206B0914106B86017
:10012000B0934106B0E0B093A3080091A408086121
:100130000093A408B3E0B093A5080895CF93DF938C
:10014000CDB7DEB72497CDBFDEBF21962F923F9269
:100150004F925F926F927F9200E010E0902FA12F5C
:10016000B0E0B883B983BA83BB83A13009F490307F
:1001700041F590E0A0E0088119812A813B8130306F
:1001800029F4213019F4103009F4003068F4AF93E9
:100190009F93B0E06B2EB0E27B2E288039804A809E
:1001A0005B8050DF9F91AF91088119812A813B814B
:1001B00000501E4F2F4F3F4F088319832A833B83E4
:1001C00000C0B9E72B2E74DF65DF002309F4FCCFF4
:1001D00036DF802FB8E72B2E6BDF5CDF002309F4BE
:1001E000FCCF2DDF402F292F3A2F220F331F00E0A5
:1001F00010E2F901E00FF11F8083292F3A2F220F1F
:10020000331F00E010E2020F131FF8013196408304
:10021000092F1A2F0F5F1F4F902FA12FA6CF2396C4
:10022000CDBFDEBFDF91CF910895CF93DF93CDB7E0
:10023000DEB72197CDBFDEBF2196B0E0B88330DFB7
:1002400037DF2EDF08810F5F08830F3F11F400E0D6
:1002500006C0F5DE031511F401E001C0F0CFCDBFFB
:10026000DEBFDF91CF9108950C9400000895FFFF49
:10027000FFFFFFFFFFFFFFFFFFFFFFFFFFFFFFFF8E
:10028000FFFFFFFFFFFFFFFFFFFFFFFFFFFFFFFF7E
:10029000FFFFFFFFFFFFFFFFFFFFFFFFFFFFFFFF6E
:1002A000FFFFFFFFFFFFFFFFFFFFFFFFFFFFFFFF5E
:00000001FF
