:100000000C94E5740C9400000C9400000C94000017
:100010000C9400000C9400000C9400000C94000060
:100020000C9400000C9400000C9400000C94000050
:100030000C9400000C9400000C9400000C94000040
:100040000C9400000C9400000C9400000C94000030
:100050000C9400000C9400000C9400000C94000020
:100060000C9400000C9400000C9400000C94000010
:100070000C9400000C9400000C9400000C94000000
:100080000C9400000C9400000C9400000C940000F0
:100090000C9400000C9400000C9400000C940000E0
:1000A0000C9400000C9400000C9400000C940000D0
:1000B0000C9400000C9400000C9400000C940000C0
:1000C0000C9400000C9400000C9400000C940000B0
:1000D0000C9400000C9400000C9400000C940000A0
:1000E0000C9400000C9400000C9400000C94000090
:1000F0000C9400000C9400000C9400000C94000080
:100100000C9400000C9400000C9400000C9400006F
:100110000C9400000C9400000C9400000C9400005F
:100120000C9400000C9400000C9400000C9400004F
:100130000C9400000C9400000C9400000C9400003F
:100140000C9400000C9400000C9400000C9400002F
:100150000C9400000C9400000C9400000C9400001F
:100160000C9400000C9400000C9400000C9400000F
:100170000C9400000C9400000C9400000C940000FF
:100180000C9400000C9400000C9400000C940000EF
:100190000C9400000C94000000000000000000001F
:1001A0000C9400000C9400000C9400000C940000CF
:1001B0000C9400000C9400000C9400000C940000BF
:1001C0000C9400000C9400000C9400000C940000AF
:1001D0000C9400000C9400000C9400000C9400009F
:1001E0000C9400000C9400000C9400000C9400008F
:0401F0000C9400006B
:10E9CA00BFEFBDBFBFE3BEBF0E94EF7486DFB5DFF6
:04E9DA00FECFFFCF9E
:10E8E4002F923F92D3DAE0DA23EA17E503E00A95A0
:10E8F400F1F71A95E1F72A95D1F700002224332481
:10E9040053DA0E94505F222433244EDA0E9481603D
:10E914000091C2231091C3230093642710936527A9
:10E924000091C4231091C523009362271093632799
:10E93400B0EC2B2EB3E23B2E15DE3F902F900895C2
:00E94400D3
:10DE9000B2E0B0935000B0915100B1FD01C0FBCF92
:0CDEA000B8EDB4BFB1E0B09340000895AD
:10DEAC002F923F924F925F926F927F920E942951D4
:10DEBC000E94B350B0EF4B2EB0E05B2EB0E42B2E93
:10DECC00B1E03B2E0E94BC50B2E07B2EB1E06B2E39
:10DEDC00B0EF4B2EB0E05B2EB0E42B2EB1E03B2E1E
:10DEEC000E944551BCEB2B2EB2E03B2E0E945952A6
:10DEFC00B0E0B093F121B0E0B093D521B093D6212E
:10DF0C00BFEFB093D821B093D9217F906F905F90E1
:08DF1C004F903F902F900895F3
:10A252002F923F924F925F92B0E0B0930006B0E02F
:10A26200B0930406B0E24B2EB0E05B2EB0E12B2E91
:10A27200B0E03B2E0E942033B2E0B09304025F9024
:08A282004F903F902F900895CA
:10664000BAE5B093D221B0E3B093D32120920102F6
:0C66500040920202B1E0B09300020895F5
:10A16600B0E0B0933420B0933520B0E0B0933920FE
:02A1760008954A
:10A178002F923F924F925F926F927F928F920E949E
:10A18800F832013091F0B7EEB093F821B1E3B09313
:10A19800F921B4E0B093FA21B2E3B093FB21B5E220
:10A1A800B0933622B0E5B09337222092F621309250
:10A1B800F72140923222509233222414350420F0A1
:10A1C800B0E0B093332003C0BAE5B0933320B1E0D8
:10A1D8004B2E2224332423D977248824662455241B
:10A1E800332444242224B0E0BF93BF93FCD8ADB7F6
:10A1F800BEB71296ADBFBEBF4424552422243324D3
:10A208000E94FA44B0E0B093FD21BFEFB09320075D
:10A218000E94CF46BCE3B0933822BEE4B093392203
:10A228008F907F906F905F904F903F902F90089500
:00A2380026
:0665F00000913420089523
:0E9426002092292230922A224092D4210895C9
:1093EE00CF93DF93CDB7DEB72696088119812092F1
:1093FE002B22309221224092222250922C226092D5
:10940E002F2270922D2280922E22009323221093CF
:08941E002422DF91CF91089593
:1089F4002092252230922622409227225092282229
:028A04000895D3
:108D9E002F92B0910407BD7FB0930407B0910007E6
:108DAE00B260B0930007B0910407B061B0930407AE
:108DBE00B0910007B061B0930007B0910407B062A4
:108DCE00B0930407B0910007B062B0930007B09162
:108DDE000007B460B0930007B0910007B860B0937D
:108DEE000007B0910407B460B0930407B091040774
:108DFE00B860B09304070E94FA31B0910407B260D4
:108E0E00B09304070E94FA310E94FA31B091040720
:108E1E00BF7DB0930407B1E02B2EE091F821F091C5
:108E2E00F92109950E94CE31B8E22B2EE091F8215E
:108E3E00F091F9210995BFEC2B2EE091F821F091DC
:108E4E00F92109952224E091FA21F091FB2109954F
:108E5E00B3E82B2EE091FA21F091FB210995B0E3B6
:108E6E002B2EE091FA21F091FB210995BDEE2B2ED0
:108E7E00E091F821F091F9210995B4E62B2EE091BD
:108E8E00FA21F091FB210995B3E02B2EE091FA2106
:108E9E00F091FB210995B2E12B2EE091FA21F09190
:108EAE00FB210995B1E82B2EE091FA21F091FB21DF
:108EBE000995B8EE2B2EE091F821F091F921099544
:108ECE00B5E82B2EE091FA21F091FB210995B1E046
:108EDE002B2EE091FA21F091FB210995B9E72B2E6B
:108EEE00E091FA21F091FB210995BBEC2B2EE0913C
:108EFE00F821F091F9210995B9E32B2EE091FA2191
:108F0E00F091FB210995BCE22B2EE091FA21F09114
:108F1E00FB2109952224E091FA21F091FB2109957C
:108F2E00B4E32B2EE091FA21F091FB210995B2E0EA
:108F3E002B2EE091FA21F091FB210995B7EF2B2E04
:108F4E00E091F821F091F9210995B0E22B2EE091F4
:108F5E00FA21F091FB210995BAEE2B2EE091F82122
:108F6E00F091F92109952224E091FA21F091FB214B
:108F7E0009952224E091FA21F091FB210995B0EC9C
:108F8E002B2EE091F821F091F9210995B6E22B2EC6
:108F9E00E091FA21F091FB210995B1EC2B2EE09195
:108FAE00F821F091F9210995B1E12B2EE091FA21EA
:108FBE00F091FB210995B5EC2B2EE091F821F09163
:108FCE00F9210995B5E32B2EE091FA21F091FB21C1
:108FDE000995BEE32B2EE091FA21F091FB21099524
:108FEE00B7EC2B2EE091F821F091F9210995BEEB0B
:108FFE002B2EE091FA21F091FB210995B6E32B2E51
:10900E00E091F821F091F9210995009133200A356C
:10901E00A1F40E94CB31002341F0B8E82B2EE09151
:10902E00FA21F091FB21099507C0B8E42B2EE091AF
:10903E00FA21F091FB21099513C00E94CB31002338
:10904E0041F0B8EE2B2EE091FA21F091FB2109951B
:10905E0007C0B8E22B2EE091FA21F091FB21099581
:10906E00BAE32B2EE091F821F091F9210995B5E59F
:10907E002B2EE091FA21F091FB210995B1EB2B2ECD
:10908E00E091F821F091F92109952224E091FA213D
:10909E00F091FB210995BBE12B2EE091FA21F09185
:1090AE00FB210995B2EF2B2EE091F821F091F921D9
:1090BE000995B8E02B2EE091FA21F091FB2109954C
:1090CE00B6E22B2EE091F821F091F9210995B1E04D
:1090DE002B2EE091FA21F091FB210995B0EE2B2E6B
:1090EE00E091F821F091F9210995BFE12B2EE09145
:1090FE00FA21F091FB210995BAE12B2EE091FA218C
:10910E00F091FB210995B8E12B2EE091FA21F09117
:10911E00FB210995BAE02B2EE091FA21F091FB216B
:10912E000995BFE02B2EE091FA21F091FB210995D4
:10913E00B6E02B2EE091FA21F091FB210995B5E4D2
:10914E002B2EE091FA21F091FB210995B7E82B2EF9
:10915E00E091FA21F091FB210995B2E32B2EE091DB
:10916E00FA21F091FB210995BAE02B2EE091FA211C
:10917E00F091FB210995B7E02B2EE091FA21F091A9
:10918E00FB210995B2E02B2EE091FA21F091FB2103
:10919E000995B7E02B2EE091FA21F091FB2109956C
:1091AE00B5E02B2EE091FA21F091FB2109952224B6
:1091BE00E091FA21F091FB210995B1EE2B2EE09171
:1091CE00F821F091F92109952224E091FA21F091EC
:1091DE00FB210995B5E22B2EE091FA21F091FB21AE
:1091EE000995B7E22B2EE091FA21F091FB2109951A
:1091FE00B5E02B2EE091FA21F091FB210995B0E11B
:10920E002B2EE091FA21F091FB210995B9E02B2E3E
:10921E00E091FA21F091FB210995BAE32B2EE09112
:10922E00FA21F091FB210995B8E72B2EE091FA2156
:10923E00F091FB210995BDE42B2EE091FA21F091DE
:10924E00FB210995B5E02B2EE091FA21F091FB213F
:10925E000995B8E12B2EE091FA21F091FB210995A9
:10926E00BDE02B2EE091FA21F091FB210995B8E398
:10927E002B2EE091FA21F091FB210995BAE32B2ECA
:10928E00E091FA21F091FB210995BFE12B2EE0919F
:10929E00FA21F091FB210995BAE22B2EE091F821EB
:1092AE00F091F92109952224E091FA21F091FB2108
:1092BE0009952224E091FA21F091FB210995009164
:1092CE00F6211091F72101501040012F10E0202EB1
:1092DE00E091FA21F091FB2109950091F6210150C0
:1092EE00202EE091FA21F091FB210995BBE22B2E65
:1092FE00E091F821F091F92109952224E091FA21CB
:10930E00F091FB2109952224E091FA21F091FB21A5
:10931E000995009132221091332201501040012FF5
:10932E0010E0202EE091FA21F091FB210995009199
:10933E0032220150202EE091FA21F091FB21099565
:10934E00B7EB2B2EE091F821F091F9210995B7E0BA
:10935E002B2EE091FA21F091FB210995B6EB2B2EE5
:10936E00E091F821F091F9210995BAE02B2EE091C8
:10937E00FA21F091FB210995B2E82B2EE091FA210A
:10938E00F091FB210995B7E22B2EE091FA21F09195
:10939E00FB2109952224E091FA21F091FB210995F8
:1093AE00B1E12B2EE091F821F091F92109950E945F
:1093BE00FA31B9E22B2EE091F821F091F9210995BD
:1093CE000E94FA31BCE22B2EE091F821F091F921A6
:1093DE000995B0910407B062B09304072F900895D9
:0093EE007F
:1063F40021E11CE30CEC0A95F1F71A95E1F72A95D3
:04640400D1F708952F
:1063CE00B0910407BF7EB093040720922407B091CA
:1063DE000407B77FB09304070000B0910407B860BC
:0663EE00B09304070895BE
:10640800B0910407B061B093040720922407B091BB
:106418000407B77FB09304070000B0910407B86081
:06642800B0930407089583
:10634C000E9493290E949329B0910407BF7DB093BA
:10635C000407B0910407B460B0930407B09104072C
:10636C00BF7EB093040720922407B0910407B77F37
:10637C00B0930407B0910407B860B0930407B091D0
:0A638C000407B062B09304070895FF
:0C5326000AE00A95F1F70000000008956D
:10630200B0910407BF7DB0930407B0910407B46055
:10631200B0930407B0910407B061B09304072092D0
:106322002407B0910407B77FB0930407B091040724
:10633200B860B0930407B0910407B062B093040749
:0A6342000E9493290E9493290895F8
:10639C0010ED0AEC0A95F1F71A95E1F70000089553
:0063AC00F1
:0663960000913220089581
:10A28A00B091C407BB7FB093C407B091C007B46054
:10A29A00B093C007B091C407B77FB093C407B09119
:10A2AA00C007B860B093C007B0910006BB7FB093F7
:10A2BA000006B0910006BD7FB0930006B4E8B093E3
:10A2CA000A22B3E0B0930B2220920E2230920F2280
:10A2DA0040920C2250920D2260921A227092FC2116
:10A2EA00B0E0B0931022B0931122B0E0B0931222E2
:06A2FA00B0931322089549
:0AA4B20020920A2230920B22089536
:10DDAC004F925F926F927F928F929F92B0910407E5
:10DDBC00BF7DB09304070E9480510023E1F02091B5
:10DDCC00322230913322215030400091F6211091B3
:10DDDC00F721015010403F922F9249013801442401
:10DDEC00552422243324E0913422F09135220995D4
:10DDFC002F903F900DC03F922F9244245524222403
:10DE0C003324E0913822F091392209952F903F90DC
:10DE1C0020E030E00091322210913322201731079C
:10DE2C0028F500E010E0A8010091F6211091F721EF
:10DE3C0040175107B0F43F932F935F934F933F924A
:10DE4C002F92E0913622F091372209952F903F9036
:10DE5C004F915F912F913F918A010F5F1F4FA80146
:10DE6C00E3CF89010F5F1F4F9801D4CFB091040706
:10DE7C00B062B09304079F908F907F906F905F90EB
:04DE8C004F90089516
:06A30000009136200895D3
:10A30600CF93DF93CDB7DEB72897CDBFDEBF2196BB
:10A316002F923F922091F6213091F72100EE11E025
:10A326000217130750F0209132223091332200EEAB
:10A3360011E00217130708F005C060E273E040EE73
:10A3460051E004C060EE71E040E151E0009133203D
:10A356000A3541F50E94CB31002391F09B01215033
:10A3660030408901081919090883198389010419DC
:10A3760015090A831B832C823D826E827F8211C05F
:10A38600488259828A829B829A01215030408901F3
:10A39600061917090C831D838901021913090E83F7
:10A3A6001F8327C00E94CB310023D9F09B01215087
:10A3B6003040890106191709088319838901021992
:10A3C60013090A831B839A01215030408901081919
:10A3D60019090C831D838901041915090E831F832E
:10A3E60008C0288239826A827B824C825D828E8294
:10A3F6009F82BAE22B2EE091F821F091F92109957E
:10A4060008811981012F10E0202EE091FA21F091A8
:10A41600FB2109952880E091FA21F091FB2109950D
:10A426000A811B81012F10E0202EE091FA21F09184
:10A43600FB2109952A80E091FA21F091FB210995EB
:10A44600BBE22B2EE091F821F091F92109950C81C0
:10A456001D81012F10E0202EE091FA21F091FB21C1
:10A4660009952C80E091FA21F091FB2109950E8146
:10A476001F81012F10E0202EE091FA21F091FB219F
:10A4860009952E80E091FA21F091FB210995BCE215
:10A496002B2EE091F821F091F92109953F902F900C
:0CA4A6002796CDBFDEBFDF91CF91089557
:109D02002F923F925F924F923F922F92B2E02B2E70
:109D1200E091F821F091F92109952F903F90032DC0
:109D220010E03F922F92202EE091FA21F091FB2138
:109D32000995B3E02B2EE091F821F091F9210995D4
:109D42002F903F90E091FA21F091FB210995B6E026
:109D52002B2EE091F821F091F92109954F905F9017
:109D6200052D10E05F924F92202EE091FA21F091A2
:109D7200FB210995B7E02B2EE091F821F091F92112
:109D820009954F905F90242CE091FA21F091FB21EC
:109D92000995B2E22B2EE091F821F091F921099573
:069DA2003F902F90089590
:109DA800CF93DF93CDB7DEB72497CDBFDEBF219623
:109DB8002F923F92288239824A825B82BAE22B2E06
:109DC800E091F821F091F92109958E01F801319679
:109DD8000081202EE091FA21F091FB21099528803D
:109DE800E091FA21F091FB210995BBE22B2EE0913D
:109DF800F821F091F92109958E010E5F1F4FF801A6
:109E080031960081202EE091FA21F091FB210995ED
:109E18002A80E091FA21F091FB210995BCE22B2ED2
:109E2800E091F821F091F92109953F902F90239620
:0A9E3800CDBFDEBFDF91CF9108958A
:109BEE002F923F925F924F923F922F92BAE22B2E7C
:109BFE00E091F821F091F92109952F903F90032DD6
:109C0E0010E03F922F92202EE091FA21F091FB214D
:109C1E0009952F903F90E091FA21F091FB21099543
:109C2E00BBE22B2EE091F821F091F92109954F908E
:109C3E005F90052D10E05F924F92202EE091FA2159
:109C4E00F091FB2109954F905F90242CE091FA2121
:109C5E00F091FB210995BCE22B2EE091F821F091B9
:0A9C6E00F92109953F902F90089509
:109C78002F923F925F924F923F922F92BAE22B2EF1
:109C8800E091F821F091F92109952F903F90032D4B
:109C980010E03F922F92202EE091FA21F091FB21C3
:109CA80009952F903F90E091FA21F091FB210995B9
:109CB800BBE22B2EE091F821F091F92109954F9004
:109CC8005F90052D10E05F924F92202EE091FA21CF
:109CD800F091FB2109954F905F90242CE091FA2197
:109CE800F091FB210995BCE22B2EE091F821F0912F
:0A9CF800F92109953F902F9008957F
:109E42002F923F925F924F923F922F92BAE22B2E25
:109E5200E091F821F091F92109952F903F90032D7F
:109E620010E03F922F92202EE091FA21F091FB21F7
:109E720009952F903F90E091FA21F091FB210995ED
:109E8200BBE22B2EE091F821F091F92109954F9038
:109E92005F90052D10E05F924F92202EE091FA2103
:109EA200F091FB2109954F905F90242CE091FA21CB
:109EB200F091FB210995BCE22B2EE091F821F09163
:0A9EC200F92109953F902F900895B3
:10A04A00CF93DF93CDB7DEB72297CDBFDEBF219680
:10A05A0028823982B0910407B061B09304078E0157
:10A06A00F8013196008100932407B0910407B77F65
:10A07A00B09304070000B0910407B860B0930407D6
:10A08A00FE01008100932407B0910407B77FB093C3
:10A09A0004070000B0910407B860B0930407219642
:0AA0AA00CDBFDEBFDF91CF91089516
:10A0B4002F923F92BBE0810116950795BA95E1F77F
:10A0C400102F012F000F000F000F102FB7E0012FEA
:10A0D4000695BA95E9F7013029F4012F095F102F8D
:10A0E400012F01C0012F3F922F92202E0E94813117
:10A0F4002F903F90B5E0810116950795BA95E1F749
:10A10400102F012F000F000F102FB7E0012F06951D
:10A11400BA95E9F7013029F4012F0D5F102F012FB3
:10A1240001C0012F3F922F92202E0E9481312F9047
:10A134003F90022D000F000F000F102FB7E0012FEA
:10A144000695BA95E9F7013029F4012F095F102F1C
:10A15400012F01C0012F202E0E9481313F902F90AA
:02A1640008955C
:10BEA0002F923F924F925F926F927F928F929F92CA
:10BEB000B3E04B2EBFEF2B2E3B2E0E94134A88245B
:10BEC000BFEF6B2E7B2EB4EF2B2EB1E03B2EB0E0FC
:10BED0004B2E542C0E94664FB0E56B2EB0E07B2EAB
:10BEE000B2E34B2EB0E05B2EBCE52B2EB0E23B2E36
:10BEF0000E94BF4FBFEE8B2EB0E09B2EBFE36B2E98
:10BF0000B1E07B2EBFEE4B2EB0E05B2EBBE32B2EC1
:10BF1000B1E03B2E0E946B52BFEE8B2EB0E09B2E09
:10BF2000BFE36B2EB1E07B2EB5EE4B2EB0E05B2E67
:10BF3000B5E32B2EB1E03B2E0E946B52BFEE8B2E51
:10BF4000B0E09B2EBFE36B2EB1E07B2EBAEE4B2E02
:10BF5000B0E05B2EBFE32B2EB1E03B2E0E946B5274
:10BF6000BCED6B2EB0E07B2EBBEE4B2EB0E05B2E1B
:10BF7000B1E52B2EB0E23B2E0E94BF4FABDA22E59B
:10BF80001BE200E00A95F1F71A95E1F72A95D1F73F
:10BF90000000000000000000B3E04B2E22243324F8
:10BFA0000E94134A882466247724B4EF2B2EB1E034
:10BFB0003B2EB0E04B2E542C0E94664FBFEE8B2ED2
:10BFC000B0E09B2EBFE36B2EB1E07B2EBFEE4B2E7D
:10BFD000B0E05B2EBBE32B2EB1E03B2E0E946B52F8
:10BFE000BFEE8B2EB0E09B2EBFE36B2EB1E07B2E1D
:10BFF000B5EE4B2EB0E05B2EB5E32B2EB1E03B2E21
:10C000000E946B52BFEE8B2EB0E09B2EBFE36B2ED7
:10C01000B1E07B2EBAEE4B2EB0E05B2EBFE32B2EB1
:10C02000B1E03B2E0E946B52BCED6B2EB0E07B2E3C
:10C03000BBEE4B2EB0E05B2EB4E42B2EB0E23B2ED9
:10C040000E94BF4FB3E04B2EBFEF2B2E3B2E0E9422
:10C05000134A8824BFEF6B2E7B2EB4EF2B2EB1E05A
:10C060003B2EB0E04B2E542C0E94664FB5E06B2E59
:10C07000B0E07B2EB4E14B2EB0E05B2EBAE32B2E6A
:10C08000B0E23B2E0E94BF4F88249924B5E06B2E6E
:10C09000B0E07B2E44245524222433240E946B528A
:10C0A000B5E08B2EB0E09B2E6624772444245524E3
:10C0B000222433240E946B52BAE08B2EB0E09B2ED8
:10C0C000BAE06B2EB0E07B2E442455242224332486
:10C0D0000E946B5211DA22E51BE200E00A95F1F7AB
:10C0E0001A95E1F72A95D1F7000000000000000042
:10C0F0009F908F907F906F905F904F903F902F9088
:02C100000895A0
:109ECC0020923A2230923B2240923C2250923D22E8
:109EDC00810192010E5F1F4F2F4F3F4F2BBFF80197
:109EEC004691810192010D5F1F4F2F4F3F4F2BBFAA
:109EFC00F8010691102F0027040FB0E01B1F0093F0
:109F0C00302210933122810192010C5F1F4F2F4F91
:109F1C003F4F2BBFF8014691810192010B5F1F4F00
:109F2C002F4F3F4F2BBFF8010691102F0027040F26
:109F3C00B0E01B1F00933E2210933F22810192013F
:109F4C000A5F1F4F2F4F3F4F2BBFF8010691009315
:109F5C004322B0E0B093442260924122709242229C
:109F6C0080924022B1E0B0933820B0E0B093FD2154
:029F7C00089546
:109F7E004F925F920091F6211091F72140165106F3
:109F8E0008F059C0009132221091332260167106EA
:109F9E0008F051C020E030E03F922F9212012301D1
:109FAE000E94FA442F903F90F901E20DF31D0081BB
:109FBE00002309F440C00091FD210023F1F0F901C6
:109FCE00E20DF31D00813F932F937F926F925F926C
:109FDE004F923F922F92202EB0E03B2E0E94DE3FFA
:109FEE002F903F904F905F906F907F902F913F9169
:109FFE0089010F5F1F4F98011DC0F901E20DF31D7E
:10A00E0000813F932F937F926F925F924F923F9278
:10A01E002F92202EB0E03B2E0E948E422F903F902A
:10A02E004F905F906F907F902F913F9189010F5FBE
:0CA03E001F4F9801B9CF5F904F9008951C
:107FBC00CF93DF93CDB7DEB76797CDBFDEBF2196EA
:107FCC002F923F924F925F926F927F928F929F92DD
:107FDC00B0E0BC8BBD8BB0E0BE8B00913022109119
:107FEC0031222016310608F411C200913E22109164
:107FFC003F220215130508F409C20090302210909C
:10800C003122810100191109A801440F551F440F99
:10801C00551F00911D2210911E2220911F2230917C
:10802C002022085F1F4F2F4F3F4F040F151FB0E04A
:10803C002B1F3B1FB4E06B2EB0E07B2E18012901E7
:10804C000E94A42ABEEFB98BB1E2BA8BE989FA89F6
:10805C00A081AB8B89899A89FC0131960081402FD4
:10806C0050E0652F752FFC013296008110E0212F16
:10807C00312F322F212F102F0027400F511F621F3D
:10808C00731FFC013396008110E0212F312F312F0B
:10809C00202F00271127400F511F621F731F0091C3
:1080AC001D2210911E2220911F2230912022040F9C
:1080BC00151F261F371F0D831E832F8338870A2F0A
:1080CC0006950695069510E0409143225091442266
:1080DC000E949C2A0B871C870B890770002351F088
:1080EC002B853C850091432210914422020F131FD3
:1080FC000B871C870B851C850F87188B8E01075FE0
:10810C001F4F48016B847C842D803E804F805884A7
:10811C00E0910822F09109220995098B1A8B4D8167
:10812C005E816F81788509851A8520E0322F040FD6
:10813C00151F261F371F0D831E832F833887098435
:10814C001A840B851C85001911090B871C87B0E05C
:10815C00BD87BE8700914022003009F0ACC0009171
:10816C002722109128220A831B83B0E0B98309814E
:10817C00209143223091442210E00217130708F09B
:10818C0091C000912522109126220C8B1D8BB0E002
:10819C00BC83B0E0B88318810B89101708F078C045
:1081AC000C81003009F055C00D851E850F5F1F4FE7
:1081BC000D871E8729853A850F8518892017310769
:1081CC00E0F52D853E8509851A8502171307A8F55C
:1081DC00B1E0BD87B0E0BE878E01075F1F4F3F92B5
:1081EC002F9248016B847C842D803E804F80588474
:1081FC00E0910822F091092209952F903F90098B6C
:10820C001A8B0B851C850F87188B4D815E816F81B6
:10821C00788509851A8520E0322F040F151F261F3B
:10822C00371F0D831E832F83388709841A840B858F
:10823C001C85001911090B871C87E989FA890081B3
:10824C000E8B09891A890F5F1F4F098B1A8BB1E0AE
:10825C00BC831E890C81012371F03F922F92609098
:10826C004122709042224A805B802C883D880E947B
:10827C004E2A2F903F900C891D890F5F1F4F0C8B3E
:10828C001D8B0C81000F0C8308810F5F088383CF3B
:10829C000A811B810F5F1F4F0A831B8309810F5FAC
:1082AC00098365CF0C891D890F5F1F4F0093252211
:1082BC0010932622ABC000912522109126220A830E
:1082CC001B83B0E0B9830981209143223091442271
:1082DC0010E00217130708F091C0009127221091AB
:1082EC0028220C8B1D8BB0E0BC83B0E0B8831881C6
:1082FC000B89101708F078C00C81003009F055C0BC
:10830C000D851E850F5F1F4F0D871E8729853A85AA
:10831C000F85188920173107E0F52D853E850985D5
:10832C001A8502171307A8F5B1E0BD87B0E0BE8728
:10833C008E01075F1F4F3F922F9248016B847C8404
:10834C002D803E804F805884E0910822F0910922C4
:10835C0009952F903F90098B1A8B0B851C850F87E5
:10836C00188B4D815E816F81788509851A8520E097
:10837C00322F040F151F261F371F0D831E832F83CB
:10838C00388709841A840B851C85001911090B8701
:10839C001C87E989FA8900810E8B09891A890F5F7C
:1083AC001F4F098B1A8BB1E0BC831E890C810123F2
:1083BC0071F03F922F9260904122709042224C8833
:1083CC005D882A803B800E944E2A2F903F900C891A
:1083DC001D89015010400C8B1D8B0C81000F0C83E0
:1083EC0008810F5F088383CF0A811B810F5F1F4FAA
:1083FC000A831B8309810F5F098365CF0C891D8953
:10840C000150104000932722109328229F908F90A8
:10841C007F906F905F904F903F902F906696CDBF5E
:08842C00DEBFDF91CF9108953E
:10554800CF93DF93CDB7DEB72497CDBFDEBF2196CB
:105558008F929F92BEEFBA83B1E2BB8300E010E066
:105568000615170508F042C08E017F926F925F9270
:105578004F923F922F924801E0910822F091092220
:1055880009952F903F904F905F906F907F90B80152
:1055980020E030E0AB010881198120173107A8F419
:1055A800FA010081EA81FB8100830A811B810F5F78
:1055B8001F4F0A831B838A010F5F1F4FB8018901A0
:1055C8000F5F1F4FAB019801E6CF08801980830158
:1055D8000019110938010881198120E0322F020DC4
:1055E800131D241D351D18012901B8CF9F908F90D8
:0C55F8002396CDBFDEBFDF91CF91089558
:10549C002F923F928F929F9200E010E020163106DF
:1054AC0044F00091F6211091F7212016310608F4F2
:1054BC0001C037C000E010E04016510644F00091E6
:1054CC003222109133224016510608F401C029C033
:1054DC00B0910407BF7DB09304070E948051002354
:1054EC0061F07F926F9242013101E0913422F09190
:1054FC00352209956F907F9009C07F926F92E09151
:10550C003822F091392209956F907F901301E09128
:10551C003622F09137220995B0910407B062B0930E
:0C552C0004079F908F903F902F900895EF
:105538009801249F8001259F100D349F100D089518
:0055480063
:10851C00CF93DF93CDB7DEB72B97CDBFDEBF2196C0
:10852C004F925F926F927F928F92B0E0B887B9872B
:10853C00B0E0BA8700913820003091F404EF11E0DC
:10854C003F922F928824662477241801B0E04B2E9A
:10855C00542C0E94664F2F903F90B1E0B09338207E
:10856C0000913022109131222016310608F43FC1BF
:10857C0000913E2210913F220215130508F437C1D9
:10858C000090302210903122810100191109A801AC
:10859C00440F551F440F551F80903A2290903B2258
:1085AC00A0903C22B0903D2284019501085F1F4FA2
:1085BC002F4F3F4F2A01B0E06B2E762C400E511EF0
:1085CC00621E731E6BBEF20106910F838201930132
:1085DC000F5F1F4F2F4F3F4F2BBFF8010691402FBE
:1085EC0050E0652F752F820193010E5F1F4F2F4FA7
:1085FC003F4F2BBFF801069110E0212F312F322F66
:10860C00212F102F0027400F511F621F731F820153
:10861C0093010D5F1F4F2F4F3F4F2BBFF80106915A
:10862C0010E0212F312F312F202F00271127040F7D
:10863C00151F261F371F080D191D2A1D3B1D0B83E7
:10864C001C832D833E8300914022003009F068C0CA
:10865C006091272270912822B0E0B9830981209182
:10866C0043223091442210E00217130708F04FC048
:10867C00009125221091262208871987B0E0BA8331
:10868C00B0E0B88318810F811017C8F50A8100304B
:10869C00A1F40D810BBFEB81FC8106910A870B8144
:1086AC001C812D813E810F5F1F4F2F4F3F4F0B833E
:1086BC001C832D833E83B1E0BA831A850A81012382
:1086CC0089F07F936F933F922F926090412270902C
:1086DC0042222B01288439840E944E2A2F903F90ED
:1086EC006F917F91088519850F5F1F4F0887198738
:1086FC000A81000F0A8308810F5F0883C3CF8B01A7
:10870C000F5F1F4FB80109810F5F0983A7CF088541
:10871C0019850F5F1F4F009325221093262267C0E7
:10872C006091252270912622B0E0B98309812091B5
:10873C0043223091442210E00217130708F04FC077
:10874C00009127221091282208871987B0E0BA835C
:10875C00B0E0B88318810F811017C8F50A8100307A
:10876C00A1F40D810BBFEB81FC8106910A870B8173
:10877C001C812D813E810F5F1F4F2F4F3F4F0B836D
:10878C001C832D833E83B1E0BA831A850A810123B1
:10879C0089F07F936F933F922F926090412270905B
:1087AC004222488459841B010E944E2A2F903F90EC
:1087BC006F917F91088519850150104008871987A2
:1087CC000A81000F0A8308810F5F0883C3CF8B01D6
:1087DC000F5F1F4FB80109810F5F0983A7CF088571
:1087EC0019850150104000932722109328228F9056
:1087FC007F906F905F904F902A96CDBFDEBFDF9138
:04880C00CF9108956B
:10A4D600CF93DF93CDB7DEB76397CDBFDEBF2196AF
:10A4E6002F923F924F925F926F927F925F924F921E
:10A4F6003F922F92240113010E94FA442F903F901D
:10A506004F905F902614370431F431011201240173
:10A516000E94084490C14814590441F47F926F92F6
:10A5260032014F905F900E945C3E85C1B0E0BA87D1
:10A53600BB879301221933092883398300E010E091
:10A54600201731077CF40880198000E010E000191C
:10A556001109088319830A851B85015010400A8753
:10A566001B8706C00A851B850F5F1F4F0A871B873F
:10A57600B0E0BC87BD879401241935092A833B8343
:10A5860000E010E0201731077CF40A801B8000E011
:10A5960010E0001911090A831B830C851D850150E3
:10A5A60010400C871D8706C00C851D850F5F1F4F49
:10A5B6000C871D87B0E0BE87BF87288139810A8155
:10A5C6001B81201731070CF057C00E851F850F5FC2
:10A5D6001F4F0E871F87288139810A811B810883B7
:10A5E60019832A833B838101120128012A853B8531
:10A5F6000C851D850A871B872C873D87B1E0B88BA4
:10A6060018890091D4210117B0F10889098BB0E0AF
:10A61600BA8B09891A8901701070103009F400305C
:10A6260041F409881A8800E010E000191109098B25
:10A636001A8B09891A8915950795040D151D9F9280
:10A646008F927F926F925F924F923F922F9260907D
:10A65600292270902A22210118010E944E2A2F9049
:10A666003F904F905F906F907F908F909F9008895A
:10A676000F5F088BC5CF3CC0B1E0B88B188900913D
:10A68600D4210117A8F10889098BB0E0BA8B098992
:10A696001A8901701070103009F4003041F40988ED
:10A6A6001A8800E010E000191109098B1A8B098934
:10A6B6001A8915950795040D151D9F928F927F9205
:10A6C6006F925F924F923F922F92609029227090E4
:10A6D6002A2228010E944E2A2F903F904F905F9089
:10A6E6006F907F908F909F9008890F5F088BC6CFE1
:10A6F60008811981000F111F088719870A811B819C
:10A70600000F111F0E831F8308801980001911097D
:10A716000C831D8328813981215030402883398359
:10A7260000E010E0201731070CF485C02C813D8134
:10A7360000E010E0201731076CF00C851D85040D34
:10A74600151D2801088419840C811D810019110921
:10A756000C831D830A851B85020D131D18012C8190
:10A766003D810E811F81020F131F0C831D83B1E0F3
:10A77600B88B18890091D421011708F45BC00889A9
:10A78600098BB0E0BA8B09891A89017010701030F4
:10A7960009F4003041F409881A8800E010E0001935
:10A7A6001109098B1A8B09891A8915950795098B41
:10A7B6001A8B0E851F85B02FB12BE9F009891A89EE
:10A7C600040D151D9F928F927F926F925F924F920A
:10A7D6003F922F926090292270902A22210118011F
:10A7E6000E944E2A2F903F904F905F906F907F90DF
:10A7F6008F909F901BC009891A89040D151D9F9281
:10A806008F927F926F925F924F923F922F926090BB
:10A81600292270902A2228010E944E2A2F903F90CA
:10A826004F905F906F907F908F909F9008890F5FF9
:10A83600088B9FCF6FCF7F906F905F904F903F9028
:0EA846002F906296CDBFDEBFDF91CF910895B7
:10881000421453041CF481011201280100E010E00D
:10882000201631061CF42224332408C00091322281
:10883000109133222016310608F07AC000E010E0D3
:10884000401651060CF474C000913222109133226C
:108850004016510638F00091322210913322015017
:108860001040280141E00091D421041708F460C0B1
:10887000242F30E0890101701070103009F40030AD
:1088800031F400E010E0021B130B980100C08901D5
:1088900015950795502F612F9801260D371D00E083
:1088A00010E02017310764F0252F362F260D371DD5
:1088B0000091F6211091F7212017310708F402C02A
:1088C000142F32C08101252F362F502F612F4516CE
:1088D000560648F18901060D171D4F933F932F93BC
:1088E0006F935F937F926F925F924F923F922F921E
:1088F0006090292270902A22452E562E18010E943F
:108900004E2A2F903F904F905F906F907F905F9195
:108910006F912F913F914F91052F162F0F5F1F4F92
:10892000502F612FD4CF142F012F0F5F402F9BCFDB
:028930000895A8
:107CB800CF93DF93CDB7DEB72197CDBFDEBF219637
:107CC8008F929F92421453041CF4810112012801DF
:107CD80000E010E0201631061CF42224332408C0EA
:107CE8000091F6211091F7212016310608F0D8C02E
:107CF80000E010E0401651060CF4D2C00091F621C5
:107D08001091F7214016510638F00091F621109194
:107D1800F721015010402801B1E0B8831881009183
:107D2800D421011708F4BCC0288130E08901017012
:107D38001070103009F4003039F400E010E0021B34
:107D4800130BA8019A0100C0890115950795A80190
:107D58009801260D371D00E010E0201731075CF070
:107D68009A01260D371D00913222109133222017D7
:107D7800310708F401C090C000913920003009F0A3
:107D880064C0B0910407BF7DB09304070E9480517E
:107D98000023C1F08A01060D171D7F926F925F9232
:107DA8004F923F922F92480132012801E0913422EC
:107DB800F091352209952F903F904F905F906F90EA
:107DC8007F9015C08A01060D171D7F926F925F92F2
:107DD8004F923F922F922801E0913822F091392258
:107DE80009952F903F904F905F906F907F90522D04
:107DF800632D252F362F4216530608F13F932F93F4
:107E08007F926F925F924F923F922F9220902922F9
:107E180030902A22E0913622F091372209952F904E
:107E28003F904F905F906F907F902F913F91890185
:107E38000F5F1F4F502F612F252F362FDCCFB091AA
:107E48000407B062B093040727C0522D632D252F75
:107E5800362F4216530600F13F932F937F926F926D
:107E68005F924F923F922F92230160902922709047
:107E78002A2219010E944E2A2F903F904F905F901E
:107E88006F907F902F913F9189010F5F1F4F502F67
:107E9800612F252F362FDDCF08810F5F08833ECF56
:0E7EA8009F908F90CDBFDEBFDF91CF910895E8
:10B4D4000E941A3E002309F4FBCF0E945B3F0093B5
:10B4E4001622109317220E94C83F0093142210932F
:04B4F4001522089580
:107C3400CF93DF93CDB7DEB72197CDBFDEBF2196BB
:107C44002F92B091C407BB7FB093C407B091C4070F
:107C5400B77FB093C4070E94CE312090FC21E091FD
:107C6400D221F091D321099520910A2230910B223F
:107C74002017310700E00CF401E008830E947931F9
:107C84000E9479312090FC21E091D221F091D321FE
:107C9400099520910A2230910B222017310710E018
:107CA4000CF411E0088101232F90CDBFDEBFDF91DA
:047CB400CF910895CF
:1060B400022D0370202F30E0220F331F220F331FD5
:1060C400220F331F00E212E0020F131FA801F80190
:1060D400B1E0B083FA013196022D000F000F000FDA
:1060E4000083FA013296B0E0B083FA0100810068BF
:1060F400FA010083FA0133960081013009F0FACFE6
:10610400FA013396B1E0B083FA0134960081202F6E
:1061140030E0FA0135960081102F0027022B132B53
:026124000895DC
:10613A00022D0370202F30E0220F331F220F331F4E
:10614A00220F331F00E612E0020F131FA801F80105
:10615A00B1E0B083FA013196022D000F000F000F53
:10616A000083FA013296B0E0B083FA010081006838
:10617A00FA010083FA0133960081013009F0FACF5F
:10618A00FA013396B1E0B083FA0134960081202FE8
:10619A0030E0FA0135960081102F0027022B132BCD
:0261AA00089556
:1062F2001AE20EE80A95F1F71A95E1F700000895FF
:006302009B
:107EB6002F92B091C407B460B093C407B091C407C1
:107EC600B77FB093C4070E94CE3120901A22E0916A
:0C7ED600D221F091D32109952F9008953E
:107F90002F92B091C407BB7FB093C407B091C407C0
:107FA000B860B093C4070E94CE312090FC21E091CC
:0C7FB000D221F091D32109952F90089563
:10B4F8000E941A3E002309F4FBCF0E945B3F009391
:10B508001822109319220E94C83F00931B221093FF
:04B518001C22089554
:10C10200B0E0B093A123B093A223B0EFB093A323E6
:10C11200B0E0B093A423B0E4B093A523B1E0B09310
:10C12200A623B2E1B093A823B0E0B093A923BEE363
:10C13200B093AA23BCE0B093AB23B0E0B093AC239E
:10C14200B0E0B093AD23B1E0B093AE23B0E0B093D2
:10C15200AF23B2E6B093B023BCE0B093B123B0E01A
:10C16200B093B223B0E0B093B323B6E0B093B4235C
:10C17200B0E0B093B523B4E6B093B623BCE0B0937D
:10C18200B723B0E0B093B823B0E0B093B923B2E0E4
:10C19200B093BA23B0E0B093BB23B0E7B093BC2313
:10C1A200BCE0B093BD23B0E0B093BE23B0E0B09347
:10C1B200BF23BBE1B093A723B0E0B093C023B093F9
:10C1C200C123B0E4B093C223B1E0B093C323B0EF74
:10C1D200B093C423B0E0B093C523B0E0B093C723BB
:10C1E200B093C823B1E0B093CD23B0E0B093CE2397
:10C1F200B4E7B093CF23BCE0B093D023B0E0B093C8
:10C20200D123B0E0B093D223B4E0B093D323B0E013
:10C21200B093D423B6E7B093D523BCE0B093D62332
:10C22200B0E0B093D723B0E0B093D823B0E0B0939E
:10C23200D923B093DA23B5E0B093C623B1EAB09321
:10C24200EC24B3E2B093ED24B0E0B093EE24B0E07E
:10C25200B093EF24B093F024B2EAB093F124B0E0AB
:10C26200B093F224BCE3B093F324B0E0B093F4248F
:10C27200B8E2B093F524B0E0B093F624B1E0B09305
:10C28200F724B0E0B093F824B093F924B1E0B0936E
:10C29200FA24B1E0B093FB24B1E0B093FC24BFE4F4
:10C2A200B093FD24B0E2B093FE24BEE72B2EBCE097
:10C2B2003B2EB0E04B2EB0E05B2E2092FF2430925A
:10C2C20000254092012550920225B1E0B0930D2540
:10C2D200BFEFB0930325B0930425B1E0B0930525D9
:10C2E200B0E0B0930625B2E9B0930725B4E9B09364
:10C2F2000825B0E0B0930925B0930A25B8E1B093C0
:10C302000B25B6ECB0930C25B1E0B0930D25B8E146
:10C31200B0930E25B6ECB0930F25B0E0B093102584
:10C32200B0931125B0E0B0931225B0931325BEEC63
:10C33200B0931425B6E5B0931525B0E0B093162559
:10C34200B0931725B1EAB093C024B3E2B093C124ED
:10C35200B1E0B093C224B0E0B093C324B093C4243C
:10C36200BAECB093C524B0E0B093C624BCE3B0935A
:10C37200C724B0E0B093C824B8E2B093C924B0E0B7
:10C38200B093CA24B1E0B093CB24B0E0B093CC24F4
:10C39200B093CD24B1E0B093CE24B1E0B093CF24DA
:10C3A200B1E0B093D024BAEBB093D124B1E2B09310
:10C3B200D2242092D3243092D4244092D524509275
:10C3C200D624B1E0B093E124BFEFB093D724B09369
:10C3D200D824B1E0B093D924B0E0B093DA24B2E922
:10C3E200B093DB24B4E9B093DC24B0E0B093DD2455
:10C3F200B093DE24B8E1B093DF24B6ECB093E0242E
:10C40200B1E0B093E124B8E1B093E224B6ECB0938A
:10C41200E324B0E0B093E424B093E524B0E0B09319
:10C42200E624B093E724BAE2B093E824B4E5B093EB
:10C43200E924B0E0B093EA24B093EB24B1EAB093DC
:10C442001825B3E2B0931925B2E0B0931A25B0E0F3
:10C45200B0931B25B0931C25B2EFB0931D25B0E01D
:10C46200B0931E25BCE3B0931F25B0E0B093202506
:10C47200B8E2B0932125B0E0B0932225B1E0B093A9
:10C482002325B0E0B0932425B0932525B1E0B093E5
:10C492002625B1E0B0932725B1E0B0932825B6EA6E
:10C4A200B0932925B1E2B0932A2520922B25309210
:10C4B2002C2540922D2550922E25B1E0B09339259E
:10C4C200BFEFB0932F25B0933025B1E0B093312563
:10C4D200B0E0B0933225B2E9B0933325B4E9B0931A
:10C4E2003425B0E0B0933525B0933625B8E1B0934A
:10C4F2003725B6ECB0933825B1E0B0933925B8E1D1
:10C50200B0933A25B6ECB0933B25B0E0B0933C250E
:10C51200B0933D25B0E0B0933E25B0933F25B6E5FC
:10C52200B0934025B4E5B0934125B0E0B0934225E5
:10C53200B0934325B1EAB0937025B3E2B09371256D
:10C54200B3E0B0937225B0E0B0937325B093742535
:10C55200BAE1B0937525B1E0B0937625B8E7B09310
:10C562007725B0E0B0937825B8E2B0937925B0E0B2
:10C57200B0937A25B1E0B0937B25B0E0B0937C25EF
:10C58200B0937D25B1E0B0937E25B1E0B0937F25D5
:10C59200B1E0B0938025BEEAB0938125B1E2B093B9
:10C5A20082252092832530928425409285255092BF
:10C5B2008625B1E0B0939125BFEFB0938725B09364
:10C5C2008825B1E0B0938925B0E0B0938A25B2E91D
:10C5D200B0938B25B4E9B0938C25B0E0B0938D2550
:10C5E200B0938E25B8E1B0938F25B6ECB093902529
:10C5F200B1E0B0939125B8E1B0939225B6ECB09337
:10C602009325B0E0B0939425B0939525B0E0B09314
:10C612009625B0939725BAEFB0939825B6E5B093D7
:10C622009925B0E0B0939A25B0939B25B1EAB093D7
:10C632004425B3E2B0934525B4E0B0934625BCE36C
:10C64200B0934725B0E0B0934825B2EAB0934925AC
:10C65200B0E0B0934A25BCE3B0934B25B0E0B09371
:10C662004C25B8E2B0934D25B0E0B0934E25B1E031
:10C67200B0934F25B0E0B0935025B0935125B1E06F
:10C68200B0935225B1E0B0935325B1E0B093542555
:10C69200BCEAB0935525B1E2B093562520925725B6
:10C6A200309258254092592550925A25B1E0B093C4
:10C6B2006525BFEFB0935B25B0935C25B1E0B093E5
:10C6C2005D25B0E0B0935E25B2E9B0935F25B4E991
:10C6D200B0936025B0E0B0936125B0936225B8E1D4
:10C6E200B0936325B6ECB0936425B1E0B0936525B1
:10C6F200B8E1B0936625B6ECB0936725B0E0B0938D
:10C702006825B0936925B0E0B0936A25B0936B2594
:10C71200BCECB0936C25B7E5B0936D25B0E0B09357
:10C722006E25B0936F25B1EAB0931024B3E2B093B3
:10C732001124B5E0B0931224BCE3B0931324B0E00B
:10C74200B0931424BAECB0931524B0E0B09316243D
:10C75200BCE3B0931724B0E0B0931824B8E2B093CE
:10C762001924B0E0B0931A24B1E0B0931B24B0E0D6
:10C77200B0931C24B0931D24B1E0B0931E24B1E009
:10C78200B0931F24B1E0B0932024B2EBB0932124E4
:10C79200B1E2B093222420922324309224244092A6
:10C7A200252450922624B1E0B0933124BFEFB093F8
:10C7B2002724B0932824B1E0B0932924B0E0B093A9
:10C7C2002A24B2E9B0932B24B4E9B0932C24B0E02C
:10C7D200B0932D24B0932E24B8E1B0932F24B6EC5D
:10C7E200B0933024B1E0B0933124B8E1B093322455
:10C7F200B6ECB0933324B0E0B0933424B093352434
:10C80200B0E0B0933624B0933724B8EFB093382415
:10C81200B7E5B0933924B0E0B0933A24B0933B2407
:10C82200B1EAB093E423B3E2B093E523B6E0B09368
:10C83200E623BCE3B093E723B0E0B093E823B2EF82
:10C84200B093E923B0E0B093EA23BCE3B093EB23C7
:10C85200B0E0B093EC23B8E2B093ED23B0E0B09334
:10C86200EE23B1E0B093EF23B0E0B093F023B093A6
:10C87200F123B1E0B093F223B1E0B093F323B1E03E
:10C88200B093F423B0EBB093F523B1E2B093F62367
:10C892002092F7233092F8234092F9235092FA2300
:10C8A200B1E0B0930524BFEFB093FB23B093FC2318
:10C8B200B1E0B093FD23B0E0B093FE23B2E9B093B0
:10C8C200FF23B4E9B0930024B0E0B0930124B09305
:10C8D2000224B8E1B0930324B6ECB0930424B1E08F
:10C8E200B0930524B8E1B0930624B6ECB0930724C4
:10C8F200B0E0B0930824B0930924B0E0B0930A24C6
:10C90200B0930B24B6E2B0930C24B7E5B0930D2498
:10C91200B0E0B0930E24B0930F24B1EAB0933C245C
:10C92200B3E2B0933D24B7E0B0933E24B8E7B093AE
:10C932003F24B0E0B0934024BAE1B0934124B1E087
:10C94200B0934224BCE3B0934324B0E0B0934424B8
:10C95200B8E2B0934524B0E0B0934624B1E0B0937E
:10C962004724B0E0B0934824B0934924B1E0B09397
:10C972004A24B1E0B0934B24B1E0B0934C24B8EA1E
:10C98200B0934D24B1E2B0934E2420924F243092C2
:10C9920050244092512450925224B1E0B0935D242D
:10C9A200BFEFB0935324B0935424B1E0B093552415
:10C9B200B0E0B0935624B2E9B0935724B4E9B093EF
:10C9C2005824B0E0B0935924B0935A24B8E1B093FC
:10C9D2005B24B6ECB0935C24B1E0B0935D24B8E183
:10C9E200B0935E24B6ECB0935F24B0E0B0936024C1
:10C9F200B0936124B0E0B0936224B0936324B2E5B3
:10CA0200B0936424B7E5B0936524B0E0B093662494
:10CA1200B0936724B1EAB0939424B3E2B09395241F
:10CA2200B8E0B0939624B8E7B0939724B0E0B093FF
:10CA32009824B2EAB0939924B0E0B0939A24BCE36C
:10CA4200B0939B24B0E0B0939C24B8E2B0939D24B1
:10CA5200B0E0B0939E24B1E0B0939F24B0E0B093D5
:10CA6200A024B093A124B1E0B093A224B1E0B0938A
:10CA7200A324B1E0B093A424B2EAB093A524B1E216
:10CA8200B093A6242092A7243092A8244092A924ED
:10CA92005092AA24B1E0B093B524BFEFB093AB2477
:10CAA200B093AC24B1E0B093AD24B0E0B093AE2427
:10CAB200B2E9B093AF24B4E9B093B024B0E0B0933C
:10CAC200B124B093B224B8E1B093B324B6ECB093DE
:10CAD200B424B1E0B093B524B8E1B093B624B6EC77
:10CAE200B093B724B0E0B093B824B093B924B0E0C7
:10CAF200B093BA24B093BB24B5EBB093BC24BAE490
:10CB0200B093BD24B0E0B093BE24B093BF24B1EA89
:10CB1200B0936824B3E2B0936924B9E0B0936A2475
:10CB2200B8E7B0936B24B0E0B0936C24BAECB09346
:10CB32006D24B0E0B0936E24BCE3B0936F24B0E0F8
:10CB4200B0937024B8E2B0937124B0E0B093722431
:10CB5200B1E0B0937324B0E0B0937424B093752421
:10CB6200B1E0B0937624B1E0B0937724B1E0B09312
:10CB72007824B0EAB0937924B1E2B0937A24209277
:10CB82007B2430927C2440927D2450927E24B1E01A
:10CB9200B0938924BFEFB0937F24B0938024B1E097
:10CBA200B0938124B0E0B0938224B2E9B09383249D
:10CBB200B4E9B0938424B0E0B0938524B093862482
:10CBC200B8E1B0938724B6ECB0938824B1E0B09377
:10CBD2008924B8E1B0938A24B6ECB0938B24B0E0F8
:10CBE200B0938C24B0938D24B0E0B0938E24B09394
:10CBF2008F24B1EEB0939024BAE4B0939124B0E0C4
:10CC0200B0939224B0939324B1EAB0939C25B3E2FB
:10CC1200B0939D25BAE0B0939E25B9E7B0939F25C6
:10CC2200B0E0B093A025B2EFB093A125B0E0B093ED
:10CC3200A225BCE3B093A325B0E0B093A425B8E24B
:10CC4200B093A525B0E0B093A625B1E0B093A72597
:10CC5200B0E0B093A825B093A925B1E0B093AA257E
:10CC6200B1E0B093AB25B1E0B093AC25B4EAB09398
:10CC7200AD25B1E2B093AE252092AF253092B0251A
:10CC82004092B1255092B225B1E0B093BD25BFEFDD
:10CC9200B093B325B093B425B1E0B093B525B0E01D
:10CCA200B093B625B2E9B093B725B4E9B093B825ED
:10CCB200B0E0B093B925B093BA25B8E1B093BB25E3
:10CCC200B6ECB093BC25B1E0B093BD25B8E1B0930A
:10CCD200BE25B6ECB093BF25B0E0B093C025B093AB
:10CCE200C125B0E0B093C225B093C325B9E8B09393
:10CCF200C425BAE4B093C525B0E0B093C625B0937D
:10CD0200C725B1EAB093B226B3E2B093B326BBE033
:10CD1200B093B426B8E7B093B526B0E0B093B62688
:10CD2200BBE7B093B726B0E0B093B826BCE3B093AC
:10CD3200B926B0E0B093BA26B8E2B093BB26B0E011
:10CD4200B093BC26B1E0B093BD26B0E0B093BE264E
:10CD5200B093BF26B1E0B093C026B1E0B093C12634
:10CD6200B1E0B093C226B4EBB093C326B1E2B09364
:10CD7200C4262092C5263092C6264092C7265092DB
:10CD8200C826B1E0B093D326BFEFB093C926B093C3
:10CD9200CA26B1E0B093CB26B0E0B093CC26B2E97C
:10CDA200B093CD26B4E9B093CE26B0E0B093CF26AF
:10CDB200B093D026B8E1B093D126B6ECB093D22688
:10CDC200B1E0B093D326B8E1B093D426B6ECB093D9
:10CDD200D526B0E0B093D626B093D726B0E0B09374
:10CDE200D826B093D926BDE0B093DA26BBE4B0933F
:10CDF200DB26B0E0B093DC26B093DD26B1EAB09337
:10CE02008626B3E2B0938726BCE0B0938826B4EBC3
:10CE1200B0938926B0E0B0938A26BBE7B0938B2605
:10CE2200B0E0B0938C26BCE3B0938D26B0E0B09313
:10CE32008E26B8E2B0938F26B0E0B0939026B1E090
:10CE4200B0939126B0E0B0939226B0939326B1E0CE
:10CE5200B0939426B1E0B0939526B1E0B0939626B4
:10CE6200B6EBB0939726B1E2B0939826209299261A
:10CE720030929A2640929B2650929C26B1E0B09323
:10CE8200A726BFEFB0939D26B0939E26B1E0B09344
:10CE92009F26B0E0B093A026B2E9B093A126B4E9F0
:10CEA200B093A226B0E0B093A326B093A426B8E133
:10CEB200B093A526B6ECB093A626B1E0B093A72610
:10CEC200B8E1B093A826B6ECB093A926B0E0B0932F
:10CED200AA26B093AB26B0E0B093AC26B093AD26B1
:10CEE200B7ECB093AE26BDE4B093AF26B0E0B093FA
:10CEF200B026B093B126B1EAB093DE26B3E2B09386
:10CF0200DF26BDE0B093E026B4EBB093E126B0E0BB
:10CF1200B093E226B2EAB093E326B0E0B093E426FF
:10CF2200BCE3B093E526B0E0B093E626B8E2B09356
:10CF3200E726B0E0B093E826B1E0B093E926B0E08E
:10CF4200B093EA26B093EB26B1E0B093EC26B1E0C1
:10CF5200B093ED26B1E0B093EE26B8EBB093EF2696
:10CF6200B1E2B093F0262092F1263092F22640925E
:10CF7200F3265092F426B1E0B093FF26BFEFB093B0
:10CF8200F526B093F626B1E0B093F726B0E0B09361
:10CF9200F826B2E9B093F926B4E9B093FA26B0E0E4
:10CFA200B093FB26B093FC26B8E1B093FD26B6EC15
:10CFB200B093FE26B1E0B093FF26B8E1B09300270C
:10CFC200B6ECB0930127B0E0B0930227B0930327E9
:10CFD200B0E0B0930427B0930527B8E5B0930627D5
:10CFE200BCE4B0930727B0E0B0930827B0930927B9
:10CFF200B1EAB0933627B3E2B0933727BEE0B093DD
:10D002003827B4EBB0933927B0E0B0933A27BAECA3
:10D01200B0933B27B0E0B0933C27BCE3B0933D27ED
:10D02200B0E0B0933E27B8E2B0933F27B0E0B093B0
:10D032004027B1E0B0934127B0E0B0934227B093CC
:10D042004327B1E0B0934427B1E0B0934527B1E064
:10D05200B0934627BCEBB0934727B1E2B093482781
:10D062002092492730924A2740924B2750924C27D0
:10D07200B1E0B0935727BFEFB0934D27B0934E273F
:10D08200B1E0B0934F27B0E0B0935027B2E9B0932C
:10D092005127B4E9B0935227B0E0B0935327B0932D
:10D0A2005427B8E1B0935527B6ECB0935627B1E0B8
:10D0B200B0935727B8E1B0935827B6ECB0935927ED
:10D0C200B0E0B0935A27B0935B27B0E0B0935C27EF
:10D0D200B0935D27B8E8B0935E27BCE4B0935F27B6
:10D0E200B0E0B0936027B0936127B1EAB0934323D5
:10D0F200B3E2B0934423BFE0B0934523B0E0B093D2
:10D102004623B0934723BAE1B0934823B0E0B093EB
:10D112004923B0EFB0934A23B0E0B0934B23B1E67A
:10D12200B0934C23B0E0B0934D23B0E0B0934E23C4
:10D13200B0E0B0934F23B0935023B1E0B0935123AA
:10D14200B1E0B0935223B1E0B0935323B0E0B09377
:10D152005423B0E0B0935523B0EEB0935623B7E01A
:10D16200B0935723B0E4B0935823B5E0B09359235A
:10D17200B8EEB0935A23B7E0B0935B23B0E0B0931C
:10D182005C23B0E1B0935D23B4E8B0935E23B0E0DA
:10D19200B0935F23B0936023B0E0B0936123B09368
:10D1A2006223B0E0B0936323B0936423B0E0B09302
:10D1B2006523B0936623B1EAB0930A27B3E2B09332
:10D1C2000B27B0E1B0930C27B0E0B0930D27B093DA
:10D1D2000E27BBE7B0930F27B0E0B0931027BCE354
:10D1E200B0931127B0E0B0931227B8E2B09313279F
:10D1F200B0E0B0931427B1E0B0931527B0E0B0933C
:10D202001627B0931727B1E0B0931827B1E0B09377
:10D212001927B1E0B0931A27BCE9B0931B27B1E2FA
:10D22200B0931C2720921D2730921E2740921F2761
:10D2320050922027B1E0B0932B27BFEFB093212764
:10D24200B0932227B1E0B0932327B0E0B093242714
:10D25200B2E9B0932527B4E9B0932627B0E0B093A2
:10D262002727B0932827B8E1B0932927B6ECB093CB
:10D272002A27B1E0B0932B27B8E1B0932C27B6EC64
:10D28200B0932D27B0E0B0932E27B0932F27B0E0B4
:10D29200B0933027B0933127BDE3B0933227BBE47C
:10D2A200B0933327B0E0B0933427B0933527B1EA77
:10D2B200B093F425B3E2B093F525B1E1B093F6252E
:10D2C200BCE3B093F725B0E0B093F825BBE7B09389
:10D2D200F925B0E0B093FA25BCE3B093FB25B0E0AA
:10D2E200B093FC25B8E2B093FD25B0E0B093FE25E3
:10D2F200B1E0B093FF25B0E0B0930026B0930126D1
:10D30200B1E0B0930226B1E0B0930326B1E0B0934E
:10D312000426BDEBB0930526B0E2B0930626209218
:10D322000726309208264092092650920A26B1E03A
:10D33200B0931526BFEFB0930B26B0930C26B1E045
:10D34200B0930D26B0E0B0930E26B2E9B0930F264B
:10D35200B4E9B0931026B0E0B0931126B093122630
:10D36200B8E1B0931326B6ECB0931426B1E0B093B3
:10D372001526B8E1B0931626B6ECB0931726B0E0A6
:10D38200B0931826B0931926B0E0B0931A26B09342
:10D392001B26B8EBB0931C26BCE4B0931D26B0E06C
:10D3A200B0931E26B0931F26B1EAB093C825B3E20C
:10D3B200B093C925B2E1B093CA25B4EBB093CB25A3
:10D3C200B0E0B093CC25B2EFB093CD25B0E0B093EE
:10D3D200CE25BCE3B093CF25B0E0B093D025B0E525
:10D3E200B093D125B0E0B093D225B1E0B093D3256C
:10D3F200B0E0B093D425B093D525B1E0B093D62553
:10D40200B1E0B093D725B1E0B093D825BBEBB09390
:10D41200D925B0E2B093DA252092DB253092DC25C3
:10D422004092DD255092DE25B1E0B093E925BFEFB1
:10D43200B093DF25B093E025B1E0B093E125B0E0F1
:10D44200B093E225B2E9B093E325B4E9B093E425C1
:10D45200B0E0B093E525B093E625B8E1B093E725B7
:10D46200B6ECB093E825B1E0B093E925B8E1B0930A
:10D47200EA25B6ECB093EB25B0E0B093EC25B0937F
:10D48200ED25B0E0B093EE25B093EF25BBEBB09362
:10D49200F025BCE4B093F125B0E0B093F225B0934F
:10D4A200F325B1EAB0937122B3E2B0937222B3E1F1
:10D4B200B0937322B0E0B0937422B0937522B0E0BF
:10D4C200B0937622B0937722B0EFB0937822B0E097
:10D4D200B0937922BAE1B0937A22B0E0B0937B2282
:10D4E200B1E0B0937C22B0E0B0937D22B0937E2273
:10D4F200B1E0B0937F22B1E0B0938022B1E0B0936B
:10D502008122B1E0B0938222B0E0B0938322B2E9EB
:10D51200B0938422B4E9B0938522B0E0B09386221E
:10D52200B0938722B8E1B0938822B6ECB0938922F7
:10D53200B0E0B0938A22B0E1B0938B22B4E8B0930A
:10D542008C22B0E0B0938D22B0938E22B0E0B093E3
:10D552008F22B0939022B0E0B0939122B0939222A6
:10D56200B0E0B0939322B0939422B1EAB0936926CB
:10D57200B3E2B0936A26B4E1B0936B26B4E0B09301
:10D582006C26B0E0B0936D26B2E2B0936E26B0E0A6
:10D59200B0936F26B5E1B0937026B0E0B0937126D8
:10D5A200B6E1B0937226B0E0B0937326B1E0B093C7
:10D5B2007C26B1E0B0937D26B3ECB0937426B0E242
:10D5C200B09375264EED5DE160E070E04093762603
:10D5D200509377266093782670937926B0E0B093C3
:10D5E2007A26B0937B26B0E0B0937E26B0937F2656
:10D5F200B0E0B0938026B0938126B0E0B09382264B
:10D60200B0938326B0E0B0938426B0938526B1EA26
:10D61200B0934C26B3E2B0934D26B5E1B0934E26BB
:10D62200B4E0B0934F26B0E0B0935026B7E3B09386
:10D632005126B0E0B0935226B5E1B0935326B0E044
:10D64200B0935426B6E1B0935526B0E0B093562677
:10D65200B1E0B0935F26B1E0B0936026BFEBB09328
:10D662005726B0E2B09358264093592650935A2633
:10D6720060935B2670935C26B0E0B0935D26B09316
:10D682005E26B0E0B0936126B0936226B0E0B0931C
:10D692006326B0936426B0E0B0936526B093662605
:10D6A200B0E0B0936726B0936826B1EAB09309233D
:10D6B200B3E2B0930A23B6E1B0930B23B4E0B09384
:10D6C2000C23B0E0B0930D23BBE4B0930E23B0E083
:10D6D200B0930F23B5E1B0931023B0E0B0931123C0
:10D6E200B6E1B0931223B0E0B0931323B1E0B0934C
:10D6F2001C23B1E0B0931D23B7EAB0931423B0E228
:10D70200B093152340931623509317236093182345
:10D7120070931923B0E0B0931A23B0931B23B0E0A7
:10D72200B0931E23B0931F23B0E0B0932023B09395
:10D732002123B0E0B0932223B0932323B0E0B0932F
:10D742002423B0932523B1EAB093EC22B3E2B09341
:10D75200ED22B7E1B093EE22B4E0B093EF22B0E055
:10D76200B093F022B0E6B093F122B0E0B093F2228F
:10D77200B5E1B093F322B0E0B093F422B6E1B093F6
:10D78200F522B0E0B093F622B1E0B093FF22B1E00F
:10D79200B0930023B1E9B093F722B0E2B093F8223C
:10D7A2004093F9225093FA226093FB227093FC2259
:10D7B200B0E0B093FD22B093FE22B0E0B09301231B
:10D7C200B0930223B0E0B0930323B0930423B0E0FC
:10D7D200B0930523B0930623B0E0B0930723B09330
:10D7E2000823B1EAB0932623B3E2B0932723B8E12A
:10D7F200B0932823B8E3B0932923B0E0B0932A234F
:10D80200B5E0B0932B23B0E0B0932C23BBE7B093E9
:10D812002D23B0E0B0932E23B2E1B0932F23B0E0DA
:10D82200B0933023B1E0B0933923B1E0B0933A23FF
:10D83200B3E8B0933123B0E2B093322309EA1FE296
:10D8420020E030E0009333231093342320933523D8
:10D8520030933623BFEFB0933723B0933823B0E031
:10D86200B0933B23B0933C23B0E0B0933D23B093FD
:10D872003E23B0E0B0933F23B0934023B0E0B09397
:10D882004123B0934223B1EAB0936723B3E2B0934A
:10D892006823B9E1B0936923BCE1B0936A23B0E095
:10D8A200B0936B23B0E6B0936C23B0E0B0936D23DA
:10D8B200B5E1B0936E23B0E0B0936F23B6E1B093BD
:10D8C2007023B0E0B0937123B1E0B0937A23B1E05A
:10D8D200B0937B23B5E9B0937223B0E2B093732384
:10D8E2004093742350937523609376237093772328
:10D8F200B0E0B0937823B0937923B0E0B0937C2367
:10D90200B0937D23B0E0B0937E23B0937F23B0E049
:10D91200B0938023B0938123B0E0B0938223B0937D
:10D922008323B1EAB0932026B3E2B0932126BAE171
:10D93200B0932226B3ECB0932326B0E0B093242612
:10D94200B2E0B0932526B0E0B0932626B1E2B093C0
:10D952002726B0E0B0932826B4E1B0932926B0E0A0
:10D96200B0932A26B1E0B0932B26B0E0B0932C26D8
:10D97200B0932D26B1E0B0932E26B1E0B0932F26BE
:10D98200B1E0B0933026B3E9B0933126B0E2B09360
:10D99200322605E91BE320E030E0009333261093A2
:10D9A20034262093352630933626B1E0B0934126B3
:10D9B200B0E0B0933726B0933826B1E0B093392661
:10D9C200B0E0B0933A26B0E0B0933B26B8EFB09304
:10D9D2003C26B8E0B0933D26BAEFB0933E26B8E1BC
:10D9E200B0933F26B6ECB0934026B1E0B093412607
:10D9F200B0E1B0934226B4E8B0934326B0E0B093CE
:10DA02004426B0934526B0E0B0934626B09347260D
:10DA1200BEE5B0934826B2E5B0934926B0E0B09394
:10DA22004A26B0934B26B0ECB0939522B3E2B09362
:10DA32009622B0E0B0939722B8E1B0939822B0E07A
:10DA4200B0939922BBE1B0939A22B0E0B0939B22AB
:10DA5200B4E1B0939C22B1E0B0939D22B8E1B093BF
:10DA62009E22B0E0B0939F22B1E0B093A822B1E031
:10DA7200B093A922B7EDB093A022B0E2B093A12255
:10DA82002092A2223092A3224092A4225092A52256
:10DA9200B0E0B093A622B8EFB093A722B0E0B09363
:10DAA200AA22B093AB22B0E0B093AC22B093AD22E5
:10DAB200B0E0B093AE22B093AF22B0E0B093B02208
:10DAC200B093B122B0ECB093CF22B3E2B093D022A4
:10DAD200B1E0B093D122BCE0B093D222B0E0B093D7
:10DAE200D322BAE4B093D422B0E0B093D522B1E20B
:10DAF200B093D622B1E0B093D722BFE0B093D82240
:10DB0200B0E0B093D922B1E0B093E222B1E0B09399
:10DB1200E322B8E0B093DA22B1E2B093DB2241E330
:10DB220052E460E070E04093DC225093DD22609387
:10DB3200DE227093DF22BFEFB093E022B7E0B09312
:10DB4200E122B0E0B093E422B093E522B0E0B093DA
:10DB5200E622B093E722B0E0B093E822B093E92244
:10DB6200B0E0B093EA22B093EB22B0ECB09345223E
:10DB7200B3E2B0934622B2E0B0934722B5E9B09344
:10DB82004822B0E0B0934922B4EBB0934A22B0E00D
:10DB9200B0934B22B6E9B0934C22B0E0B0934D2241
:10DBA200B6E2B0934E22B0E0B0934F22B1E0B09310
:10DBB2005022B0E0B0935122B0935222B1E0B09320
:10DBC2005322B1E0B0935422B1E0B0935522BEEE9D
:10DBD200B0935622B0E2B093572209E31AE420E050
:10DBE20030E0009358221093592220935A22309306
:10DBF2005B22B1E0B0936622B0E0B0935C22B093B6
:10DC02005D22B1E0B0935E22B0E0B0935F22BFEF3D
:10DC1200B0936022B0936122B0E1B0936222B4E883
:10DC2200B0936322B0E1B0936422B4E8B09365226A
:10DC3200B1E0B0936622B0E1B0936722B4E8B0934A
:10DC42006822B0E0B0936922B0936A22B0E0B09348
:10DC52006B22B0936C22BCE1B0936D22B1E5B0931C
:10DC62006E22B0E0B0936F22B0937022B0ECB0930A
:10DC7200B222B3E2B093B322B3E0B093B422BCE0D9
:10DC8200B093B522B0E0B093B622BEE5B093B7220E
:10DC9200B0E0B093B822BCE1B093B922B1E0B09346
:10DCA200BA22BFE0B093BB22B0E0B093BC22B1E095
:10DCB200B093C522B1E0B093C622BCE6B093BD22B8
:10DCC200B1E2B093BE224093BF225093C022609330
:10DCD200C1227093C222BFEFB093C322B7E0B093C8
:10DCE200C422B0E0B093C722B093C822B0E0B09390
:10DCF200C922B093CA22B0E0B093CB22B093CC2217
:10DD0200B0E0B093CD22B093CE22B0ECB093842396
:10DD1200B3E2B0938523B4E0B0938623BCE0B09322
:10DD22008723B0E0B0938823B4E7B0938923B0E0AF
:10DD3200B0938A23B7E3B0938B23B1E0B0938C23E3
:10DD4200BFE0B0938D23B0E0B0938E23B1E0B093E7
:10DD52009723B1E0B0939823BAE3B0938F23B1E253
:10DD6200B0939023409391235093922360939323F3
:10DD720070939423BFEFB0939523B7E0B0939623AB
:10DD8200B0E0B0939923B0939A23B0E0B0939B2371
:10DD9200B0939C23B0E0B0939D23B0939E23B0E058
:0ADDA200B0939F23B093A0230895CF
:10E56800CF93DF93CDB7DEB72F97CDBFDEBF219610
:10E578004F925F926F927F92B0E0B883B0E0B98318
:10E58800B0E0BC83B0E0BF83B0E0BA8720926627D2
:10E5980030926727F10132962191319100916427D9
:10E5A800109165270217130781F4009166271091CF
:10E5B8006727F801349621913191009162271091D3
:10E5C80063270217130709F46FC000904406BB279E
:10E5D80004FCB395BD8700904006BB2704FCB395A7
:10E5E800BE87B0914006B061B0934006B091440632
:10E5F800BF7EB09344060091662710916727F80103
:10E60800349621913191F8013296019111913F92FE
:10E618002F92290118010E94BC5000916627109181
:10E628006727F801349621913191F80132960191CA
:10E638001191B2E07B2EB1E06B2E290118010E94E6
:10E648004551BCEB2B2EB2E03B2E0E945952E09173
:10E658006627F0916727019111911801A3DB2F908C
:10E668003F902091662730916727F90132960191F2
:10E6780011910093642710936527F901349601914D
:10E6880011910093622710936327BD85B0FBB09169
:10E698004406B4F9B0934406BE85B0FBB091400679
:10E6A800B4F9B09340060CC0E0916627F091672753
:10E6B800019111913F922F92180174DB2F903F9096
:10E6C8002092662730926727009166271091672766
:10E6D800F801369610810881011708F0F5C00091FD
:10E6E800662710916727F8013796219131910981A2
:10E6F80010E00217130780F500916627109167272D
:10E70800F80139964191519161917191098110E017
:10E71800212F312F000F111F221F331F040F151F28
:10E72800261F371F2BBFF801079117910A831B83F8
:10E73800F801329610810881011771F409810F5F81
:10E74800098308810F5F08833F922F922A803B80BC
:10E758000E9424582F903F900091662710916727B8
:10E76800F8013D96219131910C8110E002171307B1
:10E7780080F50091662710916727F8013F9641912F
:10E788005191619171910C8110E0212F312F000F6F
:10E79800111F221F331F040F151F261F371F2BBFE2
:10E7A800F801079117910D831E83F80132961081A5
:10E7B8000881011771F408810F5F08830C810F5FCE
:10E7C8000C833F922F922D803E800E941E592F90DD
:10E7D8003F900091662710916727F8017396219161
:10E7E80031910F8110E00217130780F50091662719
:10E7F80010916727F8017596419151916191719136
:10E808000F8110E0212F312F000F111F221F331FFE
:10E81800040F151F261F371F2BBFF80107911791EB
:10E8280008871987F801329610810881011771F459
:10E838000F810F5F0F8308810F5F08833F922F922C
:10E84800288439840E948E5A2F903F900091662721
:10E8580010916727F8017996219131910A8510E086
:10E868000217130780F50091662710916727F801B2
:10E878007B9641915191619171910A8510E0212F08
:10E88800312F000F111F221F331F040F151F261FC2
:10E89800371F2BBFF801079117910B871C87F801C9
:10E8A800329610810881011771F40A850F5F0A8773
:10E8B80008810F5F08833F922F922B843C840E942B
:10E8C800425B2F903F9000CF7F906F905F904F906A
:0CE8D8002E96CDBFDEBFDF91CF910895DA
:10B048002F923F924F925F926F927F928F929F9230
:10B05800F1013E960081013009F0E3C00091E1233F
:10B06800013069F5B0E0B093E123F1017B9671916D
:10B078008191F1017D9651916191F1017A9640811A
:10B08800F10179963081F1017F9611912191F101B9
:10B09800709600813F922F92752E862E642E532E25
:10B0A800312E422E202E8F937F930E94F749ADB701
:10B0B800BEB71296ADBFBEBF2F903F9029C0F10119
:10B0C8007D9671918191F1017B9651916191F10188
:10B0D8007A964081F10179963081F1017F9611913C
:10B0E8002191F101709600813F922F92752E862E44
:10B0F800642E532E312E422E202E8F937F930E9442
:10B10800F749ADB7BEB71296ADBFBEBF2F903F90FF
:10B11800F1013B962081F1013C96019111913F92FA
:10B128002F92422E18010E94134A2F903F90F1014E
:10B13800359661917191F101399601911191060F3E
:10B14800171FA80141505040F101339621913191C8
:10B15800F101379601911191020F131F0150104010
:10B168003F922F924A0138012B0119010E94034591
:10B178002F903F90F101779641915191F10173968B
:10B1880001911191219131913F922F9288243A0196
:10B19800180129010E94664F2F903F90F1013596C2
:10B1A80041915191F101339621913191F1017196BB
:10B1B800019111913F922F923A01290118010E94A1
:10B1C800254A2F903F90F101359621913191F10157
:10B1D8003996019111910090E2231090E323001910
:10B1E800110916950795A801420F531FF1013396CF
:10B1F80021913191F1013796019111910090DF234E
:10B208001090E0230019110916950795200F311F9A
:10B21800F1017196019111913A01290118010E94D9
:10B22800BF4F9F908F907F906F905F904F903F900F
:04B238002F900895B6
:108A0600CF93DF93CDB7DEB72597CDBFDEBF2196D7
:108A16000091D42106959101201BB0E03B0BA901E2
:108A260000E010E0201731071CF440E050E00FC0D2
:108A36000091F6211091F7214017510740F000915F
:108A4600F6211091F72101501040A80100C00091B5
:108A5600D42110E001501040159507959801260D78
:108A6600371D2B833C8300E010E02017310724F4E8
:108A7600B0E0BB83BC8311C02B813C810091F62101
:108A86001091F7212017310740F00091F62110913F
:108A9600F721015010400B831C830091D421002341
:108AA60009F455C05F934F939F928F927F926F9276
:108AB6005F924F923F922F9232014B805C801A0157
:108AC600F8D82F903F904F905F906F907F908F9047
:108AD6009F904F915F919F928F927F926F925F923C
:108AE6004F923F922F9234014B805C801A01E1D85D
:108AF6002F903F904F905F906F907F908F909F90B8
:108B06009F928F927F926F925F924F923F922F9297
:108B160031011201240179DE2F903F904F905F9032
:108B26006F907F908F909F909F928F927F926F927F
:108B36005F924F923F922F921201240166DE2F9090
:108B46003F904F905F906F907F908F909F90009195
:108B56002B22002309F41AC10091292210912A22FE
:108B6600088319834091D4214A83042F10E00F5FB4
:108B76001F4F9801359527958901020D131D180180
:108B86008901040D151D2801042F10E00E5F1F4FEB
:108B96009801359527958301021B130B3801840133
:108BA600021B130B480100912C22002309F4B2C0CA
:108BB60000912F22003009F056C0C201AC01841684
:108BC600950608F44FC09401241935098A01041941
:108BD60015095F934F939F928F927F926F925F9248
:108BE6004F923F922F924901380140902322509094
:108BF600242220902D2230902E220E94D6302F90B3
:108C06003F904F905F906F907F908F909F904F9185
:108C16005F915F924F923F922F92B1E04B2E1801D7
:108C2600FFD32F903F904F905F905F934F939F920B
:108C36008F927F926F925F924F923F922F92230173
:108C46003A0137D82F903F904F905F906F907F906A
:108C56008F909F904F915F918A010F5F1F4FC801C0
:108C6600AC01ADCF56C0C101AC016416750608F45F
:108C760050C09301221933098A01021913095F931F
:108C86004F939F928F927F926F925F924F923F92F5
:108C96002F9249013801409023225090242220909F
:108CA6002D2230902E220E94D6302F903F904F904A
:108CB6005F906F907F908F909F904F915F915F92A2
:108CC6004F923F922F92B1E04B2E1801A9D32F90CD
:108CD6003F904F905F905F934F939F928F927F92BA
:108CE6006F925F924F923F922F923A0112012401A6
:108CF6008CDD2F903F904F905F906F907F908F907C
:108D06009F904F915F918A010F5F1F4FC801AC0181
:108D1600ACCF33C05F924F923F922F92B1E04B2E71
:108D260020902122309022227BD32F903F904F908B
:108D36005F9092018216930600F13F932F939F92C4
:108D46008F927F926F925F924F923F922F92230162
:108D560039010E945C3E2F903F904F905F906F903C
:108D66007F908F909F902F913F9189010F5F1F4FAA
:108D7600502F612F252F362FDDCF088119810093C3
:108D8600292210932A220A810093D4212496CDBF4A
:088D9600DEBFDF91CF910895CB
:1061AC00CF93DF93CDB7DEB72897CDBFDEBF219657
:1061BC002F923F924F925F92B0E07B1611F4B0E0B9
:1061CC006B1611F4810185C06814790411F48201F5
:1061DC0080C0AE014A5F5F4F9E012D5F3F4F8E0125
:1061EC009F928F927F926F925F924F924A013901E8
:1061FC00280128D84F905F90AE01495F5F4F9E01F8
:10620C002C5F3F4F8E010F5F1F4F4A013901120166
:10621C00280118D86F907F908F909F90A30160E019
:10622C00762F098110E00880B0E01B2E00191109AF
:10623C0020E017FD2FEF322FCCD89F928F927F92B8
:10624C006F92A40160E0762FE2D889019A016F90D9
:10625C007F908F909F904881040F0A83A30160E088
:10626C00762F0C8110E00B80B0E01B2E0019110969
:10627C0020E017FD2FEF322FACD89F928F927F9298
:10628C006F92A40160E0762FC2D889019A016F90B9
:10629C007F908F909F904B81040F0D83A30160E042
:1062AC00762F0F8110E00E80B0E01B2E0019110923
:1062BC0020E017FD2FEF322F8CD8A40160E0762F51
:1062CC00A6D889019A014E81040F402E3D802A8068
:1062DC002AD85F904F903F902F902796CDBFDEBF6E
:0662EC00DF91CF9108953F
:10525000BBE0810116950795BA95E1F7000F000FA5
:10526000000FF2010083B5E0810116950795BA950C
:10527000E1F7000F000FF3010083022D000F000F74
:08528000000FF4010083089502
:10533200022D069506950695202EBBE0202F30E023
:10534200220F331FBA95E1F7032D06950695302EED
:10535200B5E010E0000F111FBA95E1F7202B312BB9
:10536200042D069506950695402E10E0022B132B70
:0253720008959C
:1053DE00049FD001159FF001249FE00DF11D069F43
:1053EE00E00DF11D349FF00D259FF00D169FF00D71
:1053FE00079FF00D3327149FB00DE11DF31F059F7E
:0C540E00B00DE11DF31F8D019F010895FA
:10541A00C9019A01AB01B80197FB092E05260ED0E6
:10542A0057FD04D014D00AD0001C38F4509540958A
:10543A00309521953F4F4F4F5F4F0895F6F790955E
:10544A008095709561957F4F8F4F9F4F0895A1E288
:10545A001A2EAA1BBB1BFD010DC0AA1FBB1FEE1FE4
:10546A00FF1FA217B307E407F50720F0A21BB30B2F
:10547A00E40BF50B661F771F881F991F1A9469F7AB
:10548A0060957095809590959B01AC01BD01CF0107
:02549A00089573
:10944A0020E030E00091F6211091F72140165106F4
:10945A0008F059C000913222109133226016710629
:10946A0008F051C0B0E0B093DF23B093E023B0E03E
:10947A00B093E223B093E323F10181010F5F1F4F01
:10948A0018010081102F002391F10091FD21002382
:10949A00D9F03F932F937F926F925F924F923F92B0
:1094AA002F92212EB0E03B2E0E940F302F903F903A
:1094BA004F905F906F907F902F913F910F5F1F4F5A
:1094CA00020F131F980112C03F932F933F922F92BE
:1094DA00212EB0E03B2E0E949C2F2F903F902F917F
:1094EA003F910F5F1F4F020F131F9801C5CF2093A3
:1094FA00DF233093E023009143221091442200930A
:08950A00E2231093E32308950E
:10601E002F923F924F925F926F927F920091302219
:10602E00109131222016310618F400E010E034C031
:10603E0000913E2210913F220215130518F400E044
:10604E0010E02AC0009030221090312281010019F8
:10605E001109A801440F551F440F551F00911D2211
:10606E0010911E2220911F2230912022085F1F4F77
:10607E002F4F3F4F040F151FB0E02B1F3B1FB4E0F7
:10608E006B2EB0E07B2E1801290157DA1EEF21E2AC
:10609E00E12FF22F008110E07F906F905F904F9074
:0660AE003F902F900895C1
:105F38004F925F926F927F928F920091382000303B
:105F480091F404EF11E03F922F928824662477247D
:105F58001801B0E04B2E542C0E94664F2F903F90B2
:105F6800B1E0B093382000913022109131222016F0
:105F7800310618F400E010E02BC000913E22109189
:105F88003F220215130518F400E010E021C000902C
:105F9800302210903122810100191109A801440F03
:105FA800551F440F551F00913A2210913B22209112
:105FB8003C2230913D22085F1F4F2F4F3F4F040F67
:105FC800151FB0E02B1F3B1F2BBFF801069110E0F7
:0C5FD8008F907F906F905F904F90089525
:10B23C002F923F924F925F926F927F928F929F923A
:10B24C00F1013E960081013009F035C10091E123F6
:10B25C00013069F5B0E0B093E123F1017B96719177
:10B26C008191F1017D9651916191F1017A96408124
:10B27C00F10179963081F1017F9611912191F101C3
:10B28C00709600813F922F92752E862E642E532E2F
:10B29C00312E422E202E8F937F930E94F749ADB70B
:10B2AC00BEB71296ADBFBEBF2F903F9029C0F10123
:10B2BC007D9671918191F1017B9651916191F10192
:10B2CC007A964081F10179963081F1017F96119146
:10B2DC002191F101709600813F922F92752E862E4E
:10B2EC00642E532E312E422E202E8F937F930E944C
:10B2FC00F749ADB7BEB71296ADBFBEBF2F903F900A
:10B30C00F1013B962081F1013C96019111913F9204
:10B31C002F92422E18010E94134A2F903F90F10158
:10B32C00399621913191F1013796019111910217C2
:10B33C001307B0F5F1013796419151912A015694BA
:10B34C00479456944794F101359621913191F1012E
:10B35C00399601911191020F131FC8010297F10147
:10B36C003396619171918A01060F171FA801425003
:10B37C0050402F5F3F4F8B010F5F1F4F3F922F921B
:10B38C005F924F924C013A01290118010E942E3311
:10B39C00ADB7BEB71296ADBFBEBF2F903F9034C0B5
:10B3AC00F1013996019111912801569447945694C4
:10B3BC004794F101359621913191020F131FC80169
:10B3CC000297F101339661917191F10137960191D8
:10B3DC001191060F171FA801425050402F5F3F4F8D
:10B3EC008B010F5F1F4F3F922F925F924F924C0138
:10B3FC003A01290118010E942E33ADB7BEB712963F
:10B40C00ADBFBEBF2F903F90F10177964191519106
:10B41C00F101739601911191219131913F922F92EB
:10B42C0088243A01180129010E94664F2F903F9001
:10B43C00F101359641915191F10133962191319160
:10B44C00F1017196019111913F922F923A012901CC
:10B45C0018010E94254A2F903F90F10135962191B9
:10B46C003191F1013996019111910090E2231090E4
:10B47C00E3230019110916950795A801420F531FD4
:10B48C00F101339621913191F1013796019111918E
:10B49C000090DF231090E0230019110916950795F1
:10B4AC00200F311FF1017196019111913A0129017F
:10B4BC0018010E94BF4F9F908F907F906F905F906C
:08B4CC004F903F902F9008956E
:10665C00CF93DF93CDB7DEB76497CDBFDEBF219666
:10666C00098D1A8D098F1A8F910126193709A901E5
:10667C0000E010E02017310774F420E030E0241B18
:10668C00350B098D1A8D000F111F2017310710F4CF
:10669C000C94833B09C0098D1A8D000F111F4017F4
:1066AC00510710F40C94833B920128193909A90164
:1066BC0000E010E02017310774F420E030E0241BD8
:1066CC00350B098D1A8D000F111F2017310710F48F
:1066DC000C94833B09C0098D1A8D000F111F4017B4
:1066EC00510710F40C94833B00912122109122222B
:1066FC00098B1A8B00912C220B8B00912922109163
:10670C002A220093212210932222B0E0B0932C2253
:10671C00498D5A8D9A01240D351D098C1A8CB301A3
:10672C00601971098901061B170B0E831F83420D1B
:10673C00531D8901041B150B08871987098C1A8CAA
:10674C009401201931098901041B150B0A871B8739
:10675C008901061B170B0C871D8700912B22002328
:10676C0009F43DC50091292210912A220E871F871A
:10677C000091D421088BB0E0BC83BD83098D1A8DA8
:10678C000A831B83098D1A8D000F111F080103E06A
:10679C0010E000191109088319830A811B819801E3
:1067AC002F5F3F4F0C811D81021713070CF020C483
:1067BC000B89002309F42BC300912F22003009F020
:1067CC0098C1A40144195509098C1A8C94012019FB
:1067DC0031090A811B81020F131F041915099F929D
:1067EC008F927F926F925F924F923F922F924A01BB
:1067FC003801409023225090242220902D2230905A
:10680C002E22CEDC2F903F904F905F906F907F9018
:10681C008F909F905F924F923F922F92B1E04B2EB0
:10682C0018010E94134A2F903F904F905F90098C53
:10683C001A8C9401201931090A811B81A801420F7D
:10684C00531F098C1A8C9301201931090C811D815D
:10685C00200F311F098D1A8D020D131D0C801D8008
:10686C00001911099F928F927F926F925F924F92B3
:10687C003F922F923A01290118010E945C3E2F9001
:10688C003F904F905F906F907F908F909F9094016E
:10689C0024193509098D1A8D040D151D0A801B80CC
:1068AC0000191109041915099F928F927F926F920A
:1068BC005F924F923F922F924901380140902322D0
:1068CC005090242220902D2230902E2269DC2F9083
:1068DC003F904F905F906F907F908F909F905F92C2
:1068EC004F923F922F92B1E04B2E18010E94134A07
:1068FC002F903F904F905F90698D7A8D8B01040D96
:10690C00151D0A801B80A80140195109098C1A8C8D
:10691C009301201931090C811D81200F311F8B012E
:10692C00020D131D0C801D80001911099F928F926E
:10693C007F926F925F924F923F922F923A01290170
:10694C0018010E945C3E2F903F904F905F906F908B
:10695C007F908F909F90A40144195509098C1A8C33
:10696C009401201931090C811D81020F131F041988
:10697C0015099F928F927F926F925F924F923F92E6
:10698C002F924A01380140902322509024222090CB
:10699C002D2230902E2204DC2F903F904F905F9050
:1069AC006F907F908F909F905F924F923F922F921B
:1069BC00B1E04B2E18010E94134A2F903F904F903C
:1069CC005F90098C1A8CB401601971090C811D81BE
:1069DC00A801460F571F0A801B808B010019110953
:1069EC000A841B849801201931090A811B81060F26
:1069FC00171F0C841D84001911099F928F927F928E
:106A0C006F925F924F923F922F923A012901180197
:106A1C000E945C3E2F903F904F905F906F907F90C4
:106A2C008F909F90940124193509098D1A8D040DAE
:106A3C00151D0C801D8000191109041915099F9250
:106A4C008F927F926F925F924F923F922F92490159
:106A5C003801409023225090242220902D223090F7
:106A6C002E229EDB2F903F904F905F906F907F90E7
:106A7C008F909F905F924F923F922F92B1E04B2E4E
:106A8C0018010E94134A2F903F904F905F90098DF0
:106A9C001A8DB801640D751D0C801D80AB01401959
:106AAC0051090A811B81060F171F0E801F80980148
:106ABC00201931090A801B808B01001911090884E7
:106ACC001984001911099F928F927F926F925F9295
:106ADC004F923F922F923A01290118010E945C3E7D
:106AEC002F903F904F905F906F907F908F909F90E2
:106AFC008DC1A30142195309098C1A8C93012019D9
:106B0C0031090C811D81020F131F021913099F9269
:106B1C008F927F926F925F924F923F922F924A0187
:106B2C003801409023225090242220902D22309026
:106B3C002E2236DB2F903F904F905F906F907F907E
:106B4C008F909F905F924F923F922F92B1E04B2E7D
:106B5C0018010E94134A2F903F904F905F90098C20
