:100000000C9450260C9400000C9400000C940000FA
:100010000C9400000C9400000C9400000C94000060
:100020000C9400000C9400000C9400000C94000050
:100030000C9400000C9400000C9400000C94000040
:100040000C9400000C9400000C9400000C94000030
:100050000C9400000C9400000C9400000C94000020
:100060000C9400000C9400000C9400000C94000010
:100070000C9400000C9400000C9400000C94000000
:100080000C9400000C9400000C9400000C940000F0
:100090000C9400000C9400000C9400000C940000E0
:1000A0000C9400000C9400000C9400000C940000D0
:1000B0000C9400000C9400000C9400000C940000C0
:1000C0000C9400000C9400000C9400000C940000B0
:1000D0000C9400000C9400000C9400000C940000A0
:1000E0000C9400000C9400000C9400000C94000090
:1000F0000C9400000C9400000C9400000C94000080
:100100000C9400000C9400000C9400000C9400006F
:100110000C9400000C9400000C9400000C9400005F
:100120000C9400000C9400000C9400000C9400004F
:100130000C9400000C9400000C9400000C9400003F
:100140000C9400000C9400000C9400000C9400002F
:100150000C9400000C9400000C9400000C9400001F
:100160000C9400000C9400000C9400000C9400000F
:100170000C9400000C9400000C9400000C940000FF
:100180000C9400000C9400000C9400000C940000EF
:100190000C9400000C94000000000000000000001F
:1001A0000C9400000C9400000C9400000C940000CF
:1001B0000C9400000C9400000C9400000C940000BF
:1001C0000C9400000C9400000C9400000C940000AF
:1001D0000C9400000C9400000C9400000C9400009F
:1001E0000C9400000C9400000C9400000C9400008F
:0401F0000C9400006B
:104CA000BFEFBDBFBFE3BEBF0E9463262F923F92FE
:104CB00065DD62DF00DFB3E22B2EB1E23B2E8EDD3D
:064CC0003F902F90FFCF92
:10477C002F923F924F925F92B2E0B0935000B09163
:10478C005100B1FD01C0FBCFB8EDB4BFB1E0B093A7
:10479C004000C0DA3FDAB0EF4B2EB0E05B2EB0E455
:1047AC002B2EB1E03B2E3FDA23EA17E503E00A9506
:1047BC00F1F71A95E1F72A95D1F70000B091400670
:1047CC00B061B09340065F904F903F902F9008954A
:0047DC00DD
:103D200015E101EB0A95F1F71A95E1F700000000A3
:023D30000895F4
:103C2000B0E0B0939320B0939420B0E0B09395208F
:023C30000895F5
:103C32002F923F924F925F926F927F928F9216DFF6
:103C4200013091F0BAE0B093FE20B1E1B093FF20D1
:103C5200BDE1B093FC20B1E1B093FD20B6EFB0938B
:103C62000821B3E1B0930921209224213092252129
:103C720040922121509222212414350420F0B0E0F8
:103C8200B093962003C0BAE5B0939620B1E04B2ED4
:103C920022243324B3DA7724882466245524332457
:103CA20044242224B0E0BF93BF93B2DAADB7BEB7CB
:103CB2001296ADBFBEBF4424552422243324E8DD2E
:103CC200B0E0B0932021BFEFB0932007BDDABCE68D
:103CD200B0930A21B3E1B0930B218F907F906F9044
:0A3CE2005F904F903F902F900895DF
:063A6E0000919320089571
:0E31FE002092FA203092FB204092F720089594
:10321200CF93DF93CDB7DEB726960881198120922E
:10322200EF203092EB204092EC205092EE20609200
:10323200ED207092E7208092E8200093E520109321
:08324200E620DF91CF91089511
:103892002092F2203092F3204092F5205092F620AE
:0238A200089587
:10324A002F92B0910407BD7FB0930407B091000795
:10325A00B260B0930007B0910407B061B09304075D
:10326A00B0910007B061B0930007B0910407B06253
:10327A00B0930407B0910007B062B0930007B09111
:10328A000007B460B0930007B0910007B860B0932C
:10329A000007B0910407B460B0930407B091040723
:1032AA00B860B09304071BD9B0910407B260B09319
:1032BA00040715D914D9B0910407BF7DB093040748
:1032CA00B1E02B2EE091FE20F091FF2009952BD83A
:1032DA00B8E22B2EE091FE20F091FF200995BFEC79
:1032EA002B2EE091FE20F091FF2009952224E091F7
:1032FA00FC20F091FD200995B3E82B2EE091FC20EB
:10330A00F091FD200995B0E32B2EE091FC20F0917D
:10331A00FD200995BDEE2B2EE091FE20F091FF20B5
:10332A000995B4E62B2EE091FC20F091FD20099539
:10333A00B3E02B2EE091FC20F091FD200995B2E13B
:10334A002B2EE091FC20F091FD200995B1E82B2E5F
:10335A00E091FC20F091FD200995B8EE2B2EE0912A
:10336A00FE20F091FF200995B5E82B2EE091FC2074
:10337A00F091FD200995B1E02B2EE091FC20F0910F
:10338A00FD200995B9E72B2EE091FC20F091FD2054
:10339A000995BBEC2B2EE091FE20F091FF200995B8
:1033AA00B9E32B2EE091FC20F091FD200995BCE2B7
:1033BA002B2EE091FC20F091FD2009952224E0912A
:1033CA00FC20F091FD200995B4E32B2EE091FC201E
:1033DA00F091FD200995B2E02B2EE091FC20F091AE
:1033EA00FD200995B7EF2B2EE091FE20F091FF20EA
:1033FA000995B0E22B2EE091FC20F091FD20099571
:10340A00BAEE2B2EE091FE20F091FF20099522249E
:10341A00E091FC20F091FD2009952224E091FC2006
:10342A00F091FD200995B0EC2B2EE091FE20F09151
:10343A00FF200995B6E22B2EE091FC20F091FD20A9
:10344A000995B1EC2B2EE091FE20F091FF20099511
:10345A00B1E12B2EE091FC20F091FD200995B5EC0D
:10346A002B2EE091FE20F091FF200995B5E32B2E3B
:10347A00E091FC20F091FD200995BEE32B2EE0910E
:10348A00FC20F091FD200995B7EC2B2EE091FE204F
:10349A00F091FF200995BEEB2B2EE091FC20F091D4
:1034AA00FD200995B6E32B2EE091FE20F091FF2036
:1034BA000995009196200A35A1F40E94481100232B
:1034CA0041F0B8E82B2EE091FC20F091FD200995FF
:1034DA0007C0B8E42B2EE091FC20F091FD2009955D
:1034EA0013C00E944811002341F0B8EE2B2EE09140
:1034FA00FC20F091FD20099507C0B8E22B2EE0913F
:10350A00FC20F091FD200995BAE32B2EE091FE20D4
:10351A00F091FF200995B5E52B2EE091FC20F09162
:10352A00FD200995B1EB2B2EE091FE20F091FF20B2
:10353A0009952224E091FC20F091FD200995BBE138
:10354A002B2EE091FC20F091FD200995B2EF2B2E55
:10355A00E091FE20F091FF200995B8E02B2EE09132
:10356A00FC20F091FD200995B6E22B2EE091FE2079
:10357A00F091FF200995B1E02B2EE091FC20F0910B
:10358A00FD200995B0EE2B2EE091FE20F091FF2050
:10359A000995BFE12B2EE091FC20F091FD200995C1
:1035AA00BAE12B2EE091FC20F091FD200995B8E1BB
:1035BA002B2EE091FC20F091FD200995BAE02B2EEC
:1035CA00E091FC20F091FD200995BFE02B2EE091BF
:1035DA00FC20F091FD200995B6E02B2EE091FC200D
:1035EA00F091FD200995B5E42B2EE091FC20F09195
:1035FA00FD200995B7E82B2EE091FC20F091FD20E3
:10360A000995B2E32B2EE091FC20F091FD2009955B
:10361A00BAE02B2EE091FC20F091FD200995B7E04D
:10362A002B2EE091FC20F091FD200995B2E02B2E83
:10363A00E091FC20F091FD200995B7E02B2EE09156
:10364A00FC20F091FD200995B5E02B2EE091FC209D
:10365A00F091FD2009952224E091FC20F091FD20B3
:10366A000995B1EE2B2EE091FE20F091FF200995ED
:10367A002224E091FC20F091FD200995B5E22B2E41
:10368A00E091FC20F091FD200995B7E22B2EE09104
:10369A00FC20F091FD200995B5E02B2EE091FC204D
:1036AA00F091FD200995B0E12B2EE091FC20F091DC
:1036BA00FD200995B9E02B2EE091FC20F091FD2028
:1036CA000995BAE32B2EE091FC20F091FD20099593
:1036DA00B8E72B2EE091FC20F091FD200995BDE47E
:1036EA002B2EE091FC20F091FD200995B5E02B2EC0
:1036FA00E091FC20F091FD200995B8E12B2EE09194
:10370A00FC20F091FD200995BDE02B2EE091FC20D4
:10371A00F091FD200995B8E32B2EE091FC20F09161
:10372A00FD200995BAE32B2EE091FC20F091FD20B3
:10373A000995BFE12B2EE091FC20F091FD2009951F
:10374A00BAE22B2EE091FE20F091FF200995222467
:10375A00E091FC20F091FD2009952224E091FC20C3
:10376A00F091FD2009950091242110912521015005
:10377A001040012F10E0202EE091FC20F091FD2056
:10378A000995009124210150202EE091FC20F0910E
:10379A00FD200995BBE22B2EE091FE20F091FF203F
:1037AA0009952224E091FC20F091FD20099522241C
:1037BA00E091FC20F091FD200995009121211091C2
:1037CA00222101501040012F10E0202EE091FC2010
:1037DA00F091FD200995009121210150202EE091C0
:1037EA00FC20F091FD200995B7EB2B2EE091FE20ED
:1037FA00F091FF200995B7E02B2EE091FC20F09183
:10380A00FD200995B6EB2B2EE091FE20F091FF20CA
:10381A000995BAE02B2EE091FC20F091FD20099544
:10382A00B2E82B2EE091FC20F091FD200995B7E239
:10383A002B2EE091FC20F091FD2009952224E091A5
:10384A00FC20F091FD200995B1E12B2EE091FE209C
:10385A00F091FF2009950E947412B9E22B2EE09193
:10386A00FE20F091FF2009950E947412BCE22B2ED3
:10387A00E091FE20F091FF200995B0910407B06213
:08388A00B09304072F9008958C
:1024E80021E11CE30CEC0A95F1F71A95E1F72A951E
:0424F800D1F708957B
:1023CC002092C308B091C208B7FD01C0FBCF08959D
:0023DC0001
:102260002092C309B091C209B7FD01C0FBCF089508
:002270006E
:102270002092C30AB091C20AB7FD01C0FBCF0895F6
:002280005E
:102280002092C30BB091C20BB7FD01C0FBCF0895E4
:002290004E
:10221400B0910407BF7EB093040720922407B091C5
:102224000407B77FB09304070000B0910407B860B7
:06223400B09304070895B9
:10223A00B0910407B061B093040720922407B091CB
:10224A000407B77FB09304070000B0910407B86091
:06225A00B0930407089593
:1023400063DF62DFB0910407BF7DB0930407B091F3
:102350000407B460B0930407B0910407BF7EB09344
:10236000040720922407B0910407B77FB0930407B5
:10237000B0910407B860B0930407B0910407B0624D
:06238000B093040708956C
:0C2208000AE00A95F1F7000000000895BC
:10238600B0910407BF7DB0930407B0910407B46011
:10239600B0930407B0910407B061B093040720928C
:1023A6002407B0910407B77FB0930407B0910407E0
:1023B600B860B0930407B0910407B062B093040705
:0623C60020DF1FDF089577
:1023300010ED0AEC0A95F1F71A95E1F700000895FF
:002340009D
:0622900000910A200895F0
:104B78002F923F924F925F926F927F928F929F9265
:104B8800BFEF2B2E3B2E42DDB1E04B2E22243324E7
:104B98000E94FF18BCED8B2EB0E09B2EBCE26B2E62
:104BA800B1E07B2EBCED4B2EB0E05B2EB4E12B2E9A
:104BB800B0E03B2E6DDBBEE28B2EB0E09B2EBCE25C
:104BC8006B2EB1E07B2EBEE24B2EB0E05B2EB4E143
:104BD8002B2EB0E03B2E5CDB8824B0E06B2EB8EFC8
:104BE8007B2EB4EF2B2EB1E03B2EB0E04B2E542C95
:104BF80091DABEE06B2EB0E07B2EBBE44B2EB0E02A
:104C08005B2EB7ED2B2EB0E23B2EDDDA882466242E
:104C18007724BAE72B2EBAE13B2EB0E04B2E542C6A
:104C280079DABFED6B2EB0E07B2EB3E14B2EB0E00E
:104C38005B2EB2EC2B2EB0E23B2EC5DA8824B0E016
:104C48006B2EB8EF7B2EBAE72B2EBAE13B2EB0E0E5
:104C58004B2E542C5FDABFED6B2EB0E07B2EB8ECF8
:104C68004B2EB0E05B2EBFE92B2EB0E23B2EABDA29
:104C7800882466247724B2E02B2EB2E13B2EB0E0E4
:104C88004B2E542C47DA9F908F907F906F905F90B7
:084C98004F903F902F9008950A
:104614004F925F926F927F928F929F92B091040714
:10462400BF7DB09304070E9406190023E1F0209196
:1046340021213091222121503040009124211091D8
:104644002521015010403F922F9249013801442402
:10465400552422243324E091E920F091EA2009959D
:104664002F903F900DC03F922F9244245524222432
:104674003324E0910A21F0910B2109952F903F906A
:1046840020E030E0009121211091222120173107F0
:1046940028F500E010E0A8010091242110912521C3
:1046A40040175107B0F43F932F935F934F933F927A
:1046B4002F92E0910821F091092109952F903F90C4
:1046C4004F915F912F913F918A010F5F1F4FA80176
:1046D400E3CF89010F5F1F4F9801D4CFB091040736
:1046E400B062B09304079F908F907F906F905F901B
:0446F4004F90089546
:06320C0000919E200895D0
:103A7400CF93DF93CDB7DEB72897CDBFDEBF2196B6
:103A84002F923F92209124213091252100EE11E0C4
:103A94000217130750F0209121213091222100EECA
:103AA40011E00217130708F005C060E273E040EE6E
:103AB40051E004C060EE71E040E151E000919620D5
:103AC4000A3541F50E944811002391F09B012150D1
:103AD40030408901081919090883198389010419D7
:103AE40015090A831B832C823D826E827F8211C05A
:103AF400488259828A829B829A01215030408901EE
:103B0400061917090C831D838901021913090E83F1
:103B14001F8327C00E9448110023D9F09B01215024
:103B2400304089010619170908831983890102198C
:103B340013090A831B839A01215030408901081913
:103B440019090C831D838901041915090E831F8328
:103B540008C0288239826A827B824C825D828E828E
:103B64009F82BAE22B2EE091FE20F091FF2009956E
:103B740008811981012F10E0202EE091FC20F091A2
:103B8400FD2009952880E091FC20F091FD20099505
:103B94000A811B81012F10E0202EE091FC20F0917E
:103BA400FD2009952A80E091FC20F091FD200995E3
:103BB400BBE22B2EE091FE20F091FF2009950C81B1
:103BC4001D81012F10E0202EE091FC20F091FD20BA
:103BD40009952C80E091FC20F091FD2009950E813F
:103BE4001F81012F10E0202EE091FC20F091FD2098
:103BF40009952E80E091FC20F091FD200995BCE20E
:103C04002B2EE091FE20F091FF2009953F902F90FC
:0C3C14002796CDBFDEBFDF91CF91089551
:1039C8002F923F925F924F923F922F92B2E02B2E0E
:1039D800E091FE20F091FF2009952F903F90032D54
:1039E80010E03F922F92202EE091FC20F091FD20D4
:1039F8000995B3E02B2EE091FE20F091FF20099568
:103A08002F903F90E091FC20F091FD200995B6E0C1
:103A18002B2EE091FE20F091FF2009954F905F90AA
:103A2800052D10E05F924F92202EE091FC20F0913E
:103A3800FD200995B7E02B2EE091FE20F091FF20A4
:103A480009954F905F90242CE091FC20F091FD2087
:103A58000995B2E22B2EE091FE20F091FF20099506
:063A68003F902F9008952D
:1038A400CF93DF93CDB7DEB72497CDBFDEBF21968C
:1038B4002F923F92288239824A825B82BAE22B2E6F
:1038C400E091FE20F091FF2009958E01F8013196D8
:1038D4000081202EE091FC20F091FD2009952880A4
:1038E400E091FC20F091FD200995BBE22B2EE091A4
:1038F400FE20F091FF2009958E010E5F1F4FF80105
:1039040031960081202EE091FC20F091FD20099554
:103914002A80E091FC20F091FD200995BCE22B2E39
:10392400E091FE20F091FF2009953F902F9023967F
:0A393400CDBFDEBFDF91CF910895F3
:10393E002F923F925F924F923F922F92BAE22B2E8E
:10394E00E091FE20F091FF2009952F903F90032DDE
:10395E0010E03F922F92202EE091FC20F091FD205E
:10396E0009952F903F90E091FC20F091FD20099554
:10397E00BBE22B2EE091FE20F091FF2009954F9097
:10398E005F90052D10E05F924F92202EE091FC206B
:10399E00F091FD2009954F905F90242CE091FC2032
:1039AE00F091FD200995BCE22B2EE091FE20F091C6
:0A39BE00FF2009953F902F90089517
:1026D8002F923F925F924F923F922F92BAE22B2E07
:1026E800E091FE20F091FF2009952F903F90032D57
:1026F80010E03F922F92202EE091FC20F091FD20D7
:1027080009952F903F90E091FC20F091FD200995CC
:10271800BBE22B2EE091FE20F091FF2009954F900F
:102728005F90052D10E05F924F92202EE091FC20E3
:10273800F091FD2009954F905F90242CE091FC20AA
:10274800F091FD200995BCE22B2EE091FE20F0913E
:0A275800FF2009953F902F9008958F
:102762002F923F925F924F923F922F92BAE22B2E7C
:10277200E091FE20F091FF2009952F903F90032DCC
:1027820010E03F922F92202EE091FC20F091FD204C
:1027920009952F903F90E091FC20F091FD20099542
:1027A200BBE22B2EE091FE20F091FF2009954F9085
:1027B2005F90052D10E05F924F92202EE091FC2059
:1027C200F091FD2009954F905F90242CE091FC2020
:1027D200F091FD200995BCE22B2EE091FE20F091B4
:0A27E200FF2009953F902F90089505
:1027EC00CF93DF93CDB7DEB72297CDBFDEBF219657
:1027FC0028823982B0910407B061B09304078E012E
:10280C00F8013196008100932407B0910407B77F3B
:10281C00B09304070000B0910407B860B0930407AC
:10282C00FE01008100932407B0910407B77FB09399
:10283C0004070000B0910407B860B0930407219618
:0A284C00CDBFDEBFDF91CF910895EC
:10250C002F923F92BBE0810116950795BA95E1F7A2
:10251C00102F012F000F000F000F102FB7E0012F0D
:10252C000695BA95E9F7013029F4012F095F102FB0
:10253C00012F01C0012F3F922F92202E1EDF2F90D2
:10254C003F90B5E0810116950795BA95E1F7102FEC
:10255C00012F000F000F102FB7E0012F0695BA9531
:10256C00E9F7013029F4012F0D5F102F012F01C065
:10257C00012F3F922F92202E00DF2F903F90022DA3
:10258C00000F000F000F102FB7E0012F0695BA9522
:10259C00E9F7013029F4012F095F102F012F01C039
:0C25AC00012F202EEADE3F902F900895B2
:10429800CF93DF93CDB7DEB76397CDBFDEBF21964F
:1042A8002F923F924F925F926F927F925F924F92BE
:1042B8003F922F9224011301E8DA2F903F904F90FC
:1042C8005F902614370431F43101120124010E9451
:1042D800DC1290C14814590441F47F926F92320164
:1042E8004F905F900E94021885C1B0E0BA87BB87E3
:1042F8009301221933092883398300E010E020173D
:1043080031077CF40880198000E010E000191109D9
:10431800088319830A851B85015010400A871B876B
:1043280006C00A851B850F5F1F4F0A871B87B0E0F1
:10433800BC87BD879401241935092A833B8300E093
:1043480010E0201731077CF40A801B8000E010E0A1
:10435800001911090A831B830C851D850150104023
:104368000C871D8706C00C851D850F5F1F4F0C87A6
:104378001D87B0E0BE87BF87288139810A811B81EC
:10438800201731070CF057C00E851F850F5F1F4F90
:104398000E871F87288139810A811B810883198329
:1043A8002A833B838101120128012A853B850C85DC
:1043B8001D850A871B872C873D87B1E0B88B188934
:1043C8000091F7200117B0F10889098BB0E0BA8B8A
:1043D80009891A8901701070103009F4003041F40D
:1043E80009881A8800E010E000191109098B1A8B56
:1043F80009891A8915950795040D151D9F928F92A5
:104408007F926F925F924F923F922F926090FA2024
:104418007090FB20210118010E944B112F903F90B2
:104428004F905F906F907F908F909F9008890F5F5B
:10443800088BC5CF3CC0B1E0B88B18890091F72034
:104448000117A8F10889098BB0E0BA8B09891A8984
:1044580001701070103009F4003041F409881A888E
:1044680000E010E000191109098B1A8B09891A89D3
:1044780015950795040D151D9F928F927F926F9247
:104488005F924F923F922F926090FA207090FB209B
:1044980028010E944B112F903F904F905F906F9092
:1044A8007F908F909F9008890F5F088BC6CF0881F7
:1044B8001981000F111F088719870A811B81000FB6
:1044C800111F0E831F8308801980001911090C839E
:1044D8001D8328813981215030402883398300E0A9
:1044E80010E0201731070CF485C02C813D8100E0D5
:1044F80010E0201731076CF00C851D85040D151D83
:104508002801088419840C811D81001911090C8364
:104518001D830A851B85020D131D18012C813D8101
:104528000E811F81020F131F0C831D83B1E0B88B0E
:1045380018890091F720011708F45BC00889098BD6
:10454800B0E0BA8B09891A8901701070103009F42B
:10455800003041F409881A8800E010E000191109B8
:10456800098B1A8B09891A8915950795098B1A8B56
:104578000E851F85B02FB12BE9F009891A89040D22
:10458800151D9F928F927F926F925F924F923F92EA
:104598002F926090FA207090FB20210118010E9450
:1045A8004B112F903F904F905F906F907F908F901E
:1045B8009F901BC009891A89040D151D9F928F921F
:1045C8007F926F925F924F923F922F926090FA2063
:1045D8007090FB2028010E944B112F903F904F9024
:1045E8005F906F907F908F909F9008890F5F088BE6
:1045F8009FCF6FCF7F906F905F904F903F902F909D
:0C4608006296CDBFDEBFDF91CF91089518
:1025B800421453041CF481011201280100E010E0C8
:1025C800201631061CF42224332408C0009121214E
:1025D800109122212016310608F079C000E010E0A1
:1025E800401651060CF473C000912121109122214C
:1025F8004016510638F000912121109122210150F6
:102608001040280141E00091F720041708F45FC04A
:10261800242F30E0890101701070103009F4003067
:1026280031F400E010E0021B130B980100C089018F
:1026380015950795502F612F9801260D371D00E03D
:1026480010E02017310764F0252F362F260D371D8F
:1026580000912421109125212017310708F402C088
:10266800142F31C08101252F362F502F612F451689
:10267800560640F18901060D171D4F933F932F937E
:102688006F935F937F926F925F924F923F922F92D8
:102698006090FA207090FB20452E562E1801F7DD29
:1026A8002F903F904F905F906F907F905F916F91C8
:1026B8002F913F914F91052F162F0F5F1F4F502FCE
:1026C800612FD5CF142F012F0F5F402F9CCF089576
:0026D80002
:102296002F923F928F929F9200E010E02016310617
:1022A60044F000912421109125212016310608F4CE
:1022B60001C036C000E010E04016510644F000911F
:1022C6002121109122214016510608F401C028C090
:1022D600B0910407BF7DB093040795D7002361F042
:1022E6007F926F9242013101E091E920F091EA205C
:1022F60009956F907F9009C07F926F92E0910A21B5
:10230600F0910B2109956F907F901301E0910821C0
:10231600F09109210995B0910407B062B0930407C2
:0A2326009F908F903F902F90089534
:10300400CF93DF93CDB7DEB72197CDBFDEBF219637
:103014008F929F92421453041CF4810112012801DF
:1030240000E010E0201631061CF42224332408C0EA
:1030340000912421109125212016310608F0D6C0D4
:1030440000E010E0401651060CF4D0C00091242199
:10305400109125214016510638F000912421109139
:103064002521015010402801B1E0B8831881009156
:10307400F720011708F4BAC0288130E089010170F3
:103084001070103009F4003039F400E010E0021B35
:10309400130BA8019A0100C0890115950795A80191
:1030A4009801260D371D00E010E0201731075CF071
:1030B4009A01260D371D00912121109122212017FC
:1030C400310708F401C08EC000919520003009F04A
:1030D40063C0B0910407BF7DB093040795D000236B
:1030E400C1F08A01060D171D7F926F925F924F9275
:1030F4003F922F92480132012801E091E920F0919A
:10310400EA2009952F903F904F905F906F907F90A9
:1031140015C08A01060D171D7F926F925F924F9220
:103124003F922F922801E0910A21F0910B210995F9
:103134002F903F904F905F906F907F90522D632D12
:10314400252F362F4216530608F13F932F937F9273
:103154006F925F924F923F922F922090FA2030907C
:10316400FB20E0910821F091092109952F903F90CF
:103174004F905F906F907F902F913F9189010F5FE7
:103184001F4F502F612F252F362FDCCFB09104070E
:10319400B062B093040726C0522D632D252F362F1D
:1031A40042165306F8F03F932F937F926F925F92EB
:1031B4004F923F922F9223016090FA207090FB204F
:1031C400190167D82F903F904F905F906F907F9038
:1031D4002F913F9189010F5F1F4F502F612F252F92
:1031E400362FDECF08810F5F088340CF9F908F90EA
:0A31F400CDBFDEBFDF91CF9108953B
:10411C0020920221309203214092042150920521D9
:10412C00810192010E5F1F4F2F4F3F4F2BBFF801A4
:10413C004691810192010D5F1F4F2F4F3F4F2BBFB7
:10414C00F8010691102F0027040FB0E01B1F0093FD
:10415C00062110930721810192010C5F1F4F2F4FF5
:10416C003F4F2BBFF8014691810192010B5F1F4F0E
:10417C002F4F3F4F2BBFF8010691102F0027040F34
:10418C00B0E01B1F009300211093012181019201CB
:10419C000A5F1F4F2F4F3F4F2BBFF8010691009323
:1041AC00F020B0E0B093F1206092F8207092F920EA
:1041BC008092F420B1E0B0939720B0E0B09320212E
:0241CC00089554
:1041CE004F925F92009124211091252140165106A5
:1041DE0008F058C00091212110912221601671061D
:1041EE0008F050C020E030E03F922F9212012301E0
:1041FE0049DB2F903F90F901E20DF31D0081002362
:10420E0009F440C0009120210023F1F0F901E20DE4
:10421E00F31D00813F932F937F926F925F924F9287
:10422E003F922F92202EB0E03B2E0E94BE152F9073
:10423E003F904F905F906F907F902F913F918901AB
:10424E000F5F1F4F98011DC0F901E20DF31D008194
:10425E003F932F937F926F925F924F923F922F9246
:10426E00202EB0E03B2E0E9446142F903F904F9090
:10427E005F906F907F902F913F9189010F5F1F4F3D
:0A428E009801B9CF5F904F9008959A
:102B7C00CF93DF93CDB7DEB76797CDBFDEBF21967E
:102B8C002F923F924F925F926F927F928F929F9271
:102B9C00B0E0BC8BBD8BB0E0BE8B009106211091D8
:102BAC0007212016310608F40DC200910021109166
:102BBC0001210215130508F405C20090062110909E
:102BCC000721810100191109A801440F551F440F59
:102BDC00551F009118211091192120911A21309123
:102BEC001B21085F1F4F2F4F3F4F040F151FB0E0E5
:102BFC002B1F3B1FB4E06B2EB0E07B2E180129017C
:102C0C000FDCBCE0B98BB1E2BA8BE989FA89A081FF
:102C1C00AB8B89899A89FC0131960081402F50E059
:102C2C00652F752FFC013296008110E0212F312F7A
:102C3C00322F212F102F0027400F511F621F731F9F
:102C4C00FC013396008110E0212F312F312F202FE2
:102C5C0000271127400F511F621F731F009118216D
:102C6C001091192120911A2130911B21040F151F4D
:102C7C00261F371F0D831E832F8338870A2F069537
:102C8C000695069510E04091F0205091F12030DC33
:102C9C000B871C870B890770002351F02B853C8513
:102CAC000091F0201091F120020F131F0B871C874D
:102CBC000B851C850F87188B8E01075F1F4F4801F2
:102CCC006B847C842D803E804F805884E09116214B
:102CDC00F09117210995098B1A8B4D815E816F81BB
:102CEC00788509851A8520E0322F040F151F261FC1
:102CFC00371F0D831E832F83388709841A840B8515
:102D0C001C85001911090B871C87B0E0BD87BE8795
:102D1C000091F420003009F0ABC00091F520109127
:102D2C00F6200A831B83B0E0B98309812091F0203F
:102D3C003091F12010E00217130708F090C00091B9
:102D4C00F2201091F3200C8B1D8BB0E0BC83B0E013
:102D5C00B88318810B89101708F077C00C810030EC
:102D6C0009F055C00D851E850F5F1F4F0D871E87FF
:102D7C0029853A850F85188920173107E0F52D85AF
:102D8C003E8509851A8502171307A8F5B1E0BD87A2
:102D9C00B0E0BE878E01075F1F4F3F922F92480114
:102DAC006B847C842D803E804F805884E09116216A
:102DBC00F091172109952F903F90098B1A8B0B8559
:102DCC001C850F87188B4D815E816F8178850985F5
:102DDC001A8520E0322F040F151F261F371F0D8375
:102DEC001E832F83388709841A840B851C85001950
:102DFC0011090B871C87E989FA8900810E8B0989D7
:102E0C001A890F5F1F4F098B1A8BB1E0BC831E8987
:102E1C000C81012369F03F922F926090F820709002
:102E2C00F9204A805B802C883D882FDA2F903F90C8
:102E3C000C891D890F5F1F4F0C8B1D8B0C81000F94
:102E4C000C8308810F5F088384CF0A811B810F5F7D
:102E5C001F4F0A831B8309810F5F098366CF0C897F
:102E6C001D890F5F1F4F0093F2201093F320AAC00F
:102E7C000091F2201091F3200A831B83B0E0B983F8
:102E8C0009812091F0203091F12010E002171307F6
:102E9C0008F090C00091F5201091F6200C8B1D8B42
:102EAC00B0E0BC83B0E0B88318810B89101708F030
:102EBC0077C00C81003009F055C00D851E850F5F61
:102ECC001F4F0D871E8729853A850F851889201776
:102EDC003107E0F52D853E8509851A850217130704
:102EEC00A8F5B1E0BD87B0E0BE878E01075F1F4F2C
:102EFC003F922F9248016B847C842D803E804F80C2
:102F0C005884E0911621F091172109952F903F904C
:102F1C00098B1A8B0B851C850F87188B4D815E8155
:102F2C006F81788509851A8520E0322F040F151FD3
:102F3C00261F371F0D831E832F83388709841A841D
:102F4C000B851C85001911090B871C87E989FA89E7
:102F5C0000810E8B09891A890F5F1F4F098B1A8B01
:102F6C00B1E0BC831E890C81012369F03F922F9242
:102F7C006090F8207090F9204C885D882A803B8006
:102F8C0084D92F903F900C891D89015010400C8BD7
:102F9C001D8B0C81000F0C8308810F5F088384CF7D
:102FAC000A811B810F5F1F4F0A831B8309810F5FEF
:102FBC00098366CF0C891D89015010400093F520C0
:102FCC001093F6209F908F907F906F905F904F9012
:102FDC003F902F906696CDBFDEBFDF91CF910895C5
:002FEC00E5
:10242C00CF93DF93CDB7DEB72497CDBFDEBF219618
:10243C008F929F92BCE0BA83B1E2BB8300E010E0C4
:10244C000615170508F042C08E017F926F925F92BD
:10245C004F923F922F924801E0911621F091172153
:10246C0009952F903F904F905F906F907F90B8019F
:10247C0020E030E0AB010881198120173107A8F466
:10248C00FA010081EA81FB8100830A811B810F5FC5
:10249C001F4F0A831B838A010F5F1F4FB8018901ED
:1024AC000F5F1F4FAB019801E6CF088019808301A5
:1024BC000019110938010881198120E0322F020D11
:1024CC00131D241D351D18012901B8CF9F908F9025
:0C24DC002396CDBFDEBFDF91CF910895A5
:1024FC009801249F8001259F100D349F100D089585
:00250C00CF
:10288C00CF93DF93CDB7DEB72B97CDBFDEBF2196AD
:10289C004F925F926F927F928F92B0E0B887B98718
:1028AC00B0E0BA8700919720003091F402E012E179
:1028BC003F922F928824662477241801B0E04B2E87
:1028CC00542C0E948E202F903F90B1E0B093972013
:1028DC0000910621109107212016310608F43DC104
:1028EC0000910021109101210215130508F435C146
:1028FC000090062110900721810100191109A801EF
:10290C00440F551F440F551F8090022190900321B6
:10291C00A0900421B090052184019501085F1F4F00
:10292C002F4F3F4F2A01B0E06B2E762C400E511EDC
:10293C00621E731E6BBEF20106910F83820193011E
:10294C000F5F1F4F2F4F3F4F2BBFF8010691402FAA
:10295C0050E0652F752F820193010E5F1F4F2F4F93
:10296C003F4F2BBFF801069110E0212F312F322F52
:10297C00212F102F0027400F511F621F731F820140
:10298C0093010D5F1F4F2F4F3F4F2BBFF801069147
:10299C0010E0212F312F312F202F00271127040F6A
:1029AC00151F261F371F080D191D2A1D3B1D0B83D4
:1029BC001C832D833E830091F420003009F067C006
:1029CC006091F5207091F620B0E0B98309812091D7
:1029DC00F0203091F12010E00217130708F04EC0E0
:1029EC000091F2201091F32008871987B0E0BA8388
:1029FC00B0E0B88318810F811017C0F50A81003040
:102A0C00A1F40D810BBFEB81FC8106910A870B8130
:102A1C001C812D813E810F5F1F4F2F4F3F4F0B832A
:102A2C001C832D833E83B1E0BA831A850A8101236E
:102A3C0081F07F936F933F922F926090F82070906B
:102A4C00F9202B012884398420DC2F903F906F9142
:102A5C007F91088519850F5F1F4F088719870A8199
:102A6C00000F0A8308810F5F0883C4CF8B010F5FAF
:102A7C001F4FB80109810F5F0983A8CF08851985FD
:102A8C000F5F1F4F0093F2201093F32066C06091EC
:102A9C00F2207091F320B0E0B98309812091F020ED
:102AAC003091F12010E00217130708F04EC000918E
:102ABC00F5201091F62008871987B0E0BA83B0E0B2
:102ACC00B88318810F811017C0F50A810030A1F46A
:102ADC000D810BBFEB81FC8106910A870B811C8158
:102AEC002D813E810F5F1F4F2F4F3F4F0B831C8358
:102AFC002D833E83B1E0BA831A850A81012381F0CC
:102B0C007F936F933F922F926090F8207090F920F2
:102B1C00488459841B01B9DB2F903F906F917F91B2
:102B2C000885198501501040088719870A81000F04
:102B3C000A8308810F5F0883C4CF8B010F5F1F4F7F
:102B4C00B80109810F5F0983A8CF08851985015049
:102B5C0010400093F5201093F6208F907F906F908B
:102B6C005F904F902A96CDBFDEBFDF91CF91089535
:002B7C0059
:104AB6002F923F924F925F926F927F928F92B09118
:104AC600A006B062B093A006B091A406B062B093FF
:104AD600A406B091E006B064B093E006B091E40697
:104AE600B064B093E40644243324B0E12B2E20DED8
:104AF600B0914406B061B0934406882466247724B6
:104B0600B2E02B2EB2E13B2EB0E04B2E542C03DB51
:104B1600B1E04B2EBFEF2B2E3B2E0E94FF187724C1
:104B2600882466245524BFEF3B2E4B2EB1E02B2E56
:104B3600B0E0BF93BF930E940919ADB7BEB71296F6
:104B4600ADBFBEBFD6DDE0DD22E51BE200E00A9583
:104B5600F1F71A95E1F72A95D1F700000000000059
:104B660000008F907F906F905F904F903F902F90B6
:024B76000895A0
:10473600B8EFB0931C21B1E1B0931D21B6EEB09352
:104746001E21B1E1B0931F21B0EBB0934106B0E456
:10475600B0934206B0E0B093C108032D037004295C
:10476600022900640093C00832FAB091C008B7F974
:06477600B093C008089595
:1046F800B0912406B068B0932406B0912006B06843
:06470800B09320060895A5
:10470E002F92B0912406BF77B0932406B6E02B2EDD
:10471E00E0911E21F0911F210995B0912406B068F9
:08472E00B09324062F900895BA
:1047DC00CF93DF93CDB7DEB72C97CDBFDEBF21963D
:1047EC004F925F926F927F928F929F92F101B0E005
:1047FC00B0833F922F92B1E46B2EB0E07B2EBAE5E2
:10480C004B2EB0E05B2EBEEA2B2EB0E23B2ED9DC59
:10481C0065DCB1E46B2EB0E07B2EB8EC4B2EB0E037
:10482C005B2EB8E92B2EB0E23B2ECBDC59DA1C2FD9
:10483C002D2F312E422E202EBADBB5E56B2EB0E09B
:10484C007B2EBAE54B2EB0E05B2EBCE22B2EB0E2F9
:10485C003B2EB7DC8E01B5E56B2EB0E07B2EBAEAB1
:10486C004B2EB0E05B2E1801ACDC2F903F9022E574
:10487C001BE200E00A95F1F71A95E1F72A95D1F7BA
:10488C0000000000000000002DED2F933F922F92AE
:10489C00B9E66B2EB0E07B2EBAE54B2EB0E05B2E6A
:1048AC00B9E32B2EB0E23B2E8CDC2F903F902F9156
:1048BC008E012F933F922F92302E412E222E77DB9A
:1048CC008E01B9E66B2EB0E07B2EBAEA4B2EB0E02F
:1048DC005B2E180176DC2F903F902F913F922F92F8
:1048EC00B6E53B2EB4E34B2EB2E15B2EB0E06B2E63
:1048FC00222E9EDBBDE76B2EB0E07B2EBAE54B2E55
:10490C00B0E05B2EBBE02B2EB0E23B2E5ADCB6E5C2
:10491C002B2EB4E33B2EB2E14B2EB0E05B2EFADA39
:10492C001C2F2D2F312E422E202E41DB8E01BDE768
:10493C006B2EB0E07B2EBAEA4B2EB0E05B2E18014A
:10494C0040DC22E51BE200E00A95F1F71A95E1F74D
:10495C002A95D1F70000000000000000B1E96B2E91
:10496C00B0E07B2EBAE54B2EB0E05B2EB8E12B2EDF
:10497C00B0E23B2E26DCB0E18B2EB0E09B2EBFE6E6
:10498C006B2EB0E27B2E2224332444245524CBD925
:10499C0022E51BE200E00A95F1F71A95E1F72A955A
:1049AC00D1F70000000000000000B5EA6B2EB0E06B
:1049BC007B2EBAE54B2EB0E05B2EBFE72B2EB0E280
:1049CC003B2EFFDBB0E18B2EB0E09B2EB6E46B2EC2
:1049DC00B0E27B2E222433244424552427DA2F9052
:1049EC003F9022E51BE200E00A95F1F71A95E1F7FA
:1049FC002A95D1F7000000000000000031E040E0F3
:104A0C004031B0F406E410E2E42FF0E0E00FF11FC7
:104A1C0020810FE610E2E42FF0E0E00FF11F00819F
:104A2C00201711F000E005C0042F0F5F402FE8CFD6
:104A3C00032F0023A9F03F922F92B9EB6B2EB0E01D
:104A4C007B2EBAE54B2EB0E05B2EB6E52B2EB0E2FA
:104A5C003B2EB7DB2F903F90F101B1E0B08314C037
:104A6C003F922F92B9EB6B2EB0E07B2EBAE54B2E1A
:104A7C00B0E05B2EB0E02B2EB0E23B2EA2DB2F90F1
:104A8C003F90F101B2E0B0839F908F907F906F9038
:104A9C005F904F902B96CDBFDEBFDF91CF910895E5
:004AAC000A
:1040E8002F9211D3B0912406BF77B0932406B7EC72
:1040F8002B2EE0911E21F0911F210995B0912406E5
:10410800B068B09324060E942B14002309F0FBCF5B
:044118002F90089547
:102856002F92B0912406BF77B0932406B5E02B2EB5
:10286600E0911E21F0911F2109952224E0911C215F
:10287600F0911D210995B0912406B068B093240605
:0628860001702F9008957F
:1023F0002092C308B091C208B7FD01C0FBCF009185
:04240000C308089570
:1023DC002092C309B091C209B7FD01C0FBCF009197
:0423EC00C309089584
:102418002092C30AB091C20AB7FD01C0FBCF009158
:04242800C30A089546
:102404002092C30BB091C20BB7FD01C0FBCF00916A
:04241400C30B089559
:103CEC002F92B0912406BF77B0932406BFE92B2EF8
:103CFC00E0911E21F0911F2109952224E0911C21B5
:103D0C00F0911D210995B0912406B068B09324065A
:043D1C002F90089547
:103FBA00CF93DF93CDB7DEB72297CDBFDEBF219671
:103FCA0010E0133050F4E12FF0E0E30DF41DB0E2FD
:103FDA00B083012F0F5F102FF4CFE12FF0E0E30D34
:103FEA00F41DB0E0B083012F0150302F032F10E0F1
:103FFA00030D141D088319834AE0022D0E94F61747
:10400A00092F202F205D08811981F80120834AE0B9
:10401A00022D0E94F617202E003009F404C0032F47
:10402A000150302FE3CF2196CDBFDEBFDF91CF9174
:02403A000895E7
:102FEC00992779E004C0991F941708F0941B001FCF
:082FFC007A95C9F700950895CC
:10403C00CF93DF93CDB7DEB72497CDBFDEBF2196EC
:10404C00388249825A826B822F925BD3B0912406BC
:10405C00BF77B0932406B2E02B2EE0911E21F09195
:10406C001F2109958E01F80132960081202EE091D6
:10407C001E21F0911F2109958E01F80131960081C6
:10408C00202EE0911E21F0911F210995FE01008147
:10409C00202EE0911E21F0911F2109952F90E09187
:1040AC001E21F0911F210995B0912406B068B093A0
:1040BC0024066F925F924F923F922F920E942B1484
:1040CC002F903F904F905F906F90002309F0F1CFAD
:0C40DC002396CDBFDEBFDF91CF91089589
:103F2000CF93DF93CDB7DEB72497CDBFDEBF219609
:103F30002F923F924F925F92288239824A825B820F
:103F4000B0912406BF77B0932406B3E02B2EE09106
:103F50001E21F0911F2109958E01F80132960081F2
:103F6000202EE0911E21F0911F2109958E01F8016C
:103F700031960081202EE0911E21F0911F2109959C
:103F8000FE010081202EE0911E21F0911F21099554
:103F90002224E0911C21F0911D210995B091240665
:103FA000B068B09324065F904F903F902F90239677
:0A3FB000CDBFDEBFDF91CF91089571
:103D3200CF93DF93CDB7DEB72197CDBFDEBF2196FC
:103D420051016201930140E050E048155905D0F558
:103D5200F9010081DF92CF92BF92AF923F932F93EE
:103D62005F934F939F928F927F926F925F924F9247
:103D72003F922F923A2C4B2C5C2C6D2C202E5DD135
:103D82002F903F904F905F906F907F908F909F9079
:103D92004F915F912F913F91AF90BF90CF90DF9065
:103DA20089010F5F1F4FB801850196010F5F1F4FF9
:103DB2002F4F3F4F580169018A010F5F1F4FA80122
:103DC2009B01C3CF40E050E04815590570F5F3015F
:103DD200008108835F934F939F928F927F926F929D
:103DE2005F924F923F922F929AD02F903F904F9096
:103DF2005F906F907F908F909F904F915F9118810D
:103E0200101711F000E012C083010F5F1F4F38013D
:103E1200810192010F5F1F4F2F4F3F4F1801290160
:103E22008A010F5F1F4FA801CFCF01E0CDBFDEBFD8
:063E3200DF91CF9108951D
:103E3800CF93DF93CDB7DEB72497CDBFDEBF2196F2
:103E48002F923F924F925F92288239824A825B82F8
:103E5800B0912406BF77B09324069F928F927F92E9
:103E68006F92B3E02B2EE0911E21F0911F2109954E
:103E78008E01F80132960081202EE0911E21F091EA
:103E88001F2109958E01F80131960081202EE091BD
:103E98001E21F0911F210995FE010081202EE0913D
:103EA8001E21F0911F2109956F907F908F909F9010
:103EB80094018401015010404801B22FB32BE9F05E
:103EC8009F928F927F926F925F924F923F922F9222
:103ED8002224E0911C21F0911D2109952F903F90FB
:103EE8004F905F906F907F908F909F90F301008329
:103EF80083010F5F1F4F3801DBCFB0912406B068F4
:103F0800B09324065F904F903F902F902396CDBF9B
:083F1800DEBFDF91CF91089597
:0A4AAC0005900D920197E1F70895BF
:104CC600A0E0B0E2E3E2F1E285EE90E00E94562534
:024CD60008953F
:10120200000020007F001000018801000398010007
:1012120005A8010008B8010007C801000DD80100A7
:101222000AF801000318020005280200053802002E
:1012320007480200095802000378020005880200EC
:101242000398020006A8020007B8020007C80200BD
:1012520007D8020007E8020007F8020007080300A7
:101262000718030007280300073803000748030094
:101272000358030003680300097803000998030078
:1012820009B8030006D8030009E8030009080400AE
:101292000728040007380400084804000658040020
:1012A2000668040007780400088804000498040013
:1012B20005A8040007B8040006C804000AD8040000
:1012C20007F80400080805000718050008280500AB
:1012D200083805000748050006580500076805009C
:1012E200087805000C88050008A8050008B8050064
:1012F20006C8050005D8050006E8050005F8050042
:1013020009080600082806000538060007480600F6
:1013120007580600066806000778060007880600D8
:101322000598060007A8060007B8060002C80600CE
:1013320003D8060006E8060002F806000A080700BD
:101342000728070007380700074807000758070063
:101352000568070006780700058807000798070058
:1013620007A807000AB8070006D8070007E8070021
:1013720006F80700060808000418080006280800F6
:101382000A3808000B5808000000000000000000A6
:101392000000000000000000000000000606060633
:1013A20006060006060000000000001B1B1B1B00B7
:1013B2000000000000000000000000004848FEFE9F
:1013C200247F7F1212000000000008083E4B0B0B26
:1013D2003E6868693E080800000000000000000046
:1013E2001E0033023301B3005E0FA0199019881951
:1013F200000F0000000000000000000000000000DC
:101402003C006600660066003C036603C601C60037
:10141200BC030000000000000000000606060600F3
:101422000000000000000000000000180C0C06067E
:1014320006060606060C0C18000000060C0C18180E
:1014420018181818180C0C06000000185A3C5A18E4
:10145200000000000000000000000000000000008A
:101462000000200020002000FC01200020002000BD
:10147200000000000000000000000000000000006A
:101482000000000606030300000000000000000048
:101492001F0000000000000000000000000000002B
:1014A20000000006060000000000002020101008C6
:1014B2000804040202010100000000003E636363AD
:1014C200636363633E00000000000000181E1818EA
:1014D200181818187E000000000000003E616160CC
:1014E20030180C067F000000000000003E616060C2
:1014F2003C6060613E000000000000003038343281
:10150200317F303030000000000000007E06063ED1
:10151200606060613E000000000000003C06033F86
:10152200636363633E000000000000007F603030B0
:1015320018180C0C0C000000000000003E636363EE
:101542003E6363633E000000000000003E6363638D
:10155200637E60301E0000000000000000000606EE
:101562000000000606000000000000000000060661
:101572000000000606030300000000000000000057
:1015820000008001600018000600060018006000DC
:1015920080010000000000000000000000000000C8
:1015A20000000000FE0100000000FE01000000003B
:1015B2000000000000000000000000000000000029
:1015C2000000060018006000800180016000180021
:1015D2000600000000000000000000001E3130186C
:1015E2000C0C000C0C0000000000000000000000C9
:1015F2007C00820079016D016D016D016D01D900E0
:101602000200FC00000000000000000000000000DA
:10161200380038006C006C00C600FE00C600830172
:101622008301000000000000000000003F636363CC
:101632003F6363633F000000000000003E4343033A
:10164200030343433E000000000000003F63C3C3A6
:10165200C3C3C3633F000000000000003F03030355
:101662001F0303033F000000000000003F030303C9
:101672001F03030303000000000000003E43430376
:10168200736363637E00000000000000C3C3C3C332
:10169200FFC3C3C3C3000000000000000F0606061C
:1016A200060606060F000000000000001E181818AB
:1016B200181818180F0000000000000063331B0FF9
:1016C200070F1B3363000000000000000303030345
:1016D200030303033F0000000000000000000000BD
:1016E200870387034D034D033903390311031103A4
:1016F20001030000000000000000000047474D4DBC
:101702005959717161000000000000007EC3C3C31B
:10171200C3C3C3C37E000000000000003F636363D5
:10172200633F030303000000000000007EC3C3C345
:10173200C3C3C3C37E60C000000000003F63636395
:101742003F1B3363C3000000000000003E4343031D
:101752003E6061613E000000000000003F0C0C0C86
:101762000C0C0C0C0C0000000000000063636363AF
:10177200636363633E00000000000000C3C3C366EE
:10178200663C3C1818000000000000000000000049
:10179200630C630C630CF30CF6069E079E070C03A6
:1017A2000C0300000000000000000000C3C3663C00
:1017B200183C66C3C300000000000000C3C3666695
:1017C2003C18181818000000000000003F303018C4
:1017D2000C0603033F0000000000001E060606067A
:1017E2000606060606061E000000000101020204AB
:1017F20004080810102020000000001E18181818F5
:101802001818181818181E00000000000000000028
:1018120030004800840002010000000000000000C7
:1018220000000000000000000000000000000000B6
:10183200000000000000FF000000000C1800000083
:1018420000000000000000000000000000003C62F8
:10185200607E63637E0000000000000303033B67B9
:10186200636363633F0000000000000000001E236A
:10187200030303231E0000000000006060607E631B
:10188200636363736E0000000000000000003E63AB
:10189200637F03433E0000000000001C06060F06A3
:1018A20006060606060000000000000000007E6337
:1018B200636363736E60613E0000000303033B6772
:1018C200636363636300000000000003030003031B
:1018D20003030303030000000000000606000706DE
:1018E2000606060606060603000000030303331B72
:1018F2000F070F1B33000000000000030303030364
:1019020003030303030000000000000000000000C6
:1019120000000000DF0133033303330333033303D7
:1019220033030000000000000000000000003B67DD
:1019320063636363630000000000000000003E6315
:10194200636363633E0000000000000000003B6729
:10195200636363633F0303030000000000007E63D0
:10196200636363736E6060600000000000001B1F11
:1019720003030303030000000000000000001E2315
:10198200071E38311E0000000000000006061F0678
:10199200060606061C00000000000000000063634B
:1019A200636363736E000000000000000000636365
:1019B2006336361C1C00000000000000000000001E
:1019C2000000000033033303B601B601CE01CC00A0
:1019D200CC000000000000000000000000003333D3
:1019E2001E0C1E3333000000000000000000636381
:1019F2006336361C1C180C0C0000000000003F303F
:101A0200180C06033F000000000000380C0C0C0C00
:101A1200070C0C0C0C0C38000000000C0C0C0C0C0D
:101A22000C0C0C0C0C0C0C00000000070C0C0C0C29
:101A3200380C0C0C0C0C0700000000000000000029
:101A42000000000000001E023F02F103E10100005D
:101A52000000000000000000000000000000FE077F
:101A62000204020402040204020402040204020444
:081A7200FE0700000000000067
:1001F400000020007F00160001880100059E010018
:1002040006B401000ECA01000EF60100112202001C
:100214000F6402000390020006A6020006BC02005E
:1002240009D202000EFE0200032A03000640030066
:1002340003560300086C03000E82030004AE03009F
:100244000CC403000BF003000F1C04000C48040052
:100254000E7404000CA004000DCC04000DF804007E
:1002640003240500033A05000D5005000D7C05002C
:100274000DA805000DD40500120006000F4206006B
:100284000D6E06000C9A06000EC606000CF206005F
:100294000C1E07000E4A07000C76070004A2070094
:1002A40009B807000DE407000A100800103C080014
:1002B4000D6808000F9408000DC0080010EC080039
:1002C4000E1809000E4409000B7009000D9C09006A
:1002D4000EC8090015F409000D360A000C620A0064
:1002E4000D8E0A0006BA0A0008D00A0005E60A00C4
:1002F4000FFC0A000A280B0007540B000B6A0B00C2
:100304000B960B000AC20B000BEE0B000A1A0C0032
:1003140008460C000B5C0C000A880C0004B40C00AA
:1003240004CA0C000BE00C00040C0D000E220D009E
:100334000A4E0D000C7A0D000BA60D000BD20D0019
:1003440008FE0D000B140E0008400E000A560E00A5
:100354000B820E0011AE0E000AF00E000A1C0F00F4
:100364000A480F0008740F00068A0F0007A00F0048
:100374000DB60F000BE20F000000000000000000AB
:100384000000000000000000000000000000000069
:1003940000001C1C1C1C1C1C1C1C1C1C1C001C1CED
:1003A400000000000000000000363636363600003B
:1003B4000000000000000000000000000000000039
:1003C4000000C01CC00C600C600EFC3FFC1F32031C
:1003D4003003FE1FFF0F98018C01CC00CE000000FB
:1003E4000000000000000000000000008000F81F72
:1003F400FC1F9E008E008E009E00FC0FF81F8038AC
:1004040080388038803CFC1FFC0F80000000000016
:1004140000000000000000000000000000003E0892
:10042400007F0C006304006306006302007F030086
:100434003E010080F90080FD01808C01C08C0140E8
:100444008C0160FC0120F8000000000000000000A6
:10045400000000000000000000000000F803FC039E
:100464001E000E000E001E007C7E7C7E1E1C0E1CD8
:100474000E0E1E0FFC07F801000000000000000033
:10048400000000000006060606060000000000004A
:100494000000000000000000000038180C0C0C06DE
:1004A40006060606060C0C0C1838000000000000B6
:1004B4000E0C1818183030303030301818180C0E54
:1004C400000000000000000000003000B400FE0145
:1004D4007800FE01B40030000000000000000000BD
:1004E4000000000000000000000000000000000008
:1004F4000000000000000000000080018001800175
:1005040080018001FC3FFC3F80018001800180016B
:100514008001000000000000000000000000000056
:1005240000000000000000000000060604020000B5
:100534000000000000000000000000003F3F000039
:1005440000000000000000000000000000000000A7
:10055400000000000000060600000000000000008B
:10056400C04040602030101808080C040602020342
:1005740000000000000000000000F003FC0F1E1E3D
:100584000E1C0738073807380738073807380E1C99
:100594001E1EFC0FF003000000000000000000001D
:1005A40000000E0E0E0E0E0E0E0E0E0E0E0E0E0E83
:1005B400000000000000000000000000FF03FF072F
:1005C400000E000E000E000EFC07FE030F000700D5
:1005D40007000700FF0FFF0F0000000000000000ED
:1005E4000000000000000000FF01FF038007000777
:1005F40000078007FE03FE0380070007000780074B
:10060400FF03FF01000000000000000000000000E4
:1006140000000000001E001F801FC01FE01DF01C12
:10062400781C3C1C1E1CFE7FFE7F001C001C001C52
:1006340000000000000000000000000000000000B6
:10064400FF07FF070700070007000700FF03FF0776
:10065400000E000E000E000EFF07FF030000000056
:10066400000000000000000000000000E01FF81F70
:100674003C001C000E000E00FE0FFE1F0E380E384C
:100684001C383C3CF81FE00700000000000000009C
:100694000000000000000000FF0FFF0F000F000724
:1006A4008003C003C001E000F000780038003C0083
:1006B4001E000F0000000000000000000000000009
:1006C40000000000FC07FE0F0F1E071C071C0F1E76
:1006D400FE0FFE0F0F1E071C071C0F1EFE0FFC074C
:1006E4000000000000000000000000000000000006
:1006F400F801FE070F0F070E071C071CFE1FFC1F47
:10070400001C001C000E000FFE07FE01000000008C
:1007140000000000000000000000000000000006CF
:1007240006000000060600000000000000000000B3
:100734000000000000060600000006060402000097
:100744000000000000000000000000000000001095
:10075400001E800FE0037C001C007C00E003800F7F
:10076400001E001000000000000000000000000057
:100774000000000000000000000000000000FC1F5A
:10078400FC1F00000000FC1FFC1F00000000000014
:100794000000000000000000000000000000000055
:1007A40000000000000004003C00F800E003001F0B
:1007B400001C001FE003F8003C00040000000000DF
:1007C400000000000000000000000000FE07FE0F13
:1007D400001C001C001C001CF80FFC071E000E006F
:1007E4000E0000000E000E000000000000000000DB
:1007F400000000000000000000000000801F00E076
:100804007F0070E0003880019CB703CC1703C61842
:1008140003661803661803668C0166CC01E6FB00C8
:10082400CC79001C000078E000F03F00C00F00000D
:1008340000000000000000000000E001E003E0030D
:10084400F00330073807380E180EFC1FFC1F0E1C6F
:100854000E38063807780000000000000000000091
:10086400000000000000FE07FE0F0E1C0E1C0E1CF4
:100874000E1CFE0FFE0F0E1C0E1C0E1C0E1CFE0F7B
:10088400FE0700000000000000000000000000005F
:100894000000F00FF80F1C001C000E000E000E00EC
:1008A4000E000E000E000C001C00F80FF00F0000EC
:1008B4000000000000000000000000000000FE072F
:1008C400FE0F0E1C0E1C0E380E380E380E380E3865
:1008D4000E380E1C0E1CFE0FFE0700000000000068
:1008E40000000000000000000000F00FF80F1C00E2
:1008F4001C000E000E00FE0FFE0F0E000E000C007A
:100904001C00F80FF00F00000000000000000000C1
:10091400000000000000F00FFC0F1C000E000E0091
:100924000E00FE0FFE0F0E000E000E000E000E0055
:100934000E000000000000000000000000000000A5
:100944000000F03FF83F3C001C000E000E008E3FFC
:100954008E3F0E380E381C383C38F83FF03F00000C
:1009640000000000000000000000000000000E0E67
:100974000E0E0E0E0E0E0E0E0E0EFE0FFE0F0E0EB1
:100984000E0E0E0E0E0E0E0E0E0E000000000000D7
:100994000000000000000E0E0E0E0E0E0E0E0E0EC7
:1009A4000E0E0E0E0000000000000000000000000B
:1009B400C001C001C001C001C001C001C001C0012B
:1009C400C001C001C001E001FF007F000000000081
:1009D4000000000000000000000000000E1E0E0FCA
:1009E4008E078E03CE01EE00FE00FE00EE01CE0166
:1009F4008E038E070E0F0E1E000000000000000084
:100A040000000000000000000E000E000E000E00AA
:100A14000E000E000E000E000E000E000E001E0052
:100A2400FC03F803000000000000000000000000C8
:100A3400000000001EF03EF83EF83EF87EFC7EFC0E
:100A44006EEC6EEEEEEECEE6CEE6CEE78EE38EE311
:100A54000000000000000000000000000000000092
:100A64001E1C1E1C3E1C7E1C7E1CEE1CCE1CCE1DA1
:100A74008E1D8E1F0E1F0E1F0E1E0E1E0000000068
:100A8400000000000000000000000000E007F81F64
:100A94003C3C1C380E700E700E700E700E700E7092
:100AA4001C383C3CF81FE007000000000000000078
:100AB4000000000000000000FE07FE0F0E1E0E1CCA
:100AC4000E1C0E1C0E1EFE0FFE070E000E000E0066
:100AD4000E000E00000000000000000000000000F6
:100AE40000000000E007F81F3C3C1C380E700E703C
:100AF4000E700E700E700E701C783C3CF83FE0F7E0
:100B040000000000000000000000000000000000E1
:100B1400FE07FE0F0E1C0E1C0E1C0E1CFE0FFE0705
:100B24000E070E070E0E0E0E0E1C0E3C00000000EB
:100B3400000000000000000000000000F81FFC1F7F
:100B44001E000E000E000E00FC0FF81F00380038C7
:100B540000380038FC1FFC0F0000000000000000FB
:100B64000000000000000000FF07FF077000700095
:100B740070007000700070007000700070007000F1
:100B84007000700000000000000000000000000081
:100B9400000000000E1C0E1C0E1C0E1C0E1C0E1C55
:100BA4000E1C0E1C0E1C0E1C0E1C1E1EFC0FF00335
:100BB4000000000000000000000000000000000031
:100BC4000738071C071C0F1E0E0E1E0F1C071C07E0
:100BD400B803B803F803F001F001E00000000000DE
:100BE4000000000000000000000000000000000001
:100BF400070E1C070F1C061F0E0E1F0E0E1B0E8C5D
:100C04003B069C3B079C39079C3107F8F103F8F13C
:100C140003F8F103F0E001F0E0010000000000003F
:100C240000000000000000000000000000000F1E93
:100C34000E0F1C07BC03F803F001F000F001F001F3
:100C4400B803BC071C070E0F0F1E000000000000B5
:100C540000000000000000000000030F07078E03DF
:100C64008E03DC01F800F800700070007000700062
:100C74007000700070000000000000000000000020
:100C8400000000000000FE1FFE1F001E000F800772
:100C9400C003E001E001F00078003C001E00FE1FEC
:100CA400FE1F0000000000000000000000003E3EA7
:100CB4000606060606060606060606063E3E00006C
:100CC4000000000003020206040C08081010302083
:100CD400604040C00000000000001F1F18181818D2
:100CE40018181818181818181F1F00000000000002
:100CF400000000000007800FC01DE0387070000085
:100D040000000000000000000000000000000000DF
:100D140000000000000000000000000000000000CF
:100D240000000000000000000000000000000000BF
:100D340000000000000000000000000000000000AF
:100D44000000FF03000000001C30600000000000F1
:100D5400000000000000000000000000000000008F
:100D640000000000000000000000FC01FC0300077C
:100D74000007FC07FE070E070E07FE07FC0700002E
:100D840000000000000000000000000000000E0051
:100D94000E000E000E00FE01FE038E070E070E0766
:100DA4000E070E078E03FE03FE0100000000000084
:100DB400000000000000000000000000000000002F
:100DC4000000F003FC031C000E000E000E000E00D9
:100DD4001C00FC03F0030000000000000000000001
:100DE4000000000000000007000700070007F807E4
:100DF400FC071E070E070E070E070E071C07FC074D
:100E0400F8070000000000000000000000000000DF
:100E140000000000000000000000F803FC030E00C6
:100E24000E00FE03FE030E000E00FC03F803000098
:100E340000000000000000000000F8FC1C1CFFFF84
:100E44001C1C1C1C1C1C1C1C0000000000000000BE
:100E5400000000000000000000000000F807FC078C
:100E64001C070E070E070E070E071E07FC07F807E0
:100E740000070007FC03FC01000000000000000064
:100E84000E000E000E000E00FE01FE038E038E0304
:100E94008E038E038E038E038E038E0300000000E8
:100EA4000000000000000000000E0E000E0E0E0EEA
:100EB4000E0E0E0E0E0E0000000000000000000ECC
:100EC4000E000E0E0E0E0E0E0E0E0E0E0E0E07075A
:100ED40000000000000000000E000E000E000E00D6
:100EE4000E078E03CE01EE007E007E00EE00CE01E2
:100EF4008E038E07000000000000000000000000C8
:100F04000E0E0E0E0E0E0E0E0E0E0E0E0E0E000019
:100F140000000000000000000000000000000000CD
:100F24000000FE1FFE3FCE39CE39CE39CE39CE3940
:100F3400CE39CE39CE390000000000000000000098
:100F44000000000000000000000000000000FE019E
:100F5400FE038E038E038E038E038E038E038E0395
:100F64008E030000000000000000000000000000EC
:100F740000000000000000000000F001FC071C0756
:100F84000E0E0E0E0E0E0E0E1C07FC07F0010000D6
:100F9400000000000000000000000000000000004D
:100FA400000000000000FE01FE038E030E070E0782
:100FB4000E070E078E07FE03FE010E000E000E0044
:100FC4000E0000000000000000000000000000000F
:100FD4000000F807FC071C070E070E070E070E0794
:100FE4001E07FC07F80700070007000700070000BA
:100FF4000000000000007EFEEEEE0E0E0E0E0E0E41
:1010040000000000000000000000000000000000DC
:1010140000000000FC03FE030E000E00FE03FC07AC
:1010240000070007FE07FE030000000000000000A8
:10103400000000001C1C1C1CFFFF1C1C1C1C1C1C96
:10104400FCF80000000000000000000000000000A8
:101054000000000000008E038E038E038E038E03B7
:101064008E038E038E03FE03F803000000000000CD
:10107400000000000000000000000000000000006C
:101084000000070706038E038E039C01DC01D800D1
:10109400F800F800700000000000000000000000EC
:1010A400000000000000000000000000000000003C
:1010B40000000000000083C301C7C701C6C700C603
:1010C400C600EEEE00EC6E006C6C007C7C00783C9C
:1010D400003838000000000000000000000000009C
:1010E40000000000000000000000000000000000FC
:1010F4008703CE01FC00FC00780078007C00FC0033
:10110400CE01870300000000000000000000000082
:101114000000000000000000000000008E038E03A9
:101124008E038E038E038E038E038E03FE03FC0355
:1011340080038003FE01FE000000000000000000A8
:101144000000000000000000FE03FE03C003E001F5
:10115400F00078003C001E00FE03FE0300000000C7
:101164000000000000000000E0F03030303030308B
:101174001C1C303030303030F0E0000000303030B3
:10118400303030303030303030303030303030305B
:10119400000000000E1E181818181818707018187F
:1011A400181818181E0E00000000000000000000AF
:1011B400000000000000000000000000F810FC1F08
:1011C400040F000000000000000000000000000008
:1011D400000000000000000000000000FE07020400
:1011E40002040204020402040204020402040204CB
:0E11F400020402040204020402040204FE07C4
:101A7A00000020007F000D0001880100039501008D
:101A8A0004A2010008AF010006BC01000BC9010055
:101A9A0008E3010002F0010004FD0100040A02004B
:101AAA00061702000824020003310200043E020065
:101ABA00034B020005580200066502000672020086
:101ACA00067F0200068C02000699020006A60200A2
:101ADA0006B3020006C0020006CD020006DA0200C2
:101AEA0003E7020003F4020007010300080E0300E3
:101AFA00081B03000528030009350300074F0300EC
:101B0A00075C0300086903000876030006830300E4
:101B1A0006900300089D030007AA030004B7030008
:101B2A0004C4030007D1030006DE030008EB030028
:101B3A0007F803000805040006120400081F040041
:101B4A00072C040007390400074604000753040061
:101B5A00076004000A6D0400078704000794040064
:101B6A0007A1040004AE040005BB040004C8040075
:101B7A0008D5040007E2040004EF040006FC040090
:101B8A0006090500061605000623050006300500AD
:101B9A00043D0500064A05000657050002640500D3
:101BAA0003710500067E0500028B05000A980500F0
:101BBA0006B2050006BF050006CC050006D90500D9
:101BCA0005E6050005F3050004000600060D0600FB
:101BDA00061A060008270600063406000641060013
:101BEA00054E0600065B0600036806000675060039
:101BFA0008820600098F06000000000000000000AD
:101C0A0000000000000000000404040404040004AE
:101C1A00000000000A0A0A0000000000000000009C
:101C2A0000005050FC28287E141400000000080808
:101C3A003C0A0A1C28281E08080000000000008C24
:101C4A0000920052004C002003A0049004100300EC
:101C5A000000000000000C12124C5222629C00008C
:101C6A00000002020200000000000000000000085C
:101C7A000404020202020204040800000204040826
:101C8A00080808080404020000082A1C2A080000A0
:101C9A000000000000000000101010FE10101000DC
:101CAA00000000000000000000000404040200001C
:101CBA0000000000000E000000000000000000000C
:101CCA0000000000040400000000101008080404CA
:101CDA0002020101000000001C2222222222221CF0
:101CEA000000000000080E08080808083E0000006E
:101CFA0000001C2220100804023E00000000001C04
:101D0A002220182020221C000000000010181412A3
:101D1A00113F101000000000003E02021E20202287
:101D2A001C00000000001804021E2222221C0000CF
:101D3A000000003E20101008080404000000000003
:101D4A001C22221C2222221C00000000001C22222B
:101D5A00223C20100C0000000000000004040000D7
:101D6A00040400000000000000040400000404044D
:101D7A000200000000006018061860000000000061
:101D8A0000000000FE00FE0000000000000000004D
:101D9A000C30C0300C0000000000000E10100804C7
:101DAA000400040000000000000000F800040172B2
:101DBA00014A014A014A01B2000400780000000009
:101DCA00000018182424247E424200000000001E4D
:101DDA0022223E4242423E00000000007884020273
:101DEA000202847800000000003E4282828282421F
:101DFA003E00000000003E02023E0202023E0000D7
:101E0A000000003E02021E02020202000000000060
:101E1A0078840202E2828478000000000042424292
:101E2A007E4242424200000000000E040404040400
:101E3A00040E00000000000E080808080808070041
:101E4A00000000004222120A0E1222420000000084
:101E5A0000020202020202023E0000000000C6C6A0
:101E6A00AAAA92928282000000000046464A4A527A
:101E7A005262620000000000384482828282443842
:101E8A0000000000001E2222221E020202000000A0
:101E9A000000384482828282443820C00000001E3A
:101EAA002222221E12224200000000003C42020CA2
:101EBA003040423C00000000007F0808080808087B
:101ECA00080000000000424242424242423C0000F6
:101EDA000000004242422424241818000000000096
:101EEA0000000022022202540154015401540188C4
:101EFA000088000000000000000042422418182454
:101F0A0042420000000000412214080808080800A4
:101F1A00000000007E4020100804027E000000003D
:101F2A000E0202020202020202020E000001010275
:101F3A00020404080810100000000E080808080827
:101F4A00080808080E00000010284482000000005B
:101F5A0000000000000000000000000000007F00F8
:101F6A00000408000000000000000000000000005B
:101F7A00001C203C22223C000000000202021E2219
:101F8A002222221E000000000000001C220202225F
:101F9A001C000000002020203C222222223C0000BB
:101FAA0000000000001C223E02221C000000000C5F
:101FBA0002020F0202020202000000000000003CBE
:101FCA00222222223C201C00000202021E2222227D
:101FDA0022220000000002000002020202020200A5
:101FEA0000000004000006040404040404030000C2
:101FFA0002020222120A0E1222000000000202024B
:10200A0002020202020200000000000000000000BA
:10201A000000DE0122022202220222022202000023
:10202A00000000000000001E2222222222000000DE
:10203A00000000001C222222221C000000000000D6
:10204A00001E222222221E020200000000003C2260
:10205A002222223C202000000000001A060202026E
:10206A0002000000000000001C020618100E00000A
:10207A0000000002020F020202020C00000000002F
:10208A00000022222222223C00000000000000223E
:10209A002214140808000000000000009292AAAA64
:1020AA004444000000000000002214080814220022
:1020BA00000000000000221414140808080400009C
:1020CA000000001E100804021E000000003008086C
:1020DA000808060808080830000004040404040478
:1020EA000404040404000006080808083008080864
:1020FA0008060000000000008C9262000000000048
:10210A000000000000FE01020102010201020102B8
:09211A00010201FE0100000000B9
:0A212300372E204661696C656400E8
:01212D0000B1
:0D212E00342E2052656164696E673A20000E
:10213B00352E2057726974696E67206172726179EE
:04214B002E2E2E0006
:0D214F00322E20466C6173682049443A002E
:0D215C00332E205772697474696E673A0063
:102169000000000000000000000000000000000066
:10217900372E2053756363657373202D2046756C64
:092189006C206D61746368210093
:10219200000102030405060708090A0B0C0D0E0FC5
:1021A200362E2052656164696E67206172726179B0
:0421B2002E2E2E009F
:0221B600000027
:0121B8000026
:0121B9000025
:0121BA000024
:0621BB00446F6E65210077
:0121C100001D
:0F21C2007777772E6D696B726F652E636F6D0087
:1021D100312E2045726173696E6720636869702EC4
:0421E1002E2E20007E
:1021E5006D696B726F6D6564696120666F722058E9
:0521F5004D45474100CB
:0E21FA0053455249414C2020464C4153480069
:00000001FF
