:100000000C941F8E0C9400000C9400000C940000C3
:100010000C9400000C9400000C9400000C94000060
:100020000C9400000C9400000C9400000C94000050
:100030000C9400000C9400000C9400000C94000040
:100040000C9400000C9400000C9400000C94000030
:100050000C9400000C9400000C9400000C94000020
:100060000C9400000C9400000C9400000C94000010
:100070000C9400000C9400000C9400000C94000000
:100080000C9400000C9400000C9400000C940000F0
:100090000C9400000C9400000C9400000C940000E0
:1000A0000C9400000C9400000C9400000C940000D0
:1000B0000C9400000C9400000C9400000C940000C0
:1000C0000C9400000C9400000C9400000C940000B0
:1000D0000C9400000C9400000C9400000C940000A0
:1000E0000C9400000C9400000C9400000C94000090
:1000F0000C9400000C9400000C9400000C94000080
:100100000C9400000C9400000C9400000C9400006F
:100110000C9400000C9400000C9400000C9400005F
:100120000C9400000C9400000C9400000C9400004F
:100130000C9400000C9400000C9400000C9400003F
:100140000C9400000C9400000C9400000C9400002F
:100150000C9400000C9400000C9400000C9400001F
:100160000C9400000C9400000C9400000C9400000F
:100170000C9400000C9400000C9400000C940000FF
:100180000C9400000C9400000C9400000C940000EF
:100190000C9400000C94000000000000000000001F
:1001A0000C9400000C9400000C9400000C940000CF
:1001B0000C9400000C9400000C9400000C940000BF
:1001C0000C9400000C9400000C9400000C940000AF
:1001D0000C9400000C9400000C9400000C9400009F
:1001E0000C9400000C9400000C9400000C9400008F
:0401F0000C9400006B
:020000040001F9
:101C3E00BFEFBDBFBFE3BEBF0E94288ED8DFFFCF70
:021C4E00FFCFC6
:101BFC002F923F920E944B840E9438840E94B6859B
:101C0C00009194221091952200938A2210938B229A
:101C1C00009196221091972200939022109391227A
:101C2C00B2E92B2EB2E23B2E0E9459843F902F90AA
:021C3C00089509
:10089600B2E0B0935000B0915100B1FD01C0FBCF62
:0C08A600B8EDB4BFB1E0B093400008957D
:100870002F923F924F925F9275DDB0E44B2EB1E024
:100880005B2EB0EF2B2EB0E03B2E75DD5F904F90CE
:060890003F902F90089537
:10036400B0E0B0931620B0931720B0E0B0931520FE
:020374000895EA
:100376002F923F924F925F926F927F928F9241D8C7
:10038600013091F0B3E2B0933C20B5E7B0933D2045
:10039600B8E8B0933A20B5E7B0933B20B8E9B093FC
:1003A6002420B0E8B093252020922D2030922E20D4
:1003B60040922F20509230202414350420F0B0E0D3
:1003C600B0931A2003C0BAE5B0931A20B1E04B2EC1
:1003D60022243324F7D97724882466245524332409
:1003E60044242224B0E0BF93BF9323DDADB7BEB74C
:1003F6001296ADBFBEBF4424552422243324E9D926
:10040600B0E0B0933420BFEFB0932007EBD9BEE045
:10041600B0932A20B0E8B0932B208F907F906F90F6
:0A0426005F904F903F902F900895D3
:020000040000FA
:06F408000091162008959A
:0EF7CA0020921F20309220204092212008958E
:10FE3800CF93DF93CDB7DEB726960881198120923C
:10FE480035203092312040923220509233206092F7
:10FE58001C2070921D2080921E2000932220109357
:08FE68002320DF91CF910895E2
:10F7D8002092522030925320409257205092582025
:02F7E800089582
:10F7EA002F92B0910407BD7FB0930407B091000730
:10F7FA00B260B0930007B0910407B061B0930407F8
:10F80A00B0910007B061B0930007B0910407B062ED
:10F81A00B0930407B0910007B062B0930007B091AB
:10F82A000007B460B0930007B0910007B860B093C6
:10F83A000007B0910407B460B0930407B0910407BD
:10F84A00B860B09304070E940470B0910407B260D4
:10F85A00B09304070E9404700E940470B0910407D8
:10F86A00BF7DB0930407B1E02B2EE0913C20F091CC
:10F87A003D2009951BD9B8E22B2EE0913C20F0914E
:10F88A003D200995BFEC2B2EE0913C20F0913D20C4
:10F89A0009952224E0913A20F0913B200995B3E89A
:10F8AA002B2EE0913A20F0913B200995B0E32B2EC4
:10F8BA00E0913A20F0913B200995BDEE2B2EE09184
:10F8CA003C20F0913D200995B4E62B2EE0913A2098
:10F8DA00F0913B200995B3E02B2EE0913A20F0916C
:10F8EA003B200995B2E12B2EE0913A20F0913B2082
:10F8FA000995B1E82B2EE0913A20F0913B20099529
:10F90A00B8EE2B2EE0913C20F0913D200995B5E808
:10F91A002B2EE0913A20F0913B200995B1E02B2E55
:10F92A00E0913A20F0913B200995B9E72B2EE0911E
:10F93A003A20F0913B200995BBEC2B2EE0913C201C
:10F94A00F0913D200995B9E32B2EE0913A20F091F0
:10F95A003B200995BCE22B2EE0913A20F0913B2006
:10F96A0009952224E0913A20F0913B200995B4E3CD
:10F97A002B2EE0913A20F0913B200995B2E02B2EF4
:10F98A00E0913A20F0913B200995B7EF2B2EE091B8
:10F99A003C20F0913D200995B0E22B2EE0913A20CF
:10F9AA00F0913B200995BAEE2B2EE0913C20F09184
:10F9BA003D2009952224E0913A20F0913B200995B7
:10F9CA002224E0913A20F0913B200995B0EC2B2EAD
:10F9DA00E0913C20F0913D200995B6E22B2EE09172
:10F9EA003A20F0913B200995B1EC2B2EE0913C2076
:10F9FA00F0913D200995B1E12B2EE0913A20F0914A
:10FA0A003B200995B5EC2B2EE0913C20F0913D204E
:10FA1A000995B5E32B2EE0913A20F0913B20099508
:10FA2A00BEE32B2EE0913A20F0913B200995B7ECEA
:10FA3A002B2EE0913C20F0913D200995BEEB2B2E18
:10FA4A00E0913A20F0913B200995B6E32B2EE09104
:10FA5A003C20F0913D20099500911A200A35A1F425
:10FA6A000E942F6E002341F0B8E82B2EE0913A2035
:10FA7A00F0913B20099507C0B8E42B2EE0913A207B
:10FA8A00F0913B20099513C00E942F6E002341F08C
:10FA9A00B8EE2B2EE0913A20F0913B20099507C051
:10FAAA00B8E22B2EE0913A20F0913B200995BAE377
:10FABA002B2EE0913C20F0913D200995B5E52B2EA7
:10FACA00E0913A20F0913B200995B1EB2B2EE09181
:10FADA003C20F0913D2009952224E0913A20F091B2
:10FAEA003B200995BBE12B2EE0913A20F0913B2077
:10FAFA000995B2EF2B2EE0913C20F0913D2009951B
:10FB0A00B8E02B2EE0913A20F0913B200995B6E21D
:10FB1A002B2EE0913C20F0913D200995B1E02B2E4F
:10FB2A00E0913A20F0913B200995B0EE2B2EE0911E
:10FB3A003C20F0913D200995BFE12B2EE0913A201F
:10FB4A00F0913B200995BAE12B2EE0913A20F091F1
:10FB5A003B200995B8E12B2EE0913A20F0913B2009
:10FB6A000995BAE02B2EE0913A20F0913B200995B5
:10FB7A00BFE02B2EE0913A20F0913B200995B6E0A8
:10FB8A002B2EE0913A20F0913B200995B5E42B2EDB
:10FB9A00E0913A20F0913B200995B7E82B2EE091AD
:10FBAA003A20F0913B200995B2E32B2EE0913A20BE
:10FBBA00F0913B200995BAE02B2EE0913A20F09182
:10FBCA003B200995B7E02B2EE0913A20F0913B209B
:10FBDA000995B2E02B2EE0913A20F0913B2009954D
:10FBEA00B7E02B2EE0913A20F0913B200995B5E041
:10FBFA002B2EE0913A20F0913B2009952224E091A6
:10FC0A003A20F0913B200995B1EE2B2EE0913C2051
:10FC1A00F0913D2009952224E0913A20F0913B2071
:10FC2A000995B5E22B2EE0913A20F0913B200995F7
:10FC3A00B7E22B2EE0913A20F0913B200995B5E0EE
:10FC4A002B2EE0913A20F0913B200995B0E12B2E22
:10FC5A00E0913A20F0913B200995B9E02B2EE091F2
:10FC6A003A20F0913B200995BAE32B2EE0913A20F5
:10FC7A00F0913B200995B8E72B2EE0913A20F091BC
:10FC8A003B200995BDE42B2EE0913A20F0913B20D0
:10FC9A000995B5E02B2EE0913A20F0913B20099589
:10FCAA00B8E12B2EE0913A20F0913B200995BDE076
:10FCBA002B2EE0913A20F0913B200995B8E32B2EA8
:10FCCA00E0913A20F0913B200995BAE32B2EE0917E
:10FCDA003A20F0913B200995BFE12B2EE0913A2082
:10FCEA00F0913B200995BAE22B2EE0913C20F0914D
:10FCFA003D2009952224E0913A20F0913B20099574
:10FD0A002224E0913A20F0913B20099500912D2080
:10FD1A0010912E2001501040012F10E0202EE0916A
:10FD2A003A20F0913B20099500912D200150202E78
:10FD3A00E0913A20F0913B200995BBE22B2EE0910D
:10FD4A003C20F0913D2009952224E0913A20F0913F
:10FD5A003B2009952224E0913A20F0913B20099515
:10FD6A0000912F201091302001501040012F10E0F7
:10FD7A00202EE0913A20F0913B20099500912F2006
:10FD8A000150202EE0913A20F0913B200995B7EBE3
:10FD9A002B2EE0913C20F0913D200995B7E02B2EC7
:10FDAA00E0913A20F0913B200995B6EB2B2EE09199
:10FDBA003C20F0913D200995BAE02B2EE0913A20A3
:10FDCA00F0913B200995B2E82B2EE0913A20F09170
:10FDDA003B200995B7E22B2EE0913A20F0913B2087
:10FDEA0009952224E0913A20F0913B200995B1E14E
:10FDFA002B2EE0913C20F0913D2009950E94047041
:10FE0A00B9E22B2EE0913C20F0913D2009950E9409
:10FE1A000470BCE22B2EE0913C20F0913D20099524
:0EFE2A00B0910407B062B09304072F900895C2
:10E0080021E11CE30CEC0A95F1F71A95E1F72A9542
:04E01800D1F708959F
:10EA4600B0910407BF7EB093040720922407B091CB
:10EA56000407B77FB09304070000B0910407B860BD
:06EA6600B09304070895BF
:10EB1000B0910407B061B093040720922407B0912C
:10EB20000407B77FB09304070000B0910407B860F2
:06EB3000B09304070895F4
:10EAC6000E94E1620E94E162B0910407BF7DB093AB
:10EAD6000407B0910407B460B0930407B09104072B
:10EAE600BF7EB093040720922407B0910407B77F36
:10EAF600B0930407B0910407B860B0930407B091CF
:0AEB06000407B062B09304070895FD
:0CC5C2000AE00A95F1F70000000008955F
:10EA6C00B0910407BF7DB0930407B0910407B46064
:10EA7C00B0930407B0910407B061B09304072092DF
:10EA8C002407B0910407B77FB0930407B091040733
:10EA9C00B860B0930407B0910407B062B093040758
:0AEAAC000E94E1620E94E1620895F9
:10EAB60010ED0AEC0A95F1F71A95E1F700000895B2
:00EAC60050
:06DC5E0000911B20089557
:020000040001F9
:100B6C00B0E0B0939222B0939322B0EFB093942262
:100B7C00B0E0B0939522B0E4B0939622B1E0B0937C
:100B8C009722B2E0B0939922B0E0B0939A22B8E8E1
:100B9C00B0939B22BAE0B0939C22B0E0B0939D221C
:100BAC00B0E0B0939E22B1E0B0939F22B0E0B0933E
:100BBC00A022BCE8B093A122BAE0B093A222B0E08C
:100BCC00B093A322B0E0B093A422B3E1B093A522DA
:100BDC00B0E0B093A622BEE8B093A722BAE0B093DF
:100BEC00A822B0E0B093A922B0E0B093AA22B6E15B
:100BFC00B0939822B2E9B0938B21B2E2B0938C21DE
:100C0C00B0E0B0938D21B0E0B0938E21B0938F21E2
:100C1C00B7E9B0939021B0E0B0939121B0EFB093CD
:100C2C009221B0E0B0939321B9EAB0939421B0E053
:100C3C00B0939521B0E0B0939C21B1E0B0939D218D
:100C4C0004EB1AE020E030E00093962110939721FA
:100C5C002093982130939921B1E0B0939A21B1E07F
:100C6C00B0939B21B0E0B0939E21B0939F21B0E054
:100C7C00B093A021B093A121B0E0B093A221B09386
:100C8C00A321B0E0B093A421B093A521B2E9B09315
:100C9C00A621B2E2B093A721B1E0B093A821B4E9A8
:100CAC00B093A921B0E0B093AA21B7E0B093AB21E7
:100CBC00B0E0B093AC21BEE0B093AD21B0E0B09306
:100CCC00AE21B1E0B093AF21BFEFB093B021B093A0
:100CDC00B121B1E0B093B221B1E0B093B321B1E056
:100CEC00B093B421B0E0B093B521B0E0B093B6218D
:100CFC00BFEFB093B721B093B821B8E1B093B9214D
:100D0C00B6ECB093BA21B0E0B093BB21B093BC2148
:100D1C00B1E0B093BD21B0E1B093BE21B4E8B09383
:100D2C00BF21B0E0B093C021B093C121B0E0B0932B
:100D3C00C221B093C321B0E0B093C421B093C521BC
:100D4C00B0E0B093C621B093C721B2E9B09346226C
:100D5C00B2E2B0934722B2E0B0934822BAEDB0931E
:100D6C004922B0E0B0934A22B2E3B0934B22B0E0F8
:100D7C00B0934C22B6E0B0934D22B0E0B0934E222B
:100D8C00B1E0B0934F22BFEFB0935022B0935122F9
:100D9C00B1E0B0935222B1E0B0935322B1E0B093E2
:100DAC005422B0E0B0935522B0E0B0935622BFEF7E
:100DBC00B0935722B0935822B8E1B0935922B6ECB5
:100DCC00B0935A22B0E0B0935B22B0935C22B1E0B6
:100DDC00B0935D22B0E1B0935E22B4E8B0935F2291
:100DEC00B0E0B0936022B0936122B0E0B093622285
:100DFC00B0936322B0E0B0936422B0936522B0E06C
:100E0C00B0936622B0936722B2E9B0936822B2E243
:100E1C00B0936922B3E0B0936A22BEEDB0936B221B
:100E2C00B0E0B0936C22B6EDB0936D22B0E0B0930D
:100E3C006E22B4E0B0936F22B0E0B0937022B1E0B8
:100E4C00B0937122BFEFB0937222B0937322B1E0D2
:100E5C00B0937422B1E0B0937522B1E0B0937622D6
:100E6C00B0E0B0937722B0E0B0937822BFEFB093AC
:100E7C007922B0937A22B8E1B0937B22B6ECB0938E
:100E8C007C22B0E0B0937D22B0937E22B1E0B0938F
:100E9C007F22B0E1B0938022B4E8B0938122B0E01D
:100EAC00B0938222B0938322B0E0B0938422B093AB
:100EBC008522B0E0B0938622B0938722B0E0B09345
:100ECC008822B0938922B2E9B0930222B2E2B093A5
:100EDC000322B4E0B0930422B7EBB0930522B0E048
:100EEC00B0930622B4E7B0930722B0E0B093082287
:100EFC00BCE0B0930922B0E0B0930A22B1E0B09309
:100F0C000B22BFEFB0930C22B0930D22B1E0B09343
:100F1C000E22B1E0B0930F22B1E0B0931022B0E0FA
:100F2C00B0931122B0E0B0931222BFEFB093132212
:100F3C00B0931422B8E1B0931522B6ECB0931622FC
:100F4C00B0E0B0931722B0931822B1E0B0931922FD
:100F5C00B0E1B0931A22B4E8B0931B22B0E0B09386
:100F6C001C22B0931D22B0E0B0931E22B0931F221E
:100F7C00B0E0B0932022B0932122B0E0B0932222B3
:100F8C00B0932322B2E9B0932422B2E2B09325228B
:100F9C00B5E0B0932622BCEDB0932722B0E0B0931D
:100FAC002822B7EAB0932922B0E0B0932A22B6E007
:100FBC00B0932B22B0E0B0932C22B1E0B0932D2251
:100FCC00BFEFB0932E22B0932F22B1E0B09330221A
:100FDC00B1E0B0933122B1E0B0933222B0E0B093E3
:100FEC003322B0E0B0933422BFEFB0933522B093EC
:100FFC003622B8E1B0933722B6ECB0933822B0E089
:10100C00B0933922B0933A22B1E0B0933B22B0E1D5
:10101C00B0933C22B4E8B0933D22B0E0B0933E22B2
:10102C00B0933F22B0E0B0934022B0934122B0E0A5
:10103C00B0934222B0934322B0E0B0934422B093D9
:10104C004522B2E9B0936921B2E2B0936A21B6E0CD
:10105C00B0936B21B2EBB0936C21B0E0B0936D21E7
:10106C00B2E3B0936E21B0E0B0936F21BCE0B093CB
:10107C007021B0E0B0937121B1E0B0937221BFEF59
:10108C00B0937321B0937421B1E0B0937521B1E0AA
:10109C00B0937621B1E0B0937721B0E0B093782192
:1010AC00B0E0B0937921BFEFB0937A21B0937B215C
:1010BC00B8E1B0937C21B6ECB0937D21B0E0B09355
:1010CC007E21B0937F21B1E0B0938021B0E1B09349
:1010DC008121B4E8B0938221B0E0B0938321B09326
:1010EC008421B0E0B0938521B0938621B0E0B09319
:1010FC008721B0938821B0E0B0938921B0938A21E5
:10110C00B2E9B0939D20B2E2B0939E20B7E0B093C9
:10111C009F20B2EDB093A020B0E0B093A120BCE62C
:10112C00B093A220B0E0B093A320B4E0B093A4207D
:10113C00B0E0B093A520B1E0B093A620BFEFB09380
:10114C00A720B093A820B1E0B093A920B1E0B09350
:10115C00AA20B1E0B093AB20B0E0B093AC20B0E0EB
:10116C00B093AD20BFEFB093AE20B093AF20B8E1F9
:10117C00B093B020B6ECB093B120B0E0B093B220F5
:10118C00B093B320B1E0B093B420B0E1B093B520EC
:10119C00B4E8B093B620B0E0B093B720B093B820C9
:1011AC00B0E0B093B920B093BA20B0E0B093BB20BC
:1011BC00B093BC20B0E0B093BD20B093BE20B2E998
:1011CC00B093BF20B2E2B093C020B8E0B093C1207E
:1011DC00B1EEB093C220B0E0B093C320B3ECB093A7
:1011EC00C420B0E0B093C520B4E0B093C620B0E00A
:1011FC00B093C720B1E0B093C820BFEFB093C92023
:10120C00B093CA20B1E0B093CB20B1E0B093CC2026
:10121C00B1E0B093CD20B0E0B093CE20B0E0B0936D
:10122C00CF20BFEFB093D020B093D120B8E1B093D2
:10123C00D220B6ECB093D320B0E0B093D420B093CE
:10124C00D520B1E0B093D620B0E1B093D720B4E86C
:10125C00B093D820B0E0B093D920B093DA20B0E0AE
:10126C00B093DB20B093DC20B0E0B093DD20B093E2
:10127C00DE20B0E0B093DF20B093E020B2E9B09371
:10128C005920B2E2B0935A20B9E0B0935B20B6EE8D
:10129C00B0935C20B0E0B0935D20B3E7B0935E20D8
:1012AC00B0E0B0935F20B4E0B0936020B0E0B093B6
:1012BC006120B1E0B0936220BFEFB0936320B09394
:1012CC006420B1E0B0936520B1E0B0936620B1E04A
:1012DC00B0936720B0E0B0936820B0E0B093692081
:1012EC00BFEFB0936A20B0936B20B8E1B0936C2041
:1012FC00B6ECB0936D20B0E0B0936E20B0936F203D
:10130C00B1E0B0937020B0E1B0937120B4E8B09329
:10131C007220B0E0B0937320B0937420B0E0B0931F
:10132C007520B0937620B0E0B0937720B0937820FE
:10133C00B0E0B0937920B0937A20B2E9B0937B20DF
:10134C00B2E2B0937C20BAE0B0937D20B9ECB093BC
:10135C007E20B0E0B0937F20B3ECB0938020B0E05F
:10136C00B0938120B6E0B0938220B0E0B09383209C
:10137C00B1E0B0938420BFEFB0938520B09386206A
:10138C00B1E0B0938720B1E0B0938820B1E0B09386
:10139C008920B0E0B0938A20B0E0B0938B20BFEFEF
:1013AC00B0938C20B0938D20B8E1B0938E20B6EC26
:1013BC00B0938F20B0E0B0939020B0939120B1E027
:1013CC00B0939220B0E1B0939320B4E8B093942002
:1013DC00B0E0B0939520B0939620B0E0B0939720F6
:1013EC00B0939820B0E0B0939920B0939A20B0E0DD
:1013FC00B0939B20B0939C20B2E9B0932521B2E22C
:10140C00B0932621BBE0B0932721B7EDB0932821F0
:10141C00B0E0B0932921BAE7B0932A21B0E0B093A1
:10142C002B21B6E0B0932C21B0E0B0932D21B1E08C
:10143C00B0932E21BFEFB0932F21B0933021B1E0A8
:10144C00B0933121B1E0B0933221B1E0B0933321AC
:10145C00B0E0B0933421B0E0B0933521BFEFB0933E
:10146C003621B0933721B8E1B0933821B6ECB09364
:10147C003921B0E0B0933A21B0933B21B1E0B09365
:10148C003C21B0E1B0933D21B4E8B0933E21B0E0F3
:10149C00B0933F21B0934021B0E0B0934121B09381
:1014AC004221B0E0B0934321B0934421B0E0B0931B
:1014BC004521B0934621B2E9B0934721B2E2B093F3
:1014CC004821BCE0B0934921BAECB0934A21B0E07A
:1014DC00B0934B21BAE4B0934C21B0E0B0934D21C2
:1014EC00B6E0B0934E21B0E0B0934F21B1E0B09391
:1014FC005021BFEFB0935121B0935221B1E0B09382
:10150C005321B1E0B0935421B1E0B0935521B0E038
:10151C00B0935621B0E0B0935721BFEFB093582150
:10152C00B0935921B8E1B0935A21B6ECB0935B213A
:10153C00B0E0B0935C21B0935D21B1E0B0935E213B
:10154C00B0E1B0935F21B4E8B0936021B0E0B09308
:10155C006121B0936221B0E0B0936321B093642118
:10156C00B0E0B0936521B0936621B0E0B0936721F1
:10157C00B0936821B2E9B093E120B2E2B093E220DB
:10158C00BDE0B093E320BBEDB093E420B0E0B093AA
:10159C00E520B2E5B093E620B0E0B093E720B8E0E8
:1015AC00B093E820B0E0B093E920B1E0B093EA202A
:1015BC00BFEFB093EB20B093EC20B1E0B093ED20F3
:1015CC00B1E0B093EE20B1E0B093EF20B0E0B09377
:1015DC00F020B0E0B093F120BFEFB093F220B093C5
:1015EC00F320B8E1B093F420B6ECB093F520B0E062
:1015FC00B093F620B093F720B1E0B093F820B0E1AF
:10160C00B093F920B4E8B093FA20B0E0B093FB208B
:10161C00B093FC20B0E0B093FD20B093FE20B0E07E
:10162C00B093FF20B0930021B0E0B0930121B093B0
:10163C000221B2E9B0930321B2E2B0930421BEE0DF
:10164C00B0930521BAEBB0930621B0E0B09307211B
:10165C00B9E0B0930821B0E0B0930921B4E0B093A5
:10166C000A21B0E0B0930B21B1E0B0930C21BFEF95
:10167C00B0930D21B0930E21B1E0B0930F21B1E0E6
:10168C00B0931021B1E0B0931121B0E0B0931221CE
:10169C00B0E0B0931321BFEFB0931421B093152198
:1016AC00B8E1B0931621B6ECB0931721B0E0B0932B
:1016BC001821B0931921B1E0B0931A21B0E1B09385
:1016CC001B21B4E8B0931C21B0E0B0931D21B09362
:1016DC001E21B0E0B0931F21B0932021B0E0B09355
:1016EC002121B0932221B0E0B0932321B093242187
:1016FC00B2E9B093EF22B2E2B093F022BFE0B09324
:10170C00F122B7EDB093F222B0E0B093F322B0E93E
:10171C00B093F422B0E0B093F522B4E0B093F6228B
:10172C00B0E0B093F722B1E0B093F822BFEFB093E2
:10173C00F922B093FA22B1E0B093FB22B1E0B0935E
:10174C00FC22B1E0B093FD22B0E0B093FE22B0E0F9
:10175C00B093FF22BFEFB0930023B0930123B8E105
:10176C00B0930223B6ECB0930323B0E0B093042300
:10177C00B0930523B1E0B0930623B0E1B0930723F7
:10178C00B4E8B0930823B0E0B0930923B0930A23D4
:10179C00B0E0B0930B23B0930C23B0E0B0930D23C7
:1017AC00B0930E23B0E0B0930F23B0931023B2E9A3
:1017BC00B093C821B2E2B093C921B0E1B093CA2171
:1017CC00B4E0B093CB21B0E0B093CC21B8E4B093AB
:1017DC00CD21B0E0B093CE21B4EAB093CF21B0E0EC
:1017EC00B093D021BBE1B093D121B0E0B093D22122
:1017FC00B1E0B093DB21B1E0B093DC21B0E0B09369
:10180C00D321B0E2B093D4210AE21BEA20E030E00D
:10181C000093D5211093D6212093D7213093D82132
:10182C00BFEFB093D921B093DA21B0E0B093DD21B2
:10183C00B093DE21B0E0B093DF21B093E021B0E0B3
:10184C00B093E121B093E221B0E0B093E321B093E7
:10185C00E421B2E9B093E521B2E2B093E621B1E123
:10186C00B093E721B7E0B093E821B0E0B093E92161
:10187C00B4E6B093EA21B0E0B093EB21B4E9B093B5
:10188C00EC21B0E0B093ED21BBE1B093EE21B0E0E0
:10189C00B093EF21B1E0B093F821B1E0B093F9210E
:1018AC00BBE0B093F021B0E2B093F1210093F221B0
:1018BC001093F3212093F4213093F521BFEFB093D3
:1018CC00F621B093F721B0E0B093FA21B093FB214D
:1018DC00B0E0B093FC21B093FD21B0E0B093FE21B9
:1018EC00B093FF21B0E0B0930022B0930122B2E993
:1018FC00B093CD22B2E2B093CE22B2E1B093CF221C
:10190C00B4EDB093D022B0E0B093D122B0E0B0935C
:10191C00D222B093D322B4E1B093D422B0E0B093EE
:10192C00D522B1E0B093D622BFEFB093D722B093BB
:10193C00D822B1E0B093D922B1E0B093DA22B1E071
:10194C00B093DB22B0E0B093DC22B0E0B093DD22A8
:10195C00BFEFB093DE22B093DF22B8E1B093E02268
:10196C00B6ECB093E122B0E0B093E222B093E32264
:10197C00B1E0B093E422B0E1B093E522B4E8B093C7
:10198C00E622B0E0B093E722B093E822B0E0B09347
:10199C00E922B093EA22B0E0B093EB22B093EC22B0
:1019AC00B0E0B093ED22B093EE22B2E9B093AB224B
:1019BC00B2E2B093AC22B3E1B093AD22BEEBB093E4
:1019CC00AE22B0E0B093AF22BEE1B093B022B0E053
:1019DC00B093B122B4E0B093B222B0E0B093B32292
:1019EC00B1E0B093B422BFEFB093B522B093B6225E
:1019FC00B1E0B093B722B1E0B093B822B1E0B093AC
:101A0C00B922B0E0B093BA22B0E0B093BB22BFEFE2
:101A1C00B093BC22B093BD22B8E1B093BE22B6EC19
:101A2C00B093BF22B0E0B093C022B093C122B1E01A
:101A3C00B093C222B0E1B093C322B4E8B093C422F5
:101A4C00B0E0B093C522B093C622B0E0B093C722E9
:101A5C00B093C822B0E0B093C922B093CA22B0E0D0
:101A6C00B093CB22B093CC22B2E9B0933523B2E23F
:101A7C00B0933623B4E1B0933723B3E6B093382355
:101A8C00B0E0B0933923B6E0B0933A23B0E0B09312
:101A9C003B23B2E1B0933C23B0E0B0933D23B1E0E3
:101AAC00B0933E23BFEFB0933F23B0934023B1E0FC
:101ABC00B0934123B1E0B0934223B1E0B093432300
:101ACC00B0E0B0934423B0E0B0934523BFEFB093A4
:101ADC004623B0934723B8E1B0934823B6ECB093B8
:101AEC004923B0E0B0934A23B0934B23B1E0B093B9
:101AFC004C23B0E1B0934D23B4E8B0934E23B0E047
:101B0C00B0934F23B0935023B0E0B0935123B093D4
:101B1C005223B0E0B0935323B0935423B0E0B0936E
:101B2C005523B0935623B2E9B0931123B2E2B0938C
:101B3C001223B5E1B0931323BEE9B0931423B0E0A4
:101B4C00B0931523BEE2B0931623B0E0B0931723E5
:101B5C00B4E0B0931823B0E0B0931923B1E0B09384
:101B6C001A23BFEFB0931B23B0931C23B1E0B093A7
:101B7C001D23B1E0B0931E23B1E0B0931F23B0E05E
:101B8C00B0932023B0E0B0932123BFEFB093222376
:101B9C00B0932323B8E1B0932423B6ECB093252360
:101BAC00B0E0B0932623B0932723B1E0B093282361
:101BBC00B0E1B0932923B4E8B0932A23B0E0B093FA
:101BCC002B23B0932C23B0E0B0932D23B0932E2372
:101BDC00B0E0B0932F23B0933023B0E0B093312317
:061BEC00B09332230895BE
:1008B200CF93DF93CDB7DEB72C97CDBFDEBF2196A6
:1008C2004F925F92B0E0B883B0E0B983B0E0BC83EE
:1008D200B0E0BF8320928C2230928D22F1013296B9
:1008E2002191319100918A2210918B2202171307D4
:1008F20081F400918C2210918D22F801349621917D
:10090200319100919022109191220217130709F45C
:1009120054C000900407BB2700FCB395BA8700902F
:100922000007BB2700FCB395BB87B0910007B160FD
:10093200B0930007B0910407BE7FB0930407009103
:100942008C2210918D22F801349621913191F80177
:100952003296019111913F922F922901180126DFBF
:10096200E0918C22F0918D2201911191180123DEE8
:100972002F903F9020918C2230918D22F901329656
:100982000191119100938A2210938B22F9013496DE
:10099200019111910093902210939122BA85B0FB9C
:1009A200B0910407B0F9B0930407BB85B0FBB091D6
:1009B2000007B0F9B09300070CC0E0918C22F091CF
:1009C2008D22019111913F922F921801F4DD2F9007
:1009D2003F9020928C2230928D2200918C22109195
:1009E2008D22F801369610810881011708F0B5C0F2
:1009F20000918C2210918D22F8013796219131912C
:100A0200098110E00217130778F500918C221091EA
:100A12008D22F8013996419151916191719109812B
:100A220010E0212F312F000F111F221F331F040F3F
:100A3200151F261F371F2BBFF801079117910A8335
:100A42001B83F801329610810881011769F409812C
:100A52000F5F098308810F5F08833F922F922A80DC
:100A62003B801ADE2F903F9000918C2210918D22B4
:100A7200F8017396219131910F8110E0021713074B
:100A820078F500918C2210918D22F8017596419192
:100A92005191619171910F8110E0212F312F000F3F
:100AA200111F221F331F040F151F261F371F2BBFB5
:100AB200F8010791179108871987F801329610817A
:100AC2000881011769F40F810F5F0F8308810F5F9F
:100AD20008833F922F9228843984DCDC2F903F9048
:100AE20000918C2210918D22F8013D962191319135
:100AF2000C8110E00217130778F500918C221091F7
:100B02008D22F8013F9641915191619171910C8131
:100B120010E0212F312F000F111F221F331F040F4E
:100B2200151F261F371F2BBFF801079117910D8341
:100B32001E83F801329610810881011769F40C8135
:100B42000F5F0C8308810F5F08833F922F922D80E5
:100B52003E806DDC2F903F9040CF5F904F902B9660
:0A0B6200CDBFDEBFDF91CF910895F3
:1007AE002F923F924F925F926F927F928F920E9402
:1007BE00047A013091F0B3E2B0933C20B5E7B093E8
:1007CE003D20B8E8B0933A20B5E7B0933B20B8E9A6
:1007DE00B0932420B0E8B093252020922D203092A3
:1007EE002E2040922F20509230202414350420F0D9
:1007FE00B0E0B0931A2003C0BAE5B0931A20B1E06E
:10080E004B2E222433240E94E57B772488246624F1
:10081E005524332444242224B0E0BF93BF9305DB38
:10082E00ADB7BEB71296ADBFBEBF44245524222429
:10083E0033240E94EC7BB0E0B0933420BFEFB09332
:10084E0020070E94077AB2E1B0932A20B1E8B09354
:10085E002B208F907F906F905F904F903F902F90B6
:02086E000895EB
:020000040000FA
:10F40E002F923F92B0910407BD7FB0930407B09145
:10F41E000007B260B0930007B0910407B061B093DB
:10F42E000407B0910007B061B0930007B0910407D4
:10F43E00B062B0930407B0910007B062B0930007BA
:10F44E00B0910007B460B0930007B0910007B860A8
:10F45E00B0930007B0910407B460B0930407B09165
:10F46E000407B860B09304070E940470B0910407BB
:10F47E00B260B09304070E9404700E94047033249B
:10F48E00BAEE2B2E0E942C6BB0E23B2EBBEE2B2E37
:10F49E000E942C6BBCE03B2EBCEE2B2E0E942C6BE4
:10F4AE00B4EC3B2EBDEE2B2E0E942C6BB0E43B2E0B
:10F4BE00B8EE2B2E0E942C6BB8E33B2EB9EE2B2E02
:10F4CE000E942C6BB1E03B2EB1EF2B2E0E942C6BC9
:10F4DE00B0E13B2EB2EF2B2E0E942C6BB3EA3B2EEB
:10F4EE00B7E22B2E0E942C6B3324B0E42B2E0E94FD
:10F4FE002C6B3324B1E42B2E0E942C6BB1E03B2EEF
:10F50E00B2E42B2E0E942C6BB3E13B2EB3E42B2ED8
:10F51E000E942C6BB0E13B2EB4E42B2E0E942C6B80
:10F52E00B6E23B2EB5E42B2E0E942C6BB8E03B2EA0
:10F53E00B6E42B2E0E942C6BB1E53B2EB7E42B2E9E
:10F54E000E942C6BB2E03B2EB8E42B2E0E942C6B4B
:10F55E00B2E13B2EB9E42B2E0E942C6BB8E13B2E70
:10F56E00BAE42B2E0E942C6BB9E13B2EBBE42B2E62
:10F57E000E942C6BB4E13B2EBCE42B2E0E942C6B14
:10F58E00B9E13B2EB0E52B2E0E942C6BBFE23B2E39
:10F59E00B1E52B2E0E942C6BBCE23B2EB2E52B2E3E
:10F5AE000E942C6BBEE33B2EB3E52B2E0E942C6BE0
:10F5BE00BFE33B2EB4E52B2E0E942C6BBFE33B2EFC
:10F5CE00B5E52B2E0E942C6BBEE23B2EB6E52B2E04
:10F5DE000E942C6BB7E73B2EB7E52B2E0E942C6BAF
:10F5EE00BBE03B2EB8E52B2E0E942C6BB6E03B2EDB
:10F5FE00B9E52B2E0E942C6BB7E03B2EBAE52B2ED5
:10F60E000E942C6BBDE03B2EBBE52B2E0E942C6B7B
:10F61E00BDE13B2EBCE52B2E0E942C6BBCEC3B2E91
:10F62E00BDE52B2E0E942C6B00911A200A35C1F4D9
:10F63E003324B4E02B2E0E942C6BBFEE3B2EB5E094
:10F64E002B2E0E942C6BB1E03B2EB8E02B2E0E948D
:10F65E002C6BBFE33B2EB9E02B2E0E942C6B17C0F8
:10F66E00B1E03B2EB4E02B2E0E942C6BBFE33B2E61
:10F67E00B5E02B2E0E942C6B3324B8E02B2E0E946B
:10F68E002C6BBFEE3B2EB9E02B2E0E942C6B009103
:10F69E001A200A3591F40E942F6E002339F0B8EC2F
:10F6AE003B2EB6E12B2E0E942C6B06C0B8E03B2EF3
:10F6BE00B6E12B2E0E942C6B11C00E942F6E0023E0
:10F6CE0039F0B8EA3B2EB6E12B2E0E942C6B06C009
:10F6DE00B8E63B2EB6E12B2E0E942C6BBBE13B2EE7
:10F6EE00BBE12B2E0E942C6BB1E03B2EBAE12B2EF0
:10F6FE000E942C6BBFE23B2EB4E22B2E0E942C6B91
:10F70E00B7E53B2EB5E22B2E0E942C6BBDE83B2EAF
:10F71E00B3E22B2E0E942C6BB6E33B2EB8E12B2EC0
:10F72E000E942C6BB1E03B2EB9E12B2E0E942C6B6C
:10F73E003324B1E02B2E0E942C6BB8E83B2EBFE198
:10F74E002B2E0E942C6BB0D9B0E83B2EBFE12B2E96
:10F75E000E942C6BA9D9B0E93B2EBFE12B2E0E9443
:10F76E002C6BA2D9B0ED3B2EBFE12B2E0E942C6B41
:10F77E009BD9B5E03B2EB7E12B2E0E942C6B332488
:10F78E00B6E32B2E0E942C6BB8E33B2EB8E22B2E49
:10F79E000E942C6B0E94D86D0E94D86D0E94D86D6D
:10F7AE000E94D86DBCE33B2EB8E22B2E0E942C6B30
:06F7BE003F902F9008951A
:10D658002F92B0910407BF7DB09304073F92E091E9
:10D668003C20F0913D2009953F90232CE0913A20F1
:10D67800F0913B200995B0910407B062B09304077C
:04D688002F90089542
:10DBB00022E010EA03E90A95F1F71A95E1F72A95B0
:06DBC000D1F700000895FA
:020000040001F9
:1005B8004F925F926F927F928F929F92B0910407B1
:1005C800BF7DB0930407FAD80023E1F020912F20D3
:1005D800309130202150304000912D2010912E2054
:1005E800015010403F922F9249013801442455246C
:1005F80022243324E0912820F091292009952F9076
:100608003F900DC03F922F92442455242224332436
:10061800E0912A20F0912B2009952F903F9020E01F
:1006280030E000912F20109130202017310728F555
:1006380000E010E0A80100912D2010912E20401715
:100648005107B0F43F932F935F934F933F922F92AC
:10065800E0912420F091252009952F903F904F910B
:100668005F912F913F918A010F5F1F4FA801E3CF40
:1006780089010F5F1F4F9801D4CFB0910407B06272
:10068800B09304079F908F907F906F905F904F90EA
:020698000895C3
:020000040000FA
:06F7C400009119200895D8
:10FE7000CF93DF93CDB7DEB72897CDBFDEBF2196F6
:10FE80002F923F9220912D2030912E2000EE11E0F4
:10FE90000217130750F020912F203091302000EEF0
:10FEA00011E00217130708F005C060E273E040EEAE
:10FEB00051E004C060EE71E040E151E000911A2091
:10FEC0000A3541F50E942F6E002391F09B012150CD
:10FED0003040890108191909088319838901041917
:10FEE00015090A831B832C823D826E827F8211C09A
:10FEF000488259828A829B829A012150304089012E
:10FF0000061917090C831D838901021913090E8331
:10FF10001F8327C00E942F6E0023D9F09B01215020
:10FF200030408901061917090883198389010219CC
:10FF300013090A831B839A01215030408901081953
:10FF400019090C831D838901041915090E831F8368
:10FF500008C0288239826A827B824C825D828E82CE
:10FF60009F82BAE22B2EE0913C20F0913D20099532
:10FF700008811981012F10E0202EE0913A20F091A4
:10FF80003B2009952880E0913A20F0913B2009958B
:10FF90000A811B81012F10E0202EE0913A20F09180
:10FFA0003B2009952A80E0913A20F0913B20099569
:10FFB000BBE22B2EE0913C20F0913D2009950C8175
:10FFC0001D81012F10E0202EE0913A20F0913B207E
:10FFD00009952C80E0913A20F0913B2009950E8103
:10FFE0001F81012F10E0202EE0913A20F0913B205C
:10FFF00009952E80E0913A20F0913B200995BCE2D2
:020000040001F9
:100000002B2EE0913C20F0913D2009953F902F90C0
:0C0010002796CDBFDEBFDF91CF91089591
:100224002F923F925F924F923F922F92B2E02B2EE9
:10023400E0913C20F0913D2009952F903F90032DB3
:1002440010E03F922F92202EE0913A20F0913B2033
:100254000995B3E02B2EE0913C20F0913D200995C7
:100264002F903F90E0913A20F0913B200995B6E021
:100274002B2EE0913C20F0913D2009954F905F900A
:10028400052D10E05F924F92202EE0913A20F091DC
:100294003B200995B7E02B2EE0913C20F0913D20C6
:1002A40009954F905F90242CE0913A20F0913B20E7
:1002B4000995B2E22B2EE0913C20F0913D20099566
:0602C4003F902F90089509
:1002CA00CF93DF93CDB7DEB72497CDBFDEBF21969C
:1002DA002F923F92288239824A825B82BAE22B2E7F
:1002EA00E0913C20F0913D2009958E01F80131966C
:1002FA000081202EE0913A20F0913B200995288038
:10030A00E0913A20F0913B200995BBE22B2EE09137
:10031A003C20F0913D2009958E010E5F1F4FF80198
:10032A0031960081202EE0913A20F0913B200995E8
:10033A002A80E0913A20F0913B200995BCE22B2ECD
:10034A00E0913C20F0913D2009953F902F90239613
:0A035A00CDBFDEBFDF91CF91089503
:1000A6002F923F925F924F923F922F92BAE22B2E5F
:1000B600E0913C20F0913D2009952F903F90032D33
:1000C60010E03F922F92202EE0913A20F0913B20B3
:1000D60009952F903F90E0913A20F0913B200995A9
:1000E600BBE22B2EE0913C20F0913D2009954F90EC
:1000F6005F90052D10E05F924F92202EE0913A20FE
:10010600F0913B2009954F905F90242CE0913A2086
:10011600F0913B200995BCE22B2EE0913C20F0911A
:0A0126003D2009953F902F900895A9
:10001C002F923F925F924F923F922F92BAE22B2EE9
:10002C00E0913C20F0913D2009952F903F90032DBD
:10003C0010E03F922F92202EE0913A20F0913B203D
:10004C0009952F903F90E0913A20F0913B20099533
:10005C00BBE22B2EE0913C20F0913D2009954F9076
:10006C005F90052D10E05F924F92202EE0913A2088
:10007C00F0913B2009954F905F90242CE0913A2011
:10008C00F0913B200995BCE22B2EE0913C20F091A5
:0A009C003D2009953F902F90089534
:10019A002F923F925F924F923F922F92BAE22B2E6A
:1001AA00E0913C20F0913D2009952F903F90032D3E
:1001BA0010E03F922F92202EE0913A20F0913B20BE
:1001CA0009952F903F90E0913A20F0913B200995B4
:1001DA00BBE22B2EE0913C20F0913D2009954F90F7
:1001EA005F90052D10E05F924F92202EE0913A2009
:1001FA00F0913B2009954F905F90242CE0913A2092
:10020A00F0913B200995BCE22B2EE0913C20F09125
:0A021A003D2009953F902F900895B4
:10013000CF93DF93CDB7DEB72297CDBFDEBF219639
:1001400028823982B0910407B061B09304078E0110
:10015000F8013196008100932407B0910407B77F1E
:10016000B09304070000B0910407B860B09304078F
:10017000FE01008100932407B0910407B77FB0937C
:1001800004070000B0910407B860B09304072196FB
:0A019000CDBFDEBFDF91CF910895CF
:020000040000FA
:10F35C002F923F92BBE0810116950795BA95E1F784
:10F36C00102F012F000F000F000F102FB7E0012FEF
:10F37C000695BA95E9F7013029F4012F095F102F92
:10F38C00012F01C0012F3F922F92202E69DB2F906D
:10F39C003F90B5E0810116950795BA95E1F7102FCE
:10F3AC00012F000F000F102FB7E0012F0695BA9513
:10F3BC00E9F7013029F4012F0D5F102F012F01C047
:10F3CC00012F3F922F92202E4BDB2F903F90022D3E
:10F3DC00000F000F000F102FB7E0012F0695BA9504
:10F3EC00E9F7013029F4012F095F102F012F01C01B
:0CF3FC00012F202E35DB3F902F9008954C
:020000040001F9
:10069A002F923F924F925F926F927F928F92F101C7
:1006AA0073960081013009F075C0F101719641918C
:1006BA005191F1013D9601911191219131913F9210
:1006CA002F9288243A01180129010E94FE752F9061
:1006DA003F90F101359641915191F1013396219163
:1006EA003191F1013B96019111913F922F923A017A
:1006FA00290118010E949B752F903F90F1013396B2
:10070A0021913191F1013796019111910090332392
:10071A00109034230019110915950795A801420F65
:10072A00531FBA01F101359621913191F1013996A0
:10073A000191119100908E2210908F2200191109B7
:10074A0015950795020F131F980100E010E0401756
:10075A0051077CF000E010E02017310754F0F10156
:10076A003B960191119139012B0118010E94497997
:10077A0011C0F101359641915191F10133962191C0
:10078A003191F1013B96019111913A012901180128
:10079A000E9449798F907F906F905F904F903F9021
:0407AA002F900895EF
:020000040000FA
:10EBFC002092362030923720409238205092392083
:10EC0C00810192010E5F1F4F2F4F3F4F2BBFF80119
:10EC1C004691810192010D5F1F4F2F4F3F4F2BBF2C
:10EC2C00F8010691102F0027040FB0E01B1F009372
:10EC3C00262010932720810192010C5F1F4F2F4F2C
:10EC4C003F4F2BBFF8014691810192010B5F1F4F83
:10EC5C002F4F3F4F2BBFF8010691102F0027040FA9
:10EC6C00B0E01B1F00934A2010934B2081019201AE
:10EC7C000A5F1F4F2F4F3F4F2BBFF8010691009398
:10EC8C004820B0E0B09349206092542070925520F7
:10EC9C0080925620B1E0B0931820B0E0B0933420AD
:02ECAC000895C9
:10EB360020E030E000912D2010912E204016510645
:10EB460008F058C000912F201091302060167106F1
:10EB560008F050C0B0E0B0933323B0933423B0E054
:10EB6600B0938E22B0938F22F10181010F5F1F4F68
:10EB760018010081102F002389F100913420002311
:10EB8600D1F03F932F937F926F925F924F923F9275
:10EB96002F92212EB0E03B2E13D82F903F904F900E
:10EBA6005F906F907F902F913F910F5F1F4F020FE5
:10EBB600131F980112C03F932F933F922F92212E3D
:10EBC600B0E03B2E0E94466B2F903F902F913F91D5
:10EBD6000F5F1F4F020F131F9801C6CF20933323D9
:10EBE60030933423009148201091492000938E22BF
:06EBF60010938F22089528
:10DBC6002F923F924F925F926F927F920091262002
:10DBD600109127202016310618F400E010E035C019
:10DBE60000914A2010914B200215130518F400E00D
:10DBF60010E02BC0009026201090272081010019EC
:10DC06001109A801440F551F440F551F00914C20C0
:10DC160010914D2020914E2030914F20085F1F4FCC
:10DC26002F4F3F4F040F151FB0E02B1F3B1FB4E0D3
:10DC36006B2EB0E07B2E180129010E9483621EE341
:10DC460020E2E12FF22F008110E07F906F905F902D
:08DC56004F903F902F900895BC
:10C50600CF93DF93CDB7DEB72497CDBFDEBF21969D
:10C516008F929F92BEE3BA83B0E2BB8300E010E045
:10C526000615170508F042C08E017F926F925F9242
:10C536004F923F922F924801E0915020F091512066
:10C5460009952F903F904F905F906F907F90B80124
:10C5560020E030E0AB010881198120173107A8F4EB
:10C56600FA010081EA81FB8100830A811B810F5F4A
:10C576001F4F0A831B838A010F5F1F4FB801890172
:10C586000F5F1F4FAB019801E6CF0880198083012A
:10C596000019110938010881198120E0322F020D96
:10C5A600131D241D351D18012901B8CF9F908F90AA
:0CC5B6002396CDBFDEBFDF91CF9108952A
:10D68C004F925F926F927F928F9200911820003090
:10D69C0091F404EF11E03F922F92882466247724B2
:10D6AC001801B0E04B2E542C0E94FE752F903F9029
:10D6BC00B1E0B0931820009126201091272020165D
:10D6CC00310618F400E010E02BC000914A201091B4
:10D6DC004B200215130518F400E010E021C0009057
:10D6EC00262010902720810100191109A801440F50
:10D6FC00551F440F551F0091362010913720209153
:10D70C00382030913920085F1F4F2F4F3F4F040FA7
:10D71C00151FB0E02B1F3B1F2BBFF801069110E02B
:0CD72C008F907F906F905F904F90089559
:10F292004F925F9200912D2010912E204016510620
:10F2A20008F058C000912F2010913020601671068E
:10F2B20008F050C020E030E03F922F92120123016B
:10F2C2008AD22F903F90F901E20DF31D00810023B5
:10F2D20009F440C0009134200023F1F0F901E20D5D
:10F2E200F31D00813F932F937F926F925F924F9213
:10F2F2003F922F92202EB0E03B2E0E949C6B2F90CB
:10F302003F904F905F906F907F902F913F91890136
:10F312000F5F1F4F98011DC0F901E20DF31D00811F
:10F322003F932F937F926F925F924F923F922F92D1
:10F33200202EB0E03B2E0E946E652F903F904F90A2
:10F342005F906F907F902F913F9189010F5F1F4FC8
:0AF352009801B9CF5F904F90089525
:10D73800CF93DF93CDB7DEB76797CDBFDEBF219616
:10D748002F923F924F925F926F927F928F929F9209
:10D75800B0E0BC8BBD8BB0E0BE8B00912620109151
:10D7680027202016310608F411C200914A20109192
:10D778004B200215130508F409C2009026201090CA
:10D788002720810100191109A801440F551F440FD2
:10D79800551F00914C2010914D2020914E20309122
:10D7A8004F20085F1F4F2F4F3F4F040F151FB0E04A
:10D7B8002B1F3B1FB4E06B2EB0E07B2E1801290114
:10D7C8000E948362BEE3B98BB0E2BA8BE989FA8919
:10D7D800A081AB8B89899A89FC0131960081402F01
:10D7E80050E0652F752FFC013296008110E0212F43
:10D7F800312F322F212F102F0027400F511F621F6A
:10D80800731FFC013396008110E0212F312F312F37
:10D81800202F00271127400F511F621F731F0091EF
:10D828004C2010914D2020914E2030914F20040F14
:10D83800151F261F371F0D831E832F8338870A2F36
:10D8480006950695069510E040914820509149208C
:10D858000E94E7620B871C870B890770002351F031
:10D868002B853C850091482010914920020F131FF9
:10D878000B871C870B851C850F87188B8E01075F0C
:10D888001F4F48016B847C842D803E804F805884D4
:10D89800E0915020F09151200995098B1A8B4D8108
:10D8A8005E816F81788509851A8520E0322F040F03
:10D8B800151F261F371F0D831E832F833887098462
:10D8C8001A840B851C85001911090B871C87B0E089
:10D8D800BD87BE8700915620003009F0ACC000918A
:10D8E8005720109158200A831B83B0E0B98309811F
:10D8F800209148203091492010E00217130708F0C2
:10D9080091C000915220109153200C8B1D8BB0E0D8
:10D91800BC83B0E0B88318810B89101708F078C071
:10D928000C81003009F055C00D851E850F5F1F4F13
:10D938000D871E8729853A850F8518892017310795
:10D94800E0F52D853E8509851A8502171307A8F588
:10D95800B1E0BD87B0E0BE878E01075F1F4F3F92E1
:10D968002F9248016B847C842D803E804F805884A0
:10D97800E0915020F091512009952F903F90098B0C
:10D988001A8B0B851C850F87188B4D815E816F81E3
:10D99800788509851A8520E0322F040F151F261F68
:10D9A800371F0D831E832F83388709841A840B85BC
:10D9B8001C85001911090B871C87E989FA890081E0
:10D9C8000E8B09891A890F5F1F4F098B1A8BB1E0DB
:10D9D800BC831E890C81012371F03F922F926090C5
:10D9E8005420709055204A805B802C883D880E9486
:10D9F80022642F903F900C891D890F5F1F4F0C8B5D
:10DA08001D8B0C81000F0C8308810F5F088383CF67
:10DA18000A811B810F5F1F4F0A831B8309810F5FD8
:10DA2800098365CF0C891D890F5F1F4F0093522012
:10DA380010935320ABC000915220109153200A83B9
:10DA48001B83B0E0B9830981209148203091492097
:10DA580010E00217130708F091C0009157201091A9
:10DA680058200C8B1D8BB0E0BC83B0E0B8831881C4
:10DA78000B89101708F078C00C81003009F055C0E8
:10DA88000D851E850F5F1F4F0D871E8729853A85D7
:10DA98000F85188920173107E0F52D853E85098502
:10DAA8001A8502171307A8F5B1E0BD87B0E0BE8755
:10DAB8008E01075F1F4F3F922F9248016B847C8431
:10DAC8002D803E804F805884E0915020F091512065
:10DAD80009952F903F90098B1A8B0B851C850F8712
:10DAE800188B4D815E816F81788509851A8520E0C4
:10DAF800322F040F151F261F371F0D831E832F83F8
:10DB0800388709841A840B851C85001911090B872D
:10DB18001C87E989FA8900810E8B09891A890F5FA8
:10DB28001F4F098B1A8BB1E0BC831E890C8101231E
:10DB380071F03F922F9260905420709055204C883D
:10DB48005D882A803B800E9422642F903F900C8938
:10DB58001D89015010400C8B1D8B0C81000F0C830C
:10DB680008810F5F088383CF0A811B810F5F1F4FD6
:10DB78000A831B8309810F5F098365CF0C891D897F
:10DB88000150104000935720109358209F908F9079
:10DB98007F906F905F904F903F902F906696CDBF8B
:08DBA800DEBFDF91CF9108956B
:10C844002F923F928F929F9200E010E020163106C3
:10C8540044F000912D2010912E202016310608F46A
:10C8640001C037C000E010E04016510644F00091CA
:10C874002F20109130204016510608F401C029C021
:10C88400B0910407BF7DB09304070E94E27B0023AC
:10C8940061F07F926F9242013101E0912820F09182
:10C8A400292009956F907F9009C07F926F92E09143
:10C8B4002A20F0912B2009956F907F901301E0912D
:10C8C4002420F09125200995B0910407B062B0931B
:0CC8D40004079F908F903F902F900895D4
:10C5CE009801249F8001259F100D349F100D089512
:00C5DE005D
:10CADC00CF93DF93CDB7DEB72B97CDBFDEBF2196BB
:10CAEC004F925F926F927F928F92B0E0B887B98726
:10CAFC00B0E0BA8700911820003091F404EF11E0F7
:10CB0C003F922F928824662477241801B0E04B2E94
:10CB1C00542C0E94FE752F903F90B1E0B0931820DA
:10CB2C0000912620109127202016310608F43DC1D3
:10CB3C0000914A2010914B200215130508F435C1C1
:10CB4C000090262010902720810100191109A801BE
:10CB5C00440F551F440F551F80903620909037205E
:10CB6C00A0903820B090392084019501085F1F4FA8
:10CB7C002F4F3F4F2A01B0E06B2E762C400E511EEA
:10CB8C00621E731E6BBEF20106910F83820193012C
:10CB9C000F5F1F4F2F4F3F4F2BBFF8010691402FB8
:10CBAC0050E0652F752F820193010E5F1F4F2F4FA1
:10CBBC003F4F2BBFF801069110E0212F312F322F60
:10CBCC00212F102F0027400F511F621F731F82014E
:10CBDC0093010D5F1F4F2F4F3F4F2BBFF801069155
:10CBEC0010E0212F312F312F202F00271127040F78
:10CBFC00151F261F371F080D191D2A1D3B1D0B83E2
:10CC0C001C832D833E8300915620003009F067C0B1
:10CC1C006091572070915820B0E0B9830981209120
:10CC2C0048203091492010E00217130708F04EC03D
:10CC3C00009152201091532008871987B0E0BA83D5
:10CC4C00B0E0B88318810F811017C0F50A8100304D
:10CC5C00A1F40D810BBFEB81FC8106910A870B813E
:10CC6C001C812D813E810F5F1F4F2F4F3F4F0B8338
:10CC7C001C832D833E83B1E0BA831A850A8101237C
:10CC8C0081F07F936F933F922F926090542070901D
:10CC9C0055202B0128843984CFDD2F903F906F9144
:10CCAC007F91088519850F5F1F4F088719870A81A7
:10CCBC00000F0A8308810F5F0883C4CF8B010F5FBD
:10CCCC001F4FB80109810F5F0983A8CF088519850B
:10CCDC000F5F1F4F009352201093532066C060913A
:10CCEC00522070915320B0E0B983098120914820E3
:10CCFC003091492010E00217130708F04EC0009144
:10CD0C0057201091582008871987B0E0BA83B0E0FB
:10CD1C00B88318810F811017C0F50A810030A1F477
:10CD2C000D810BBFEB81FC8106910A870B811C8165
:10CD3C002D813E810F5F1F4F2F4F3F4F0B831C8365
:10CD4C002D833E83B1E0BA831A850A81012381F0D9
:10CD5C007F936F933F922F92609054207090552048
:10CD6C00488459841B0168DD2F903F906F917F910F
:10CD7C000885198501501040088719870A81000F12
:10CD8C000A8308810F5F0883C4CF8B010F5F1F4F8D
:10CD9C00B80109810F5F0983A8CF08851985015057
:10CDAC00104000935720109358208F907F906F90D5
:10CDBC005F904F902A96CDBFDEBFDF91CF91089543
:00CDCC0067
:020000040001F9
:100496002F923F924F925F926F927F928F92F101CD
:1004A6003C960081013009F07CC000912C2001307F
:1004B60061F5B0E0B0932C20F101719671918191B4
:1004C600F101739651916191F10170964081F101AC
:1004D6003F963081F101759611912191F1013E9679
:1004E60000813F922F92752E862E642E532E312E2A
:1004F600422E202E8F937F939CDCADB7BEB712960B
:10050600ADBFBEBF2F903F9028C0F1017396719189
:100516008191F101719651916191F101709640813D
:10052600F1013F963081F101759611912191F1010A
:100536003E9600813F922F92752E862E642E532E64
:10054600312E422E202E8F937F9373DCADB7BEB72C
:100556001296ADBFBEBF2F903F90F1013996208114
:10056600F1013A96019111913F922F92422E180174
:1005760029D92F903F90F101379641915191F10180
:100586003596019111919A01200F311FF101339691
:1005960001911191040F151F3A01290118010E94BA
:1005A60057768F907F906F905F904F903F902F90EF
:0205B6000895A6
:020000040000FA
:10ECAE00CF93DF93CDB7DEB72B97CDBFDEBF2196C7
:10ECBE006F927F928F9200913520002381F07F9288
:10ECCE006F925F924F923F922F92B1E08B2E0E94E5
:10ECDE00E6662F903F904F905F906F907F900091DF
:10ECEE0031201091322008871987009133200A872E
:10ECFE0000911F201091202000933120109332207C
:10ED0E00B0E0B0933320162D272D110F221F009146
:10ED1E0021201017B0E02B076CF40091212010E099
:10ED2E00060D171D15950795B1E08B2E38010E9423
:10ED3E00E66649C2B0E0BC83BD83820102191309A5
:10ED4E000E831F836A827B828301000F111F0801CD
:10ED5E0003E010E000191109088319830A811B8151
:10ED6E0098012F5F3F4F0C811D81021713070CF086
:10ED7E002AC200912120003009F425C200912120E1
:10ED8E00013009F0E1C00A811B819801240D351D67
:10ED9E000C811D81020D131D7F926F925F924F9217
:10EDAE003F922F9260901F20709020202901180111
:10EDBE000E9422642F903F904F905F900A801B809C
:10EDCE009201201931090C811D81020D131D5F92D4
:10EDDE004F923F922F9260901F2070902020290119
:10EDEE0018010E9422642F903F904F905F900A81ED
:10EDFE001B819801240D351D0C801D808101001989
:10EE0E0011095F924F923F922F9260901F20709047
:10EE1E002020290118010E9422642F903F904F90CC
:10EE2E005F900A801B809201201931090C801D8091
:10EE3E008101001911095F924F923F922F926090BB
:10EE4E001F2070902020290118010E9422642F900B
:10EE5E003F904F905F900C811D819801240D351DC0
:10EE6E000A811B81040D151D0E801F8000191109CA
:10EE7E005F924F923F922F9260901F2070902020B1
:10EE8E00290118010E9422642F903F904F905F90AD
:10EE9E000C801D809201201931090A811B81040DFD
:10EEAE00151D0E801F80001911095F924F923F921F
:10EEBE002F9260901F2070902020290118010E942F
:10EECE0022642F903F904F905F900C811D8198018E
:10EEDE00240D351D0A801B808201001911090E8038
:10EEEE001F80001911095F924F923F922F926090EE
:10EEFE001F2070902020290118010E9422642F905B
:10EF0E003F904F905F900C801D8092012019310927
:10EF1E000A801B808201001911090E801F800019C2
:10EF2E0011095F924F923F922F9260901F20709026
:10EF3E002020290118010E9422642F903F904F90AB
:10EF4E005F906F907F9008C100912120402F4695D1
:10EF5E000A811B819801240D351D0C811D81020D26
:10EF6E00131D7F926F925F924F923F922F92B1E05C
:10EF7E008B2E642EB0E07B2E290118010E94E666CE
:10EF8E002F903F904F905F9000912120402F4695FB
:10EF9E000A801B809201201931090C811D81020DFE
:10EFAE00131D5F924F923F922F92B1E08B2E642EE3
:10EFBE00B0E07B2E290118010E94E6662F903F904B
:10EFCE004F905F9000912120402F46950A811B8122
:10EFDE009801240D351D0C801D8081010019110929
:10EFEE005F924F923F922F92B1E08B2E642EB0E043
:10EFFE007B2E290118010E94E6662F903F904F90BC
:10F00E005F9000912120402F46950A801B8092012F
:10F01E00201931090C801D808101001911095F92A0
:10F02E004F923F922F92B1E08B2E642EB0E07B2E4A
:10F03E00290118010E94E6662F903F904F905F9035
:10F04E0000912120402F46950C811D819801240DA1
:10F05E00351D0A811B81040D151D0E801F800019A0
:10F06E0011095F924F923F922F92B1E08B2E642E38
:10F07E00B0E07B2E290118010E94E6662F903F908A
:10F08E004F905F9000912120402F46950C801D805F
:10F09E009201201931090A811B81040D151D0E8064
:10F0AE001F80001911095F924F923F922F92B1E08B
:10F0BE008B2E642EB0E07B2E290118010E94E6668D
:10F0CE002F903F904F905F9000912120402F4695BA
:10F0DE000C811D819801240D351D0A801B80820133
:10F0EE00001911090E801F80001911095F924F92AD
:10F0FE003F922F92B1E08B2E642EB0E07B2E290131
:10F10E0018010E94E6662F903F904F905F900091FD
:10F11E002120402F46950C801D8092012019310927
:10F12E000A801B808201001911090E801F800019B0
:10F13E0011095F924F923F922F92B1E08B2E642E67
:10F14E00B0E07B2E290118010E94E6662F903F90B9
:10F15E004F905F906F907F902881398100E010E092
:10F16E002017310784F40C811D81000F111F000F31
:10F17E00111F98012A5F3F4F08811981020F131F3B
:10F18E000883198319C00A801B800C811D81001908
:10F19E001109000F111F000F111F9801265F3F4F1D
:10F1AE0008811981020F131F088319830A811B819D
:10F1BE00015010400A831B830C811D810F5F1F4F6E
:10F1CE000C831D83CBCD08851985009331201093B8
:10F1DE0032200A85009333208F907F906F902A966D
:0AF1EE00CDBFDEBFDF91CF91089581
:10CDCC00CF93DF93CDB7DEB76397CDBFDEBF219690
:10CDDC009F9200912120088B00911F201091202000
:10CDEC00098B1A8BB1E0B093212000913120109166
:10CDFC00322000931F20109320208101061917095F
:10CE0C000F5F1F4F088719878301020D131D0150F7
:10CE1C0010400A871B878201061917090F5F1F4FE5
:10CE2C000C871D878301040D151D015010400E87C2
:10CE3C001F87B0E0BC83BD838201021913090E83E6
:10CE4C001F836A827B828301000F111F080103E09C
:10CE5C0010E000191109088319830A811B819801BC
:10CE6C002F5F3F4F0C811D81021713070CF0DEC39F
:10CE7C0000913320002309F4A6C200911C2000303D
:10CE8C0009F053C10C841D842E853F85201931096E
:10CE9C000A811B81040D151D0C841D8400191109B8
:10CEAC008F927F926F925F924F923F922F92490195
:10CEBC003801409022205090232020901D2030904B
:10CECC001E2087DB2F903F904F905F906F907F904C
:10CEDC008F905F924F923F922F92B1E04B2E1801A0
:10CEEC000E94E57B2F903F904F905F900A811B81B1
:10CEFC00A801440D551D0C801D809101201931098C
:10CF0C000C811D81020D131D8F927F926F925F9287
:10CF1C004F923F922F923A0129011801DBDC2F909E
:10CF2C003F904F905F900C841D842E853F85201977
:10CF3C0031090A801B808201001911090C841D849F
:10CF4C00001911095F924F923F922F9249013801BB
:10CF5C00409022205090232020901D2030901E20A5
:10CF6C0038DB2F903F904F905F906F907F908F9019
:10CF7C005F924F923F922F92B1E04B2E18010E947C
:10CF8C00E57B2F903F904F905F900A801B80A20111
:10CF9C00401951090C801D809101201931090C8117
:10CFAC001D81020D131D8F927F926F925F924F9293
:10CFBC003F922F923A01290118018CDC2F903F905F
:10CFCC004F905F900C841D842E853F85201931096C
:10CFDC000C811D81040D151D0C841D840019110973
:10CFEC005F924F923F922F9249013801409022203C
:10CFFC005090232020901D2030901E20EADA2F9094
:10D00C003F904F905F906F907F908F905F924F9278
:10D01C003F922F92B1E04B2E18010E94E57B2F908E
:10D02C003F904F905F900C811D81A801440D551DC0
:10D03C000A801B808201001911090E801F80980143
:10D04C00201931090A811B81040D151D0E801F80CA
:10D05C00001911098F927F926F925F924F923F92BB
:10D06C002F923A012901180135DC2F903F904F90F7
:10D07C005F900C841D842E853F85201931090C800E
:10D08C001D808201001911090C841D8400191109DD
:10D09C005F924F923F922F9249013801409022208B
:10D0AC005090232020901D2030901E2092DA2F903B
:10D0BC003F904F905F906F907F908F905F924F92C8
:10D0CC003F922F92B1E04B2E18010E94E57B2F90DE
:10D0DC003F904F905F900C801D80A2014019510928
:10D0EC000A801B808201001911090E801F80980193
:10D0FC00201931090A811B81040D151D0E801F801A
:10D10C00001911098F927F926F925F924F923F920A
:10D11C002F923A0129011801DDDB2F903F904F909F
:10D12C005F906F907F908F904DC1088419842A85F1
:10D13C003B85201931090C811D81020D131D0884BA
:10D14C001984001911098F927F926F925F924F92FE
:10D15C003F922F9249013801409022205090232079
:10D16C0020901D2030901E2034DA2F903F904F904D
:10D17C005F906F907F908F905F924F923F922F9223
:10D18C00B1E04B2E18010E94E57B2F903F904F9001
:10D19C005F900C811D81A801420D531D0A801B80DC
:10D1AC009201201931090A811B81040D151D8F92E2
:10D1BC007F926F925F924F923F922F923A01290188
:10D1CC001801AADA2F903F90088419842A853B8590
:10D1DC00201931090C801D80810100191109088466
:10D1EC001984001911093F922F924901380140907E
:10D1FC0022205090232020901D2030901E20E9D911
:10D20C002F903F904F905F906F907F908F905F9298
:10D21C004F923F922F92B1E04B2E18010E94E57B6A
:10D22C002F903F904F905F900C801D80A101401972
:10D23C0051090A801B809201201931090A811B8136
:10D24C00040D151D8F927F926F925F924F923F92B9
:10D25C002F923A01290118015FDA2F903F904F90DD
:10D26C005F90088419842A853B85201931090A812D
:10D27C001B81040D151D0E801F80001911090884D7
:10D28C001984001911095F924F923F922F92490114
:10D29C003801409022205090232020901D20309067
:10D2AC001E2097D92F903F904F905F906F907F905A
:10D2BC008F905F924F923F922F92B1E04B2E1801BC
:10D2CC000E94E57B2F903F904F905F900A811B81CD
:10D2DC00040D151D0E801F80A801401951090C80EA
:10D2EC001D809201201931090C811D81040D151D21
:10D2FC008F927F926F925F924F923F922F923A0150
:10D30C002901180109DA2F903F904F905F90088403
:10D31C0019842A853B85201931090A801B808201DA
:10D32C00001911090E801F80001911090884198435
:10D33C00001911095F924F923F922F9249013801C7
:10D34C00409022205090232020901D2030901E20B1
:10D35C0040D92F903F904F905F906F907F908F901F
:10D36C005F924F923F922F92B1E04B2E18010E9488
:10D37C00E57B2F903F904F905F900A801B8082013D
:10D38C00001911090E801F80A801401951090C8049
:10D39C001D809201201931090C811D81040D151D70
:10D3AC008F927F926F925F924F923F922F923A019F
:10D3BC0029011801B1D92F903F904F905F906F9039
:10D3CC007F908F90FCC0B0E08B1609F078C00C8178
:10D3DC001D81A801420D531D0A801B80920120194A
:10D3EC0031090A811B81040D151D8F927F926F925A
:10D3FC005F924F923F922F923A01290118018CD9DA
:10D40C002F903F904F905F900C801D80A101401990
:10D41C0051090A801B809201201931090A811B8154
:10D42C00040D151D5F924F923F922F923A012901E4
:10D43C00180172D92F903F904F905F900A811B81F9
:10D44C00040D151D0E801F80A801401951090C8078
:10D45C001D809201201931090C811D81040D151DAF
:10D46C005F924F923F922F923A012901180154D9A1
:10D47C002F903F904F905F900A801B808201001983
:10D48C0011090E801F80A801401951090C801D80C4
:10D49C009201201931090C811D81040D151D5F921B
:10D4AC004F923F922F923A012901180135D92F90B2
:10D4BC003F904F905F906F907F908F9080C00A81CB
:10D4CC001B81A801440D551D0C801D809101201954
:10D4DC0031090C811D81020D131D8F927F926F9269
:10D4EC005F924F923F922F923A0129011801F2D983
:10D4FC002F903F904F905F900A801B80A2014019A3
:10D50C0051090C801D809101201931090C811D815C
:10D51C00020D131D5F924F923F922F923A012901F7
:10D52C001801D8D92F903F904F905F900C811D819E
:10D53C00A801440D551D0A801B8082010019110998
:10D54C000E801F809801201931090A811B81040D5E
:10D55C00151D0E801F80001911095F924F923F928A
:10D56C002F923A0129011801B5D92F903F904F9075
:10D57C005F900C801D80A201401951090A801B800C
:10D58C008201001911090E801F80980120193109A0
:10D59C000A811B81040D151D0E801F8000191109B5
:10D5AC005F924F923F922F923A012901180192D922
:10D5BC002F903F904F905F906F907F908F9028812D
:10D5CC00398100E010E02017310784F40C811D81B3
:10D5DC00000F111F000F111F98012A5F3F4F088188
:10D5EC001981020F131F0883198319C00A801B802D
:10D5FC000C811D8100191109000F111F000F111F43
:10D60C009801265F3F4F08811981020F131F088371
:10D61C0019830A811B81015010400A831B830C81E2
:10D62C001D810F5F1F4F0C831D8317CC088900933E
:10D63C00212009891A8900931F20109320209F9084
:0CD64C006296CDBFDEBFDF91CF91089544
:10C5DE00CF93DF93CDB7DEB72897CDBFDEBF2196C1
:10C5EE002F923F924F925F92B0E07B1611F4B0E023
:10C5FE006B1611F4810185C06814790411F482015F
:10C60E0080C0AE014A5F5F4F9E012D5F3F4F8E018E
:10C61E009F928F927F926F925F924F924A01390151
:10C62E0028012DDF4F905F90AE01495F5F4F9E0155
:10C63E002C5F3F4F8E010F5F1F4F4A0139011201D0
:10C64E0028011DDF6F907F908F909F90A30160E077
:10C65E00762F098110E00880B0E01B2E0019110919
:10C66E0020E017FD2FEF322FABDE9F928F927F923D
:10C67E006F92A40160E0762FC1DE89019A016F905E
:10C68E007F908F909F904881040F0A83A30160E0F2
:10C69E00762F0C8110E00B80B0E01B2E00191109D3
:10C6AE0020E017FD2FEF322F8BDE9F928F927F921D
:10C6BE006F92A40160E0762FA1DE89019A016F903E
:10C6CE007F908F909F904B81040F0D83A30160E0AC
:10C6DE00762F0F8110E00E80B0E01B2E001911098D
:10C6EE0020E017FD2FEF322F6BDEA40160E0762FD6
:10C6FE0085DE89019A014E81040F402E3D802A80ED
:10C70E00DADE5F904F903F902F902796CDBFDEBF21
:06C71E00DF91CF910895A8
:10C48C00BBE0810116950795BA95E1F7000F000FF7
:10C49C00000FF2010083B5E0810116950795BA955E
:10C4AC00E1F7000F000FF3010083022D000F000FC6
:08C4BC00000FF4010083089554
:10C4C400022D069506950695202EBBE0202F30E020
:10C4D400220F331FBA95E1F7032D06950695302EEA
:10C4E400B5E010E0000F111FBA95E1F7202B312BB6
:10C4F400042D069506950695402E10E0022B132B6D
:02C50400089598
:10C3CE00049FD001159FF001249FE00DF11D069FE3
:10C3DE00E00DF11D349FF00D259FF00D169FF00D11
:10C3EE00079FF00D3327149FB00DE11DF31F059F1E
:0CC3FE00B00DE11DF31F8D019F0108959B
:10C40A00C9019A01AB01B80197FB092E05260ED086
:10C41A0057FD04D014D00AD0001C38F4509540952A
:10C42A00309521953F4F4F4F5F4F0895F6F79095FE
:10C43A008095709561957F4F8F4F9F4F0895A1E228
:10C44A001A2EAA1BBB1BFD010DC0AA1FBB1FEE1F84
:10C45A00FF1FA217B307E407F50720F0A21BB30BCF
:10C46A00E40BF50B661F771F881F991F1A9469F74B
:10C47A0060957095809590959B01AC01BD01CF01A7
:02C48A00089513
:10C8E000CF93DF93CDB7DEB72197CDBFDEBF2196C3
:10C8F0008F929F92421453041CF48101120128016B
:10C9000000E010E0201631061CF42224332408C075
:10C9100000912D2010912E202016310608F0D7C04E
:10C9200000E010E0401651060CF4D1C000912D201B
:10C9300010912E204016510638F000912D201091B4
:10C940002E20015010402801B1E0B88318810091D9
:10C950002120011708F4BBC0288130E08901017053
:10C960001070103009F4003039F400E010E0021BC0
:10C97000130BA8019A0100C0890115950795A8011C
:10C980009801260D371D00E010E0201731075CF0FC
:10C990009A01260D371D00912F201091302020176D
:10C9A000310708F401C08FC000911520003009F054
:10C9B00064C0B0910407BF7DB09304070E94E27B7E
:10C9C0000023C1F08A01060D171D7F926F925F92BE
:10C9D0004F923F922F92480132012801E091282086
:10C9E000F091292009952F903F904F905F906F9084
:10C9F0007F9015C08A01060D171D7F926F925F927E
:10CA00004F923F922F922801E0912A20F0912B2003
:10CA100009952F903F904F905F906F907F90522D8F
:10CA2000632D252F362F4216530608F13F932F937F
:10CA30007F926F925F924F923F922F9220901F2091
:10CA400030902020E0912420F091252009952F900E
:10CA50003F904F905F906F907F902F913F91890111
:10CA60000F5F1F4F502F612F252F362FDCCFB09136
:10CA70000407B062B093040726C0522D632D252F02
:10CA8000362F42165306F8F03F932F937F926F9202
:10CA90005F924F923F922F92230160901F207090DF
:10CAA00020201901CFDE2F903F904F905F906F9024
:10CAB0007F902F913F9189010F5F1F4F502F612F62
:10CAC000252F362FDECF08810F5F08833FCF9F9041
:0CCAD0008F90CDBFDEBFDF91CF910895A5
:10C72400421453041CF481011201280100E010E0BA
:10C73400201631061CF42224332408C000912F2033
:10C74400109130202016310608F079C000E010E086
:10C75400401651060CF473C000912F201091302024
:10C764004016510638F000912F20109130200150CE
:10C774001040280141E000912120041708F45FC013
:10C78400242F30E0890101701070103009F400305A
:10C7940031F400E010E0021B130B980100C0890182
:10C7A40015950795502F612F9801260D371D00E030
:10C7B40010E02017310764F0252F362F260D371D82
:10C7C40000912D2010912E202017310708F402C06B
:10C7D400142F31C08101252F362F502F612F45167C
:10C7E400560640F18901060D171D4F933F932F9371
:10C7F4006F935F937F926F925F924F923F922F92CB
:10C8040060901F2070902020452E562E180118D0BD
:10C814002F903F904F905F906F907F905F916F91BA
:10C824002F913F914F91052F162F0F5F1F4F502FC0
:10C83400612FD5CF142F012F0F5F402F9CCF089568
:00C84400F4
:020000040001F9
:100430002F923F924F925F926F927F928F929F92F4
:10044000F1013F9600810023E9F0F101729680816D
:10045000F1013B964191519161917191F101359674
:1004600021913191F1013396019111913A014B01A2
:10047000290118018F930E94FC78ADB7BEB7119681
:10048000ADBFBEBF9F908F907F906F905F904F9059
:060490003F902F9008953B
:020000040000FA
:10F1F800CF93DF93CDB7DEB72696488100912D20B7
:10F2080010912E202016310608F03CC000912F20C6
:10F21800109130204016510608F034C08301940143
:10F228000F5F1F4F2F4F3F4F2BBFF801069122C092
:10F238004F930E94326EADB7BEB71196ADBFBEBF39
:10F2480021C04F9332DAADB7BEB71196ADBFBEBF7E
:10F2580019C04F9336D8ADB7BEB71196ADBFBEBF74
:10F2680011C04F930E940E70ADB7BEB71196ADBFD7
:10F27800BEBF08C00130E1F2043019F3083049F389
:0AF28800003179F3DF91CF91089572
:10DC6400CF93DF93CDB7DEB76D97CDBFDEBF2196DF
:10DC74000AA10AA3162D272D382D492D1E5F2F4FDB
:10DC84003F4F4F4F3BBFE12FF22F06910D83B0E082
:10DC9400BE83512F622F732F842F5F5F6F4F7F4F8F
:10DCA4008F4F7BBFE52FF62F0691302F22270D8152
:10DCB4001E81020F131F0D831E83152F262F372F4E
:10DCC400482F1F5F2F4F3F4F4F4F3BBFE12FF22F86
:10DCD40006910B83B0E0BC83512F622F732F842FE6
:10DCE4005F5F6F4F7F4F8F4F7BBFE52FF62F0691FE
:10DCF400302F22270B811C81020F131F0B831C83DF
:10DD0400052F162F272F382F0F5F1F4F2F4F3F4FF1
:10DD14000D8B1E8B2F8B388FAE014F5E5F4F2BBF49
:10DD2400F8010691FA010193B0E0B1930D891E89BF
:10DD34002F89388D0F5F1F4F2F4F3F4F0D8B1E8B39
:10DD44002F8B388FAE014F5E5F4F2BBFF8010691CA
:10DD5400302F2227FA0101911191020F131FFA01AA
:10DD6400019311930D891E892F89388DA801B9015A
:10DD74004F5F5F4F6F4F7F4F4D8B5E8B6F8B788FF5
:10DD84008E010F5E1F4F98012E5F3F4F6BBFFA014C
:10DD94000691F9010193B0E0B1930D891E892F8991
:10DDA400388DA801B9014F5F5F4F6F4F7F4F4D8B87
:10DDB4005E8B6F8B788F8E010F5E1F4FC8010296AA
:10DDC4006BBFFA010691302F2227FC0101911191BA
:10DDD400020F131FFC01019311930D891E892F89D2
:10DDE400388D0F5F1F4F2F4F3F4F0D8B1E8B2F8B87
:10DDF400388F00912D2010912E20021913090F83C2
:10DE0400188700912F2010913020041915090987D3
:10DE14001A87B0910407BF7DB0930407B0E0BD87B3
:10DE2400BE872D853E850D811E812017310708F0A0
:10DE3400DEC00D891E892F89388D098F1A8F2B8F8B
:10DE44003C8F2D853E8509851A850217130708F432
:10DE5400C7C000912F20109130204016510608F0C1
:10DE6400BFC0B0E0B88B18890AA1101708F0B8C079
:10DE7400098D1A8D2B8D3C8D0D8B1E8B2F8B388F1E
:10DE84000E94E27B002301F10B811C814AA150E036
:10DE94000E94E762020D131D9F928F927F926F92F0
:10DEA4005F924F923F922F9242013801E0912820D5
:10DEB400F091292009952F903F904F905F906F909B
:10DEC4007F908F909F9015C09F928F927F926F92B8
:10DED4005F924F923F922F92E0912A20F0912B2053
:10DEE40009952F903F904F905F906F907F908F9007
:10DEF4009F9040E0B0E0BB87BC872B853C850B81BD
:10DF04001C812017310708F063C04030A9F40F8941
:10DF14000BBFED89FE8906910A830D891E892F891D
:10DF2400388D0F5F1F4F2F4F3F4F0D8B1E8B2F8B45
:10DF3400388F30E8432F00C00A81042351F08E014A
:10DF44000F5E1F4FF80132960191119108831983D6
:10DF540006C0FE01719601911191088319832B85E6
:10DF64003C850F8118850217130730F1B0E0BF8795
:10DF7400242F1F850AA11017E8F42F939F928F92E4
:10DF84007F926F925F924F923F922F9228803980B6
:10DF9400E0912420F091252009952F903F904F90F7
:10DFA4005F906F907F908F909F902F910F850F5F60
:10DFB4000F87DFCF122F01C0142F012F0695202FBA
:10DFC4000B851C850F5F1F4F0B871C87422F95CF36
:10DFD40082010F5F1F4F280108890F5F088B43CF11
:10DFE4000D851E850F5F1F4F0D871E871ACFB091B9
:10DFF4000407B062B09304076C96CDBFDEBFDF9117
:04E00400CF9108951B
:10E6B200CF93DF93CDB7DEB7EB97CDBFDEBF219609
:10E6C200FE01E05CFF4F0081FE01E05CFF4F008332
:10E6D200162D272D382D492D1E5F2F4F3F4F4F4F9F
:10E6E2003BBFE12FF22F06910A83B0E0BB83512F8B
:10E6F200622F732F842F5F5F6F4F7F4F8F4F7BBFD0
:10E70200E52FF62F0691302F22270A811B81020F57
:10E71200131F0A831B83152F262F372F482F1F5FA6
:10E722002F4F3F4F4F4F3BBFE12FF22F06910883F0
:10E73200B0E0B983512F622F732F842F5F5F6F4F29
:10E742007F4F8F4F7BBFE52FF62F0691302F222769
:10E7520008811981020F131F08831983052F162FB1
:10E76200272F382F0F5F1F4F2F4F3F4F0BAB1CAB85
:10E772002DAB3EAB00912D2010912E2002191309D2
:10E782000A871B8700912F20109130200419150948
:10E792000C871D87B0E0B9ABBAAB09A91AA9103032
:10E7A20009F4003108F04AC09E012F5E3F4F09A9CB
:10E7B2001AA9000F111F200F311F0DA90BBFEBA9C2
:10E7C200FCA90691F9010193B0E0B1930BA91CA930
:10E7D2002DA93EA9B801C9016F5F7F4F8F4F9F4F8F
:10E7E2006BAB7CAB8DAB9EAB9E012F5E3F4F09A9FD
:10E7F2001AA9000F111FA801420F531F8BBFFB0163
:10E802000691302F2227FA0101911191020F131F55
:10E81200FA01019311930BA91CA92DA93EA90F5F1F
:10E822001F4F2F4F3F4F0BAB1CAB2DAB3EAB09A97C
:10E832001AA90F5F1F4F09AB1AABAFCFB0910407F4
:10E84200BF7DB0930407B0E0B887B98728853985C2
:10E852000A811B812017310708F0E9C00BA91CA906
:10E862002DA93EA90FAB18AF29AF3AAF288539853C
:10E872000C851D850217130708F4D2C000912F20C2
:10E88200109130204016510608F0CAC0B0E0B88B93
:10E892001889FE01E05CFF4F0081101708F0C0C02C
:10E8A2000FA918AD29AD3AAD0BAB1CAB2DAB3EABEE
:10E8B20088D7002319F108811981FE01E05CFF4F1E
:10E8C200419150E00E94E762020D131D9F928F92C8
:10E8D2007F926F925F924F923F922F924201380144
:10E8E200E0912820F091292009952F903F904F9098
:10E8F2005F906F907F908F909F9015C09F928F92A4
:10E902007F926F925F924F923F922F92E0912A20D4
:10E91200F0912B2009952F903F904F905F906F9030
:10E922007F908F909F90B0E0BE83BF832E813F8106
:10E93200088119812017310708F06AC00E811F81F2
:10E9420000FF10C00E850F709E012F5E3F4F10E03A
:10E95200000F111F020F131FF801019111910C8377
:10E962001D8324C00DA90BBFEBA9FCA946914E87BC
:10E972000BA91CA92DA93EA90F5F1F4F2F4F3F4F77
:10E982000BAB1CAB2DAB3EAB042F06950695069543
:10E9920006959E012F5E3F4F10E0000F111F020FE0
:10E9A200131FF801019111910C831D832E813F8168
:10E9B2000A851B850217130720F1B0E0BF871F8568
:10E9C200FE01E05CFF4F00811017D8F49F928F92F6
:10E9D2007F926F925F924F923F922F922C803D8056
:10E9E200E0912420F091252009952F903F904F909F
:10E9F2005F906F907F908F909F900F850F5F0F8732
:10EA0200DECF0E811F810F5F1F4F0E831F838ECFBC
:10EA120082010F5F1F4F280108890F5F088B38CFD3
:10EA2200088519850F5F1F4F088719870FCFB0918F
:10EA32000407B062B0930407EA96CDBFDEBFDF9150
:04EA4200CF910895D3
:10E2CA00CF93DF93CDB7DEB7CA51D240CDBFDEBF01
:10E2DA002196FE01E15EFD4F0081FE01E15EFD4FE8
:10E2EA000083162D272D382D492D1E5F2F4F3F4FA6
:10E2FA004F4F3BBFE12FF22F06910C83B0E0BD8355
:10E30A00512F622F732F842F5F5F6F4F7F4F8F4F75
:10E31A007BBFE52FF62F0691302F22270C811D8116
:10E32A00020F131F0C831D83152F262F372F482FFB
:10E33A001F5F2F4F3F4F4F4F3BBFE12FF22F0691E9
:10E34A000A83B0E0BB83512F622F732F842F5F5F44
:10E35A006F4F7F4F8F4F7BBFE52FF62F0691302FE0
:10E36A0022270A811B81020F131F0A831B83052F91
:10E37A00162F272F382F0F5F1F4F2F4F3F4FFE01AA
:10E38A00EE5EFD4F019311932193319300912D205D
:10E39A0010912E20021913090A871B8700912F203A
:10E3AA0010913020041915090C871D87FE01E05FC2
:10E3BA00FD4FB0E0B193B193FE01E05FFD4F0191D3
:10E3CA001191113009F4003008F069C09E01205FF4
:10E3DA003F4FFE01E05FFD4F01911191000F111FA8
:10E3EA00200F311FFE01EC5EFD4F00810BBFFE01C5
:10E3FA00EE5EFD4F01901190F0010691F901019333
:10E40A00B0E0B193FE01EE5EFD4F019111912191B1
:10E41A003191B801C9016F5F7F4F8F4F9F4FFE0146
:10E42A00EE5EFD4F61937193819391939E01205FFC
:10E43A003F4FFE01E05FFD4F01911191000F111F47
:10E44A00A801420F531F8BBFFB010691302F2227D1
:10E45A00FA0101911191020F131FFA01019311930D
:10E46A00FE01EE5EFD4F01911191219131910F5FF5
:10E47A001F4F2F4F3F4FFE01EE5EFD4F0193119349
:10E48A0021933193FE01E05FFD4F019111910F5FDE
:10E49A001F4FFE01E05FFD4F019311938DCFB091A5
:10E4AA000407BF7DB0930407B0E0B887B987288511
:10E4BA0039850C811D812017310708F0E9C0FE015A
:10E4CA00EE5EFD4F0191119121913191FE01EA5EBB
:10E4DA00FD4F0193119321933193288539850C853A
:10E4EA001D850217130708F4CCC000912F20109144
:10E4FA0030204016510608F0C4C0B0E0BF871F851F
:10E50A00FE01E15EFD4F0081101708F0BAC0FE015E
:10E51A00EA5EFD4F0191119121913191FE01EE5E6A
:10E52A00FD4F01931193219331930E94E27B0023C3
:10E53A0019F10A811B81FE01E15EFD4F419150E014
:10E54A000E94E762020D131D9F928F927F926F9233
:10E55A005F924F923F922F9242013801E091282018
:10E56A00F091292009952F903F904F905F906F90DE
:10E57A007F908F909F9015C09F928F927F926F92FB
:10E58A005F924F923F922F92E0912A20F0912B2096
:10E59A0009952F903F904F905F906F907F908F904A
:10E5AA009F90B0E0BE83BF832E813F810A811B8189
:10E5BA002017310708F05DC0FE01EC5EFD4F0081B7
:10E5CA000BBFFE01EE5EFD4F01901190F001069126
:10E5DA009E01205F3F4F10E0000F111F020F131F13
:10E5EA00F8010191119108831983FE01EE5EFD4F36
:10E5FA0001911191219131910F5F1F4F2F4F3F4F81
:10E60A00FE01EE5EFD4F01931193219331932E810A
:10E61A003F810A851B850217130720F1B0E0BE87E8
:10E62A001E85FE01E15EFD4F00811017D8F49F920E
:10E63A008F927F926F925F924F923F922F92288091
:10E64A003980E0912420F091252009952F903F9060
:10E65A004F905F906F907F908F909F900E850F5F85
:10E66A000E87DECF0E811F810F5F1F4F0E831F8320
:10E67A009BCF82010F5F1F4F28010F850F5F0F8706
:10E68A003ECF088519850F5F1F4F088719870FCF5F
:10E69A00B0910407B062B0930407C75EDD4FCDBFE7
:08E6AA00DEBFDF91CF9108955E
:10E01C00CF93DF93CDB7DEB76897CDBFDEBF219628
:10E02C000D8D0D8F162D272D382D492D1E5F2F4F41
:10E03C003F4F4F4F3BBFE12FF22F06910A83B0E0C9
:10E04C00BB83512F622F732F842F5F5F6F4F7F4FD6
:10E05C008F4F7BBFE52FF62F0691302F22270A8199
:10E06C001B81020F131F0A831B83152F262F372F9B
:10E07C00482F1F5F2F4F3F4F4F4F3BBFE12FF22FCA
:10E08C0006910883B0E0B983512F622F732F842F30
:10E09C005F5F6F4F7F4F8F4F7BBFE52FF62F069142
:10E0AC00302F222708811981020F131F088319832F
:10E0BC00052F162F272F382F0F5F1F4F2F4F3F4F36
:10E0CC00088B198B2A8B3B8B00912D2010912E20C5
:10E0DC00021913090C871D8700912F2010913020F5
:10E0EC00041915090E871F87B0910407BF7DB093E3
:10E0FC000407B0E0BE83BF832E813F810A811B8160
:10E10C002017310708F0D0C0088919892A893B8962
:10E11C000C8B1D8B2E8B3F8B2E813F810E851F858B
:10E12C000217130708F4B9C000912F20109130206A
:10E13C004016510608F0B1C0B0E0BB871B850D8DB1
:10E14C00101708F0AAC00C891D892E893F89088BED
:10E15C00198B2A8B3B8B0E94E27B002301F10881F7
:10E16C0019814D8D50E00E94E762020D131D9F92A4
:10E17C008F927F926F925F924F923F922F924201B9
:10E18C003801E0912820F091292009952F903F909B
:10E19C004F905F906F907F908F909F9015C09F9243
:10E1AC008F927F926F925F924F923F922F92E0915B
:10E1BC002A20F0912B2009952F903F904F905F9043
:10E1CC006F907F908F909F90B0E0BC83BD832C812B
:10E1DC003D81088119812017310708F056C00A8942
:10E1EC000BBFE889F98906910887B0E0B9870889DF
:10E1FC0019892A893B89A801B9014F5F5F4F6F4F7D
:10E20C007F4F6BBFFA010691302F222708851985A5
:10E21C00020F131F088719878A019B010F5F1F4F7D
:10E22C002F4F3F4F088B198B2A8B3B8B2C813D81B9
:10E23C000C851D850217130708F1B0E0BA871A8503
:10E24C000D8D1017D8F49F928F927F926F925F92E0
