:100000000C9461010C9400000C9400000C9400000E
:100010000C9400000C9400000C9400000C94000060
:100020000C9400000C9400000C9400000C94000050
:100030000C9400000C9400000C9400000C94000040
:100040000C9400000C9400000C9400000C94000030
:100050000C9400000C9400000C9400000C94000020
:100060000C9400000C9400000C9400000C94000010
:100070000C9400000C9400000C9400000C94000000
:100080000C9400000C9400000C9400000C940000F0
:100090000C9400000C9400000C9400000C940000E0
:1000A0000C9400000C9400000C9400000C940000D0
:1000B0000C9400000C9400000C9400000C940000C0
:1000C0000C9400000C9400000C9400000C940000B0
:1000D0000C9400000C9400000C9400000C940000A0
:1000E0000C9400000C9400000C9400000C94000090
:1000F0000C9400000C9400000C9400000C94000080
:100100000C9400000C9400000C9400000C9400006F
:100110000C9400000C9400000C9400000C9400005F
:100120000C9400000C9400000C9400000C9400004F
:100130000C9400000C9400000C9400000C9400003F
:100140000C9400000C9400000C9400000C9400002F
:100150000C9400000C9400000C9400000C9400001F
:100160000C9400000C9400000C9400000C9400000F
:100170000C9400000C9400000C9400000C940000FF
:100180000C9400000C9400000C9400000C940000EF
:100190000C9400000C94000000000000000000001F
:1001A0000C9400000C9400000C9400000C940000CF
:1001B0000C9400000C9400000C9400000C940000BF
:1001C0000C9400000C9400000C9400000C940000AF
:1001D0000C9400000C9400000C9400000C9400009F
:1001E0000C9400000C9400000C9400000C9400008F
:0401F0000C9400006B
:1002C200BFEFBDBFBFE3BEBF0E94A7012F923F9207
:1002D200B2E0B0935000B0915100B1FD01C0FBCF2C
:1002E200B8EDB4BFB1E0B0934000B0914006B06148
:1002F200B0934006B0914406BF7EB093440600918D
:10030200A40B0B7F0093A40BB7E6B093A60BB0E04F
:10031200B093A70B85DF23EA17E503E00A95F1F70F
:100322001A95E1F72A95D1F70000B0E02B2EB0E242
:100332003B2EA9DFBFDF002329F06FDF00930620E9
:0C034200202E5ADFF7CF3F902F90FFCF06
:1002880010E0F1010081202F022F003079F03F9219
:100298002F92202EAEDF2F903F90012F0F5F102F4F
:0E02A800E02FF0E0E20DF31D0081EFCF08958E
:1001FA00B091A10BB5FD01C0FBCFB091A10BB6FF29
:10020A0005C0B091A10BB064B093A10B2092A00BD2
:02021A00089545
:0C02B6000090A10B002707FC03950895A1
:06021C000091A00B089503
:0A027E0005900D920197E1F7089535
:10022200BDEFB0930720B0E0B0930820BEE0B093DA
:100232000D20B1E0B0930E20BBE5B0930B20B1E0EE
:10024200B0930C20BFEFB0930920BFEFB0930A2008
:10025200B091A206B460B093A206B091A106B860B4
:10026200B093A106B0E0B093A30B0091A40B086178
:0C0272000093A40BB3E0B093A50B08951B
:10034E00A0E0B0E2E4EFF1E086E090E00E943F0131
:02035E00089500
:0601F400537461727400F7
:00000001FF
