:100000000C948B370C9400000C9400000C940000AE
:100010000C9400000C9400000C9400000C94000060
:100020000C9400000C9400000C9400000C94000050
:100030000C9400000C9400000C9400000C94000040
:100040000C9400000C9400000C9400000C94000030
:100050000C9400000C9400000C9400000C94000020
:100060000C9400000C9400000C9400000C94000010
:100070000C9400000C9400000C9400000C94000000
:100080000C9400000C9400000C9400000C940000F0
:100090000C9400000C9400000C9400000C940000E0
:1000A0000C9400000C9400000C9400000C940000D0
:1000B0000C9400000C9400000C9400000C940000C0
:1000C0000C9400000C9400000C9400000C940000B0
:1000D0000C9400000C9400000C9400000C940000A0
:1000E0000C9400000C9400000C9400000C94000090
:1000F0000C9400000C9400000C9400000C94000080
:100100000C9400000C9400000C9400000C9400006F
:100110000C9400000C9400000C9400000C9400005F
:100120000C9400000C9400000C9400000C9400004F
:100130000C9400000C9400000C9400000C9400003F
:100140000C9400000C9400000C9400000C9400002F
:100150000C9400000C9400000C9400000C9400001F
:100160000C9400000C9400000C9400000C9400000F
:100170000C9400000C9400000C9400000C940000FF
:100180000C9400000C9400000C9400000C940000EF
:100190000C9400000C94000000000000000000001F
:1001A0000C9400000C9400000C9400000C940000CF
:1001B0000C9400000C9400000C9400000C940000BF
:1001C0000C9400000C9400000C9400000C940000AF
:1001D0000C9400000C9400000C9400000C9400009F
:1001E0000C9400000C9400000C9400000C9400008F
:0401F0000C9400006B
:106F1600BFEFBDBFBFE3BEBF0E949E372F923F9219
:106F2600C2DF2DDF4ADDB2ED2B2EB3E23B2EC3DDF1
:066F36003F902F90FFCFF9
:106EAC002F923F924F925F92B2E0B0935000B0910C
:106EBC005100B1FD01C0FBCFB8EDB4BFB1E0B09350
:106ECC0040005DDB2AD8B0EF4B2EB0E05B2EB0E477
:106EDC002B2EB1E03B2E0E94312F21E11CE30CEC58
:106EEC000A95F1F71A95E1F72A95D1F7B09140067A
:106EFC00B061B09340065F904F903F902F900895F3
:006F0C0085
:10658A0015E101EB0A95F1F71A95E1F70000000011
:02659A00089562
:105F2600B0E0B0930620B0930720B0E0B0930B200A
:025F36000895CC
:105E62002F923F924F925F926F927F928F920E94F7
:105E72002A26013091F0BBE4B093B823B7E1B09386
:105E8200B923BAE7B093B023B2E1B093B123BDE82E
:105E9200B0930021B5E2B093012120920421309207
:105EA200052140920621509207212414350420F046
:105EB200B0E0B093092003C0BAE5B0930920B1E085
:105EC2004B2E222433240E942326772488246624FE
:105ED2005524332444242224B0E0BF93BF930E946C
:105EE2000726ADB7BEB71296ADBFBEBF4424552438
:105EF200222433240E942D26B0E0B0939F23BFEFCB
:105F0200B09320070E940F27BCE9B093FE20B4E2B1
:105F1200B093FF208F907F906F905F904F903F9053
:045F22002F9008951F
:064C540000910620089506
:0E4C46002092CE233092CF234092C3230895B4
:104C0E00CF93DF93CDB7DEB7269608811981209218
:104C1E00BA233092BB234092BC235092BD236092A4
:104C2E00C2237092CA238092CB230093CC2310937D
:084C3E00CD23DF91CF91089511
:104C5A002092BE233092BF234092C0235092C12398
:024C6A000895AB
:104E1E002F923F92B0910407BD7FB0930407B091DB
:104E2E000007B260B0930007B0910407B061B09371
:104E3E000407B0910007B061B0930007B09104076A
:104E4E00B062B0930407B0910007B062B093000750
:104E5E00B0910007B460B0930007B0910007B8603E
:104E6E00B0930007B0910407B460B0930407B091FB
:104E7E000407B860B09304070E94731CB091040736
:104E8E00B260B09304070E94731C0E94731C3324FB
:104E9E00BAEE2B2E0E943F1BB0E23B2EBBEE2B2E0A
:104EAE000E943F1BBCE03B2EBCEE2B2E0E943F1BF4
:104EBE00B4EC3B2EBDEE2B2E0E943F1BB0E43B2EDE
:104ECE00B8EE2B2E0E943F1BB8E33B2EB9EE2B2ED5
:104EDE000E943F1BB1E03B2EB1EF2B2E0E943F1BD9
:104EEE00B0E13B2EB2EF2B2E0E943F1BB3EA3B2EBE
:104EFE00B7E22B2E0E943F1B3324B0E42B2E0E94D0
:104F0E003F1B3324B1E42B2E0E943F1BB1E03B2EFE
:104F1E00B2E42B2E0E943F1BB3E13B2EB3E42B2EAB
:104F2E000E943F1BB0E13B2EB4E42B2E0E943F1B90
:104F3E00B6E23B2EB5E42B2E0E943F1BB8E03B2E73
:104F4E00B6E42B2E0E943F1BB1E53B2EB7E42B2E71
:104F5E000E943F1BB2E03B2EB8E42B2E0E943F1B5B
:104F6E00B2E13B2EB9E42B2E0E943F1BB8E13B2E43
:104F7E00BAE42B2E0E943F1BB9E13B2EBBE42B2E35
:104F8E000E943F1BB4E13B2EBCE42B2E0E943F1B24
:104F9E00B9E13B2EB0E52B2E0E943F1BBFE23B2E0C
:104FAE00B1E52B2E0E943F1BBCE23B2EB2E52B2E11
:104FBE000E943F1BBEE33B2EB3E52B2E0E943F1BF0
:104FCE00BFE33B2EB4E52B2E0E943F1BBFE33B2ECF
:104FDE00B5E52B2E0E943F1BBEE23B2EB6E52B2ED7
:104FEE000E943F1BB7E73B2EB7E52B2E0E943F1BBF
:104FFE00BBE03B2EB8E52B2E0E943F1BB6E03B2EAE
:10500E00B9E52B2E0E943F1BB7E03B2EBAE52B2EA7
:10501E000E943F1BBDE03B2EBBE52B2E0E943F1B8B
:10502E00BDE13B2EBCE52B2E0E943F1BBCEC3B2E64
:10503E00BDE52B2E0E943F1B009109200A35C1F4BD
:10504E003324B4E02B2E0E943F1BBFEE3B2EB5E067
:10505E002B2E0E943F1BB1E03B2EB8E02B2E0E9460
:10506E003F1BBFE33B2EB9E02B2E0E943F1B17C008
:10507E00B1E03B2EB4E02B2E0E943F1BBFE33B2E34
:10508E00B5E02B2E0E943F1B3324B8E02B2E0E943E
:10509E003F1BBFEE3B2EB9E02B2E0E943F1B009113
:1050AE0009200A3591F40E94701C002339F0B8ECE7
:1050BE003B2EB6E12B2E0E943F1B06C0B8E03B2EC6
:1050CE00B6E12B2E0E943F1B11C00E94701C0023C4
:1050DE0039F0B8EA3B2EB6E12B2E0E943F1B06C0DC
:1050EE00B8E63B2EB6E12B2E0E943F1BBBE13B2EBA
:1050FE00BBE12B2E0E943F1BB1E03B2EBAE12B2EC3
:10510E000E943F1BBFE23B2EB4E22B2E0E943F1BA0
:10511E00B7E53B2EB5E22B2E0E943F1BBDE83B2E82
:10512E00B3E22B2E0E943F1BB6E33B2EB8E12B2E93
:10513E000E943F1BB1E03B2EB9E12B2E0E943F1B7C
:10514E003324B1E02B2E0E943F1BB8E83B2EBFE16B
:10515E002B2E0E943F1B0E945D1CB0E83B2EBFE130
:10516E002B2E0E943F1B0E945D1CB0E93B2EBFE11F
:10517E002B2E0E943F1B0E945D1CB0ED3B2EBFE10B
:10518E002B2E0E943F1B0E945D1CB5E03B2EB7E10B
:10519E002B2E0E943F1B3324B6E32B2E0E943F1B67
:1051AE00B8E33B2EB8E22B2E0E943F1B0E94651CDB
:1051BE000E94651C0E94651C0E94651CBCE33B2E70
:0E51CE00B8E22B2E0E943F1B3F902F900895B9
:1038E60021E11CE30CEC0A95F1F71A95E1F72A950C
:0438F600D1F7089569
:10367E002F92B0910407BF7DB09304073F92E09163
:10368E00B823F091B92309953F90232CE091B023F4
:10369E00F091B1230995B0910407B062B09304077D
:0436AE002F900895BC
:102EDC002092C308B091C208B7FD01C0FBCF089582
:002EEC00E6
:102F00002092C309B091C209B7FD01C0FBCF08955B
:002F1000C1
:102EBC002092C30AB091C20AB7FD01C0FBCF08959E
:002ECC0006
:102ECC002092C30BB091C20BB7FD01C0FBCF08958C
:002EDC00F6
:102E9600B0910407BF7EB093040720922407B09137
:102EA6000407B77FB09304070000B0910407B86029
:062EB600B093040708952B
:1024F400B0910407B061B093040720922407B0910F
:102504000407B77FB09304070000B0910407B860D4
:06251400B09304070895D6
:1024AE00BCDEBBDEB0910407BF7DB0930407B091D4
:1024BE000407B460B0930407B0910407BF7EB093D5
:1024CE00040720922407B0910407B77FB093040746
:1024DE00B0910407B860B0930407B0910407B062DE
:0624EE00B09304070895FD
:0C2228000AE00A95F1F70000000008959C
:10246800B0910407BF7DB0930407B0910407B4602E
:10247800B0930407B0910407B061B09304072092A9
:102488002407B0910407B77FB0930407B0910407FD
:10249800B860B0930407B0910407B062B093040722
:0624A800BFDEBEDE089558
:0638E00000910A2008958A
:1038BA0010ED0AEC0A95F1F71A95E1F70000089560
:0038CA00FE
:1038CA0022E010EA03E90A95F1F71A95E1F72A9539
:0638DA00D1F70000089583
:106D84002F923F924F925F926F927F928F929F9237
:106D9400BFEF2B2E3B2EA0DDB1E04B2E222433245B
:106DA4000E942326BCED8B2EB0E09B2EBCE26B2E02
:106DB400B1E07B2EBCED4B2EB0E05B2EB4E12B2E6C
:106DC400B0E03B2EB7D8BEE28B2EB0E09B2EBCE2E7
:106DD4006B2EB1E07B2EBEE24B2EB0E05B2EB4E115
:106DE4002B2EB0E03B2EA6D88824B0E06B2EB8EF53
:106DF4007B2EB4EF2B2EB1E03B2EB0E04B2E542C67
:106E0400C8DCBEE06B2EB0E07B2EBBE44B2EB0E0C2
:106E14005B2EBBEB2B2EB0E23B2E55DC8824662484
:106E24007724BAE72B2EBAE13B2EB0E04B2E542C3C
:106E3400B0DCBFED6B2EB0E07B2EB3E14B2EB0E0A7
:106E44005B2EB5EC2B2EB0E23B2E3DDC8824B0E06B
:106E54006B2EB8EF7B2EBAE72B2EBAE13B2EB0E0B7
:106E64004B2E542C96DCBFED6B2EB0E07B2EB8EC91
:106E74004B2EB0E05B2EBCEA2B2EB0E23B2E23DC83
:106E8400882466247724B2E02B2EB2E13B2EB0E0B6
:106E94004B2E542C7EDC9F908F907F906F905F9050
:086EA4004F903F902F900895DC
:1068DC004F925F926F927F928F929F92B09104072A
:1068EC00BF7DB09304070E940C270023E1F0209198
:1068FC000621309107212150304000910421109144
:10690C000521015010403F922F9249013801442437
:10691C00552422243324E0910221F091032109957E
:10692C002F903F900DC03F922F9244245524222447
:10693C003324E091FE20F091FF2009952F903F9099
:10694C0020E030E00091062110910721201731073B
:10695C0028F500E010E0A801009104211091052118
:10696C0040175107B0F43F932F935F934F933F928F
:10697C002F92E0910021F091012109952F903F90E9
:10698C004F915F912F913F918A010F5F1F4FA8018B
:10699C00E3CF89010F5F1F4F9801D4CFB09104074B
:1069AC00B062B09304079F908F907F906F905F9030
:0469BC004F9008955B
:064E180000910520089541
:104C6C00CF93DF93CDB7DEB72897CDBFDEBF2196AC
:104C7C002F923F92209104213091052100EE11E0FA
:104C8C000217130750F0209106213091072100EEF6
:104C9C0011E00217130708F005C060E273E040EE64
:104CAC0051E004C060EE71E040E151E00091092058
:104CBC000A3541F50E94701C002391F09B01215094
:104CCC0030408901081919090883198389010419CD
:104CDC0015090A831B832C823D826E827F8211C050
:104CEC00488259828A829B829A01215030408901E4
:104CFC00061917090C831D838901021913090E83E8
:104D0C001F8327C00E94701C0023D9F09B012150E7
:104D1C003040890106191709088319838901021982
:104D2C0013090A831B839A01215030408901081909
:104D3C0019090C831D838901041915090E831F831E
:104D4C0008C0288239826A827B824C825D828E8284
:104D5C009F82BAE22B2EE091B823F091B9230995EA
:104D6C0008811981012F10E0202EE091B023F091E1
:104D7C00B12309952880E091B023F091B1230995D6
:104D8C000A811B81012F10E0202EE091B023F091BD
:104D9C00B12309952A80E091B023F091B1230995B4
:104DAC00BBE22B2EE091B823F091B92309950C812D
:104DBC001D81012F10E0202EE091B023F091B12342
:104DCC0009952C80E091B023F091B12309950E81C7
:104DDC001F81012F10E0202EE091B023F091B12320
:104DEC0009952E80E091B023F091B1230995BCE296
:104DFC002B2EE091B823F091B92309953F902F9079
:0C4E0C002796CDBFDEBFDF91CF91089547
:104938002F923F925F924F923F922F92B2E02B2E8E
:10494800E091B823F091B92309952F903F90032D5A
:1049580010E03F922F92202EE091B023F091B123E6
:104968000995B3E02B2EE091B823F091B92309956E
:104978002F903F90E091B023F091B1230995B6E0D4
:104988002B2EE091B823F091B92309954F905F90B1
:10499800052D10E05F924F92202EE091B023F09108
:1049A800B1230995B7E02B2EE091B823F091B923F4
:1049B80009954F905F90242CE091B023F091B1239A
:1049C8000995B2E22B2EE091B823F091B92309950D
:0649D8003F902F900895AE
:10489E00CF93DF93CDB7DEB72497CDBFDEBF219682
:1048AE002F923F92288239824A825B82BAE22B2E65
:1048BE00E091B823F091B92309958E01F801319654
:1048CE000081202EE091B023F091B123099528802C
:1048DE00E091B023F091B1230995BBE22B2EE0912C
:1048EE00B823F091B92309958E010E5F1F4FF80181
:1048FE0031960081202EE091B023F091B1230995DD
:10490E002A80E091B023F091B1230995BCE22B2EC1
:10491E00E091B823F091B92309953F902F902396FB
:0A492E00CDBFDEBFDF91CF910895E9
:104814002F923F925F924F923F922F92BAE22B2EA9
:10482400E091B823F091B92309952F903F90032D7F
:1048340010E03F922F92202EE091B023F091B1230B
:1048440009952F903F90E091B023F091B123099501
:10485400BBE22B2EE091B823F091B92309954F9038
:104864005F90052D10E05F924F92202EE091B023CF
:10487400F091B12309954F905F90242CE091B023DF
:10488400F091B1230995BCE22B2EE091B823F0916D
:0A489400B92309953F902F90089575
:1049DE002F923F925F924F923F922F92BAE22B2EDE
:1049EE00E091B823F091B92309952F903F90032DB4
:1049FE0010E03F922F92202EE091B023F091B12340
:104A0E0009952F903F90E091B023F091B123099535
:104A1E00BBE22B2EE091B823F091B92309954F906C
:104A2E005F90052D10E05F924F92202EE091B02303
:104A3E00F091B12309954F905F90242CE091B02313
:104A4E00F091B1230995BCE22B2EE091B823F091A1
:0A4A5E00B92309953F902F900895A9
:104B84002F923F925F924F923F922F92BAE22B2E36
:104B9400E091B823F091B92309952F903F90032D0C
:104BA40010E03F922F92202EE091B023F091B12398
:104BB40009952F903F90E091B023F091B12309958E
:104BC400BBE22B2EE091B823F091B92309954F90C5
:104BD4005F90052D10E05F924F92202EE091B0235C
:104BE400F091B12309954F905F90242CE091B0236C
:104BF400F091B1230995BCE22B2EE091B823F091FA
:0A4C0400B92309953F902F90089501
:104B1A00CF93DF93CDB7DEB72297CDBFDEBF219605
:104B2A0028823982B0910407B061B09304078E01DC
:104B3A00F8013196008100932407B0910407B77FEA
:104B4A00B09304070000B0910407B860B09304075B
:104B5A00FE01008100932407B0910407B77FB09348
:104B6A0004070000B0910407B860B09304072196C7
:0A4B7A00CDBFDEBFDF91CF9108959B
:104A68002F923F92BBE0810116950795BA95E1F721
:104A7800102F012F000F000F000F102FB7E0012F8C
:104A88000695BA95E9F7013029F4012F095F102F2F
:104A9800012F01C0012F3F922F92202E0E94341225
:104AA8002F903F90B5E0810116950795BA95E1F7EB
:104AB800102F012F000F000F102FB7E0012F0695C0
:104AC800BA95E9F7013029F4012F0D5F102F012F56
:104AD80001C0012F3F922F92202E0E9434122F9056
:104AE8003F90022D000F000F000F102FB7E0012F8D
:104AF8000695BA95E9F7013029F4012F095F102FBF
:104B0800012F01C0012F202E0E9434123F902F90B8
:024B18000895FE
:105F3800CF93DF93CDB7DEB76397CDBFDEBF219692
:105F48002F923F924F925F926F927F925F924F9201
:105F58003F922F92240113010E942D262F903F90EB
:105F68004F905F902614370429F43101120124015F
:105F780031D98FC14814590439F47F926F92320194
:105F88004F905F906CDE85C1B0E0BA87BB87930104
:105F9800221933092883398300E010E020173107DC
:105FA8007CF40880198000E010E0001911090883CA
:105FB80019830A851B85015010400A871B8706C074
:105FC8000A851B850F5F1F4F0A871B87B0E0BC87B8
:105FD800BD879401241935092A833B8300E010E02A
:105FE800201731077CF40A801B8000E010E00019BC
:105FF80011090A831B830C851D85015010400C87ED
:106008001D8706C00C851D850F5F1F4F0C871D87D8
:10601800B0E0BE87BF87288139810A811B8120179C
:1060280031070CF057C00E851F850F5F1F4F0E8775
:106038001F87288139810A811B81088319832A8354
:106048003B838101120128012A853B850C851D852A
:106058000A871B872C873D87B1E0B88B1889009188
:10606800C3230117B0F10889098BB0E0BA8B0989FD
:106078001A8901701070103009F4003041F4098851
:106088001A8800E010E000191109098B1A8B098998
:106098001A8915950795040D151D9F928F927F9269
:1060A8006F925F924F923F922F926090CE237090A2
:1060B800CF23210118010E94471E2F903F904F9037
:1060C8005F906F907F908F909F9008890F5F088BEB
:1060D800C5CF3CC0B1E0B88B18890091C323011724
:1060E800A8F10889098BB0E0BA8B09891A8901706F
:1060F8001070103009F4003041F409881A8800E063
:1061080010E000191109098B1A8B09891A8915954C
:106118000795040D151D9F928F927F926F925F9243
:106128004F923F922F926090CE237090CF232801F8
:106138000E94471E2F903F904F905F906F907F90E6
:106148008F909F9008890F5F088BC6CF08811981AF
:10615800000F111F088719870A811B81000F111F63
:106168000E831F8308801980001911090C831D8371
:1061780028813981215030402883398300E010E09C
:10618800201731070CF485C02C813D8100E010E018
:10619800201731076CF00C851D85040D151D28018D
:1061A800088419840C811D81001911090C831D8331
:1061B8000A851B85020D131D18012C813D810E8156
:1061C8001F81020F131F0C831D83B1E0B88B188940
:1061D8000091C323011708F45BC00889098BB0E05C
:1061E800BA8B09891A8901701070103009F40030CF
:1061F80041F409881A8800E010E000191109098B98
:106208001A8B09891A8915950795098B1A8B0E859A
:106218001F85B02FB12BE9F009891A89040D151DC6
:106228009F928F927F926F925F924F923F922F929E
:106238006090CE237090CF23210118010E94471E41
:106248002F903F904F905F906F907F908F909F908E
:106258001BC009891A89040D151D9F928F927F9280
:106268006F925F924F923F922F926090CE237090E0
:10627800CF2328010E94471E2F903F904F905F9098
:106288006F907F908F909F9008890F5F088B9FCFAA
:106298006FCF7F906F905F904F903F902F90629656
:0A62A800CDBFDEBFDF91CF91089556
:1051DC00421453041CF481011201280100E010E078
:1051EC00201631061CF42224332408C00091062119
:1051FC00109107212016310608F07AC000E010E06B
:10520C00401651060CF474C0009106211091072130
:10521C004016510638F000910621109107210150DB
:10522C001040280141E00091C323041708F460C02A
:10523C00242F30E0890101701070103009F4003017
:10524C0031F400E010E0021B130B980100C089013F
:10525C0015950795502F612F9801260D371D00E0ED
:10526C0010E02017310764F0252F362F260D371D3F
:10527C0000910421109105212017310708F402C078
:10528C00142F32C08101252F362F502F612F451638
:10529C00560648F18901060D171D4F933F932F9326
:1052AC006F935F937F926F925F924F923F922F9288
:1052BC006090CE237090CF23452E562E18010E945D
:1052CC00471E2F903F904F905F906F907F905F9113
:1052DC006F912F913F914F91052F162F0F5F1F4FFD
:1052EC00502F612FD4CF142F012F0F5F402F9BCF46
:0252FC00089513
:103C8E002F923F928F929F9200E010E02016310605
:103C9E0044F000910421109105212016310608F4FC
:103CAE0001C037C000E010E04016510644F000910C
:103CBE000621109107214016510608F401C029C0B3
:103CCE00B0910407BF7DB09304070E940C27002318
:103CDE0061F07F926F9242013101E0910221F091E9
:103CEE00032109956F907F9009C07F926F92E091AA
:103CFE00FE20F091FF2009956F907F901301E091C7
:103D0E000021F09101210995B0910407B062B093A2
:0C3D1E0004079F908F903F902F90089515
:105C6600CF93DF93CDB7DEB72197CDBFDEBF2196A9
:105C76008F929F92421453041CF481011201280151
:105C860000E010E0201631061CF42224332408C05C
:105C960000910421109105212016310608F0D7C085
:105CA60000E010E0401651060CF4D1C0009104212A
:105CB600109105214016510638F0009104211091EB
:105CC6000521015010402801B1E0B88318810091E8
:105CD600C323011708F4BBC0288130E08901017095
:105CE6001070103009F4003039F400E010E0021BA7
:105CF600130BA8019A0100C0890115950795A80103
:105D06009801260D371D00E010E0201731075CF0E2
:105D16009A01260D371D00910621109107212017A3
:105D2600310708F401C08FC000910B20003009F044
:105D360063C0B0910407BF7DB09304076AD80023FF
:105D4600C1F08A01060D171D7F926F925F924F92E6
:105D56003F922F92480132012801E0910221F091F1
:105D6600032109952F903F904F905F906F907F9001
:105D760015C08A01060D171D7F926F925F924F9292
:105D86003F922F922801E091FE20F091FF20099585
:105D96002F903F904F905F906F907F90522D632D84
:105DA600252F362F4216530608F13F932F937F92E5
:105DB6006F925F924F923F922F922090CE23309017
:105DC600CF23E0910021F091012109952F903F907A
:105DD6004F905F906F907F902F913F9189010F5F59
:105DE6001F4F502F612F252F362FDCCFB091040780
:105DF600B062B093040727C0522D632D252F362F8E
:105E06004216530600F13F932F937F926F925F9253
:105E16004F923F922F9223016090CE237090CF2312
:105E260019010E94471E2F903F904F905F906F90F0
:105E36007F902F913F9189010F5F1F4F502F612F48
:105E4600252F362FDDCF08810F5F08833FCF9F9028
:0C5E56008F90CDBFDEBFDF91CF9108958B
:106796002092C4233092C5234092C6235092C72329
:1067A600810192010E5F1F4F2F4F3F4F2BBFF80104
:1067B6004691810192010D5F1F4F2F4F3F4F2BBF17
:1067C600F8010691102F0027040FB0E01B1F00935D
:1067D600C8231093C923810192010C5F1F4F2F4FCD
:1067E6003F4F2BBFF8014691810192010B5F1F4F6E
:1067F6002F4F3F4F2BBFF8010691102F0027040F94
:10680600B0E01B1F0093A0231093A12381019201E6
:106816000A5F1F4F2F4F3F4F2BBFF8010691009382
:10682600A223B0E0B093A3236092A4237092A52381
:1068360080929E23B1E0B0930820B0E0B0939F23EE
:026846000895B3
:1066CA004F925F92009104211091052140165106C4
:1066DA0008F059C000910621109107216016710631
:1066EA0008F051C020E030E03F922F9212012301BE
:1066FA000E942D262F903F90F901E20DF31D008193
:10670A00002309F440C000919F230023F1F0F9010E
:10671A00E20DF31D00813F932F937F926F925F9258
:10672A004F923F922F92202EB0E03B2E0E94F92AE0
:10673A002F903F904F905F906F907F902F913F9155
:10674A0089010F5F1F4F98011DC0F901E20DF31D6A
:10675A0000813F932F937F926F925F924F923F9265
:10676A002F92202EB0E03B2E0E947F292F903F903F
:10677A004F905F906F907F902F913F9189010F5FAB
:0C678A001F4F9801B9CF5F904F90089509
:1055F200CF93DF93CDB7DEB76797CDBFDEBF2196DE
:105602002F923F924F925F926F927F928F929F92D0
:10561200B0E0BC8BBD8BB0E0BE8B0091C823109173
:10562200C9232016310608F411C20091A02310915B
:10563200A1230215130508F409C20090C823109093
:10564200C923810100191109A801440F551F440FF4
:10565200551F0091B4231091B5232091B6233091A8
:10566200B723085F1F4F2F4F3F4F040F151FB0E0A6
:105672002B1F3B1FB4E06B2EB0E07B2E18012901DB
:105682000E946818B6EAB98BB3E2BA8BE989FA8943
:10569200A081AB8B89899A89FC0131960081402FC8
:1056A20050E0652F752FFC013296008110E0212F0A
:1056B200312F322F212F102F0027400F511F621F31
:1056C200731FFC013396008110E0212F312F312FFF
:1056D200202F00271127400F511F621F731F0091B7
:1056E200B4231091B5232091B6233091B723040F30
:1056F200151F261F371F0D831E832F8338870A2FFE
:1057020006950695069510E04091A2235091A32399
:105712000E94C6180B871C870B890770002351F063
:105722002B853C850091A2231091A323020F131F06
:105732000B871C870B851C850F87188B8E01075FD3
:105742001F4F48016B847C842D803E804F8058849B
:10575200E091B223F091B3230995098B1A8B4D8105
:105762005E816F81788509851A8520E0322F040FCA
:10577200151F261F371F0D831E832F833887098429
:105782001A840B851C85001911090B871C87B0E050
:10579200BD87BE8700919E23003009F0ACC0009106
:1057A200C0231091C1230A831B83B0E0B98309810E
:1057B2002091A2233091A32310E00217130708F0CF
:1057C20091C00091BE231091BF230C8B1D8BB0E0C2
:1057D200BC83B0E0B88318810B89101708F078C039
:1057E2000C81003009F055C00D851E850F5F1F4FDB
:1057F2000D871E8729853A850F851889201731075D
:10580200E0F52D853E8509851A8502171307A8F54F
:10581200B1E0BD87B0E0BE878E01075F1F4F3F92A8
:105822002F9248016B847C842D803E804F80588467
:10583200E091B223F091B32309952F903F90098B09
:105842001A8B0B851C850F87188B4D815E816F81AA
:10585200788509851A8520E0322F040F151F261F2F
:10586200371F0D831E832F83388709841A840B8583
:105872001C85001911090B871C87E989FA890081A7
:105882000E8B09891A890F5F1F4F098B1A8BB1E0A2
:10589200BC831E890C81012371F03F922F9260908C
:1058A200A4237090A5234A805B802C883D880E94A7
:1058B200471E2F903F900C891D890F5F1F4F0C8B45
:1058C2001D8B0C81000F0C8308810F5F088383CF2F
:1058D2000A811B810F5F1F4F0A831B8309810F5FA0
:1058E200098365CF0C891D890F5F1F4F0093BE236B
:1058F2001093BF23ABC00091BE231091BF230A8334
:105902001B83B0E0B98309812091A2233091A323A4
:1059120010E00217130708F091C00091C023109104
:10592200C1230C8B1D8BB0E0BC83B0E0B88318811F
:105932000B89101708F078C00C81003009F055C0AF
:105942000D851E850F5F1F4F0D871E8729853A859E
:105952000F85188920173107E0F52D853E850985C9
:105962001A8502171307A8F5B1E0BD87B0E0BE871C
:105972008E01075F1F4F3F922F9248016B847C84F8
:105982002D803E804F805884E091B223F091B32362
:1059920009952F903F90098B1A8B0B851C850F87D9
:1059A200188B4D815E816F81788509851A8520E08B
:1059B200322F040F151F261F371F0D831E832F83BF
:1059C200388709841A840B851C85001911090B87F5
:1059D2001C87E989FA8900810E8B09891A890F5F70
:1059E2001F4F098B1A8BB1E0BC831E890C810123E6
:1059F20071F03F922F926090A4237090A5234C885F
:105A02005D882A803B800E94471E2F903F900C8920
:105A12001D89015010400C8B1D8B0C81000F0C83D3
:105A220008810F5F088383CF0A811B810F5F1F4F9D
:105A32000A831B8309810F5F098365CF0C891D8946
:105A4200015010400093C0231093C1239F908F9068
:105A52007F906F905F904F903F902F906696CDBF52
:085A6200DEBFDF91CF91089532
:1030D000CF93DF93CDB7DEB72497CDBFDEBF219668
:1030E0008F929F92B6EABA83B3E2BB8300E010E00E
:1030F0000615170508F042C08E017F926F925F920D
:103100004F923F922F924801E091B223F091B32366
:1031100009952F903F904F905F906F907F90B801EE
:1031200020E030E0AB010881198120173107A8F4B5
:10313000FA010081EA81FB8100830A811B810F5F14
:103140001F4F0A831B838A010F5F1F4FB80189013C
:103150000F5F1F4FAB019801E6CF088019808301F4
:103160000019110938010881198120E0322F020D60
:10317000131D241D351D18012901B8CF9F908F9074
:0C3180002396CDBFDEBFDF91CF910895F4
:10318C009801249F8001259F100D349F100D0895E8
:00319C0033
:1052FE00CF93DF93CDB7DEB72B97CDBFDEBF219611
:10530E004F925F926F927F928F92B0E0B887B9877B
:10531E00B0E0BA8700910820003091F402E012E16B
:10532E003F922F928824662477241801B0E04B2EEA
:10533E00542C0E94CB332F903F90B1E0B0930820B5
:10534E000091C8231091C9232016310608F43FC1DD
:10535E000091A0231091A1230215130508F437C163
:10536E000090C8231090C923810100191109A801CA
:10537E00440F551F440F551F8090C4239090C52392
:10538E00A090C623B090C72384019501085F1F4FDC
:10539E002F4F3F4F2A01B0E06B2E762C400E511E40
:1053AE00621E731E6BBEF20106910F838201930182
:1053BE000F5F1F4F2F4F3F4F2BBFF8010691402F0E
:1053CE0050E0652F752F820193010E5F1F4F2F4FF7
:1053DE003F4F2BBFF801069110E0212F312F322FB6
:1053EE00212F102F0027400F511F621F731F8201A4
:1053FE0093010D5F1F4F2F4F3F4F2BBFF8010691AB
:10540E0010E0212F312F312F202F00271127040FCD
:10541E00151F261F371F080D191D2A1D3B1D0B8337
:10542E001C832D833E8300919E23003009F068C0BB
:10543E006091C0237091C123B0E0B983098120919E
:10544E00A2233091A32310E00217130708F04FC0D8
:10545E000091BE231091BF2308871987B0E0BA834D
:10546E00B0E0B88318810F811017C8F50A8100309B
:10547E00A1F40D810BBFEB81FC8106910A870B8194
:10548E001C812D813E810F5F1F4F2F4F3F4F0B838E
:10549E001C832D833E83B1E0BA831A850A810123D2
:1054AE0089F07F936F933F922F926090A423709018
:1054BE00A5232B01288439840E94471E2F903F90EC
:1054CE006F917F91088519850F5F1F4F0887198788
:1054DE000A81000F0A8308810F5F0883C3CF8B01F7
:1054EE000F5F1F4FB80109810F5F0983A7CF088592
:1054FE0019850F5F1F4F0093BE231093BF2367C004
:10550E006091BE237091BF23B0E0B98309812091D1
:10551E00A2233091A32310E00217130708F04FC007
:10552E000091C0231091C12308871987B0E0BA8378
:10553E00B0E0B88318810F811017C8F50A810030CA
:10554E00A1F40D810BBFEB81FC8106910A870B81C3
:10555E001C812D813E810F5F1F4F2F4F3F4F0B83BD
:10556E001C832D833E83B1E0BA831A850A81012301
:10557E0089F07F936F933F922F926090A423709047
:10558E00A523488459841B010E94471E2F903F90EB
:10559E006F917F91088519850150104008871987F2
:1055AE000A81000F0A8308810F5F0883C3CF8B0126
:1055BE000F5F1F4FB80109810F5F0983A7CF0885C1
:1055CE001985015010400093C0231093C1238F9072
:1055DE007F906F905F904F902A96CDBFDEBFDF9188
:0455EE00CF910895BC
:1069C0002F923F924F925F926F927F928F92B091EF
:1069D0002006B068B0932006B0912406B068B0934A
:1069E0002406B091E006B064B093E006B091E406EE
:1069F000B064B093E406B091E006B062B093E006F4
:106A0000B091E406B062B093E406B0918006BF7D19
:106A1000B0938006B091E006B061B093E006B0910B
:106A2000E406BF7EB093E406B091E406B061B09393
:106A3000E4064424B1E03B2EB0E12B2EDBDDB09127
:106A40004406B061B0934406B1E04B2EBFEF2B2E4D
:106A50003B2E0E9423267724882466245524BFEFEA
:106A60003B2E4B2EB1E02B2EB0E0BF93BF930E9484
:106A70000726ADB7BEB71296ADBFBEBFB0E56B2E51
:106A8000B0E07B2EBEE14B2EB0E05B2EB4E22B2EAD
:106A9000B0E23B2E1ADED1DD23EA17E503E00A95CA
:106AA000F1F71A95E1F72A95D1F700008F907F90C2
:0C6AB0006F905F904F903F902F900895E2
:1065F400B6E7B093D425B7E1B093D525BEE6B09302
:10660400EB20B7E1B093EC20B0EBB0934106B0E4DB
:10661400B0934206B0E0B093C108032D037004297F
:10662400022900640093C00832FAB091C008B7F997
:06663400B093C0080895B8
:10663A002F923F924F92B091E406B061B093E40674
:10664A00B091E406B064B093E406B091E406BF7D6D
:10665A00B093E40622E010EA03E90A95F1F71A95E5
:10666A00E1F72A95D1F70000B091E406B062B09341
:10667A00E406B0918806B5FD01C0FBCFB0E03B2E21
:10668A00B8E04B2EB0E02B2EEBD9B0E03B2EBAE7A8
:10669A004B2EB2E02B2EE4D9B0E03B2EB0E24B2ECB
:1066AA00B3E02B2EDDD9B0E0B093D123B0E0B093A4
:1066BA00D32333242224C1DA4F903F902F90089598
:0066CA00D0
:105A6A00CF93DF93CDB7DEB72297CDBFDEBF2196A6
:105A7A002F9238824982B091E406B061B093E4066D
:105A8A00B091E406BF7BB093E4062F92B2E02B2ECE
:105A9A000E946E172F900E946E178E01F8013196A0
:105AAA000081202E0E946E17FE010081202E0E9486
:105ABA006E17B091E406B064B093E406B09188061C
:105ACA00B5FD01C0FBCF2F902196CDBFDEBFDF9180
:045ADA00CF910895CB
:105C44002F923F924F92122D0027030DB0E01B1F9D
:105C5400302E412EBBE02B2E06DF4F903F902F902D
:025C64000895A1
:106ABC002F923F924F925F926F927F92F101B0E0D2
:106ACC00B0833F922F92B4E66B2EB0E07B2EBEE1EA
:106ADC004B2EB0E05B2EBCE02B2EB0E23B2EEFDD5C
:106AEC00E2DB2F903F90003009F02BC13F922F92A8
:106AFC004424BEE42B2EB0E23B2EA0DE2F903F9020
:106B0C00002309F409C1B8E76B2EB0E07B2EBEE17F
:106B1C004B2EB0E05B2EBAED2B2EB0E23B2ECFDD30
:106B2C00B6ED2B2EB5E23B2E33DDBCE86B2EB0E080
:106B3C007B2EBEE14B2EB0E05B2EB7E92B2EB0E2E4
:106B4C003B2EBDDD4091D6255091D7256091D8259F
:106B5C007091D92500E012E020E030E00417150711
:106B6C002607370708F06CC040E050E060E070E0AA
:106B7C00703029F4603019F4523009F44030D8F4F4
:106B8C0004ED13E2040F151F7F936F935F934F93E4
:106B9C003F922F921801DBDB2F903F904F915F912A
:106BAC006F917F918A019B010F5F1F4F2F4F3F4FBA
:106BBC00A801B901DDCF60E070E080E090E090309A
:106BCC0029F4803019F4703009F4603120F5B5E007
:106BDC009B01AC01220F331F441F551FBA95D1F7EF
:106BEC0004ED13E2020F131F9F938F937F936F9308
:106BFC003F922F9218016CDB2F903F906F917F91F9
:106C0C008F919F918B019C010F5F1F4F2F4F3F4F17
:106C1C00B801C901D4CF0091D6251091D725209168
:106C2C00D8253091D9250050124020403040009397
:106C3C00D6251093D7252093D8253093D92582CFEC
:106C4C0040E050E060E070E00091D6251091D7252F
:106C5C002091D8253091D925401751076207730729
:106C6C00D8F404ED13E2040F151F7F936F935F9319
:106C7C004F933F922F9218016ADB2F903F904F91C8
:106C8C005F916F917F918A019B010F5F1F4F2F4F77
:106C9C003F4FA801B901D8CF40E050E060E070E070
:106CAC000091D6251091D7252091D8253091D92542
:106CBC004017510762077307E8F404ED13E2F8017B
:106CCC00E40FF51F00817F936F935F934F933F9277
:106CDC002F92202E25DB2F903F904F915F916F913B
:106CEC007F918A019B010F5F1F4F2F4F3F4FA801D0
:106CFC00B901D6CF3F922F92B0EA6B2EB0E07B2E2B
:106D0C00BEE14B2EB0E05B2EBCE82B2EB0E23B2E4E
:106D1C00D6DC2F903F9014C03F922F92B8E76B2E89
:106D2C00B0E07B2EBEE14B2EB0E05B2EBCE52B2EF3
:106D3C00B0E23B2EC4DC2F903F90F101B2E0B08367
:106D4C0014C03F922F92B8E76B2EB0E07B2EBEE1C1
:106D5C004B2EB0E05B2EB1E72B2EB0E23B2EAFDC1E
:106D6C002F903F90F101B2E0B0837F906F905F90D5
:086D7C004F903F902F90089505
:1062B20020E02F9313DC2F91122F1F5F212F002339
:1062C20019F0223308F4F5CF223310F00FEF04C097
:0A62D2000E946C230E94501F0895E3
:105ADE00CF93DF93CDB7DEB72197CDBFDEBF219633
:105AEE002F923F924F925F926F927F92B5E0B0935A
:105AFE00AB20B091A006B062B093A0060E944719E9
:105B0E0020E030E0303009F42A3080F43F932F93B8
:105B1E00BFEF2B2EE091D425F091D52509952F912D
:105B2E003F9189010F5F1F4F9801ECCF0E944119E1
:105B3E00B5E97B2E332444245524662422240E9466
:105B4E00CE1808830E9447190881013011F001E038
:105B5E0067C00E944119B7E87B2EBAEA3B2EB1E02E
:105B6E004B2EB0E05B2E6B2EB8E02B2E0E94CE1883
:105B7E000883BFEF2B2EE091D425F091D525099502
:105B8E00BFEF2B2EE091D425F091D5250995BFEFCF
:105B9E002B2EE091D425F091D5250995BFEF2B2E14
:105BAE00E091D425F091D52509950E9447190881D9
:105BBE00013051F0B1E02B2E0E940C1A002319F087
:105BCE0022240E940C1A04C0B2E02B2E0E940C1A42
:105BDE000091AB2010E0103009F4053011F402E012
:105BEE001FC00091AB2010E0103009F40430B9F062
:105BFE000E944119BFEF7B2EB0E03B2EB2E04B2E40
:105C0E00B0E05B2E6B2EB0E12B2E0E94CE180883D7
:105C1E000E9447190881003011F003E001C000E036
:105C2E007F906F905F904F903F902F90CDBFDEBFD3
:065C3E00DF91CF910895F3
:10328E002F92B091A406B062B093A406BFEF2B2E7E
:0E329E00E091D425F091D52509952F90089543
:102EEC002092C308B091C208B7FD01C0FBCF00917E
:042EFC00C30808956A
:102E82002092C309B091C209B7FD01C0FBCF0091E6
:042E9200C3090895D3
:102E6E002092C30AB091C20AB7FD01C0FBCF0091F8
:042E7E00C30A0895E6
:102454002092C30BB091C20BB7FD01C0FBCF00911A
:04246400C30B089509
:0C328200B091A406BF7DB093A40608958F
:10319C00CF93DF93CDB7DEB72497CDBFDEBF21969B
:1031AC002F92388249825A826B82022D005C7F9268
:1031BC00202EE091D425F091D52509958E01F801AA
:1031CC0033960081202EE091D425F091D5250995D8
:1031DC008E01F80132960081202EE091D425F091D9
:1031EC00D52509958E01F80131960081202EE091AC
:1031FC00D425F091D5250995FE010081202EE09172
:10320C00D425F091D52509957F90272CE091D425D4
:10321C00F091D525099540E050E05F934F937F9254
:10322C006F925F924F923F922F92BFEF2B2EE091B5
:10323C00D425F091D52509952F903F904F905F9014
:10324C006F907F904F915F91302F142F252F1F5F20
:10325C002F4F412F522F0078003029F0503009F4B5
:10326C00443608F4DACF032F2F902396CDBFDEBF60
:06327C00DF91CF910895DF
:10341800CF93DF93CDB7DEB72497CDBFDEBF21961C
:103428003F924F925F926F927F92B0E0B883B983D8
:1034380008811981173209F4003108F093C0022D70
:1034480010E0103009F40030B9F417DF2F92BFEF05
:103458007B2E3324442455246624B1E02B2E9ADE97
:103468000A8311DF2F900A81003029F4B0E0B0936D
:10347800AB2000E078C06FC000DF2F92BFEF7B2E3B
:103488003324442455246624B7E32B2E83DE0A8391
:10349800FADE2F900A81013009F05CC0EEDE2F922F
:1034A800BFEF7B2EB0E03B2E4B2E5B2EB0E46B2E95
:1034B800B9E22B2E6FDE0A83E6DE2F900A810030F8
:1034C80009F047C0022D10E0103009F4023009F06D
:1034D8003BC0D3DE2F92BFEF7B2E332444245524E8
:1034E8006624BAE32B2E56DE0A83BFEF2B2EE0911B
:1034F800D425F091D52509950B83BFEF2B2EE091AC
:10350800D425F091D5250995BFEF2B2EE091D42530
:10351800F091D5250995BFEF2B2EE091D425F09198
:10352800D5250995B0DE2F900A81003061F40B8112
:1035380006FF04C0B4E0B093AB2003C0B3E0B0937F
:10354800AB2000E010C005C0B1E0B093AB2000E0B4
:103558000AC001C007C0088119810F5F1F4F088387
:10356800198366CF01E07F906F905F904F903F90F6
:0C3578002396CDBFDEBFDF91CF910895F8
:1046D8002F923F924F925F926F92B1E0B0931F2357
:1046E800B0E05B2EB2E06B2E4424BFE12B2EB1E28A
:1046F8003B2E0E94F71940E04230B8F44F930CE18A
:1047080010E050E00E94C6182DE333E2020F131F99
:10471800BCE15B2EB0E06B2E442418010E94F7190F
:104728004F91042F0F5F402FE7CFBCE15B2EB0E025
:104738006B2E4424B0E22B2EB3E23B2E0E94F719D5
:1047480040E04430B8F44F9306E010E050E00E9497
:10475800C61827E733E2020F131FB6E05B2EB0E05E
:104768006B2E442418010E94F7194F91042F0F5FF4
:10477800402FE7CFB7E15B2EB0E06B2E4424B8E0C2
:104788002B2EB1E23B2E0E94F719BFE1B0938F2385
:10479800B3E2B0939023B0E0B0939723B0E0B09326
:1047A8009A23B0939B23B0939C23B0939D23B0E0AE
:1047B800B0933C23B0E0B0939123B0939223B0E040
:1047C800B0939323B0939423B0939523B0939623F7
:1047D800BFEFB093D023BDE05B2EB0E06B2E442436
:1047E800BDEE2B2EB0E23B2E0E94F719B0E0B0933D
:1047F800FA20B093FB20B0E0B093FC20B093FD20EA
:0C4808006F905F904F903F902F900895AC
:1033EE00A101252D362D052D162D01501040502EE4
:1033FE00612EB22FB32B39F0FA0140828A010F5F92
:0A340E001F4FA801EECF81010895C1
:103EA000CF93DF93CDB7DEB72297CDBFDEBF21968C
:103EB0002F923F924F925F926F927F92B1E0B093B8
:103EC0001F23BFE16B2EB1E27B2E22243324442436
:103ED0005524ECD9002329F0B0E1B0933C230FEF37
:103EE0001DC11FE121E2E12FF22FE250FE4F0081C0
:103EF000053511F001E012C1E12FF22FE150FE4F24
:103F000000810A3A11F001E009C130E0E12FF22FFF
:103F10000081093E19F401E0302F00C0E12FF22F9B
:103F200000810B3E41F4E12FF22F329600810039DF
:103F300021F401E001C0032F01C0032F002309F485
:103F40008BC087E793E2FC01B0E8B083FC013296B6
:103F5000B0E0B193B193B193B1939F938F930E94CB
:103F600088178F919F91003014F401E0D7C0009121
:103F7000112110911221B02FB12B09F466C01091BC
:103F8000322100913321012BC9F00091332110E03F
:103F9000212F312F722F612F502F44270091322172
:103FA00010E0212F312F040F151F261F371FA801E6
:103FB000B901FC013196B4E0B0830CC040913F21BF
:103FC000509140216091412170914221FC01319634
:103FD000B6E0B08300901B2110901C218A010019CB
:103FE000110900901D2110901E219B01200931090B
:103FF0009F938F9340910A2150910B2160E0762F7F
:1040000094DE8B019C018F919F91A801B901303002
:1040100029F4203019F41F3009F4053F30F4FC0175
:104020003196B1E0B08301E079C005EF1FEF20E0E9
:1040300030E0041715072607370730F4FC013196E6
:10404000BBE0B08301E06AC006C0FC013196BBE072
:10405000B08301E063C061C08DED92E260E070E08A
:10406000703009F4643098F506E010E0AB018ED8AA
:1040700027E733E2200F311FA901FC010081F9017C
:1040800000838C010C5F1F4FC8019A012F5F3F4FC7
:10409000F8010081F90100839C012C5F3F4FC901A9
:1040A0008A010E5F1F4F088319837F936F93190155
:1040B00069DA6F917F9148815981FA0101931193D7
:1040C000219331938B010F5F1F4FB801C9CF06E0D9
:1040D00010E04091972350E059D827E733E2020FD0
:1040E000131FF80131960081043089F006E010E0DA
:1040F0004091972350E04AD827E733E2020F131F7D
:10410000F80131960081063011F001E007C00E94ED
:104110008817003014F401E001C000E07F906F9038
:104120005F904F903F902F902196CDBFDEBFDF91E3
:04413000CF9108958E
:1032AC00CF93DF93CDB7DEB72297CDBFDEBF21968C
:1032BC002F923F924F925F92DEDF0091AB2010E095
:1032CC00103009F4043019F4810192010DC0B9E0F9
:1032DC0081019201000F111F221F331FBA95D1F7E4
:1032EC00A801B9018A019B017F926F92BFEF7B2EDF
:1032FC00302E412E522E632EB1E12B2E49DF6F90D2
:10330C007F90002319F0BDDF01E061C07F926F92C6
:10331C005F924F923F922F92BFEF2B2EE091D425CC
:10332C00F091D52509952F903F904F905F906F901D
:10333C007F900E3F09F0EACF30E040E0423009F4D4
:10334C00303048F5032F142F060D171D08831983F1
:10335C004F933F937F926F925F924F923F922F9237
:10336C00BFEF2B2EE091D425F091D52509952F9008
:10337C003F904F905F906F907F903F914F9118814D
:10338C002981E12FF22F0083032F142F0F5F1F4F82
:10339C00302F412FD3CF7F926F925F924F923F92FB
:1033AC002F92BFEF2B2EE091D425F091D5250995C6
:1033BC00BFEF2B2EE091D425F091D525099561DF37
:1033CC002F903F904F905F906F907F9000E05F90B8
:1033DC004F903F902F902196CDBFDEBFDF91CF91C4
:0233EC00089542
:102F10002F923F924F925F926F927F92B1E0B09367
:102F20001F2306E010E04091972350E02FD127E7C0
:102F300033E2020F131FF801329601911191219192
:102F40003191BFE16B2EB1E27B2E18012901AED188
:102F5000002329F0B0E1B0933C230FEFB2C0BAE2F6
:102F60002B2EB1E23B2ED9DA0093082110930921D0
:102F700000912C2100930A21B0E0B0930B21BDE217
:102F80002B2EB1E23B2EC9DA00930C2110930D21B8
:102F900000912F2100930E21B0E32B2EB1E23B2EA6
:102FA000BCDA00930F2110931021B5E32B2EB1E270
:102FB0003B2EB3DA009311211093122106E010E0AA
:102FC0004091972350E0E2D027E733E2020F131F2E
:102FD000F8013296419151916191719100910C21CA
:102FE00010910D2120E0322F040F151F261F371FCF
:102FF000009313211093142120931521309316214F
:1030000000910E2110E04091112150911221BED06B
:103010004091132150911421609115217091162136
:1030200020E0322F040F151F261F371F0093172192
:10303000109318212093192130931A2100910F2108
:1030400010911021B5E0000F111FBA95E1F74091E2
:10305000082150910921EAD98C0140911721509102
:1030600018216091192170911A2120E0322F040F4C
:10307000151F261F371F00931B2110931C2120931F
:103080001D2130931E2120910821309109218901B1
:10309000169507950093752310937623B5E0890163
:1030A00016950795BA95E1F7009398231093992305
:1030B00040939A2350939B2360939C2370939D236A
:1030C00000E07F906F905F904F903F902F90089519
:0030D00000
:10251A00F1013196008110E0302F2227F10100816C
:08252A0010E0020F131F0895D9
:10242C00C801BA01AA1BBB1B51E107C0AA1FBB1FE5
:10243C00A617B70710F0A61BB70B881F991F5A9544
:08244C00A9F780959095089511
:10358400F1013396008110E0212F312F722F612F2A
:10359400502F4427F1013296008110E0212F312F62
:1035A400040F151F261F371F722F612F502F44271A
:1035B400F1013196008110E0212F312F040F151FE6
:1035C400261F371F722F612F502F4427F1010081CE
:1035D40010E0212F312F040F151F261F371F0895C8
:0035E400E7
:103D2A00C9019A01AB01B801A1E21A2EAA1BBB1B59
:103D3A00FD010DC0AA1FBB1FEE1FFF1FA217B3076D
:103D4A00E407F50720F0A20BB30BE40BF50B661F93
:103D5A00771F881F991F1A9469F760957095809547
:043D6A009095089593
:10684800CF93DF93CDB7DEB72297CDBFDEBF2196BA
:106858004F925F920091D023088300913C230983D3
:106868004F923F922F92542CB7E04B2E0E949A20C1
:106878002F903F904F90102F00301CF51E3FF9F4D9
:10688800098100933C230CE110E0488150E047FD6A
:106898005FEF0E94C6182DE333E2020F131FF801C1
:1068A8007A96B0E0B193B193542CB7E04B2E0E9486
:1068B8009A20003014F400E005C002E003C000E0B4
:1068C80001C001E05F904F902196CDBFDEBFDF9100
:0468D800CF910895BF
:10413400CF93DF93CDB7DEB7CB55D040CDBFDEBF35
:1041440021962F923F925F926F927F9253DE0023CB
:1041540029F0B2E1B0933C230FEFAEC15F924F92CE
:104164002101BDEE2B2EB0E23B2E18DE4F905F9066
:1041740000913A2310913B23B02FB12BE9F00CE1CD
:1041840010E04091D02350E047FD5FEF0E94C61835
:104194002DE333E2D801A20FB31F1CE1E0E2F3E206
:1041A40001910D931150E1F7B0E0B0933A23B0932D
:1041B4003B23BFEFB093D0238E010A5B1F4F5F9266
:1041C4004F92BDE06B2EB0E07B2EBDEE4B2EB0E2E5
:1041D4005B2E1801CADD8E01005E1F4F2801BDEE63
:1041E4002B2EB0E23B2E63DA4F905F9000300CF040
:1041F40058C057FE51C0FE01ED5AFF4FB0E0B193D5
:10420400B193FE01EB5AFF4FB0E0B193B193B19378
:10421400B193052D087529F0B8E0B0933C230FEF56
:104224004BC18E015F924F92B0E25B2EB0E06B2ED9
:1042340044241801DAD84F905F90052D0F770B872F
:104244008E014F92BBE06B2EB0E07B2EBDEE4B2E69
:10425400B0E25B2E180189DDAE014D5A5F4F9E011D
:104264002B5A3F4F8E013A012901180144DB4F902C
:10427400003014F40FEF20C19E01205E3F4F8E01E9
:104284000A5B1F4F4F922901180111DA4F90003039
:1042940014F40FEF11C105C0BDE0B0933C230FEF40
:1042A4000BC10DA50875002329F0B8E0B0933C2399
:1042B4000FEF02C140E050E0503009F4423008F002
:1042C4003BC05F934F930CE110E00E94C6184F91DE
:1042D4005F912DE333E2020F131FB801065E1F4FF7
:1042E400F80101911191B02FB12B09F18B010A5FF3
:1042F4001F4FF801219131910EAD1FAD0217130725
:10430400B1F48B01065E1F4FF8014192B0E0B19306
:104314001CE1A0E2B3E2FB019A0100C001910D93FC
:1043240011501123D9F72093D023022FC5C08A013D
:104334000F5F1F4FA801C0CF80E090E0903009F4D8
:10434400823008F0B5C00CE110E0AC010E94C61840
:104354002DE333E2020F131F065E1F4FF801019194
:104364001191B02FB12B09F09EC00CE110E0AC010B
:104374000E94C6182DE333E2020F131F38017F9207
:104384006F925F924F923F922F92BCE15B2EB0E00E
:104394006B2E4424180129D82F903F904F905F90A2
:1043A4006F907F90A3014A5F5F4F9301245F3F4F5B
:1043B4000EAD1FADF90101931193F9010191119112
:1043C400FA01019311938301065E1F4FF801419294
:1043D400B0E0B193FE01E05CFF4F01911191219196
:1043E4003191F301019311932193319393012C5F44
:1043F4003F4FFE01EC5BFF4F01911191B5E0000FBF
:10440400111FBA95E1F7F90101931193A3014A5ED3
:104414005F4F0AAD1BAD2CAD3DADFA010193119375
:10442400219331938301025F1F4FFE01E75AFF4F2F
:10443400019311938301045F1F4FF80101911191BE
:1044440020E0322F025010402040304040910A2199
:1044540050910B2160E0762F0E94691340911B213B
:1044640050911C2160911D2170911E21400F511FFC
:10447400621F731FFE01E75AFF4F01911191F8016A
:1044840041935193619371931CE1A0E2B3E2F30170
:104494009C0100C001910D9311501123D9F7209371
:1044A400D023022F09C08C010F5F1F4FC80146CFD4
:1044B400B9E0B0933C230EEF7F906F905F903F90F4
:1044C4002F90C65ADF4FCDBFDEBFDF91CF91089545
:0044D400E8
:103DF8002F923F920E944F13202F003011F40FEFA3
:103E080048C00CE0021710F40EEF43C0F101008126
:103E18000E3211F40DEF3DC010E0A101322F00E089
:103E28000317E8F4E32FF0E0E20DF31D00810E32F2
:103E380091F441E008E0031710F40CEF2AC0032FB7
:103E480010E00F5F1F4F020D131D1F930F93142FC8
:103E58003F914F9106C0032F0150302FE0CF342FF0
:103E6800452F113029F008E0021710F40BEF11C0AC
:103E7800113071F4232E342E0E944F13202F00305E
:103E880011F405EF06C003E0021710F404EF01C0B7
:083E980000E03F902F90089517
:10269E009101F90189010F5F1F4F980100810023FD
:1026AE0009F0F7CF8901021913090150104008955E
:0026BE001C
:103DA000CF93DF93CDB7DEB72297CDBFDEBF21968D
:103DB00030E03D30D8F4032F10E0020D131D0883CE
:103DC0001983E32FF0E0E40DF51D00813F922F925F
:103DD000202E0E945F132F903F9018812981E12FA0
:103DE000F22F0083032F0F5F302FE3CF2196CDBF3B
:083DF000DEBFDF91CF910895C1
:1026BE000AE7021528F0B1E62B1610F0E89425F87B
:0426CE00022D08953C
:103D6E00A201B10193018301015010403801B22F1D
:103D7E00B32B69F0FA010081FB0100838B010F5F09
:103D8E001F4FB8018A010F5F1F4FA801EBCF8101B2
:023D9E00089586
:1036B200CF93DF93CDB7DEB72A97CDBFDEBF21967A
:1036C2002F923F926F927F92B22DB32911F40FEF96
:1036D200E9C05F924F923F922F920E9499122F90CF
:1036E2003F904F905F9040919A2350919B2360911D
:1036F2009C2370919D2300911721109118212091F4
:10370200192130911A21401751076207730739F4C2
:1037120000910F21109110210A831B830BC000918D
:103722000A2110910B2140919823509199232DDD6C
:103732000A831B8300919A2310919B2320919C233F
:1037420030919D230E831F8328873987BFE1BC8375
:10375200B1E2BD835F924F923F922F9220909A23C3
:1037620030909B2340909C2350909D231BD8B1E026
:10377200B0931F23BFE12B2EB1E23B2E0E94871391
:103782002F903F904F905F90B0E0B883B98328812B
:1037920039810A811B812017310708F072C05F92BC
:1037A2004F923F922F92BBE06B2EB0E07B2E210115
:1037B2002C803D80CBD92F903F904F905F9010305E
:1037C20009F4003059F55F924F9269D94F905F909A
:1037D200002329F0B0E1B0933C230FEF63C0B42D76
:1037E200B529D1F02C803D8011D8F201B0960E811E
:1037F2001F81288539850193119321933193F20119
:10380200B4960C811D810F511142B5E016950795B2
:10381200BA95E1F70193119300E044C00C811D8138
:103822009801205E3F4F2C833D8300918F2310919E
:10383200902320173107F1F40E811F8128853985E5
:103842000F5F1F4F2F4F3F4F0E831F8328873987EC
:10385200BFE1BC83B1E2BD835F924F923F922F9250
:10386200BFE12B2EB1E23B2E0E9487132F903F9097
:103872004F905F90088119810F5F1F4F0883198352
:1038820086CF5F924F923F922F9209D92F903F900D
:103892004F905F90002329F0B0E1B0933C230FEFEB
:1038A20001C00FEF7F906F903F902F902996CDBF70
:0838B200DEBFDF91CF91089504
:10253200CF93DF93CDB7DEB72B97CDBFDEBF21960A
:102542004F925F926F927F928E019801A1015F93E9
:102552004F933F932F933F922F92BBE05B2EB0E0BD
:102562006B2EB0E24B2E180141D72F903F902F9146
:102572003F914F915F915F934F93A9012F913F91AB
:10258200F1010081002379F0F10100813F922F9245
:10259200202E4FDE2F903F90002329F081010F5F04
:1025A2001F4F1801EDCF3F922F92B0E04B2EB0E2B9
:1025B2005B2E4DDE2F903F90103009F4003049F42D
:1025C200FE01BEE2B0838E01F8013196BEE2B08315
:1025D2004EC03F922F92B3E04B2EB0E25B2E37DE1D
:1025E2002F903F90103009F4003021F4FE01BEE23A
:1025F200B0833DC0F10100810023D9F0F1010081D7
:102602003F922F92202E15DE2F903F90002389F4C7
:10261200F10100810E3269F0F1010081FA010083BB
:102622008A010F5F1F4FA80181010F5F1F4F180121
:10263200E1CFF10100810E3221F481010F5F1F4FC2
:1026420018018E01085F1F4FA801F101108100E2FD
:10265200011768F4F1010081FA0100838A010F5F1A
:102662001F4FA80181010F5F1F4F1801EECF8E018E
:102672003F922F92BBE06B2EB0E07B2E2801190116
:102682000E94B71E2F903F907F906F905F904F9067
:0C2692002A96CDBFDEBFDF91CF910895E6
:10223400B0E22B1649F00DE0021520F0B9E02B16A0
:0C22440008F002C000E001C001E00895B5
:10225000F1010081002379F0F1011081F201008188
:10226000101749F481010F5F1F4F180182010F5FA2
:102270001F4F2801EDCFF1011081F2010081002EE6
:0E228000B0E01B2E012F10E000191109089587
:1027A6002F923F924F925F926F927F9267D50091E0
:1027B600AB2010E0103009F4043019F481019201C5
:1027C6000DC0B9E081019201000F111F221F331FB6
:1027D600BA95D1F7A801B9018A019B01BFEF7B2EFB
:1027E600302E412E522E632EB2E12B2ED4D400234E
:1027F60019F04AD501E001C000E07F906F905F902C
:082806004F903F902F900895C0
:10270E00CF93DF93CDB7DEB72297CDBFDEBF219635
:10271E003F922F9275DD2F903F9030E040E0423097
:10272E0009F4303008F5032F142F020D131D088302
:10273E0019834F933F933F922F92BFEF2B2EE09131
:10274E00D425F091D52509952F903F903F914F912B
:10275E0018812981E12FF22F0083032F142F0F5F91
:10276E001F4F302F412FDBCF3F922F92BFEF2B2EDB
:10277E00E091D425F091D5250995BFEF2B2EE09150
:10278E00D425F091D52509952F903F902196CDBF58
:08279E00DEBFDF91CF91089529
:10220E002F92BFEF2B2EE091D425F091D525099575
:0A221E000E3F09F0F6CF2F9008954F
:102B4E0093018301015010403801303009F42030D8
:102B5E00D9F0F1011081F2010081101761F0F1013D
:102B6E001081F2010081002EB0E01B2E012F10E02B
:102B7E00001911090BC081010F5F1F4F180182014F
:0E2B8E000F5F1F4F2801DCCF00E010E008951C
:102AA0002F92BCE42B2EE091D425F091D5250995E9
:102AB0002224E091D425F091D52509952224E09196
:102AC000D425F091D52509952224E091D425F091C3
:102AD000D52509952224E091D425F091D525099595
:102AE000BFEF2B2EE091D425F091D525099540E03C
:102AF00050E05F934F93BFEF2B2EE091D425F091E0
:102B0000D52509954F915F91302F142F252F1F5FE9
:102B10002F4F412F522F0078003029F0503009F408
:102B2000443608F4E6CF37FF05C03F93B0D33F915A
:102B3000032F0BC0BFEF2B2EE091D425F091D525AC
:0E2B400009950030B9F3A3D300E02F9008955B
:10280E00CF93DF93CDB7DEB72297CDBFDEBF219634
:10281E00B101A20120E030E0303009F42830B0F4EC
:10282E00FB010081003209F411C0FB010081FA01A5
:10283E0000838A010F5F1F4FA8018B010F5F1F4F8F
:10284E00B80189010F5F1F4F9801E6CF8101085F24
:10285E001F4F9801F8010081003239F1FA01BEE2F2
:10286E00B0838A010F5F1F4FA80100E010E0B9018D
:10287E009801303009F42330B0F4FB0100810032AE
:10288E0009F411C0FB010081FA0100838A010F5F78
:10289E001F4FA8018B010F5F1F4FB80189010F5FFA
:1028AE001F4F9801E6CF8A0101C08A01F801B0E0FE
:1028BE00B083142D252D135F2F4FF1013B96008110
:1028CE00E12FF22F00838201065E1F4F08831983CA
:1028DE008101045E1F4F3F922F9218014CD62F900C
:1028EE003F9048815981FA010193119321933193BD
:1028FE008201025E1F4F088319838101065E1F4FFE
:10290E003F922F92180102DE2F903F90288139813D
:10291E00F901019311938101025F1F4FF80120818C
:10292E00F80131960081102F002730E0200F311F63
:10293E00A9018201025F1F4FF8013396BBE08901A6
:10294E0016950795BA95E1F700838201025F1F4F36
:10295E00F8013496B5E08A0116950795BA95E1F718
:10296E000F7300838201025F1F4FF8013596042F0B
:10297E000F71000F00838101005F1F4FF80120814E
:10298E00F80131960081102F002730E0200F311F03
:10299E00A9018201025F1F4FF8013296022F0F71BB
:1029AE0000838201025F1F4FF8013196B5E08A0164
:1029BE0016950795BA95E1F70F700083F2013E96D2
:1029CE00B9E08A0116950795BA95E1F70083810162
:1029DE000A5E1F4FF8012081F80131960081102FF9
:1029EE00002730E0200F311FA90182010C5E1F4F1E
:1029FE00F8013396BBE0890116950795BA95E1F774
:102A0E00008382010C5E1F4FF8013496B5E08A01F7
:102A1E0016950795BA95E1F70F73008382010C5E48
:102A2E001F4FF8013596042F0F71000F008381019F
:102A3E00085E1F4FF8012081F80131960081102F9A
:102A4E00002730E0200F311FA90182010C5E1F4FBD
:102A5E00F8013296022F0F71008382010C5E1F4F18
:102A6E00F8013196B5E08A0116950795BA95E1F70A
:102A7E000F700083F2017496B9E08A0116950795DE
:102A8E00BA95E1F700832196CDBFDEBFDF91CF91DE
:022A9E00089599
:1038FA00CF93DF93CDB7DEB72897CDBFDEBF219632
:10390A004F925F928101065E1F4F3F922F921801DC
:10391A000E948D122F903F90F30101931193F301AE
:10392A0001911191B02FB12B81F57F926F925F9225
:10393A004F923F922F92F1D92F903F904F905F90E4
:10394A006F907F90F30101931193F301019111910B
:10395A001F3F09F40F3F29F4B4E0B0933C230FEF63
:10396A0089C1F301019111917F926F925F924F92F7
:10397A003F922F92BFEF4B2E5B2E18010AD92F9040
:10398A003F904F905F906F907F90F301019111915A
:10399A0020E0322F025010402040304040910A214E
:1039AA0050910B2160E0762F0E94691340911B21F0
:1039BA0050911C2160911D2170911E21040F151F29
:1039CA00261F371FF20101931193219331934091DE
:1039DA009A2350919B2360919C2370919D2300917F
:1039EA001721109118212091192130911A2140177D
:1039FA0051076207730739F400910F2110911021C2
:103A0A000A831B830BC000910A2110910B2140915C
:103A1A00982350919923B5DB0A831B8300919A233B
:103A2A0010919B2320919C2330919D230C831D830D
:103A3A002E833F830FE111E21F930F937F926F92C0
:103A4A003F922F9220909A2330909B2340909C2360
:103A5A0050909D230E94D313B1E0B0931F23BFE17E
:103A6A002B2EB1E23B2E0E9487132F903F906F902E
:103A7A007F900F911F91B0E0B883B983A801288184
:103A8A0039810A811B812017310708F0DAC0FA014F
:103A9A000081053E29F0FA010081003208F099C040
:103AAA005F934F937F926F925F924F923F922F92C2
:103ABA000E9450152F903F904F905F906F907F908B
:103ACA004F915F91002329F0B0E1B0933C230FEFAF
:103ADA00D1C05F934F937F926F925F924F923F92C2
:103AEA002F92B0E26B2EB0E07B2E21011A013AD15F
:103AFA002F903F904F905F906F907F904F915F9182
:103B0A00142F252F165E2F4FF3010081E12FF22F7C
:103B1A0000838A01065E1F4F98012F5F3F4FF30112
:103B2A0001911191012F10E0F9010083FA013E96EB
:103B3A000091FA2000838A01025F1F4FF801319633
:103B4A000091FB200083FA0170960091FC2000830B
:103B5A008A01005F1F4FF80131960091FD20008312
:103B6A00FA0176960091FA2000838A010A5E1F4FB5
:103B7A00F80131960091FB200083FA0178960091B2
:103B8A00FC2000838A01085E1F4FF80131960091DC
:103B9A00FD2000837F926F925F924F923F922F9205
:103BAA00BFE16B2EB1E27B2E2C803D804E805F8080
:103BBA000E9447112F903F904F905F906F907F9097
:103BCA00002329F0B5E0B0933C230FEF53C000E087
:103BDA0051C09A01205E3F4FC90100918F23109175
:103BEA0090232017310729F50C811D812E813F81F1
:103BFA000F5F1F4F2F4F3F4F0C831D832E833F8331
:103C0A008FE191E29F938F937F926F925F924F928F
:103C1A003F922F92BFE12B2EB1E23B2E0E948713D7
:103C2A002F903F904F905F906F907F908F919F91D0
:103C3A0000C0088119810F5F1F4F08831983AC01E7
:103C4A001ECF7F926F925F924F923F922F920E9465
:103C5A0050152F903F904F905F906F907F90002368
:103C6A0029F0B0E1B0933C230FEF04C0B6E0B09363
:103C7A003C230FEF5F904F902796CDBFDEBFDF91B9
:043C8A00CF91089539
:102D2400CF93DF93CDB7DEB72697CDBFDEBF219615
:102D34002F923F924F925F92009111211091122194
:102D440040917523509176231FD208831983B2E0F2
:102D5400BA83B0E0BB83409175235091762302E09F
:102D640010E062DB8C01A80160E0762F0091132152
:102D7400109114212091152130911621040F151F53
:102D8400261F371FA801B9017F936F935F934F9359
:102D9400409175235091762302E010E045DB8D01CC
:102DA4004F915F916F917F919801220F331F0FE133
:102DB40011E2020F131F0C831D831A012B01F1DC96
:102DC400B1E0B0931F23BFE12B2EB1E23B2E9DDC7B
:102DD4002A813B81088119812017310738F5EC815C
:102DE400FD8101911191103009F4003009F41EC0E5
:102DF4000C811D8198012E5F3F4F2C833D830A81F6
:102E04001B810F5F1F4F0A831B8300918F23109137
:102E140090232017310749F4BFE1BC83B1E2BD839D
:102E2400BFE12B2EB1E23B2E70DCD2CF37DE002384
:102E340031F0B0E1B0933C230FEF1FEF0CC02A81B7
:102E44003B81088119812017310719F40FEF1FEF17
:102E540002C00A811B815F904F903F902F9025966E
:0A2E6400CDBFDEBFDF91CF910895CE
:102B9C00CF93DF93CDB7DEB72897CDBFDEBF21969D
:102BAC002F923F924F925F926F927F924E825F82F2
:102BBC004091752350917623810132DC8C010A837C
:102BCC001B83B0E0BC83BD834A815B816C817D81BA
:102BDC00009113211091142120911521309116216F
:102BEC00040F151F261F371F0A831B832C833D835D
:102BFC00B1E0B0931F233F922F92BFE16B2EB1E255
:102C0C007B2E180129014CD32F903F90002331F0DB
:102C1C00B0E1B0933C230FEF1FEF72C040917523CE
:102C2C00509176238101FCDB8D019801220F331F1B
:102C3C00A9010FE111E2200F311FFE013696008130
:102C4C00F90100839A012F5F3F4F0FE111E2200F32
:102C5C00311F8E010A5F1F4FF80131960081F90177
:102C6C000083BFE16B2EB1E27B2E2A803B804C802F
:102C7C005D8007DB002331F0B5E0B0933C230FEF10
:102C8C001FEF3EC0B1E0B883B0E0B9831881298151
:102C9C0000910E211017B0E02B0780F54A815B8163
:102CAC006C817D81009111211091122120E0322F35
:102CBC00040F151F261F371F0A831B832C833D838C
:102CCC005F924F923F922F92BFE16B2EB1E27B2E1F
:102CDC0018012901D6DA2F903F904F905F90002376
:102CEC0031F0B5E0B0933C230FEF1FEF09C0088122
:102CFC0019810F5F1F4F08831983C8CF00E010E0C4
:102D0C007F906F905F904F903F902F902796CDBF04
:082D1C00DEBFDF91CF910895A5
:10228E002F923F924F925F92F5D70091AB2010E0C4
:10229E00103009F4043019F4810192010DC0B9E037
:1022AE0081019201000F111F221F331FBA95D1F722
:1022BE00A801B9018A019B017F926F92BFEF7B2E1D
:1022CE00302E412E522E632EB8E12B2E60D76F90FA
:1022DE007F90002319F0D4D701E09CC07F926F92BB
:1022EE00BFEF2B2EE091D425F091D5250995BFEFA8
:1022FE002B2EE091D425F091D5250995BEEF2B2EEE
:10230E00E091D425F091D52509956F907F9020E02E
:10231E0030E00FEF11E002171307F8F0F901E60DA8
:10232E00F71D00813F932F937F926F925F924F9292
:10233E003F922F92202EE091D425F091D52509952C
:10234E002F903F904F905F906F907F902F913F9185
:10235E0089010F5F1F4F9801DCCF7F926F925F92C2
:10236E004F923F922F92BFEF2B2EE091D425F091FA
:10237E00D5250995BFEF2B2EE091D425F091D525CB
:10238E000995BFEF2B2EE091D425F091D525099517
:10239E002F903F904F905F906F907F90202F30E066
:1023AE0089010F711070103009F4053079F07F92A9
:1023BE006F925F924F923F922F9262D72F903F90E3
:1023CE004F905F906F907F9002E024C07F926F924B
:1023DE005F924F923F922F92BFEF2B2EE091D4251A
:1023EE00F091D52509952F903F904F905F906F906B
:1023FE007F900F3F09F0EACF7F926F925F924F92DC
:10240E003F922F923DD72F903F904F905F906F90BD
:0E241E007F9000E05F904F903F902F900895C8
:1026D200049FD001159FF001249FE00DF11D069F7C
:1026E200E00DF11D349FF00D259FF00D169FF00DAA
:1026F200079FF00D3327149FB00DE11DF31F059FB7
:0C270200B00DE11DF31F8D019F01089533
:10659C004F925F9200913A2310913B2300FD0AC069
:1065AC00F101B0E0B193B193B193B193B7E0B09373
:1065BC003C2317C03F922F92222433244424552489
:1065CC000E946A222F903F9000913623109137231E
:1065DC002091382330913923F101019311932193A8
:0865EC0031935F904F90089578
:1044D40000913A2310913B23B02FB12B41F4B7E064
:1044E400B0933C230FEF1FEF2FEF3FEFF2C0B1E08B
:1044F400B0931F2300913623109137232091382342
:1045040030913923021513052405350588F40091EB
:104514003623109137232091382330913923009387
:1045240028231093292320932A2330932B2308C074
:10453400209228233092292340922A2350922B231D
:10454400409108215091092160E0762F00912823A1
:104554001091292320912A2330912B23E4DB8B0112
:104564009C0140910A2150910B2160E0762FDBDB06
:104574008B019C019801009126231091272300931D
:104584002C2310932D2300E010E002171307B0F53D
:104594003F932F935F924F923F922F9220902C2320
:1045A40030902D231DD82F903F904F905F902F91E6
:1045B4003F9100932C2310932D231F3F09F40F3FA9
:1045C400C1F4009136231091372320913823309180
:1045D4003923009328231093292320932A233093EB
:1045E4002B23BAE0B0933C2300E010E020E030E05D
:1045F40070C08901015010409801C5CF4091082135
:104604005091092160E0762F0091282310912923ED
:1046140020912A2330912B2386DB8B019C0140912E
:104624000A2150910B2160E0762F7DDB8D019F01E3
:10463400009332231093332300912C2310912D23C4
:1046440020E0322F025010402040304040910A2197
:1046540050910B2160E0762F0E94691340911B2139
:1046640050911C2160911D2170911E21400F511FFA
:10467400621F731F009132231091332320E0322FE5
:10468400040F151F261F371F00932E2310932F236B
:1046940020933023309331234091082150910921F4
:1046A40060E0762F009128231091292320912A235A
:1046B40030912B2338DB8D019F0100933423109319
:1046C4003523009128231091292320912A23309106
:0446D4002B230895F7
:1035E4002F923F924F925F926F927F9240917523F8
:1035F4005091762381010E9416128C01A80160E08B
:10360400762F0091132110911421209115213091CE
:103614001621040F151F261F371FB1E0B0931F2377
:103624003F922F92BFE16B2EB1E27B2E180129014C
:103634003BDE2F903F90002331F0B0E1B0933C2368
:103644000FEF1FEF13C04091752350917623810132
:103654000E9416128D019801220F331F0FE111E20F
:10366400020F131F18010E948D1218017F906F9092
:0A3674005F904F903F902F90089553
:10635A004F925F926F927F9200913A2310913B2362
:10636A0000FD04C0B7E0B0933C2305C14091282347
:10637A005091292360912A2370912B23009136236F
:10638A001091372320913823309139234017510730
:10639A006207730720F0BBE0B0933C23ECC0009186
:1063AA00342310913523123009F4003009F09AC0D1
:1063BA00B0E0B0933423B093352300913223109187
:1063CA00332398012F5F3F4F209332233093332397
:1063DA0000910A2110910B212017310709F052C0B0
:1063EA00B0E0B0933223B09333233F922F922090A0
:1063FA002C2330902D230E94F21A2F903F90009365
:10640A002C2310932D231F3F09F40F3FA1F4009171
:10641A003623109137232091382330913923009362
:10642A0028231093292320932A2330932B23BAE07D
:10643A00B0933C23A0C000912C2310912D2320E07F
:10644A00322F025010402040304040910A21509192
:10645A000B2160E0762F0E94691340911B21509115
:10646A001C2160911D2170911E21040F151F261FEA
:10647A00371F00932E2310932F232093302330931A
:10648A00312314C000912E2310912F232091302301
:10649A00309131230F5F1F4F2F4F3F4F00932E2311
:1064AA0010932F232093302330933123B0E0B093FD
:1064BA001F233F922F92BFE16B2EB1E27B2E2090D9
:1064CA002E2330902F2340903023509031230E9466
:1064DA0056192F903F90002321F0B0E1B0933C234E
:1064EA004AC01FC000911F230023D9F0B0E0B09327
:1064FA001F233F922F92BFE16B2EB1E27B2E209099
:10650A002E2330902F2340903023509031230E9425
:10651A0056192F903F90002321F0B0E1B0933C230D
:10652A002AC02FE131E20091342310913523F8017A
:10653A00E20FF31F0081F1010083009134231091CF
:10654A0035230F5F1F4F0093342310933523009197
:10655A0028231091292320912A2330912B230F5F7E
:10656A001F4F2F4F3F4F0093282310932923209327
:10657A002A2330932B237F906F905F904F9008953A
:00658A0011
:1062DC00B091E406B064B093E406B091E406BF7EDE
:1062EC00B093E406B0918806B5FD01C0FBCF10E079
:1062FC00103280F4E12FF0E0E20DF31D00813F92AB
:10630C002F92202E0E946E172F903F90012F0F5F1F
:10631C00102FEECFB091E406B061B093E40608956F
:00632C0071
:10632C00B091E406B064B093E406B091E406BF7E8D
:10633C00B093E406B0918806B5FD01C0FBCF0E9476
:0E634C006E17B091E406B061B093E4060895B8
:0A6F0C0005900D920197E1F708953A
:106F3C00A0E0B0E2E3E2F1E28BEE90E00E94863753
:026F4C000895A6
:1001F400000020007F00160001880100059E010018
:1002040006B401000ECA01000EF60100112202001C
:100214000F6402000390020006A6020006BC02005E
:1002240009D202000EFE0200032A03000640030066
:1002340003560300086C03000E82030004AE03009F
:100244000CC403000BF003000F1C04000C48040052
:100254000E7404000CA004000DCC04000DF804007E
:1002640003240500033A05000D5005000D7C05002C
:100274000DA805000DD40500120006000F4206006B
:100284000D6E06000C9A06000EC606000CF206005F
:100294000C1E07000E4A07000C76070004A2070094
:1002A40009B807000DE407000A100800103C080014
:1002B4000D6808000F9408000DC0080010EC080039
:1002C4000E1809000E4409000B7009000D9C09006A
:1002D4000EC8090015F409000D360A000C620A0064
:1002E4000D8E0A0006BA0A0008D00A0005E60A00C4
:1002F4000FFC0A000A280B0007540B000B6A0B00C2
:100304000B960B000AC20B000BEE0B000A1A0C0032
:1003140008460C000B5C0C000A880C0004B40C00AA
:1003240004CA0C000BE00C00040C0D000E220D009E
:100334000A4E0D000C7A0D000BA60D000BD20D0019
:1003440008FE0D000B140E0008400E000A560E00A5
:100354000B820E0011AE0E000AF00E000A1C0F00F4
:100364000A480F0008740F00068A0F0007A00F0048
:100374000DB60F000BE20F000000000000000000AB
:100384000000000000000000000000000000000069
:1003940000001C1C1C1C1C1C1C1C1C1C1C001C1CED
:1003A400000000000000000000363636363600003B
:1003B4000000000000000000000000000000000039
:1003C4000000C01CC00C600C600EFC3FFC1F32031C
:1003D4003003FE1FFF0F98018C01CC00CE000000FB
:1003E4000000000000000000000000008000F81F72
:1003F400FC1F9E008E008E009E00FC0FF81F8038AC
:1004040080388038803CFC1FFC0F80000000000016
:1004140000000000000000000000000000003E0892
:10042400007F0C006304006306006302007F030086
:100434003E010080F90080FD01808C01C08C0140E8
:100444008C0160FC0120F8000000000000000000A6
:10045400000000000000000000000000F803FC039E
:100464001E000E000E001E007C7E7C7E1E1C0E1CD8
:100474000E0E1E0FFC07F801000000000000000033
:10048400000000000006060606060000000000004A
:100494000000000000000000000038180C0C0C06DE
:1004A40006060606060C0C0C1838000000000000B6
:1004B4000E0C1818183030303030301818180C0E54
:1004C400000000000000000000003000B400FE0145
:1004D4007800FE01B40030000000000000000000BD
:1004E4000000000000000000000000000000000008
:1004F4000000000000000000000080018001800175
:1005040080018001FC3FFC3F80018001800180016B
:100514008001000000000000000000000000000056
:1005240000000000000000000000060604020000B5
:100534000000000000000000000000003F3F000039
:1005440000000000000000000000000000000000A7
:10055400000000000000060600000000000000008B
:10056400C04040602030101808080C040602020342
:1005740000000000000000000000F003FC0F1E1E3D
:100584000E1C0738073807380738073807380E1C99
:100594001E1EFC0FF003000000000000000000001D
:1005A40000000E0E0E0E0E0E0E0E0E0E0E0E0E0E83
:1005B400000000000000000000000000FF03FF072F
:1005C400000E000E000E000EFC07FE030F000700D5
:1005D40007000700FF0FFF0F0000000000000000ED
:1005E4000000000000000000FF01FF038007000777
:1005F40000078007FE03FE0380070007000780074B
:10060400FF03FF01000000000000000000000000E4
:1006140000000000001E001F801FC01FE01DF01C12
:10062400781C3C1C1E1CFE7FFE7F001C001C001C52
:1006340000000000000000000000000000000000B6
:10064400FF07FF070700070007000700FF03FF0776
:10065400000E000E000E000EFF07FF030000000056
:10066400000000000000000000000000E01FF81F70
:100674003C001C000E000E00FE0FFE1F0E380E384C
:100684001C383C3CF81FE00700000000000000009C
:100694000000000000000000FF0FFF0F000F000724
:1006A4008003C003C001E000F000780038003C0083
:1006B4001E000F0000000000000000000000000009
:1006C40000000000FC07FE0F0F1E071C071C0F1E76
:1006D400FE0FFE0F0F1E071C071C0F1EFE0FFC074C
:1006E4000000000000000000000000000000000006
:1006F400F801FE070F0F070E071C071CFE1FFC1F47
:10070400001C001C000E000FFE07FE01000000008C
:1007140000000000000000000000000000000006CF
:1007240006000000060600000000000000000000B3
:100734000000000000060600000006060402000097
:100744000000000000000000000000000000001095
:10075400001E800FE0037C001C007C00E003800F7F
:10076400001E001000000000000000000000000057
:100774000000000000000000000000000000FC1F5A
:10078400FC1F00000000FC1FFC1F00000000000014
:100794000000000000000000000000000000000055
:1007A40000000000000004003C00F800E003001F0B
:1007B400001C001FE003F8003C00040000000000DF
:1007C400000000000000000000000000FE07FE0F13
:1007D400001C001C001C001CF80FFC071E000E006F
:1007E4000E0000000E000E000000000000000000DB
:1007F400000000000000000000000000801F00E076
:100804007F0070E0003880019CB703CC1703C61842
:1008140003661803661803668C0166CC01E6FB00C8
:10082400CC79001C000078E000F03F00C00F00000D
:1008340000000000000000000000E001E003E0030D
:10084400F00330073807380E180EFC1FFC1F0E1C6F
:100854000E38063807780000000000000000000091
:10086400000000000000FE07FE0F0E1C0E1C0E1CF4
:100874000E1CFE0FFE0F0E1C0E1C0E1C0E1CFE0F7B
:10088400FE0700000000000000000000000000005F
:100894000000F00FF80F1C001C000E000E000E00EC
:1008A4000E000E000E000C001C00F80FF00F0000EC
:1008B4000000000000000000000000000000FE072F
:1008C400FE0F0E1C0E1C0E380E380E380E380E3865
:1008D4000E380E1C0E1CFE0FFE0700000000000068
:1008E40000000000000000000000F00FF80F1C00E2
:1008F4001C000E000E00FE0FFE0F0E000E000C007A
:100904001C00F80FF00F00000000000000000000C1
:10091400000000000000F00FFC0F1C000E000E0091
:100924000E00FE0FFE0F0E000E000E000E000E0055
:100934000E000000000000000000000000000000A5
:100944000000F03FF83F3C001C000E000E008E3FFC
:100954008E3F0E380E381C383C38F83FF03F00000C
:1009640000000000000000000000000000000E0E67
:100974000E0E0E0E0E0E0E0E0E0EFE0FFE0F0E0EB1
:100984000E0E0E0E0E0E0E0E0E0E000000000000D7
:100994000000000000000E0E0E0E0E0E0E0E0E0EC7
:1009A4000E0E0E0E0000000000000000000000000B
:1009B400C001C001C001C001C001C001C001C0012B
:1009C400C001C001C001E001FF007F000000000081
:1009D4000000000000000000000000000E1E0E0FCA
:1009E4008E078E03CE01EE00FE00FE00EE01CE0166
:1009F4008E038E070E0F0E1E000000000000000084
:100A040000000000000000000E000E000E000E00AA
:100A14000E000E000E000E000E000E000E001E0052
:100A2400FC03F803000000000000000000000000C8
:100A3400000000001EF03EF83EF83EF87EFC7EFC0E
:100A44006EEC6EEEEEEECEE6CEE6CEE78EE38EE311
:100A54000000000000000000000000000000000092
:100A64001E1C1E1C3E1C7E1C7E1CEE1CCE1CCE1DA1
:100A74008E1D8E1F0E1F0E1F0E1E0E1E0000000068
:100A8400000000000000000000000000E007F81F64
:100A94003C3C1C380E700E700E700E700E700E7092
:100AA4001C383C3CF81FE007000000000000000078
:100AB4000000000000000000FE07FE0F0E1E0E1CCA
:100AC4000E1C0E1C0E1EFE0FFE070E000E000E0066
:100AD4000E000E00000000000000000000000000F6
:100AE40000000000E007F81F3C3C1C380E700E703C
:100AF4000E700E700E700E701C783C3CF83FE0F7E0
:100B040000000000000000000000000000000000E1
:100B1400FE07FE0F0E1C0E1C0E1C0E1CFE0FFE0705
:100B24000E070E070E0E0E0E0E1C0E3C00000000EB
:100B3400000000000000000000000000F81FFC1F7F
:100B44001E000E000E000E00FC0FF81F00380038C7
:100B540000380038FC1FFC0F0000000000000000FB
:100B64000000000000000000FF07FF077000700095
:100B740070007000700070007000700070007000F1
:100B84007000700000000000000000000000000081
:100B9400000000000E1C0E1C0E1C0E1C0E1C0E1C55
:100BA4000E1C0E1C0E1C0E1C0E1C1E1EFC0FF00335
:100BB4000000000000000000000000000000000031
:100BC4000738071C071C0F1E0E0E1E0F1C071C07E0
:100BD400B803B803F803F001F001E00000000000DE
:100BE4000000000000000000000000000000000001
:100BF400070E1C070F1C061F0E0E1F0E0E1B0E8C5D
:100C04003B069C3B079C39079C3107F8F103F8F13C
:100C140003F8F103F0E001F0E0010000000000003F
:100C240000000000000000000000000000000F1E93
:100C34000E0F1C07BC03F803F001F000F001F001F3
:100C4400B803BC071C070E0F0F1E000000000000B5
:100C540000000000000000000000030F07078E03DF
:100C64008E03DC01F800F800700070007000700062
:100C74007000700070000000000000000000000020
:100C8400000000000000FE1FFE1F001E000F800772
:100C9400C003E001E001F00078003C001E00FE1FEC
