:100000000C9433460C9400000C9400000C940000F7
:100010000C9400000C9400000C9400000C94000060
:100020000C9400000C9400000C9400000C94000050
:100030000C9400000C9400000C9400000C94000040
:100040000C9400000C9400000C9400000C94000030
:100050000C9400000C9400000C9400000C94000020
:100060000C9400000C9400000C9400000C94000010
:100070000C9400000C9400000C9400000C94000000
:100080000C9400000C9400000C9400000C940000F0
:100090000C9400000C9400000C9400000C940000E0
:1000A0000C9400000C9400000C9400000C940000D0
:1000B0000C9400000C9400000C9400000C940000C0
:1000C0000C9400000C9400000C9400000C940000B0
:1000D0000C9400000C9400000C9400000C940000A0
:1000E0000C9400000C9400000C9400000C94000090
:1000F0000C9400000C9400000C9400000C94000080
:100100000C9400000C9400000C9400000C9400006F
:100110000C9400000C9400000C9400000C9400005F
:100120000C9400000C9400000C9400000C9400004F
:100130000C9400000C9400000C9400000C9400003F
:100140000C9400000C9400000C9400000C9400002F
:100150000C9400000C9400000C9400000C9400001F
:100160000C9400000C9400000C9400000C9400000F
:100170000C9400000C9400000C9400000C940000FF
:100180000C9400000C9400000C9400000C940000EF
:100190000C9400000C94000000000000000000001F
:1001A0000C9400000C9400000C9400000C940000CF
:1001B0000C9400000C9400000C9400000C940000BF
:1001C0000C9400000C9400000C9400000C940000AF
:1001D0000C9400000C9400000C9400000C9400009F
:1001E0000C9400000C9400000C9400000C9400008F
:0401F0000C9400006B
:108C6600BFEFBDBFBFE3BEBF0E94EE462F923F924D
:108C76004F925F926F927F922CDC75DCB09120064A
:108C8600BF77B0932006B0912406B068B09324064F
:108C9600B091E006BF7BB093E006B091E406B06405
:108CA600B093E4060091A40B0B7F0093A40BB7E6E8
:108CB600B093A60BB0E0B093A70B58DB22E010EA06
:108CC60003E90A95F1F71A95E1F72A95D1F700001D
:108CD600B9EF2B2EB0E23B2E37DCBBE46B2EB0E0B7
:108CE6007B2EBAE54B2EB0E05B2EBDE22B2EB1E219
:108CF6003B2E0E946A3B4424B3E03B2EB0E12B2E70
:108D0600C6DCB0914406B061B093440636DD00304F
:108D160009F047C0B9E66B2EB0E07B2EBAE54B2EC4
:108D2600B0E05B2EB7E02B2EB1E23B2E0E946A3BF1
:108D360044243324B0E12B2EAADCB0914406B06162
:108D4600B0934406B7E86B2EB0E07B2EBAE54B2E07
:108D5600B0E05B2EBFE12B2EB1E23B2E0E946A3BB8
:108D6600BFED2B2EB0E23B2EEFDBB4DC1BDD0BDFC1
:108D760044DFABDE7ADD8CDD27DBB4ED2B2EB0E2F3
:108D86003B2EE2DBB5EA6B2EB0E07B2EBAE54B2E2E
:108D9600B0E05B2EBBEC2B2EB0E23B2E0E946A3B72
:108DA60013C0B9E66B2EB0E07B2EBAE54B2EB0E0D1
:108DB6005B2EB7EB2B2EB0E23B2E0E946A3BB3E64E
:108DC6002B2EB0E23B2EC0DB7F906F905F904F90D2
:068DD6003F902F90FFCF3B
:1084D8002F923F924F925F92B2E0B0935000B091CA
:1084E8005100B1FD01C0FBCFB8EDB4BFB1E0B0930E
:1084F8004000E3D869DBB0EF4B2EB0E05B2EB0E470
:108508002B2EB1E03B2E0E943E3423EA17E503E010
:108518000A95F1F71A95E1F72A95D1F70000B0917D
:108528004006B061B0934006B0914406B061B09384
:0C85380044065F904F903F902F900895F4
:1076C20015E101EB0A95F1F71A95E1F700000000C8
:0276D200089519
:107BD000B0E0B0930A20B0930B20B0E0B09308203F
:027BE000089506
:10687C002F923F924F925F926F927F928F920E94D3
:10688C008A29013091F0B7EAB093F121BCE1B093C1
:10689C00F221BFEDB093ED21BCE1B093EE21B5EF49
:1068AC00B0930E22B8E2B0930F222092F7213092CF
:1068BC00F8214092F9215092FA212414350420F049
:1068CC00B0E0B093052003C0BAE5B0930520B1E069
:1068DC004B2E222433240E94832977248824662477
:1068EC005524332444242224B0E0BF93BF930E9448
:1068FC008D29ADB7BEB71296ADBFBEBF442455248B
:10690C00222433240E94A929B0E0B093FB21BFEFCD
:10691C00B09320070E94DB2ABAE4B0930C22B6E2B3
:10692C00B0930D228F907F906F905F904F903F901F
:04693C002F900895FB
:0653140000910A2008953B
:0E5306002092FE213092FF2140921022089545
:10531A00CF93DF93CDB7DEB7269608811981209205
:10532A00EA213092E2214092E3215092E4216092F4
:10533A00E5217092EB218092EC210093EF211093EA
:08534A00F021DF91CF910895DD
:105352002092E8213092E9214092E6215092E72101
:025362000895AC
:1055B6002F92B0910407BD7FB0930407B091000706
:1055C600B260B0930007B0910407B061B0930407CE
:1055D600B0910007B061B0930007B0910407B062C4
:1055E600B0930407B0910007B062B0930007B09182
:1055F6000007B460B0930007B0910007B860B0939D
:105606000007B0910407B460B0930407B091040793
:10561600B860B09304070E94551AB0910407B260AF
:10562600B09304070E94551A0E94551AB0910407B8
:10563600BF7DB0930407B1E02B2EE091F121F091EC
:10564600F22109950E94F91DB8E22B2EE091F12175
:10565600F091F2210995BFEC2B2EE091F121F0910A
:10566600F22109952224E091ED21F091EE21099590
:10567600B3E82B2EE091ED21F091EE210995B0E3F0
:105686002B2EE091ED21F091EE210995BDEE2B2E0A
:10569600E091F121F091F2210995B4E62B2EE091EB
:1056A600ED21F091EE210995B3E02B2EE091ED214D
:1056B600F091EE210995B2E12B2EE091ED21F091CA
:1056C600EE210995B1E82B2EE091ED21F091EE2126
:1056D6000995B8EE2B2EE091F121F091F221099572
:1056E600B5E82B2EE091ED21F091EE210995B1E080
:1056F6002B2EE091ED21F091EE210995B9E72B2EA5
:10570600E091ED21F091EE210995BBEC2B2EE09175
:10571600F121F091F2210995B9E32B2EE091ED21CB
:10572600F091EE210995BCE22B2EE091ED21F0914E
:10573600EE2109952224E091ED21F091EE210995C3
:10574600B4E32B2EE091ED21F091EE210995B2E024
:105756002B2EE091ED21F091EE210995B7EF2B2E3E
:10576600E091F121F091F2210995B0E22B2EE09122
:10577600ED21F091EE210995BAEE2B2EE091F12163
:10578600F091F22109952224E091ED21F091EE218C
:1057960009952224E091ED21F091EE210995B0ECD6
:1057A6002B2EE091F121F091F2210995B6E22B2EF4
:1057B600E091ED21F091EE210995B1EC2B2EE091CF
:1057C600F121F091F2210995B1E12B2EE091ED2125
:1057D600F091EE210995B5EC2B2EE091F121F09197
:1057E600F2210995B5E32B2EE091ED21F091EE2102
:1057F6000995BEE32B2EE091ED21F091EE2109955E
:10580600B7EC2B2EE091F121F091F2210995BEEB38
:105816002B2EE091ED21F091EE210995B6E32B2E8A
:10582600E091F121F091F2210995009105200A35C8
:10583600A1F40E94F61D002341F0B8E82B2EE0915A
:10584600ED21F091EE21099507C0B8E42B2EE091E9
:10585600ED21F091EE21099513C00E94F61D00235B
:1058660041F0B8EE2B2EE091ED21F091EE21099555
:1058760007C0B8E22B2EE091ED21F091EE210995BB
:10588600BAE32B2EE091F121F091F2210995B5E5CD
:105896002B2EE091ED21F091EE210995B1EB2B2E07
:1058A600E091F121F091F22109952224E091ED2178
:1058B600F091EE210995BBE12B2EE091ED21F091BF
:1058C600EE210995B2EF2B2EE091F121F091F22114
:1058D6000995B8E02B2EE091ED21F091EE21099586
:1058E600B6E22B2EE091F121F091F2210995B1E07B
:1058F6002B2EE091ED21F091EE210995B0EE2B2EA5
:10590600E091F121F091F2210995BFE12B2EE09172
:10591600ED21F091EE210995BAE12B2EE091ED21D2
:10592600F091EE210995B8E12B2EE091ED21F09151
:10593600EE210995BAE02B2EE091ED21F091EE21B2
:105946000995BFE02B2EE091ED21F091EE2109950E
:10595600B6E02B2EE091ED21F091EE210995B5E40C
:105966002B2EE091ED21F091EE210995B7E82B2E33
:10597600E091ED21F091EE210995B2E32B2EE09115
:10598600ED21F091EE210995BAE02B2EE091ED2163
:10599600F091EE210995B7E02B2EE091ED21F091E3
:1059A600EE210995B2E02B2EE091ED21F091EE214A
:1059B6000995B7E02B2EE091ED21F091EE210995A6
:1059C600B5E02B2EE091ED21F091EE2109952224F0
:1059D600E091ED21F091EE210995B1EE2B2EE091AB
:1059E600F121F091F22109952224E091ED21F09127
:1059F600EE210995B5E22B2EE091ED21F091EE21F5
:105A06000995B7E22B2EE091ED21F091EE21099553
:105A1600B5E02B2EE091ED21F091EE210995B0E154
:105A26002B2EE091ED21F091EE210995B9E02B2E78
:105A3600E091ED21F091EE210995BAE32B2EE0914C
:105A4600ED21F091EE210995B8E72B2EE091ED219D
:105A5600F091EE210995BDE42B2EE091ED21F09118
:105A6600EE210995B5E02B2EE091ED21F091EE2186
:105A76000995B8E12B2EE091ED21F091EE210995E3
:105A8600BDE02B2EE091ED21F091EE210995B8E3D2
:105A96002B2EE091ED21F091EE210995BAE32B2E04
:105AA600E091ED21F091EE210995BFE12B2EE091D9
:105AB600ED21F091EE210995BAE22B2EE091F1212C
:105AC600F091F22109952224E091ED21F091EE2149
:105AD60009952224E091ED21F091EE21099500919E
:105AE600F7211091F82101501040012F10E0202ECF
:105AF600E091ED21F091EE2109950091F7210150F9
:105B0600202EE091ED21F091EE210995BBE22B2E9E
:105B1600E091F121F091F22109952224E091ED2105
:105B2600F091EE2109952224E091ED21F091EE21EC
:105B360009950091F9211091FA2101501040012F89
:105B460010E0202EE091ED21F091EE2109950091D3
:105B5600F9210150202EE091ED21F091EE210995D9
:105B6600B7EB2B2EE091F121F091F2210995B7E0E8
:105B76002B2EE091ED21F091EE210995B6EB2B2E1F
:105B8600E091F121F091F2210995BAE02B2EE091F6
:105B9600ED21F091EE210995B2E82B2EE091ED2151
:105BA600F091EE210995B7E22B2EE091ED21F091CF
:105BB600EE2109952224E091ED21F091EE2109953F
:105BC600B1E12B2EE091F121F091F22109950E948D
:105BD600551AB9E22B2EE091F121F091F2210995A7
:105BE6000E94551ABCE22B2EE091F121F091F22190
:105BF6000995B0910407B062B09304072F900895F9
:005C06009E
:1034AA0021E11CE30CEC0A95F1F71A95E1F72A954C
:0434BA00D1F70895A9
:103080002092C308B091C208B7FD01C0FBCF0895DC
:0030900040
:103A8E002092C309B091C209B7FD01C0FBCF0895C2
:003A9E0028
:103A9E002092C30AB091C20AB7FD01C0FBCF0895B0
:003AAE0018
:103B70002092C30BB091C20BB7FD01C0FBCF0895DB
:003B800045
:103BCA00B091A108B5FD01C0FBCFB091A108B6FF25
:103BDA0005C0B091A108B064B093A1082092A008D2
:023BEA0008953C
:103A0600B091B108B5FD01C0FBCFB091B108B6FFCA
:103A160005C0B091B108B064B093B1082092B00867
:023A2600089501
:1039E400B091A109B5FD01C0FBCFB091A109B6FF0B
:1039F40005C0B091A109B064B093A1092092A009B7
:023A0400089523
:103A2800B091B109B5FD01C0FBCFB091B109B6FFA6
:103A380005C0B091B109B064B093B1092092B00942
:023A48000895DF
:103A6C00B091A10AB5FD01C0FBCFB091A10AB6FF80
:103A7C0005C0B091A10AB064B093A10A2092A00A2B
:023A8C0008959B
:103A4A00B091B10AB5FD01C0FBCFB091B10AB6FF82
:103A5A0005C0B091B10AB064B093B10A2092B00A1D
:023A6A000895BD
:10392C00B091A10BB5FD01C0FBCFB091A10BB6FFBF
:10393C0005C0B091A10BB064B093A10B2092A00B69
:02394C000895DC
:10390A00B091B10BB5FD01C0FBCFB091B10BB6FFC1
:10391A0005C0B091B10BB064B093B10B2092B00B5B
:02392A000895FE
:10394E00B0910407BF7EB093040720922407B09174
:10395E000407B77FB09304070000B0910407B86066
:06396E00B0930407089568
:1039BE00B0910407B061B093040720922407B09130
:1039CE000407B77FB09304070000B0910407B860F6
:0639DE00B09304070895F8
:103974000E9489140E948914B0910407BF7DB093FA
:103984000407B0910407B460B0930407B09104072E
:10399400BF7EB093040720922407B0910407B77F39
:1039A400B0930407B0910407B860B0930407B091D2
:0A39B4000407B062B0930407089501
:0C2912000AE00A95F1F7000000000895AB
:103B8000B0910407BF7DB0930407B0910407B460FF
:103B9000B0930407B0910407B061B093040720927A
:103BA0002407B0910407B77FB0930407B0910407CE
:103BB000B860B0930407B0910407B062B0930407F3
:0A3BC0000E9489140E9489140895E0
:103BF20010ED0AEC0A95F1F71A95E1F70000089525
:003C0200C2
:063BEC000091062008957F
:10856C002F923F924F925F926F927F928F929F9237
:10857C00BFEF2B2E3B2E4BDBB1E04B2E22243324B2
:10858C000E948329BCED8B2EB0E09B2EBCE26B2E9F
:10859C00B1E07B2EBCED4B2EB0E05B2EB4E12B2E6C
:1085AC00B0E03B2E50D9BEE28B2EB0E09B2EBCE24D
:1085BC006B2EB1E07B2EBEE24B2EB0E05B2EB4E115
:1085CC002B2EB0E03B2E3FD98824B0E06B2EB8EFB9
:1085DC007B2EB4EF2B2EB1E03B2EB0E04B2E542C67
:1085EC00D9D8BEE06B2EB0E07B2EBBE44B2EB0E0B6
:1085FC005B2EBEE42B2EB0E23B2E66D8882466247C
:10860C007724BAE72B2EBAE13B2EB0E04B2E542C3C
:10861C00C1D8BFED6B2EB0E07B2EB3E14B2EB0E09A
:10862C005B2EB6E82B2EB0E23B2E4ED88824B0E061
:10863C006B2EB8EF7B2EBAE72B2EBAE13B2EB0E0B7
:10864C004B2E542CA7D8BFED6B2EB0E07B2EB8EC84
:10865C004B2EB0E05B2EB7E72B2EB0E23B2E34D87E
:10866C00882466247724B2E02B2EB2E13B2EB0E0B6
:10867C004B2E542C8FD89F908F907F906F905F9043
:08868C004F903F902F900895DC
:107C1A004F925F926F927F928F929F92B0910407D8
:107C2A00BF7DB09304070E94032E0023E1F0209148
:107C3A00F9213091FA21215030400091F721109119
:107C4A00F821015010403F922F92490138014424F3
:107C5A00552422243324E091FC21F091FD21099539
:107C6A002F903F900DC03F922F92442455242224F6
:107C7A003324E0910C22F0910D2209952F903F9028
:107C8A0020E030E00091F9211091FA212017310704
:107C9A0028F500E010E0A8010091F7211091F821E1
:107CAA0040175107B0F43F932F935F934F933F923E
:107CBA002F92E0910E22F0910F2209952F903F907A
:107CCA004F915F912F913F918A010F5F1F4FA8013A
:107CDA00E3CF89010F5F1F4F9801D4CFB0910407FA
:107CEA00B062B09304079F908F907F906F905F90DF
:047CFA004F9008950A
:065C060000910720089543
:10536400CF93DF93CDB7DEB72897CDBFDEBF2196AD
:105374002F923F922091F7213091F82100EE11E015
:105384000217130750F02091F9213091FA2100EE11
:1053940011E00217130708F005C060E273E040EE65
:1053A40051E004C060EE71E040E151E0009105205D
:1053B4000A3541F50E94F61D002391F09B0121500E
:1053C40030408901081919090883198389010419CE
:1053D40015090A831B832C823D826E827F8211C051
:1053E400488259828A829B829A01215030408901E5
:1053F400061917090C831D838901021913090E83E9
:105404001F8327C00E94F61D0023D9F09B01215061
:105414003040890106191709088319838901021983
:1054240013090A831B839A0121503040890108190A
:1054340019090C831D838901041915090E831F831F
:1054440008C0288239826A827B824C825D828E8285
:105454009F82BAE22B2EE091F121F091F22109957D
:1054640008811981012F10E0202EE091ED21F091A7
:10547400EE2109952880E091ED21F091EE21099526
:105484000A811B81012F10E0202EE091ED21F09183
:10549400EE2109952A80E091ED21F091EE21099504
:1054A400BBE22B2EE091F121F091F22109950C81C0
:1054B4001D81012F10E0202EE091ED21F091EE21CD
:1054C40009952C80E091ED21F091EE2109950E8152
:1054D4001F81012F10E0202EE091ED21F091EE21AB
:1054E40009952E80E091ED21F091EE210995BCE221
:1054F4002B2EE091F121F091F22109953F902F900C
:0C5504002796CDBFDEBFDF91CF91089548
:105510002F923F925F924F923F922F92B2E02B2EAA
:10552000E091F121F091F22109952F903F90032D08
:1055300010E03F922F92202EE091ED21F091EE218C
:105540000995B3E02B2EE091F121F091F22109951C
:105550002F903F90E091ED21F091EE210995B6E07A
:105560002B2EE091F121F091F22109954F905F905F
:10557000052D10E05F924F92202EE091ED21F091E9
:10558000EE210995B7E02B2EE091F121F091F22167
:1055900009954F905F90242CE091ED21F091EE2140
:1055A0000995B2E22B2EE091F121F091F2210995BB
:0655B0003F902F900895CA
:104DA800CF93DF93CDB7DEB72497CDBFDEBF219673
:104DB8002F923F92288239824A825B82BAE22B2E56
:104DC800E091F121F091F22109958E01F8013196D7
:104DD8000081202EE091ED21F091EE2109952880A7
:104DE800E091ED21F091EE210995BBE22B2EE091A7
:104DF800F121F091F22109958E010E5F1F4FF80104
:104E080031960081202EE091ED21F091EE21099557
:104E18002A80E091ED21F091EE210995BCE22B2E3C
:104E2800E091F121F091F22109953F902F9023967E
:0A4E3800CDBFDEBFDF91CF910895DA
:104E42002F923F925F924F923F922F92BAE22B2E75
:104E5200E091F121F091F22109952F903F90032DDD
:104E620010E03F922F92202EE091ED21F091EE2161
:104E720009952F903F90E091ED21F091EE21099557
:104E8200BBE22B2EE091F121F091F22109954F9096
:104E92005F90052D10E05F924F92202EE091ED2160
:104EA200F091EE2109954F905F90242CE091ED2135
:104EB200F091EE210995BCE22B2EE091F121F091C7
:0A4EC200F22109953F902F9008950A
:104C94002F923F925F924F923F922F92BAE22B2E25
:104CA400E091F121F091F22109952F903F90032D8D
:104CB40010E03F922F92202EE091ED21F091EE2111
:104CC40009952F903F90E091ED21F091EE21099507
:104CD400BBE22B2EE091F121F091F22109954F9046
:104CE4005F90052D10E05F924F92202EE091ED2110
:104CF400F091EE2109954F905F90242CE091ED21E5
:104D0400F091EE210995BCE22B2EE091F121F09176
:0A4D1400F22109953F902F900895B9
:104D1E002F923F925F924F923F922F92BAE22B2E9A
:104D2E00E091F121F091F22109952F903F90032D02
:104D3E0010E03F922F92202EE091ED21F091EE2186
:104D4E0009952F903F90E091ED21F091EE2109957C
:104D5E00BBE22B2EE091F121F091F22109954F90BB
:104D6E005F90052D10E05F924F92202EE091ED2185
:104D7E00F091EE2109954F905F90242CE091ED215A
:104D8E00F091EE210995BCE22B2EE091F121F091EC
:0A4D9E00F22109953F902F9008952F
:1051EA00CF93DF93CDB7DEB72297CDBFDEBF21962F
:1051FA0028823982B0910407B061B09304078E0106
:10520A00F8013196008100932407B0910407B77F13
:10521A00B09304070000B0910407B860B093040784
:10522A00FE01008100932407B0910407B77FB09371
:10523A0004070000B0910407B860B09304072196F0
:0A524A00CDBFDEBFDF91CF910895C4
:105254002F923F92BBE0810116950795BA95E1F72D
:10526400102F012F000F000F000F102FB7E0012F98
:105274000695BA95E9F7013029F4012F095F102F3B
:10528400012F01C0012F3F922F92202E0E94C01D9A
:105294002F903F90B5E0810116950795BA95E1F7F7
:1052A400102F012F000F000F102FB7E0012F0695CC
:1052B400BA95E9F7013029F4012F0D5F102F012F62
:1052C40001C0012F3F922F92202E0E94C01D2F90CB
:1052D4003F90022D000F000F000F102FB7E0012F99
:1052E4000695BA95E9F7013029F4012F095F102FCB
:1052F400012F01C0012F202E0E94C01D3F902F902E
:0253040008950A
:10785200CF93DF93CDB7DEB76397CDBFDEBF21965F
:107862002F923F924F925F926F927F925F924F92CE
:107872003F922F92240113010E94A9292F903F9039
:107882004F905F902614370431F431011201240124
:107892000E94662790C14814590441F47F926F9266
:1078A20032014F905F900E94F72785C1B0E0BA87FE
:1078B200BB879301221933092883398300E010E042
:1078C200201731077CF40880198000E010E00019CD
:1078D2001109088319830A851B85015010400A8704
:1078E2001B8706C00A851B850F5F1F4F0A871B87F0
:1078F200B0E0BC87BD879401241935092A833B83F4
:1079020000E010E0201731077CF40A801B8000E0C1
:1079120010E0001911090A831B830C851D85015093
:1079220010400C871D8706C00C851D850F5F1F4FF9
:107932000C871D87B0E0BE87BF87288139810A8105
:107942001B81201731070CF057C00E851F850F5F72
:107952001F4F0E871F87288139810A811B81088367
:1079620019832A833B838101120128012A853B85E1
:107972000C851D850A871B872C873D87B1E0B88B54
:107982001889009110220117B0F10889098BB0E023
:10799200BA8B09891A8901701070103009F400300D
:1079A20041F409881A8800E010E000191109098BD6
:1079B2001A8B09891A8915950795040D151D9F9231
:1079C2008F927F926F925F924F923F922F9260902E
:1079D200FE217090FF21210118010E940E172F90A5
:1079E2003F904F905F906F907F908F909F9008890B
:1079F2000F5F088BC5CF3CC0B1E0B88B18890091EE
:107A020010220117A8F10889098BB0E0BA8B098905
:107A12001A8901701070103009F4003041F409889D
:107A22001A8800E010E000191109098B1A8B0989E4
:107A32001A8915950795040D151D9F928F927F92B5
:107A42006F925F924F923F922F926090FE217090C0
:107A5200FF2128010E940E172F903F904F905F90B8
:107A62006F907F908F909F9008890F5F088BC6CF91
:107A720008811981000F111F088719870A811B814C
:107A8200000F111F0E831F8308801980001911092E
:107A92000C831D832881398121503040288339830A
:107AA20000E010E0201731070CF485C02C813D81E5
:107AB20000E010E0201731076CF00C851D85040DE5
:107AC200151D2801088419840C811D8100191109D2
:107AD2000C831D830A851B85020D131D18012C8141
:107AE2003D810E811F81020F131F0C831D83B1E0A4
:107AF200B88B188900911022011708F45BC008891D
:107B0200098BB0E0BA8B09891A89017010701030A4
:107B120009F4003041F409881A8800E010E00019E5
:107B22001109098B1A8B09891A8915950795098BF1
:107B32001A8B0E851F85B02FB12BE9F009891A899E
:107B4200040D151D9F928F927F926F925F924F92BA
:107B52003F922F926090FE217090FF212101180127
:107B62000E940E172F903F904F905F906F907F90E2
:107B72008F909F901BC009891A89040D151D9F9231
:107B82008F927F926F925F924F923F922F9260906C
:107B9200FE217090FF2128010E940E172F903F9026
:107BA2004F905F906F907F908F909F9008890F5FAA
:107BB200088B9FCF6FCF7F906F905F904F903F90D9
:0E7BC2002F906296CDBFDEBFDF91CF91089568
:104ECC00421453041CF481011201280100E010E08B
:104EDC00201631061CF42224332408C00091F92139
:104EEC001091FA212016310608F07AC000E010E08B
:104EFC00401651060CF474C00091F9211091FA215E
:104F0C004016510638F00091F9211091FA21015008
:104F1C001040280141E000911022041708F460C0F1
:104F2C00242F30E0890101701070103009F400302A
:104F3C0031F400E010E0021B130B980100C0890152
:104F4C0015950795502F612F9801260D371D00E000
:104F5C0010E02017310764F0252F362F260D371D52
:104F6C000091F7211091F8212017310708F402C0A5
:104F7C00142F32C08101252F362F502F612F45164B
:104F8C00560648F18901060D171D4F933F932F9339
:104F9C006F935F937F926F925F924F923F922F929B
:104FAC006090FE217090FF21452E562E18010E9414
:104FBC000E172F903F904F905F906F907F905F9166
:104FCC006F912F913F914F91052F162F0F5F1F4F10
:104FDC00502F612FD4CF142F012F0F5F402F9BCF59
:024FEC00089526
:102E1C002F923F928F929F9200E010E02016310685
:102E2C0044F00091F7211091F8212016310608F496
:102E3C0001C037C000E010E04016510644F000918C
:102E4C00F9211091FA214016510608F401C029C04D
:102E5C00B0910407BF7DB09304070E94032E00239A
:102E6C0061F07F926F9242013101E091FC21F0916F
:102E7C00FD2109956F907F9009C07F926F92E09130
:102E8C000C22F0910D2209956F907F901301E09127
:102E9C000E22F0910F220995B0910407B062B09305
:0C2EAC0004079F908F903F902F90089596
:104FEE00CF93DF93CDB7DEB72197CDBFDEBF21962E
:104FFE008F929F92421453041CF4810112012801D6
:10500E0000E010E0201631061CF42224332408C0E0
:10501E000091F7211091F8212016310608F0D7C023
:10502E0000E010E0401651060CF4D1C00091F721BB
:10503E001091F8214016510638F00091F721109189
:10504E00F821015010402801B1E0B8831881009179
:10505E001022011708F4BBC0288130E089010170CD
:10506E001070103009F4003039F400E010E0021B2B
:10507E00130BA8019A0100C0890115950795A80187
:10508E009801260D371D00E010E0201731075CF067
:10509E009A01260D371D0091F9211091FA21201742
:1050AE00310708F401C08FC000910820003009F0CC
:1050BE0063C0B0910407BF7DB09304079DD5002354
:1050CE00C1F08A01060D171D7F926F925F924F926B
:1050DE003F922F92480132012801E091FC21F0917C
:1050EE00FD2109952F903F904F905F906F907F908C
:1050FE0015C08A01060D171D7F926F925F924F9217
:10510E003F922F922801E0910C22F0910D220995E9
:10511E002F903F904F905F906F907F90522D632D08
:10512E00252F362F4216530608F13F932F937F9269
:10513E006F925F924F923F922F922090FE2130906D
:10514E00FF21E0910E22F0910F2209952F903F90B2
:10515E004F905F906F907F902F913F9189010F5FDD
:10516E001F4F502F612F252F362FDCCFB091040704
:10517E00B062B093040727C0522D632D252F362F12
:10518E004216530600F13F932F937F926F925F92D8
:10519E004F923F922F9223016090FE217090FF213B
:1051AE0019010E940E172F903F904F905F906F90B5
:1051BE007F902F913F9189010F5F1F4F502F612FCD
:1051CE00252F362FDDCF08810F5F08833FCF9F90AD
:0C51DE008F90CDBFDEBFDF91CF91089510
:1077A0002092692130926A2140926B2150926C2183
:1077B000810192010E5F1F4F2F4F3F4F2BBFF801EA
:1077C0004691810192010D5F1F4F2F4F3F4F2BBFFD
:1077D000F8010691102F0027040FB0E01B1F009343
:1077E0006D2110936E21810192010C5F1F4F2F4F6D
:1077F0003F4F2BBFF8014691810192010B5F1F4F54
:107800002F4F3F4F2BBFF8010691102F0027040F79
:10781000B0E01B1F00936F21109370218101920132
:107820000A5F1F4F2F4F3F4F2BBFF8010691009368
:107830006421B0E0B0936521609266217092672167
:1078400080926821B1E0B0930920B0E0B093FB21B1
:02785000089599
:1076D4004F925F920091F7211091F82140165106C4
:1076E40008F059C00091F9211091FA216016710631
:1076F40008F051C020E030E03F922F9212012301A4
:107704000E94A9292F903F90F901E20DF31D0081F9
:10771400002309F440C00091FB210023F1F0F9019A
:10772400E20DF31D00813F932F937F926F925F923E
:107734004F923F922F92202EB0E03B2E0E94BE30FB
:107744002F903F904F905F906F907F902F913F913B
:1077540089010F5F1F4F98011DC0F901E20DF31D50
:1077640000813F932F937F926F925F924F923F924B
:107774002F92202EB0E03B2E0E94D12E2F903F90CE
:107784004F905F906F907F902F913F9189010F5F91
:0C7794001F4F9801B9CF5F904F900895EF
:10617C00CF93DF93CDB7DEB76797CDBFDEBF219648
:10618C002F923F924F925F926F927F928F929F923B
:10619C00B0E0BC8BBD8BB0E0BE8B00916D2110913B
:1061AC006E212016310608F411C200916F21109156
:1061BC0070210215130508F409C200906D2110908E
:1061CC006E21810100191109A801440F551F440FBC
:1061DC00551F0091F3211091F4212091F52130915C
:1061EC00F621085F1F4F2F4F3F4F040F151FB0E0D4
:1061FC002B1F3B1FB4E06B2EB0E07B2E1801290146
:10620C000E94271CB0E0B98BB2E2BA8BE989FA89FB
:10621C00A081AB8B89899A89FC0131960081402F32
:10622C0050E0652F752FFC013296008110E0212F74
:10623C00312F322F212F102F0027400F511F621F9B
:10624C00731FFC013396008110E0212F312F312F69
:10625C00202F00271127400F511F621F731F009121
:10626C00F3211091F4212091F5213091F621040FA6
:10627C00151F261F371F0D831E832F8338870A2F68
:10628C0006950695069510E0409164215091652184
:10629C000E941F1C0B871C870B890770002351F071
:1062AC002B853C850091642110916521020F131FF1
:1062BC000B871C870B851C850F87188B8E01075F3E
:1062CC001F4F48016B847C842D803E804F80588406
:1062DC00E0910A22F0910B220995098B1A8B4D81C2
:1062EC005E816F81788509851A8520E0322F040F35
:1062FC00151F261F371F0D831E832F833887098494
:10630C001A840B851C85001911090B871C87B0E0BA
:10631C00BD87BE8700916821003009F0ACC00091A8
:10632C00E6211091E7210A831B83B0E0B983098130
:10633C00209164213091652110E00217130708F0B9
:10634C0091C00091E8211091E9210C8B1D8BB0E0DC
:10635C00BC83B0E0B88318810B89101708F078C0A3
:10636C000C81003009F055C00D851E850F5F1F4F45
:10637C000D871E8729853A850F85188920173107C7
:10638C00E0F52D853E8509851A8502171307A8F5BA
:10639C00B1E0BD87B0E0BE878E01075F1F4F3F9213
:1063AC002F9248016B847C842D803E804F805884D2
:1063BC00E0910A22F0910B2209952F903F90098BC6
:1063CC001A8B0B851C850F87188B4D815E816F8115
:1063DC00788509851A8520E0322F040F151F261F9A
:1063EC00371F0D831E832F83388709841A840B85EE
:1063FC001C85001911090B871C87E989FA89008112
:10640C000E8B09891A890F5F1F4F098B1A8BB1E00C
:10641C00BC831E890C81012371F03F922F926090F6
:10642C006621709067214A805B802C883D880E9491
:10643C000E172F903F900C891D890F5F1F4F0C8BEF
:10644C001D8B0C81000F0C8308810F5F088383CF99
:10645C000A811B810F5F1F4F0A831B8309810F5F0A
:10646C00098365CF0C891D890F5F1F4F0093E821AD
:10647C001093E921ABC00091E8211091E9210A8326
:10648C001B83B0E0B983098120916421309165218F
:10649C0010E00217130708F091C00091E62110914B
:1064AC00E7210C8B1D8BB0E0BC83B0E0B883188166
:1064BC000B89101708F078C00C81003009F055C01A
:1064CC000D851E850F5F1F4F0D871E8729853A8509
:1064DC000F85188920173107E0F52D853E85098534
:1064EC001A8502171307A8F5B1E0BD87B0E0BE8787
:1064FC008E01075F1F4F3F922F9248016B847C8463
:10650C002D803E804F805884E0910A22F0910B221E
:10651C0009952F903F90098B1A8B0B851C850F8743
:10652C00188B4D815E816F81788509851A8520E0F5
:10653C00322F040F151F261F371F0D831E832F8329
:10654C00388709841A840B851C85001911090B875F
:10655C001C87E989FA8900810E8B09891A890F5FDA
:10656C001F4F098B1A8BB1E0BC831E890C81012350
:10657C0071F03F922F9260906621709067214C8849
:10658C005D882A803B800E940E172F903F900C89CB
:10659C001D89015010400C8B1D8B0C81000F0C833E
:1065AC0008810F5F088383CF0A811B810F5F1F4F08
:1065BC000A831B8309810F5F098365CF0C891D89B1
:1065CC00015010400093E6211093E7219F908F908B
:1065DC007F906F905F904F903F902F906696CDBFBD
:0865EC00DEBFDF91CF9108959D
:10384E00CF93DF93CDB7DEB72497CDBFDEBF2196E2
:10385E008F929F92B0E0BA83B2E2BB8300E010E099
:10386E000615170508F042C08E017F926F925F9287
:10387E004F923F922F924801E0910A22F0910B2233
:10388E0009952F903F904F905F906F907F90B80169
:10389E0020E030E0AB010881198120173107A8F430
:1038AE00FA010081EA81FB8100830A811B810F5F8F
:1038BE001F4F0A831B838A010F5F1F4FB8018901B7
:1038CE000F5F1F4FAB019801E6CF0880198083016F
:1038DE000019110938010881198120E0322F020DDB
:1038EE00131D241D351D18012901B8CF9F908F90EF
:0C38FE002396CDBFDEBFDF91CF9108956F
:10383E009801249F8001259F100D349F100D08952F
:00384E007A
:105DA200CF93DF93CDB7DEB72B97CDBFDEBF219662
:105DB2004F925F926F927F928F92B0E0B887B987CD
:105DC200B0E0BA8700910920003091F402E012E1BC
:105DD2003F922F928824662477241801B0E04B2E3C
:105DE200542C0E94D03B2F903F90B1E0B0930920F9
:105DF20000916D2110916E212016310608F43FC1E9
:105E020000916F21109170210215130508F437C11A
:105E120000906D2110906E21810100191109A801D5
:105E2200440F551F440F551F8090692190906A219D
:105E3200A0906B21B0906C2184019501085F1F4FE7
:105E42002F4F3F4F2A01B0E06B2E762C400E511E91
:105E5200621E731E6BBEF20106910F8382019301D3
:105E62000F5F1F4F2F4F3F4F2BBFF8010691402F5F
:105E720050E0652F752F820193010E5F1F4F2F4F48
:105E82003F4F2BBFF801069110E0212F312F322F07
:105E9200212F102F0027400F511F621F731F8201F5
:105EA20093010D5F1F4F2F4F3F4F2BBFF8010691FC
:105EB20010E0212F312F312F202F00271127040F1F
:105EC200151F261F371F080D191D2A1D3B1D0B8389
:105ED2001C832D833E8300916821003009F068C045
:105EE2006091E6217091E721B0E0B98309812091A8
:105EF20064213091652110E00217130708F04FC0AA
:105F02000091E8211091E92108871987B0E0BA834E
:105F1200B0E0B88318810F811017C8F50A810030EC
:105F2200A1F40D810BBFEB81FC8106910A870B81E5
:105F32001C812D813E810F5F1F4F2F4F3F4F0B83DF
:105F42001C832D833E83B1E0BA831A850A81012323
:105F520089F07F936F933F922F92609066217090A9
:105F620067212B01288439840E940E172F903F90BD
:105F72006F917F91088519850F5F1F4F08871987D9
:105F82000A81000F0A8308810F5F0883C3CF8B0148
:105F92000F5F1F4FB80109810F5F0983A7CF0885E3
:105FA20019850F5F1F4F0093E8211093E92167C005
:105FB2006091E8217091E921B0E0B98309812091D3
:105FC20064213091652110E00217130708F04FC0D9
:105FD2000091E6211091E72108871987B0E0BA8382
:105FE200B0E0B88318810F811017C8F50A8100301C
:105FF200A1F40D810BBFEB81FC8106910A870B8115
:106002001C812D813E810F5F1F4F2F4F3F4F0B830E
:106012001C832D833E83B1E0BA831A850A81012352
:1060220089F07F936F933F922F92609066217090D8
:106032006721488459841B010E940E172F903F90BC
:106042006F917F9108851985015010400887198743
:106052000A81000F0A8308810F5F0883C3CF8B0177
:106062000F5F1F4FB80109810F5F0983A7CF088512
:106072001985015010400093E6211093E7218F907B
:106082007F906F905F904F902A96CDBFDEBFDF91D9
:04609200CF9108950D
:10854E002F923F920E948F3ABDE02B2E0E94961CD6
:0E855E00BAE02B2E0E94961C3F902F9008959D
:10751E0010E0F1010081202F022F003081F03F9208
:10752E002F92202E0E94961C2F903F90012F0F5FBE
:10753E00102FE02FF0E0E20DF31D0081EECF089545
:00754E003D
:10869400BEE9B0931426BAE1B0931526B0E4B093C2
:1086A4006221B8E1B0936321B0EBB0934106B0E42A
:1086B400B0934206B0E0B093C108032D03700429BF
:1086C400022900640093C00832FAB091C008B7F9D7
:0686D400B093C0080895F8
:1087800020E02F9343DD2F91122F1F5F212F002315
:1087900019F0223308F4F5CF223310F00FEF04C0A4
:0A87A0000E94CD370E943F39089572
:10820C00CF93DF93CDB7DEB72197CDBFDEBF2196DD
:10821C002F923F924F925F926F927F92B5E0B09304
:10822C00DE20B091A006B062B093A0060E94C22ED0
:10823C0020E030E0303009F42A3080F43F932F9363
:10824C00BFEF2B2EE0911426F091152609952F9156
:10825C003F9189010F5F1F4F9801ECCF0E94062EB2
:10826C00B5E97B2E332444245524662422240E9411
:10827C004B3008830E94C22E0881013011F001E0BE
:10828C0067C00E94062EB7E87B2EBAEA3B2EB1E0FF
:10829C004B2EB0E05B2E6B2EB8E02B2E0E944B3099
:1082AC000883BFEF2B2EE0911426F091152609952B
:1082BC00BFEF2B2EE0911426F09115260995BFEFF8
:1082CC002B2EE0911426F09115260995BFEF2B2E3D
:1082DC00E0911426F091152609950E94C22E088172
:1082EC00013051F0B1E02B2E0E940C2E002319F01E
:1082FC0022240E940C2E04C0B2E02B2E0E940C2EC5
:10830C000091DE2010E0103009F4053011F402E089
:10831C001FC00091DE2010E0103009F40430B9F0D9
:10832C000E94062EBFEF7B2EB0E03B2EB2E04B2E10
:10833C00B0E05B2E6B2EB0E12B2E0E944B300883ED
:10834C000E94C22E0881003011F003E001C000E051
:10835C007F906F905F904F903F902F90CDBFDEBF7E
:06836C00DF91CF9108959E
:105D84002F92B091A406B062B093A406BFEF2B2E5D
:0E5D9400E0911426F091152609952F900895A0
:10353C002092C308B091C208B7FD01C0FBCF009127
:04354C00C308089513
:1034D2002092C309B091C209B7FD01C0FBCF009190
:0434E200C30908957D
:1035F4002092C30AB091C20AB7FD01C0FBCF00916B
:04360400C30A089558
:1034BE002092C30BB091C20BB7FD01C0FBCF0091A0
:0434CE00C30B08958F
:0C5C0C00B091A406BF7DB093A4060895DB
:10609600CF93DF93CDB7DEB72497CDBFDEBF219672
:1060A6002F92388249825A826B82022D005C7F923F
:1060B600202EE0911426F091152609958E01F801FF
:1060C60033960081202EE0911426F091152609952D
:1060D6008E01F80132960081202EE0911426F0916F
:1060E600152609958E01F80131960081202EE09142
:1060F6001426F09115260995FE010081202EE091C7
:106106001426F091152609957F90272CE0911426E8
:10611600F0911526099540E050E05F934F937F92EA
:106126006F925F924F923F922F92BFEF2B2EE0918C
:106136001426F091152609952F903F904F905F9069
:106146006F907F904F915F91302F142F252F1F5FF7
:106156002F4F412F522F0078003029F0503009F48C
:10616600443608F4DACF032F2F902396CDBFDEBF37
:06617600DF91CF910895B6
:105C1800CF93DF93CDB7DEB72497CDBFDEBF2196F4
:105C28003F924F925F926F927F92B0E0B883B983B0
:105C380008811981173209F4003108F093C0022D48
:105C480010E0103009F40030B9F4DCDF2F92BFEF18
:105C58007B2E3324442455246624B1E02B2E17D2FE
:105C68000A838CD02F900A81003029F4B0E0B093D9
:105C7800DE2000E078C06FC0C5DF2F92BFEF7B2E1B
:105C88003324442455246624B7E32B2E00D20A83F8
:105C980075D02F900A81013009F05CC0B3DF2F92D4
:105CA800BFEF7B2EB0E03B2E4B2E5B2EB0E46B2E6D
:105CB800B9E22B2EECD10A8361D02F900A810030F3
:105CC80009F047C0022D10E0103009F4023009F045
:105CD8003BC098DF2F92BFEF7B2E332444245524FA
:105CE8006624BAE32B2ED3D10A83BFEF2B2EE09183
:105CF8001426F091152609950B83BFEF2B2EE09102
:105D08001426F09115260995BFEF2B2EE091142645
:105D1800F09115260995BFEF2B2EE0911426F091EE
:105D2800152609952BD02F900A81003061F40B813C
:105D380006FF04C0B4E0B093DE2003C0B3E0B09324
:105D4800DE2000E010C005C0B1E0B093DE2000E026
:105D58000AC001C007C0088119810F5F1F4F08835F
:105D6800198366CF01E07F906F905F904F903F90CE
:0C5D78002396CDBFDEBFDF91CF910895D0
:106F9A002F923F924F925F926F92B1E0B093112479
:106FAA00B0E05B2EB2E06B2E4424B1E12B2EB2E2AC
:106FBA003B2E0E94352640E04230B8F44F930CE154
:106FCA0010E050E00E941F1C29E931E2020F131F52
:106FDA00BCE15B2EB0E06B2E442418010E943526DA
:106FEA004F91042F0F5F402FE7CFBCE15B2EB0E03B
:106FFA006B2E4424B7E12B2EB6E23B2E0E94352697
:10700A0040E04430B8F44F9306E010E050E00E94AC
:10701A001F1C27E431E2020F131FB6E05B2EB0E01B
:10702A006B2E442418010E9435264F91042F0F5FBE
:10703A00402FE7CFB7E15B2EB0E06B2E4424BAE7CE
:10704A002B2EB1E23B2E0E943526B1E1B093782176
:10705A00B4E2B0937921B0E0B0935F21B0E0B0938D
:10706A007221B0937321B0937421B0937521B0E06B
:10707A00B0931626B0E0B0939321B0939421B0E078
:10708A00B0939521B0939621B0939721B09398210C
:10709A00BFEFB0937121BDE05B2EB0E06B2E4424AC
:1070AA00B5ED2B2EB1E23B2E0E943526B0E0B0930F
:1070BA00D121B093D221B0E0B093D321B093D4219F
:0C70CA006F905F904F903F902F900895C2
:104C6A00A101252D362D052D162D01501040502E4F
:104C7A00612EB22FB32B39F0FA0140828A010F5FFD
:0A4C8A001F4FA801EECF810108952D
:10727E00CF93DF93CDB7DEB72297CDBFDEBF21967A
:10728E002F923F924F925F926F927F92B1E0B093A6
:10729E001124B1E16B2EB2E27B2E2224332444243E
:1072AE0055240E94111F002329F0B0E1B093162639
:1072BE000FEF22C111E122E2E12FF22FE250FE4F39
:1072CE000081053511F001E017C1E12FF22FE150D9
:1072DE00FE4F00810A3A11F001E00EC130E0E12FBD
:1072EE00F22F0081093E19F401E0302F00C0E12F8A
:1072FE00F22F00810B3E41F4E12FF22F32960081E6
:10730E00003921F401E001C0032F01C0032F002337
:10731E0009F48CC087E491E2FC01B0E8B083FC0173
:10732E003296B0E0B193B193B193B1939F938F9393
:10733E000E94311E8F919F91003014F401E0DCC049
:10734E000091832110918421B02FB12B09F467C0D5
:10735E001091242200912522012BC9F000912522A3
:10736E0010E0212F312F722F612F502F44270091C3
:10737E00242210E0212F312F040F151F261F371F37
:10738E00A801B901FC013196B4E0B0830CC0409164
:10739E003122509132226091332270913422FC01BD
:1073AE003196B6E0B08300908D2110908E218A0127
:1073BE000019110900908F21109090219B01200936
:1073CE0031099F938F9340917C2150917D2160E0F4
:1073DE00762F0E944A258B019C018F919F91A801C7
:1073EE00B901303029F4203019F41F3009F4053F6B
:1073FE0030F4FC013196B1E0B08301E07DC005EFC1
:10740E001FEF20E030E0041715072607370730F48A
:10741E00FC013196BBE0B08301E06EC006C0FC01FA
:10742E003196BBE0B08301E067C065C08FEC93E29C
:10743E0060E070E0703009F46430A8F506E010E00A
:10744E00AB010E941F1C27E431E2200F311FA9015E
:10745E00FC010081F90100838C010C5F1F4FC801F4
:10746E009A012F5F3F4FF8010081F90100839C01C3
:10747E002C5F3F4FC9018A010E5F1F4F088319838E
:10748E007F936F9319010E94011E6F917F91488126
:10749E005981FA0101931193219331938B010F5F5F
:1074AE001F4FB801C7CF06E010E040915F2150E0BA
:1074BE000E941F1C27E431E2020F131FF8013196C0
:1074CE000081043091F006E010E040915F2150E021
:1074DE000E941F1C27E431E2020F131FF8013196A0
:1074EE000081063011F001E007C00E94311E00300D
:1074FE0014F401E001C000E07F906F905F904F9018
:10750E003F902F902196CDBFDEBFDF91CF91089592
:00751E006D
:103E2200CF93DF93CDB7DEB72297CDBFDEBF21960A
:103E32002F923F924F925F920E94062E0091DE20B7
:103E420010E0103009F4043019F4810192010DC020
:103E5200B9E081019201000F111F221F331FBA9591
:103E6200D1F7A801B9018A019B017F926F92BFEF3E
:103E72007B2E302E412E522E632EB1E12B2E0E942C
:103E82004B306F907F90002321F00E94C22E01E000
:103E920062C07F926F925F924F923F922F92BFEFDA
:103EA2002B2EE0911426F091152609952F903F9024
:103EB2004F905F906F907F900E3F09F0EACF30E015
:103EC20040E0423009F4303048F5032F142F060D3C
:103ED200171D088319834F933F937F926F925F92CE
:103EE2004F923F922F92BFEF2B2EE0911426F0912A
:103EF200152609952F903F904F905F906F907F907D
:103F02003F914F9118812981E12FF22F0083032FD6
:103F1200142F0F5F1F4F302F412FD3CF7F926F92FD
:103F22005F924F923F922F92BFEF2B2EE091142679
:103F3200F09115260995BFEF2B2EE0911426F091F2
:103F4200152609950E94C22E2F903F904F905F90A8
:103F52006F907F9000E05F904F903F902F9021965E
:0A3F6200CDBFDEBFDF91CF910895BF
:103C62002F923F924F925F926F927F92B1E0B09308
:103C7200112406E010E040915F2150E0DFDD27E4EF
:103C820031E2020F131FF801329601911191219135
:103C92003191B1E16B2EB2E27B2E18012901C0D025
:103CA200002329F0B0E1B09316260FEFB2C0BCE1B9
:103CB2002B2EB2E23B2E91D800937A2110937B21D6
:103CC20000911E2200937C21B0E0B0937D21BFE1E0
:103CD2002B2EB2E23B2E81D800937E2110937F21BE
:103CE2000091212200938021B2E22B2EB2E23B2EE0
:103CF20074D80093812110938221B7E22B2EB2E275
:103D02003B2E6BD8009383211093842106E010E0B0
:103D120040915F2150E092DD27E431E2020F131F50
:103D2200F8013296419151916191719100917E21F8
:103D320010917F2120E0322F040F151F261F371FFD
:103D42000093852110938621209387213093882127
:103D52000091802110E040918321509184216EDDF9
:103D6200409185215091862160918721709188210F
:103D720020E0322F040F151F261F371F00938921C1
:103D820010938A2120938B2130938C2100918121E1
:103D920010918221B5E0000F111FBA95E1F7409111
:103DA2007A2150917B2125D88C0140918921509113
:103DB2008A2160918B2170918C2120E0322F040F97
:103DC200151F261F371F00938D2110938E212093DC
:103DD2008F213093902120917A2130917B2189018A
:103DE200169507950093912110939221B5E08901D0
:103DF20016950795BA95E1F70093762110937721EE
:103E020040937221509373216093742170937521B2
:103E120000E07F906F905F904F903F902F900895B9
:003E2200A0
:102DDC00F1013196008110E0302F2227F1010081A2
:082DEC0010E0020F131F08950F
:102DF400C801BA01AA1BBB1B51E107C0AA1FBB1F14
:102E0400A617B70710F0A61BB70B881F991F5A9572
:082E1400A9F78095909508953F
:103C0200F1013396008110E0212F312F722F612FA5
:103C1200502F4427F1013296008110E0212F312FDD
:103C2200040F151F261F371F722F612F502F442795
:103C3200F1013196008110E0212F312F040F151F61
:103C4200261F371F722F612F502F4427F101008149
:103C520010E0212F312F040F151F261F371F089543
:003C620062
:104A9400C9019A01AB01B801A1E21A2EAA1BBB1BE2
:104AA400FD010DC0AA1FBB1FEE1FFF1FA217B307F6
:104AB400E407F50720F0A20BB30BE40BF50B661F1C
:104AC400771F881F991F1A9469F7609570958095D0
:044AD400909508951C
:1086DA002F923F924F925F926F927F928F92B1E464
:1086EA00B093F22088247724B9E06B2EB3E15B2E95
:1086FA00B4E04B2EBAED2B2EB7E03B2E0E94F13A96
:10870A00B0EA4B2EBBEE2B2EB0E23B2E0E94A73ACC
:10871A0063DAB1E0B09312241091122403E6011730
:10872A0010F1BEE22B2E0E94961C009112244AE000
:10873A00E1DA005D00930C20009112244AE0DADAB3
:10874A00092F005D00930D20BAE24B2EB0E05B2E9C
:10875A00BCE02B2EB0E23B2ED9DA009112240F5F37
:10876A0000931224D9CF8F907F906F905F904F9093
:06877A003F902F900895CE
:1075E200B7E03B1611F4BCEB2B1620F081010C5BCB
:1075F2001740180181010F7710701801142D1F70A8
:10760200412E0CE0011710F4BCE04B2EB1E04B16FA
:1076120010F4B1E04B2E0FE1051510F4BFE15B2E23
:10762200B1E05B1610F4B1E05B2E07E1061508F439
:1076320066240BE3071508F477240BE3081508F416
:107642008824B9E09101220F331FBA95E1F7209304
:10765200D3213093D421042D10E0B5E0000F111F87
:10766200BA95E1F7022B132B0093D3211093D42167
:1076720005290093D3211093D421062D10E0BBE0FD
:107682009801220F331FBA95E1F72093D12130934D
:10769200D221072D10E0B5E0000F111FBA95E1F7D6
:1076A200202B312B2093D1213093D221082D069506
:1076B20010E0022B132B0093D1211093D2210895B5
:0076C200C8
:10754E00CF93DF93CDB7DEB72297CDBFDEBF2196A7
:10755E004F925F9200917121088300911626098344
:10756E004F923F922F92542CB7E04B2E0E947423D1
:10757E002F903F904F90102F00301CF51E3FF9F4C6
:10758E000981009316260CE110E0488150E047FD7A
:10759E005FEF0E941F1C29E931E2020F131FF80151
:1075AE007A96B0E0B193B193542CB7E04B2E0E9473
:1075BE007423003014F400E005C002E003C000E0C4
:1075CE0001C001E05F904F902196CDBFDEBFDF91ED
:0475DE00CF910895AC
:1046E800CF93DF93CDB7DEB7CB55D040CDBFDEBF7C
:1046F80021962F923F925F926F927F920E94A81A02
:10470800002329F0B2E1B09316260FEFB3C15F92F0
:104718004F922101B5ED2B2EB1E23B2E0E94731A68
:104728004F905F900091312610913226B02FB12B17
:10473800E1F00CE110E04091712150E047FD5FEF9E
:104748007AD829E931E2D801A20FB31F1CE1E7E1C9
:10475800F6E201910D931150E1F7B0E0B0933126E4
:10476800B0933226BFEFB09371218E010A5B1F4FC1
:104778005F924F92BDE06B2EB0E07B2EB5ED4B2ED5
:10478800B1E25B2E18010E94041B8E01005E1F4FD0
:104798002801B5ED2B2EB1E23B2E0E941D1B4F9038
:1047A8005F9000300CF05BC057FE54C0FE01ED5A1C
:1047B800FF4FB0E0B193B193FE01EB5AFF4FB0E069
:1047C800B193B193B193B193052D087529F0B8E071
:1047D800B09316260FEF4EC18E015F924F92B0E252
:1047E8005B2EB0E06B2E442418013BD24F905F90B3
:1047F800052D0F770B878E014F92BBE06B2EB0E033
:104808007B2EB5ED4B2EB1E25B2E18010E94041BE6
:10481800AE014D5A5F4F9E012B5A3F4F8E013A0110
:10482800290118010E9448184F90003014F40FEF26
:1048380021C19E01205E3F4F8E010A5B1F4F4F92A0
:10484800290118010E941D1B4F90003014F40FEF2E
:1048580011C105C0BDE0B09316260FEF0BC10DA521
:104868000875002329F0B8E0B09316260FEF02C1AF
:1048780040E050E0503009F4423008F03BC05F930C
:104888004F930CE110E00E941F1C4F915F9129E9A2
:1048980031E2020F131FB801065E1F4FF8010191A4
:1048A8001191B02FB12B09F18B010A5F1F4FF8014D
:1048B800219131910EAD1FAD02171307B1F48B0191
:1048C800065E1F4FF8014192B0E0B1931CE1A7E1E9
:1048D800B6E2FB019A0100C001910D93115011231A
:1048E800D9F720937121022FC5C08A010F5F1F4F8E
:1048F800A801C0CF80E090E0903009F4823008F041
:10490800B5C00CE110E0AC010E941F1C29E931E29E
:10491800020F131F065E1F4FF80101911191B02F6E
:10492800B12B09F09EC00CE110E0AC010E941F1CE5
:1049380029E931E2020F131F38017F926F925F92CB
:104948004F923F922F92BCE15B2EB0E06B2E442435
:10495800180187D12F903F904F905F906F907F9074
:10496800A3014A5F5F4F9301245F3F4F0EAD1FAD18
:10497800F90101931193F90101911191FA01019340
:1049880011938301065E1F4FF8014192B0E0B19385
:10499800FE01E05CFF4F0191119121913191F301EA
:1049A800019311932193319393012C5F3F4FFE01A3
:1049B800EC5BFF4F01911191B5E0000F111FBA9503
:1049C800E1F7F90101931193A3014A5E5F4F0AAD24
:1049D8001BAD2CAD3DADFA01019311932193319399
:1049E8008301025F1F4FFE01E75AFF4F01931193A6
:1049F8008301045F1F4FF8010191119120E0322FCC
:104A0800025010402040304040917C2150917D213F
:104A180060E0762F0E948F1440918D2150918E2155
:104A280060918F2170919021400F511F621F731F59
:104A3800FE01E75AFF4F01911191F80141935193FB
:104A4800619371931CE1A7E1B6E2F3019C0100C0F8
:104A580001910D9311501123D9F720937121022F41
:104A680009C08C010F5F1F4FC80146CFB9E0B09352
:104A780016260EEF7F906F905F903F902F90C65A4A
:0C4A8800DF4FCDBFDEBFDF91CF9108955E
:103550002F923F9287DB202F003011F40FEF47C0EE
:103560000CE0021710F40EEF42C0F10100810E32A0
:1035700011F40DEF3CC010E0A101322F00E0031761
:10358000E8F4E32FF0E0E20DF31D00810E3291F438
:1035900041E008E0031710F40CEF29C0032F10E0FE
:1035A0000F5F1F4F020D131D1F930F93142F3F9199
:1035B0004F9106C0032F0150302FE0CF342F452FFD
:1035C000113029F008E0021710F40BEF10C0113091
:1035D00069F4232E342E46DB202F003011F405EF42
:1035E00006C003E0021710F404EF01C000E03F90B2
:0435F0002F9008957B
:102C64009101F90189010F5F1F4F98010081002331
:102C740009F0F7CF89010219130901501040089592
:002C840050
:1034E600CF93DF93CDB7DEB72297CDBFDEBF219650
:1034F60030E03D30D0F4032F10E0020D131D088399
:103506001983E32FF0E0E40DF51D00813F922F9221
:10351600202E9BDB2F903F9018812981E12FF22FDF
:103526000083032F0F5F302FE4CF2196CDBFDEBF80
:06353600DF91CF91089522
:102C50000AE7021528F0B1E62B1610F0E89425F8E3
:042C6000022D0895A4
:10360800A201B10193018301015010403801B22F8A
:10361800B32B69F0FA010081FB0100838B010F5F76
:103628001F4FB8018A010F5F1F4FA801EBCF81011F
:023638000895F3
:10363A00CF93DF93CDB7DEB72A97CDBFDEBF2196F2
:10364A002F923F926F927F92B22DB32911F40FEF0E
:10365A00E7C05F924F923F922F923FDA2F903F90AE
:10366A004F905F9040917221509173216091742123
:10367A00709175210091892110918A2120918B21C5
:10368A0030918C21401751076207730739F4009172
:10369A008121109182210A831B830BC000917C2116
:1036AA0010917D214091762150917721C3D00A83D0
:1036BA001B83009172211091732120917421309102
:1036CA0075210E831F8328873987B1E1BC83B2E253
:1036DA00BD835F924F923F922F9220907221309039
:1036EA00732140907421509075213ADBB1E0B09378
:1036FA001124B1E12B2EB2E23B2EE6DA2F903F9055
:10370A004F905F90B0E0B883B983288139810A81EC
:10371A001B812017310708F072C05F924F923F92C7
:10372A002F92BBE06B2EB0E07B2E21012C803D80D6
:10373A00A4DA2F903F904F905F90103009F4003038
:10374A0061F55F924F9287D84F905F90002329F0DE
:10375A00B0E1B09316260FEF63C0B42DB529D9F0A6
:10376A002C803D800E94E612F201B0960E811F81E4
:10377A00288539850193119321933193F201B496E7
:10378A000C811D8101511242B5E016950795BA9533
:10379A00E1F70193119300E043C00C811D81980168
:1037AA00205E3F4F2C833D8300917821109179212F
:1037BA0020173107E9F40E811F81288539850F5FAB
:1037CA001F4F2F4F3F4F0E831F8328873987B1E141
:1037DA00BC83B2E2BD835F924F923F922F92B1E1D6
:1037EA002B2EB2E23B2E70DA2F903F904F905F90D3
:1037FA00088119810F5F1F4F0883198386CF5F9253
:10380A004F923F922F9227D82F903F904F905F90E0
:10381A00002329F0B0E1B09316260FEF01C00FEF95
:10382A007F906F903F902F902996CDBFDEBFDF919A
:04383A00CF9108958D
:102AE400CF93DF93CDB7DEB72B97CDBFDEBF219653
:102AF4004F925F926F927F928E019801A1015F9332
:102B04004F933F932F933F922F92BBE05B2EB0E005
:102B14006B2EB0E24B2E18010E9435262F903F9069
:102B24002F913F914F915F915F934F93A9012F9103
:102B34003F91F1010081002379F0F10100813F927E
:102B44002F92202E6EDC2F903F90002329F08101DC
:102B54000F5F1F4F1801EDCF3F922F92B0E04B2E25
:102B6400B0E25B2E6CDC2F903F90103009F4003003
:102B740049F4FE01BEE2B0838E01F8013196BEE253
:102B8400B0834EC03F922F92B3E04B2EB0E25B2E47
:102B940056DC2F903F90103009F4003021F4FE01F0
:102BA400BEE2B0833DC0F10100810023D9F0F10100
:102BB40000813F922F92202E34DC2F903F900023EF
:102BC40089F4F10100810E3269F0F1010081FA010A
:102BD40000838A010F5F1F4FA80181010F5F1F4F00
:102BE4001801E1CFF10100810E3221F481010F5F60
:102BF4001F4F18018E01085F1F4FA801F1011081BA
:102C040000E2011768F4F1010081FA0100838A01EE
:102C14000F5F1F4FA80181010F5F1F4F1801EECFF7
:102C24008E013F922F92BBE06B2EB0E07B2E2801E9
:102C34001901E8D42F903F907F906F905F904F9050
:0C2C44002A96CDBFDEBFDF91CF9108952E
:10242600B0E22B1649F00DE0021520F0B9E02B16AC
:0C24360008F002C000E001C001E00895C1
:10244200F1010081002379F0F1011081F201008194
:10245200101749F481010F5F1F4F180182010F5FAE
:102462001F4F2801EDCFF1011081F2010081002EF2
:0E247200B0E01B2E012F10E000191109089593
:102D6A002F923F924F925F926F927F920E94062E0D
:102D7A000091DE2010E0103009F4043019F48101CA
:102D8A0092010DC0B9E081019201000F111F221FAB
:102D9A00331FBA95D1F7A801B9018A019B01BFEF88
:102DAA007B2E302E412E522E632EB2E12B2E0E9404
:102DBA004B30002321F00E94C22E01E001C000E046
:0E2DCA007F906F905F904F903F902F900895F4
:102CD200CF93DF93CDB7DEB72297CDBFDEBF21966C
:102CE2003F922F92BEDA2F903F9030E040E0423088
:102CF20009F4303008F5032F142F020D131D088339
:102D020019834F933F933F922F92BFEF2B2EE09167
:102D12001426F091152609952F903F903F914F91DF
:102D220018812981E12FF22F0083032F142F0F5FC7
:102D32001F4F302F412FDBCF3F922F92BFEF2B2E11
:102D4200E0911426F09115260995BFEF2B2EE09104
:102D52001426F091152609952F903F902196CDBF0C
:082D6200DEBFDF91CF9108955F
:102264002F92BFEF2B2EE0911426F091152609959D
:0A2274000E3F09F0F6CF2F900895F9
:102C840093018301015010403801303009F42030A1
:102C9400D9F0F1011081F2010081101761F0F10106
:102CA4001081F2010081002EB0E01B2E012F10E0F4
:102CB400001911090BC081010F5F1F4F1801820118
:0E2CC4000F5F1F4F2801DCCF00E010E00895E5
:102860002F92BCE42B2EE0911426F09115260995A9
:102870002224E0911426F091152609952224E09156
:102880001426F091152609952224E0911426F09142
:10289000152609952224E0911426F0911526099514
:1028A000BFEF2B2EE0911426F0911526099540E0FC
:1028B00050E05F934F93BFEF2B2EE0911426F091E1
:1028C000152609954F915F91302F142F252F1F5FEB
:1028D0002F4F412F522F0078003029F0503009F44B
:1028E000443608F4E6CF37FF06C03F930E94C22E5D
:1028F0003F91032F0CC0BFEF2B2EE0911426F091D7
:10290000152609950030B9F30E94C22E00E02F90E1
:02291000089528
:1025CC00CF93DF93CDB7DEB72297CDBFDEBF219679
:1025DC00B101A20120E030E0303009F42830B0F431
:1025EC00FB010081003209F411C0FB010081FA01EA
:1025FC0000838A010F5F1F4FA8018B010F5F1F4FD4
:10260C00B80189010F5F1F4F9801E6CF8101085F68
:10261C001F4F9801F8010081003239F1FA01BEE236
:10262C00B0838A010F5F1F4FA80100E010E0B901D1
:10263C009801303009F42330B0F4FB0100810032F2
:10264C0009F411C0FB010081FA0100838A010F5FBC
:10265C001F4FA8018B010F5F1F4FB80189010F5F3E
:10266C001F4F9801E6CF8A0101C08A01F801B0E042
:10267C00B083142D252D135F2F4FF1013B96008154
:10268C00E12FF22F00838201065E1F4F088319830E
:10269C008101045E1F4F3F922F9218010E94011E70
:1026AC002F903F9048815981FA0101931193219306
:1026BC0031938201025E1F4F088319838101065EEC
:1026CC001F4F3F922F92180183D32F903F90288158
:1026DC003981F901019311938101025F1F4FF801B8
:1026EC002081F80131960081102F002730E0200F57
:1026FC00311FA9018201025F1F4FF8013396BBE025
:10270C00890116950795BA95E1F700838201025F5E
:10271C001F4FF8013496B5E08A0116950795BA95C6
:10272C00E1F70F7300838201025F1F4FF8013596AA
:10273C00042F0F71000F00838101005F1F4FF80100
:10274C002081F80131960081102F002730E0200FF6
:10275C00311FA9018201025F1F4FF8013296022F2F
:10276C000F7100838201025F1F4FF8013196B5E0B3
:10277C008A0116950795BA95E1F70F700083F2015F
:10278C003E96B9E08A0116950795BA95E1F7008354
:10279C0081010A5E1F4FF8012081F80131960081FA
:1027AC00102F002730E0200F311FA90182010C5E91
:1027BC001F4FF8013396BBE0890116950795BA9522
:1027CC00E1F7008382010C5E1F4FF8013496B5E0EF
:1027DC008A0116950795BA95E1F70F73008382016C
:1027EC000C5E1F4FF8013596042F0F71000F0083FC
:1027FC008101085E1F4FF8012081F801319600819C
:10280C00102F002730E0200F311FA90182010C5E30
:10281C001F4FF8013296022F0F71008382010C5E5C
:10282C001F4FF8013196B5E08A0116950795BA95B8
:10283C00E1F70F700083F2017496B9E08A011695E6
:10284C000795BA95E1F700832196CDBFDEBFDF91E6
:04285C00CF9108957B
:10309000CF93DF93CDB7DEB72897CDBFDEBF2196A4
:1030A0004F925F928101065E1F4F3F922F9218014F
:1030B00095DE2F903F90F30101931193F30101915D
:1030C0001191B02FB12B81F57F926F925F924F9249
:1030D0003F922F92D5D92F903F904F905F906F9055
:1030E0007F90F30101931193F301019111911F3F1F
:1030F00009F40F3F29F4B4E0B09316260FEF83C113
:10310000F301019111917F926F925F924F923F92E2
:103110002F92BFEF4B2E5B2E18011FDC2F903F909C
:103120004F905F906F907F90F3010191119120E09B
:10313000322F025010402040304040917C2150916D
:103140007D2160E0762FEBDB40918D2150918E2127
:1031500060918F2170919021040F151F261F371F3A
:10316000F201019311932193319340917221509177
:1031700073216091742170917521009189211091C2
:103180008A2120918B2130918C21401751076207B1
:10319000730739F400918121109182210A831B83E6
:1031A0000BC000917C2110917D214091762150919E
:1031B000772145D30A831B830091722110917321DB
:1031C00020917421309175210C831D832E833F83C0
:1031D00001E112E21F930F937F926F923F922F9221
:1031E000209072213090732140907421509075216D
:1031F000BCDDB1E0B0931124B1E12B2EB2E23B2E45
:1032000068DD2F903F906F907F900F911F91B0E0FD
:10321000B883B983A801288139810A811B812017CD
:10322000310708F0D8C0FA010081053E29F0FA0103
:103230000081003208F098C05F934F937F926F92A5
:103240005F924F923F922F920BDB2F903F904F90C7
:103250005F906F907F904F915F91002329F0B0E1D4
:10326000B09316260FEFCFC05F934F937F926F926C
:103270005F924F923F922F92B0E26B2EB0E07B2E86
:1032800021011A01C1D12F903F904F905F906F9014
:103290007F904F915F91142F252F165E2F4FF301D2
:1032A0000081E12FF22F00838A01065E1F4F9801F3
:1032B0002F5F3F4FF30101911191012F10E0F901B0
:1032C0000083FA013E960091D12100838A01025FBA
:1032D0001F4FF80131960091D2210083FA017096B8
:1032E0000091D32100838A01005F1F4FF8013196BE
:1032F0000091D4210083FA0176960091D1210083B8
:103300008A010A5E1F4FF80131960091D221008395
:10331000FA0178960091D32100838A01085E1F4F3D
:10332000F80131960091D42100837F926F925F92D1
:103330004F923F922F92B1E16B2EB2E27B2E2C8006
:103340003D804E805F800E943F112F903F904F90B4
:103350005F906F907F90002329F0B5E0B093162620
:103360000FEF51C000E04FC09A01205E3F4FC901EE
:1033700000917821109179212017310721F50C81D6
:103380001D812E813F810F5F1F4F2F4F3F4F0C83B9
:103390001D832E833F8381E192E29F938F937F92DF
:1033A0006F925F924F923F922F92B1E12B2EB2E239
:1033B0003B2E8FDC2F903F904F905F906F907F90CF
:1033C0008F919F9100C0088119810F5F1F4F088363
:1033D0001983AC0120CF7F926F925F924F923F9200
:1033E0002F923EDA2F903F904F905F906F907F909A
:1033F000002329F0B0E1B09316260FEF04C0B6E029
:10340000B09316260FEF5F904F902796CDBFDEBF8B
:06341000DF91CF91089549
:10248000CF93DF93CDB7DEB72697CDBFDEBF2196C2
:102490002F923F924F925F9200918321109184215D
:1024A00040919121509192210E941F1C0883198311
:1024B000B2E0BA83B0E0BB83409191215091922168
:1024C00002E010E097D48C01A80160E0762F009123
:1024D0008521109186212091872130918821040F38
:1024E000151F261F371FA801B9017F936F935F93B4
:1024F0004F93409191215091922102E010E07AD4C3
:102500008D014F915F916F917F919801220F331F41
:1025100001E112E2020F131F0C831D831A012B012C
:1025200024D4B1E0B0931124B1E12B2EB2E23B2EC2
:10253000D0D32A813B81088119812017310738F5D2
:10254000EC81FD8101911191103009F4003009F402
:102550001EC00C811D8198012E5F3F4F2C833D834F
:102560000A811B810F5F1F4F0A831B830091782113
:10257000109179212017310749F4B1E1BC83B2E20F
:10258000BD83B1E12B2EB2E23B2EA3D3D2CF68D1D3
:10259000002331F0B0E1B09316260FEF1FEF0CC00F
:1025A0002A813B81088119812017310719F40FEF27
:1025B0001FEF02C00A811B815F904F903F902F90C8
:0C25C0002596CDBFDEBFDF91CF910895BE
:10295A00CF93DF93CDB7DEB72897CDBFDEBF2196E1
:10296A002F923F924F925F926F927F924E825F8236
:10297A004091912150919221810137D28C010A8391
:10298A001B83B0E0BC83BD834A815B816C817D81FE
:10299A0000918521109186212091872130918821EB
:1029AA00040F151F261F371F0A831B832C833D83A1
:1029BA00B1E0B09311243F922F92B1E16B2EB2E2B3
:1029CA007B2E180129010E94111F2F903F9000238E
:1029DA0031F0B0E1B09316260FEF1FEF72C04091AD
:1029EA00912150919221810100D28D019801220FEB
:1029FA00331FA90101E112E2200F311FFE013696B1
:102A0A000081F90100839A012F5F3F4F01E112E231
:102A1A00200F311F8E010A5F1F4FF8013196008186
:102A2A00F9010083B1E16B2EB2E27B2E2A803B8052
:102A3A004C805D801FDC002331F0B5E0B093162690
:102A4A000FEF1FEF3EC0B1E0B883B0E0B983188141
:102A5A002981009180211017B0E02B0780F54A8167
:102A6A005B816C817D81009183211091842120E01A
:102A7A00322F040F151F261F371F0A831B832C832F
:102A8A003D835F924F923F922F92B1E16B2EB2E259
:102A9A007B2E18012901EEDB2F903F904F905F901B
:102AAA00002331F0B5E0B09316260FEF1FEF09C0EF
:102ABA00088119810F5F1F4F08831983C8CF00E06F
:102ACA0010E07F906F905F904F903F902F902796E5
:0A2ADA00CDBFDEBFDF91CF9108955C
:10227E002F923F924F925F920E94062E0091DE2087
:10228E0010E0103009F4043019F4810192010DC0F0
:10229E00B9E081019201000F111F221F331FBA9561
:1022AE00D1F7A801B9018A019B017F926F92BFEF0E
:1022BE007B2E302E412E522E632EB8E12B2E0E94F5
:1022CE004B306F907F90002321F00E94C22E01E0D0
:1022DE009EC07F926F92BFEF2B2EE0911426F0914D
:1022EE0015260995BFEF2B2EE0911426F091152699
:1022FE000995BEEF2B2EE0911426F0911526099527
:10230E006F907F9020E030E00FEF11E0021713077F
:10231E00F8F0F901E60DF71D00813F932F937F92A0
:10232E006F925F924F923F922F92202EE091142641
:10233E00F091152609952F903F904F905F906F90DA
:10234E007F902F913F9189010F5F1F4F9801DCCF36
:10235E007F926F925F924F923F922F92BFEF2B2EF2
:10236E00E0911426F09115260995BFEF2B2EE091E2
:10237E001426F09115260995BFEF2B2EE091142609
:10238E00F091152609952F903F904F905F906F908A
:10239E007F90202F30E089010F711070103009F4FA
:1023AE00053081F07F926F925F924F923F922F9203
:1023BE000E94C22E2F903F904F905F906F907F9013
:1023CE0002E025C07F926F925F924F923F922F92C2
:1023DE00BFEF2B2EE0911426F091152609952F9024
:1023EE003F904F905F906F907F900F3F09F0EACF34
:1023FE007F926F925F924F923F922F920E94C22EC7
:10240E002F903F904F905F906F907F9000E05F9085
:08241E004F903F902F900895AC
:10291E00049FD001159FF001249FE00DF11D069F2D
:10292E00E00DF11D349FF00D259FF00D169FF00D5B
:10293E00079FF00D3327149FB00DE11DF31F059F68
:0C294E00B00DE11DF31F8D019F010895E5
:107BE2002F923F924F925F9200913126109132264E
:107BF20006701070B02FB12B21F4B7E0B0931626A7
:107C020006C022243324442455240E9431215F904B
:087C12004F903F902F90089560
:104262000091312610913226B02FB12B41F4B7E0E4
:10427200B09316260FEF1FEF2FEF3FEFF2C0B1E022
:10428200B093112400912D2610912E2620912F26D5
:1042920030913026021513052405350588F4009166
:1042A2002D2610912E2620912F2630913026009314
:1042B2001F2610932026209321263093222608C001
:1042C20020921F26309220264092212650922226AA
:1042D20040917A2150917B2160E0762F00911F2638
:1042E200109120262091212630912226D2D38B01B3
:1042F2009C0140917C2150917D2160E0762FC9D3B1
:104302008B019C01980100911D2610911E2600939D
:1043120023261093242600E010E002171307B0F5BD
:104322003F932F935F924F923F922F92209023269A
:10433200309024266FD82F903F904F905F902F910E
:104342003F9100932326109324261F3F09F40F3F29
:10435200C1F400912D2610912E2620912F26309106
:10436200302600931F261093202620932126309377
:104372002226BAE0B093162600E010E020E030E0FA
:1043820070C08901015010409801C5CF40917A2137
:1043920050917B2160E0762F00911F2610912026FC
:1043A200209121263091222674D38B019C014091C9
:1043B2007C2150917D2160E0762F6BD38D019F018E
:1043C2000093292610932A26009123261091242651
:1043D20020E0322F025010402040304040917C219A
:1043E20050917D2160E0762F0E948F1440918D21A3
:1043F20050918E2160918F2170919021400F511F19
:10440200621F731F0091292610912A2620E0322F65
:10441200040F151F261F371F0093252610932626EB
:10442200209327263093282640917A2150917B2190
:1044320060E0762F00911F261091202620912126E0
:104442003091222626D38D019F0100932B261093B3
:104452002C2600911F261091202620912126309192
:044462002226089571
:103416002F923F924F925F926F927F9240919121AD
:10342600509192218101E3DC8C01A80160E0762FA6
:103436000091852110918621209187213091882144
:10344600040F151F261F371FB1E0B09311243F92BA
:103456002F92B1E16B2EB2E27B2E18012901DED448
:103466002F903F90002331F0B0E1B09316260FEF76
:103476001FEF11C040919121509192218101B7DC3B
:103486008D019801220F331F01E112E2020F131F73
:103496001801A1DC18017F906F905F904F903F90CC
:0434A6002F900895C6
:107D1600CF93DF93CDB7DEB72297CDBFDEBF2196D7
:107D26006F927F9200913126109132260670107064
:107D3600B02FB12B21F4B7E0B09316265CC2B42D58
:107D4600B52909F458C2B1E0B093112400912B264D
:107D560010912C26123009F4003061F100912B2687
:107D660010912C26103009F4003041F400917A214C
:107D760010917B214016510608F01CC05F924F926D
:107D86003F922F92B1E16B2EB2E27B2E20902526F8
:107D96003090262640902726509028260E94111FB4
:107DA6002F903F904F905F90002321F0B0E1B09369
:107DB600162621C280E090E08415950508F04CC196
:107DC60021E132E200912B2610912C26200F311F43
:107DD600FC01E20DF31D0081F901008300912B26C1
:107DE60010912C260F5F1F4F00932B2610932C26E5
:107DF600123009F4003009F02AC19F938F935F92E5
:107E06004F923F922F92B1E16B2EB2E27B2E2090E1
:107E160025263090262640902726509028260E9418
:107E26003F112F903F904F905F908F919F9100232D
:107E3600C9F000911F26109120262091212630910D
:107E46002226080F191FB0E02B1F3B1F00931F2689
:107E5600109320262093212630932226B5E0B09356
:107E66001626C9C1B0E0B0932B26B0932C260091FC
:107E760025261091262620912726309128260F5F49
:107E86001F4F2F4F3F4F00932526109326262093F2
:107E96002726309328260091292610912A26980114
:107EA6002F5F3F4F2093292630932A2600917C216D
:107EB60010917D212017310709F08DC09F938F9374
:107EC6005F924F923F922F92209023263090242645
:107ED6000E940B1A2F903F904F905F908F919F9129
:107EE600088319831F3F09F40F3F09F043C09F938E
:107EF6008F935F924F923F922F920E9440122F9043
:107F06003F904F905F908F919F91088319831F3FF9
:107F160009F40F3FA1F400912D2610912E262091F1
:107F26002F263091302600931F261093202620936B
:107F3600212630932226BAE0B09316265CC19F9381
:107F46008F935F924F923F922F9248805980209054
:107F56002326309024260E94AD14BFEF4B2E5B2EB5
:107F6600288039800E94AD142F903F904F905F90EB
:107F76008F919F91088119810093232610932426BF
:107F8600B0E0B0932926B0932A26009123261091BB
:107F9600242620E0322F02501040204030404091ED
:107FA6007C2150917D2160E0762F0E948F144091B4
:107FB6008D2150918E2160918F2170919021040F17
:107FC600151F261F371F009325261093262620935C
:107FD6002726309328268201081B190B123009F434
:107FE6000030A8F59F938F935F924F923F922F9206
:107FF600B1E16B2EB2E27B2E20902526309026260C
:1080060040902726509028260E94111F2F903F90BF
:108016004F905F908F919F910023C9F000911F268A
:10802600109120262091212630912226080F191F13
:10803600B0E02B1F3B1F00931F2610932026209392
:10804600212630932226B0E1B0931626D4C08C01A7
:108056000F5F1F4FC801B0CE00912B2610912C2622
:10806600B02FB12BE1F05F924F923F922F92B1E188
:108076006B2EB2E27B2E209025263090262640904D
:108086002726509028260E943F112F903F904F9010
:108096005F90002321F0B5E0B0931626ACC00091A6
:1080A6001F26109120262091212630912226A201FA
:1080B60060E0762F400F511F621F731F40931F26EB
:1080C60050932026609321267093222600912D2618
:1080D60010912E2620912F26309130260417150751
:1080E6002607370780F400911F261091202620913D
:1080F60021263091222600932D2610932E2620939A
:108106002F26309330265F924F923F922F92B1E105
:108116006B2EB2E27B2E20901726309018264090C8
:10812600192650901A260E94111F2F903F904F90AB
:108136005F90002321F0B0E1B09316265CC021E1E8
:1081460032E200911B2610911C26020F131F980184
:10815600F8017C9600912D2600838901045E1F4F4D
:10816600F801319600912E2600838901045E1F4F87
:10817600F801329600912F2600838901045E1F4F75
:10818600F8013396009130260083F9017696009126
:10819600D121008389010A5E1F4FF80131960091B3
:1081A600D2210083F90178960091D32100838901B9
:1081B600085E1F4FF80131960091D42100835F922B
:1081C6004F923F922F92B1E16B2EB2E27B2E20901E
:1081D6001726309018264090192650901A260E948D
:1081E6003F112F903F904F905F90002321F0B5E014
:1081F600B093162600C07F906F902196CDBFDEBF4C
:06820600DF91CF91089505
:107CFE00992779E004C0991F941708F0941B001F70
:087D0E007A95C9F7009508956C
:1087AA002F923F924F925F926F927F928F92B2E492
:1087BA00B0931324109113240AE5011708F44BC04F
:1087CA00209013240E94961C009113240093F220F7
:1087DA0088247724B9E06B2EB3E15B2EB4E04B2EEC
:1087EA00BAED2B2EB7E03B2E0E94F13AB0EA4B2E9F
:1087FA00BBEE2B2EB0E23B2E0E94A73AEDD9B1E098
:10880A00B0931224109112240CE20117F0F0009197
:10881A0012244AE06FDA005D00930C2000911224C2
:10882A004AE068DA092F005D00930D20BAE24B2E68
:10883A00B0E05B2EBCE02B2EB0E23B2E67DA009153
:10884A0012240F5F00931224DDCF009113240F5FCF
:10885A0000931324AFCF8F907F906F905F904F90CB
:06886A003F902F900895DD
:108B8C002F923F924F925F92B3E4B093F220442421
:108B9C00BBEE2B2EB0E23B2E0E94A73A1CD8B1E0C4
:108BAC00B09312241091122407E30117F0F00091F6
:108BBC0012244AE09ED8005D00930C2000911224F0
:108BCC004AE097D8092F005D00930D20BAE24B2E96
:108BDC00B0E05B2EBCE02B2EB0E23B2E96D8009181
:108BEC0012240F5F00931224DDCF5F904F903F90C3
:048BFC002F90089519
:108C00002F923F924F925F926F927F928F92B2E437
:108C1000B093F2204424BBEE2B2EB0E23B2E0E94F8
:108C2000A73A8824B4E17B2EB9E06B2EB3E15B2E2A
:108C3000B4E04B2EBAED2B2EB7E03B2E0E94F13A5A
:108C40000E94A034BBE14B2EB0E05B2EBBE92B2E83
:108C5000B0E23B2E60D88F907F906F905F904F90E6
:068C60003F902F900895E3
:106940002F923F924F925F92009131261091322602
:1069500006701070B02FB12B21F4B7E0B09316265B
:106960000AC020902D2630902E2640902F26509041
:1069700030260E9431215F904F903F902F900895D4
:0069800017
:108AD000CF93DF93CDB7DEB72197CDBFDEBF219611
:108AE0002F923F924F92B2E4B093F2204424BBEE17
:108AF0002B2EB0E23B2E0E94A73AB7E32B2EB6E214
:108B00003B2E0E94FA32B1E0B0933326B0E0B0932E
:108B10003426B0933526B0933626409133265091B3
:108B200034266091352670913626009137261091B3
:108B300038262091392630913A2604171507260742
:108B40003707E0F08E0118010E94263328800E942A
:108B5000961C0091332610913426209135263091B1
:108B600036260F5F1F4F2F4F3F4F00933326109332
:108B700034262093352630933626CFCF4F903F9022
:0C8B80002F90CDBFDEBFDF91CF91089594
:1065F4004F925F92009131261091322600FD0AC01D
:10660400F101B0E0B193B193B193B193B7E0B0931A
:10661400162617C03F922F92222433244424552453
:106624000E9431212F903F9000912D2610912E260B
:1066340020912F2630913026F1010193119321935B
:0866440031935F904F9008951F
:10664C004F925F926F927F92009131261091322679
:10665C0000FD04C0B7E0B093162605C140911F267B
:10666C0050912026609121267091222600912D2692
:10667C0010912E2620912F2630913026401751074D
:10668C006207730720F0BBE0B0931626ECC00091B4
:10669C002B2610912C26123009F4003009F09AC0E8
:1066AC00B0E0B0932B26B0932C26009129261091A4
:1066BC002A2698012F5F3F4F2093292630932A26B4
:1066CC0000917C2110917D212017310709F052C0D7
:1066DC00B0E0B0932926B0932A263F922F922090B7
:1066EC002326309024260E940B1A2F903F90009363
:1066FC002326109324261F3F09F40F3FA1F4009189
:10670C002D2610912E2620912F2630913026009385
:10671C001F26109320262093212630932226BAE0A0
:10672C00B0931626A0C0009123261091242620E0B9
:10673C00322F025010402040304040917C2150912B
:10674C007D2160E0762F0E948F1440918D21509115
:10675C008E2160918F2170919021040F151F261F9F
:10676C00371F009325261093262620932726309337
:10677C00282614C000912526109126262091272624
:10678C00309128260F5F1F4F2F4F3F4F0093252628
:10679C00109326262093272630932826B0E0B0931A
:1067AC0011243F922F92B1E16B2EB2E27B2E2090FE
:1067BC0025263090262640902726509028260E9489
:1067CC00111F2F903F90002321F0B0E1B0931626BB
:1067DC004AC01FC0009111240023D9F0B0E0B0933F
:1067EC0011243F922F92B1E16B2EB2E27B2E2090BE
:1067FC0025263090262640902726509028260E9449
:10680C00111F2F903F90002321F0B0E1B09316267A
:10681C002AC021E132E200912B2610912C26F8019E
:10682C00E20FF31F0081F101008300912B261091E0
:10683C002C260F5F1F4F00932B2610932C260091B4
:10684C001F261091202620912126309122260F5FA1
:10685C001F4F2F4F3F4F00931F261093202620933E
:10686C002126309322267F906F905F904F90089551
:00687C001C
:108870002F923F924F92B6E4B093F2204424BBEE85
:108880002B2EB0E23B2E0E94A73A0E946B384F90ED
:068890003F902F900895B7
:1070D6002F923F924F925F926F927F928F929F92E2
:1070E6000091312610913226B02FB12B29F4B7E04A
:1070F600B093162601E034C0B0E0B0933126B093C9
:1071060032260CE110E04091712150E047FD5FEF1F
:107116000E941F1C29E931E2D801A20FB31F1CE10E
:10712600E7E1F6E201910D931150E1F7BFEFB0935D
:10713600712180901B2690901C2640901726509017
:1071460018266090192670901A2620901D263090D9
:107156001E260E943322003014F402E001C000E033
:107166009F908F907F906F905F904F903F902F9061
:0271760008957A
:10446600BFEF3B1611F4BFEF2B1661F19F928F92AF
:104476007F926F925F924F923F922F920E940B1AF9
:104486002F903F904F905F906F907F908F909F906E
:104496001F930F939F928F927F926F925F924F928C
:1044A6003F922F92442455240E94AD142F903F90A2
:1044B6004F905F906F907F908F909F900F911F917C
:1044C6001801CECFB1E0B09311249F928F927F92C4
:1044D6006F925F924F923F922F9212012301B1E1A8
:1044E6006B2EB2E27B2E9ADC2F903F904F905F901E
:1044F6006F907F908F909F90002329F0B0E1B0934A
:1045060016260FEF27C001E112E2F401E00FF11FBA
