:100000000C9489280C9400000C9400000C940000BF
:100010000C9400000C9400000C9400000C94000060
:100020000C9400000C9400000C9400000C94000050
:100030000C9400000C9400000C9400000C94000040
:100040000C9400000C9400000C9400000C94000030
:100050000C9400000C9400000C9400000C94000020
:100060000C9400000C9400000C9400000C94000010
:100070000C9400000C9400000C9400000C94000000
:100080000C9400000C9400000C9400000C940000F0
:100090000C9400000C9400000C9400000C940000E0
:1000A0000C9400000C9400000C9400000C940000D0
:1000B0000C9400000C9400000C9400000C940000C0
:1000C0000C9400000C9400000C9400000C940000B0
:1000D0000C9400000C9400000C9400000C940000A0
:1000E0000C9400000C9400000C9400000C94000090
:1000F0000C9400000C9400000C9400000C94000080
:100100000C9400000C9400000C9400000C9400006F
:100110000C9400000C9400000C9400000C9400005F
:100120000C9400000C9400000C9400000C9400004F
:100130000C9400000C9400000C9400000C9400003F
:100140000C9400000C9400000C9400000C9400002F
:100150000C9400000C9400000C9400000C9400001F
:100160000C9400000C9400000C9400000C9400000F
:100170000C9400000C9400000C9400000C940000FF
:100180000C9400000C9400000C9400000C940000EF
:100190000C9400000C94000000000000000000001F
:1001A0000C9400000C9400000C9400000C940000CF
:1001B0000C9400000C9400000C9400000C940000BF
:1001C0000C9400000C9400000C9400000C940000AF
:1001D0000C9400000C9400000C9400000C9400009F
:1001E0000C9400000C9400000C9400000C9400008F
:0401F0000C9400006B
:10511200BFEFBDBFBFE3BEBF0E949D282F923F924B
:105122005BDE85DEB7E02B2EB1E23B2E14DFC7DF5C
:08513200FECF3F902F90FFCF4C
:104DDA002F923F924F925F92B2E0B0935000B091FF
:104DEA005100B1FD01C0FBCFB8EDB4BFB1E0B09343
:104DFA00400042DAA7DAB0EF4B2EB0E05B2EB0E407
:104E0A002B2EB1E03B2E41DA23EA17E503E00A959F
:104E1A00F1F71A95E1F72A95D1F700005F904F90C4
:064E2A003F902F90089557
:1042820015E101EB0A95F1F71A95E1F7000000003C
:0242920008958D
:10434E00B0E0B0930120B0930220B0E0B093032010
:02435E000895C0
:104294002F923F924F925F926F927F928F92F2D9B8
:1042A400013091F0B0EDB093D920B2E1B093DA20AF
:1042B400B7E2B093DB20B1E1B093DC20B4E9B09372
:1042C400BC20BEE1B093BD202092C7203092C8200C
:1042D4004092C0205092C1202414350420F0B0E054
:1042E400B093062003C0BAE5B0930620B1E04B2E8C
:1042F40022243324C0D977248824662455243324E3
:1043040044242224B0E0BF93BF93BFD9ADB7BEB756
:104314001296ADBFBEBF4424552422243324F9DCB5
:10432400B0E0B093D720BFEFB0932007CAD9B8EF5D
:10433400B093C220BFE1B093C3208F907F906F9061
:0A4344005F904F903F902F90089576
:06368800009101200895ED
:0E367A002092C4203092C5204092062108956F
:10368E00CF93DF93CDB7DEB72696088119812092AE
:10369E00C9203092CC204092CD205092C62060920C
:1036AE00CE207092CF208092D0200093CA2010930B
:0836BE00CB20DF91CF910895AC
:103D16002092BE203092BF204092D1205092D220D5
:023D26000895FE
:1036C6002F92B0910407BD7FB0930407B091000715
:1036D600B260B0930007B0910407B061B0930407DD
:1036E600B0910007B061B0930007B0910407B062D3
:1036F600B0930407B0910007B062B0930007B09191
:103706000007B460B0930007B0910007B860B093AB
:103716000007B0910407B460B0930407B0910407A2
:10372600B860B09304070E945513B0910407B260C5
:10373600B09304070E9455130E945513B0910407D5
:10374600BF7DB0930407B1E02B2EE091D920F09114
:10375600DA2009950E940911B8E22B2EE091D920B2
:10376600F091DA200995BFEC2B2EE091D920F0914B
:10377600DA2009952224E091DB20F091DC200995DE
:10378600B3E82B2EE091DB20F091DC200995B0E325
:103796002B2EE091DB20F091DC200995BDEE2B2E3F
:1037A600E091D920F091DA200995B4E62B2EE0912C
:1037B600DB20F091DC200995B3E02B2EE091DB2095
:1037C600F091DC200995B2E12B2EE091DB20F091FF
:1037D600DC200995B1E82B2EE091DB20F091DC206E
:1037E6000995B8EE2B2EE091D920F091DA200995B3
:1037F600B5E82B2EE091DB20F091DC200995B1E0B5
:103806002B2EE091DB20F091DC200995B9E72B2ED9
:10381600E091DB20F091DC200995BBEC2B2EE091AA
:10382600D920F091DA200995B9E32B2EE091DB201F
:10383600F091DC200995BCE22B2EE091DB20F09183
:10384600DC2009952224E091DB20F091DC2009950B
:10385600B4E32B2EE091DB20F091DC200995B2E059
:103866002B2EE091DB20F091DC200995B7EF2B2E73
:10387600E091D920F091DA200995B0E22B2EE09163
:10388600DB20F091DC200995BAEE2B2EE091D920B1
:10389600F091DA2009952224E091DB20F091DC20DA
:1038A60009952224E091DB20F091DC200995B0EC0B
:1038B6002B2EE091D920F091DA200995B6E22B2E35
:1038C600E091DB20F091DC200995B1EC2B2EE09104
:1038D600D920F091DA200995B1E12B2EE091DB2079
:1038E600F091DC200995B5EC2B2EE091D920F091D2
:1038F600DA200995B5E32B2EE091DB20F091DC2050
:103906000995BEE32B2EE091DB20F091DC20099592
:10391600B7EC2B2EE091D920F091DA200995BEEB79
:103926002B2EE091DB20F091DC200995B6E32B2EBF
:10393600E091D920F091DA200995009106200A3508
:10394600A1F40E942411002341F0B8E82B2EE09147
:10395600DB20F091DC20099507C0B8E42B2EE0911E
:10396600DB20F091DC20099513C00E94241100236E
:1039760041F0B8EE2B2EE091DB20F091DC2009958A
:1039860007C0B8E22B2EE091DB20F091DC200995F0
:10399600BAE32B2EE091D920F091DA200995B5E50E
:1039A6002B2EE091DB20F091DC200995B1EB2B2E3C
:1039B600E091D920F091DA2009952224E091DB20CC
:1039C600F091DC200995BBE12B2EE091DB20F091F4
:1039D600DC200995B2EF2B2EE091D920F091DA2068
:1039E6000995B8E02B2EE091DB20F091DC200995BB
:1039F600B6E22B2EE091D920F091DA200995B1E0BC
:103A06002B2EE091DB20F091DC200995B0EE2B2ED9
:103A1600E091D920F091DA200995BFE12B2EE091B3
:103A2600DB20F091DC200995BAE12B2EE091DB201A
:103A3600F091DC200995B8E12B2EE091DB20F09186
:103A4600DC200995BAE02B2EE091DB20F091DC20FA
:103A56000995BFE02B2EE091DB20F091DC20099543
:103A6600B6E02B2EE091DB20F091DC200995B5E441
:103A76002B2EE091DB20F091DC200995B7E82B2E68
:103A8600E091DB20F091DC200995B2E32B2EE0914A
:103A9600DB20F091DC200995BAE02B2EE091DB20AB
:103AA600F091DC200995B7E02B2EE091DB20F09118
:103AB600DC200995B2E02B2EE091DB20F091DC2092
:103AC6000995B7E02B2EE091DB20F091DC200995DB
:103AD600B5E02B2EE091DB20F091DC200995222425
:103AE600E091DB20F091DC200995B1EE2B2EE091E0
:103AF600D920F091DA2009952224E091DB20F0917B
:103B0600DC200995B5E22B2EE091DB20F091DC203C
:103B16000995B7E22B2EE091DB20F091DC20099588
:103B2600B5E02B2EE091DB20F091DC200995B0E189
:103B36002B2EE091DB20F091DC200995B9E02B2EAD
:103B4600E091DB20F091DC200995BAE32B2EE09181
:103B5600DB20F091DC200995B8E72B2EE091DB20E5
:103B6600F091DC200995BDE42B2EE091DB20F0914D
:103B7600DC200995B5E02B2EE091DB20F091DC20CE
:103B86000995B8E12B2EE091DB20F091DC20099518
:103B9600BDE02B2EE091DB20F091DC200995B8E307
:103BA6002B2EE091DB20F091DC200995BAE32B2E39
:103BB600E091DB20F091DC200995BFE12B2EE0910E
:103BC600DB20F091DC200995BAE22B2EE091D9207A
:103BD600F091DA2009952224E091DB20F091DC2097
:103BE60009952224E091DB20F091DC2009950091D3
:103BF600C7201091C82001501040012F10E0202E40
:103C0600E091DB20F091DC2009950091C72001505E
:103C1600202EE091DB20F091DC200995BBE22B2ED3
:103C2600E091D920F091DA2009952224E091DB2059
:103C3600F091DC2009952224E091DB20F091DC2034
:103C460009950091C0201091C12001501040012F0C
:103C560010E0202EE091DB20F091DC200995009108
:103C6600C0200150202EE091DB20F091DC20099548
:103C7600B7EB2B2EE091D920F091DA200995B7E029
:103C86002B2EE091DB20F091DC200995B6EB2B2E54
:103C9600E091D920F091DA200995BAE02B2EE09137
:103CA600DB20F091DC200995B2E82B2EE091DB2099
:103CB600F091DC200995B7E22B2EE091DB20F09104
:103CC600DC2009952224E091DB20F091DC20099587
:103CD600B1E12B2EE091D920F091DA2009950E94CE
:103CE6005513B9E22B2EE091D920F091DA200995EF
:103CF6000E945513BCE22B2EE091D920F091DA20D8
:103D06000995B0910407B062B09304072F90089507
:003D1600AD
:1026AA0021E11CE30CEC0A95F1F71A95E1F72A955A
:0426BA00D1F70895B7
:1026DE002092C308B091C208B7FD01C0FBCF089588
:0026EE00EC
:1026EE002092C309B091C209B7FD01C0FBCF089576
:0026FE00DC
:1026CE002092C30AB091C20AB7FD01C0FBCF089594
:0026DE00FC
:1026BE002092C30BB091C20BB7FD01C0FBCF0895A2
:0026CE000C
:1025A000B0910407BF7EB093040720922407B09136
:1025B0000407B77FB09304070000B0910407B86028
:0625C000B093040708952A
:10224E00B0910407B061B093040720922407B091B7
:10225E000407B77FB09304070000B0910407B8607D
:06226E00B093040708957F
:10227400B4DFB3DFB0910407BF7DB0930407B0911E
:102284000407B460B0930407B0910407BF7EB09311
:10229400040720922407B0910407B77FB093040782
:1022A400B0910407B860B0930407B0910407B0621A
:0622B400B0930407089539
:0C21DE000AE00A95F1F7000000000895E7
:1022BA00B0910407BF7DB0930407B0910407B460DE
:1022CA00B0930407B0910407B061B0930407209259
:1022DA002407B0910407B77FB0930407B0910407AD
:1022EA00B860B0930407B0910407B062B0930407D2
:0622FA0071DF70DF0895A2
:1022120010ED0AEC0A95F1F71A95E1F7000008951E
:00222200BC
:062248000091042008953E
:104E30002F923F924F925F926F927F928F929F92AA
:104E4000BFEF2B2E3B2E8CDAB1E04B2E22243324E5
:104E50000E943D1BBCED8B2EB0E09B2EBCE26B2E66
:104E6000B1E07B2EBCED4B2EB0E05B2EB4E12B2EDF
:104E7000B0E03B2E31DDBEE28B2EB0E09B2EBCE2DB
:104E80006B2EB1E07B2EBEE24B2EB0E05B2EB4E188
:104E90002B2EB0E03B2E20DD8824B0E06B2EB8EF47
:104EA0007B2EB4EF2B2EB1E03B2EB0E04B2E542CDA
:104EB000D0DEBEE06B2EB0E07B2EBBE44B2EB0E02C
:104EC0005B2EBCE12B2EB0E23B2E1CDF8824662437
:104ED0007724BAE72B2EBAE13B2EB0E04B2E542CB0
:104EE000B8DEBFED6B2EB0E07B2EB3E14B2EB0E011
:104EF0005B2EB7E02B2EB0E23B2E04DF8824B0E01F
:104F00006B2EB8EF7B2EBAE72B2EBAE13B2EB0E02A
:104F10004B2E542C9EDEBFED6B2EB0E07B2EB8ECFA
:104F20004B2EB0E05B2EBCE62B2EB0E23B2EEADE31
:104F3000882466247724B2E02B2EB2E13B2EB0E029
:104F40004B2E542C86DE9F908F907F906F905F90B9
:084F50004F903F902F9008954F
:104360004F925F926F927F928F929F92B0910407CB
:10437000BF7DB093040799D80023E1F02091C020BD
:104380003091C120215030400091C7201091C820A9
:10439000015010403F922F92490138014424552486
:1043A00022243324E091BA20F091BB2009952F906C
:1043B0003F900DC03F922F92442455242224332451
:1043C000E091C220F091C32009952F903F9020E00A
:1043D00030E00091C0201091C1202017310728F54E
:1043E00000E010E0A8010091C7201091C8204017FC
:1043F0005107B0F43F932F935F934F933F922F92C7
:10440000E091BC20F091BD2009952F903F904F91F5
:104410005F912F913F918A010F5F1F4FA801E3CF5A
:1044200089010F5F1F4F9801D4CFB0910407B0628C
:10443000B09304079F908F907F906F905F904F9004
:024440000895DD
:0634AA00009100200895CE
:1032FE00CF93DF93CDB7DEB72897CDBFDEBF219634
:10330E002F923F922091C7203091C82000EE11E0FD
:10331E000217130750F02091C0203091C12000EE0B
:10332E0011E00217130708F005C060E273E040EEEB
:10333E0051E004C060EE71E040E151E000910620E2
:10334E000A3541F50E942411002391F09B01215072
:10335E003040890108191909088319838901041954
:10336E0015090A831B832C823D826E827F8211C0D7
:10337E00488259828A829B829A012150304089016B
:10338E00061917090C831D838901021913090E836F
:10339E001F8327C00E9424110023D9F09B012150C6
:1033AE00304089010619170908831983890102190A
:1033BE0013090A831B839A01215030408901081991
:1033CE0019090C831D838901041915090E831F83A6
:1033DE0008C0288239826A827B824C825D828E820C
:1033EE009F82BAE22B2EE091D920F091DA20099536
:1033FE0008811981012F10E0202EE091DB20F09141
:10340E00DC2009952880E091DB20F091DC200995E5
:10341E000A811B81012F10E0202EE091DB20F0911C
:10342E00DC2009952A80E091DB20F091DC200995C3
:10343E00BBE22B2EE091D920F091DA2009950C8178
:10344E001D81012F10E0202EE091DB20F091DC2079
:10345E0009952C80E091DB20F091DC2009950E81FE
:10346E001F81012F10E0202EE091DB20F091DC2057
:10347E0009952E80E091DB20F091DC200995BCE2CD
:10348E002B2EE091D920F091DA2009953F902F90C4
:0C349E002796CDBFDEBFDF91CF910895CF
:1034B0002F923F925F924F923F922F92B2E02B2E2B
:1034C000E091D920F091DA2009952F903F90032DBB
:1034D00010E03F922F92202EE091DB20F091DC2033
:1034E0000995B3E02B2EE091D920F091DA200995CF
:1034F0002F903F90E091DB20F091DC200995B6E021
:103500002B2EE091D920F091DA2009954F905F9011
:10351000052D10E05F924F92202EE091DB20F0917C
:10352000DC200995B7E02B2EE091D920F091DA202C
:1035300009954F905F90242CE091DB20F091DC20E6
:103540000995B2E22B2EE091D920F091DA2009956D
:063550003F902F9008954A
:1035E000CF93DF93CDB7DEB72497CDBFDEBF219653
:1035F0002F923F92288239824A825B82BAE22B2E36
:10360000E091D920F091DA2009958E01F8013196E8
:103610000081202EE091DB20F091DC2009952880AC
:10362000E091DB20F091DC200995BBE22B2EE091AC
:10363000D920F091DA2009958E010E5F1F4FF80115
:1036400031960081202EE091DB20F091DC2009955D
:103650002A80E091DB20F091DC200995BCE22B2E42
:10366000E091D920F091DA2009953F902F90239690
:0A367000CDBFDEBFDF91CF910895BA
:103556002F923F925F924F923F922F92BAE22B2E7A
:10356600E091D920F091DA2009952F903F90032D14
:1035760010E03F922F92202EE091DB20F091DC208C
:1035860009952F903F90E091DB20F091DC20099582
:10359600BBE22B2EE091D920F091DA2009954F90CD
:1035A6005F90052D10E05F924F92202EE091DB2078
:1035B600F091DC2009954F905F90242CE091DB2060
:1035C600F091DC200995BCE22B2EE091D920F091F8
:0A35D600DA2009953F902F90089528
:103FF0002F923F925F924F923F922F92BAE22B2ED6
:10400000E091D920F091DA2009952F903F90032D6F
:1040100010E03F922F92202EE091DB20F091DC20E7
:1040200009952F903F90E091DB20F091DC200995DD
:10403000BBE22B2EE091D920F091DA2009954F9028
:104040005F90052D10E05F924F92202EE091DB20D3
:10405000F091DC2009954F905F90242CE091DB20BB
:10406000F091DC200995BCE22B2EE091D920F09153
:0A407000DA2009953F902F90089583
:103F66002F923F925F924F923F922F92BAE22B2E60
:103F7600E091D920F091DA2009952F903F90032DFA
:103F860010E03F922F92202EE091DB20F091DC2072
:103F960009952F903F90E091DB20F091DC20099568
:103FA600BBE22B2EE091D920F091DA2009954F90B3
:103FB6005F90052D10E05F924F92202EE091DB205E
:103FC600F091DC2009954F905F90242CE091DB2046
:103FD600F091DC200995BCE22B2EE091D920F091DE
:0A3FE600DA2009953F902F9008950E
:103D2800CF93DF93CDB7DEB72297CDBFDEBF219605
:103D380028823982B0910407B061B09304078E01DC
:103D4800F8013196008100932407B0910407B77FEA
:103D5800B09304070000B0910407B860B09304075B
:103D6800FE01008100932407B0910407B77FB09348
:103D780004070000B0910407B860B09304072196C7
:0A3D8800CDBFDEBFDF91CF9108959B
:103D92002F923F92BBE0810116950795BA95E1F704
:103DA200102F012F000F000F000F102FB7E0012F6F
:103DB2000695BA95E9F7013029F4012F095F102F12
:103DC200012F01C0012F3F922F92202E0E945D11E0
:103DD2002F903F90B5E0810116950795BA95E1F7CE
:103DE200102F012F000F000F102FB7E0012F0695A3
:103DF200BA95E9F7013029F4012F0D5F102F012F39
:103E020001C0012F3F922F92202E0E945D112F9010
:103E12003F90022D000F000F000F102FB7E0012F6F
:103E22000695BA95E9F7013029F4012F095F102FA1
:103E3200012F01C0012F202E0E945D113F902F9073
:023E42000895E1
:1048D800CF93DF93CDB7DEB76397CDBFDEBF219609
:1048E8002F923F924F925F926F927F925F924F9278
:1048F8003F922F92240113010ADA2F903F904F9094
:104908005F902614370429F431011201240196DA44
:1049180090C14814590441F47F926F9232014F902C
:104928005F900E94EF1385C1B0E0BA87BB879301FF
:10493800221933092883398300E010E02017310752
:104948007CF40880198000E010E000191109088340
:1049580019830A851B85015010400A871B8706C0EA
:104968000A851B850F5F1F4F0A871B87B0E0BC872E
:10497800BD879401241935092A833B8300E010E0A0
:10498800201731077CF40A801B8000E010E0001932
:1049980011090A831B830C851D85015010400C8763
:1049A8001D8706C00C851D850F5F1F4F0C871D874F
:1049B800B0E0BE87BF87288139810A811B81201713
:1049C80031070CF057C00E851F850F5F1F4F0E87EC
:1049D8001F87288139810A811B81088319832A83CB
:1049E8003B838101120128012A853B850C851D85A1
:1049F8000A871B872C873D87B1E0B88B18890091FF
:104A080006210117B0F10889098BB0E0BA8B098932
:104A18001A8901701070103009F4003041F40988C7
:104A28001A8800E010E000191109098B1A8B09890E
:104A38001A8915950795040D151D9F928F927F92DF
:104A48006F925F924F923F922F926090C420709025
:104A5800C520210118010E94E6112F903F904F9028
:104A68005F906F907F908F909F9008890F5F088B61
:104A7800C5CF3CC0B1E0B88B188900910621011759
:104A8800A8F10889098BB0E0BA8B09891A890170E5
:104A98001070103009F4003041F409881A8800E0D9
:104AA80010E000191109098B1A8B09891A891595C3
:104AB8000795040D151D9F928F927F926F925F92BA
:104AC8004F923F922F926090C4207090C520280189
:104AD8000E94E6112F903F904F905F906F907F90CB
:104AE8008F909F9008890F5F088BC6CF0881198126
:104AF800000F111F088719870A811B81000F111FDA
:104B08000E831F8308801980001911090C831D83E7
:104B180028813981215030402883398300E010E012
:104B2800201731070CF485C02C813D8100E010E08E
:104B3800201731076CF00C851D85040D151D280103
:104B4800088419840C811D81001911090C831D83A7
:104B58000A851B85020D131D18012C813D810E81CC
:104B68001F81020F131F0C831D83B1E0B88B1889B6
:104B780000910621011708F45BC00889098BB0E091
:104B8800BA8B09891A8901701070103009F4003045
:104B980041F409881A8800E010E000191109098B0E
:104BA8001A8B09891A8915950795098B1A8B0E8511
:104BB8001F85B02FB12BE9F009891A89040D151D3D
:104BC8009F928F927F926F925F924F923F922F9215
:104BD8006090C4207090C520210118010E94E61140
:104BE8002F903F904F905F906F907F908F909F9005
:104BF8001BC009891A89040D151D9F928F927F92F7
:104C08006F925F924F923F922F926090C420709063
:104C1800C52028010E94E6112F903F904F905F9089
:104C28006F907F908F909F9008890F5F088B9FCF20
:104C38006FCF7F906F905F904F903F902F906296CC
:0A4C4800CDBFDEBFDF91CF910895CC
:103E4400421453041CF481011201280100E010E023
:103E5400201631061CF42224332408C00091C0200B
:103E64001091C1202016310608F07AC000E010E05D
:103E7400401651060CF474C00091C0201091C1206A
:103E84004016510638F00091C0201091C120015015
:103E94001040280141E000910621041708F460C095
:103EA400242F30E0890101701070103009F40030C3
:103EB40031F400E010E0021B130B980100C08901EB
:103EC40015950795502F612F9801260D371D00E099
:103ED40010E02017310764F0252F362F260D371DEB
:103EE4000091C7201091C8202017310708F402C0A0
:103EF400142F32C08101252F362F502F612F4516E4
:103F0400560648F18901060D171D4F933F932F93D1
:103F14006F935F937F926F925F924F923F922F9233
:103F24006090C4207090C520452E562E18010E9422
:103F3400E6112F903F904F905F906F907F905F912C
:103F44006F912F913F914F91052F162F0F5F1F4FA8
:103F5400502F612FD4CF142F012F0F5F402F9BCFF1
:023F64000895BE
:1023CC002F923F928F929F9200E010E020163106E0
:1023DC0044F00091C7201091C8202016310608F453
:1023EC0001C037C000E010E04016510644F00091E7
:1023FC00C0201091C1204016510608F401C029C01C
:10240C00B0910407BF7DB09304070E94551A0023B6
:10241C0061F07F926F9242013101E091BA20F0910C
:10242C00BB2009956F907F9009C07F926F92E091CD
:10243C00C220F091C32009956F907F901301E09119
:10244C00BC20F091BD200995B0910407B062B09307
:0C245C0004079F908F903F902F900895F0
:1027DE00CF93DF93CDB7DEB72197CDBFDEBF219666
:1027EE008F929F92421453041CF48101120128010E
:1027FE0000E010E0201631061CF42224332408C019
:10280E000091C7201091C8202016310608F0D6C0BE
:10281E0000E010E0401651060CF4D0C00091C72025
:10282E001091C8204016510638F00091C720109123
:10283E00C820015010402801B1E0B88318810091E2
:10284E000621011708F4BAC0288130E08901017011
:10285E001070103009F4003039F400E010E0021B63
:10286E00130BA8019A0100C0890115950795A801BF
:10287E009801260D371D00E010E0201731075CF09F
:10288E009A01260D371D0091C0201091C1202017EE
:10289E00310708F401C08EC000910320003009F00A
:1028AE0063C0B0910407BF7DB0930407F7D5002332
:1028BE00C1F08A01060D171D7F926F925F924F92A3
:1028CE003F922F92480132012801E091BA20F091F7
:1028DE00BB2009952F903F904F905F906F907F9007
:1028EE0015C08A01060D171D7F926F925F924F924F
:1028FE003F922F922801E091C220F091C3200995BA
:10290E002F903F904F905F906F907F90522D632D40
:10291E00252F362F4216530608F13F932F937F92A1
:10292E006F925F924F923F922F922090C4203090E0
:10293E00C520E091BC20F091BD2009952F903F90CD
:10294E004F905F906F907F902F913F9189010F5F15
:10295E001F4F502F612F252F362FDCCFB09104073C
:10296E00B062B093040726C0522D632D252F362F4B
:10297E0042165306F8F03F932F937F926F925F9219
:10298E004F923F922F9223016090C4207090C520E9
:10299E00190115DD2F903F904F905F906F907F90B3
:1029AE002F913F9189010F5F1F4F502F612F252FC0
:1029BE00362FDECF08810F5F088340CF9F908F9018
:0A29CE00CDBFDEBFDF91CF91089569
:104C52002092D3203092D4204092D5205092D62058
:104C6200810192010E5F1F4F2F4F3F4F2BBFF80163
:104C72004691810192010D5F1F4F2F4F3F4F2BBF76
:104C8200F8010691102F0027040FB0E01B1F0093BC
:104C9200EB201093EC20810192010C5F1F4F2F4FEC
:104CA2003F4F2BBFF8014691810192010B5F1F4FCD
:104CB2002F4F3F4F2BBFF8010691102F0027040FF3
:104CC200B0E01B1F0093ED201093EE2081019201B2
:104CD2000A5F1F4F2F4F3F4F2BBFF80106910093E2
:104CE200F220B0E0B093F3206092F0207092F120B5
:104CF2008092EF20B1E0B0930520B0E0B093D720CE
:024D0200089512
:104D04004F925F920091C7201091C820401651061F
:104D140008F059C00091C0201091C120601671069E
:104D240008F051C020E030E03F922F92120123019D
:104D34000E948B1E2F903F90F901E20DF31D00811C
:104D4400002309F440C00091D7200023F1F0F901B9
:104D5400E20DF31D00813F932F937F926F925F9238
:104D64004F923F922F92202EB0E03B2E0E94EC14E3
:104D74002F903F904F905F906F907F902F913F9135
:104D840089010F5F1F4F98011DC0F901E20DF31D4A
:104D940000813F932F937F926F925F924F923F9245
:104DA4002F92202EB0E03B2E0E9424172F903F908C
:104DB4004F905F906F907F902F913F9189010F5F8B
:0C4DC4001F4F9801B9CF5F904F900895E9
:1029D800CF93DF93CDB7DEB76797CDBFDEBF219624
:1029E8002F923F924F925F926F927F928F929F9217
:1029F800B0E0BC8BBD8BB0E0BE8B0091EB2010919A
:102A0800EC202016310608F40DC20091ED2010913B
:102A1800EE200215130508F405C20090EB20109073
:102A2800EC20810100191109A801440F551F440F1A
:102A3800551F0091DD201091DE202091DF2030917C
:102A4800E020085F1F4F2F4F3F4F040F151FB0E0C6
:102A58002B1F3B1FB4E06B2EB0E07B2E1801290121
:102A680053DCB1EEB98BB0E2BA8BE989FA89A0815F
:102A7800AB8B89899A89FC0131960081402F50E0FF
:102A8800652F752FFC013296008110E0212F312F20
:102A9800322F212F102F0027400F511F621F731F45
:102AA800FC013396008110E0212F312F312F202F88
:102AB80000271127400F511F621F731F0091DD204F
:102AC8001091DE202091DF203091E020040F151FA7
:102AD800261F371F0D831E832F8338870A2F0695DD
:102AE8000695069510E04091F2205091F32004DC01
:102AF8000B871C870B890770002351F02B853C85B9
:102B08000091F2201091F320020F131F0B871C87EE
:102B18000B851C850F87188B8E01075F1F4F480197
:102B28006B847C842D803E804F805884E091F42013
:102B3800F091F5200995098B1A8B4D815E816F8183
:102B4800788509851A8520E0322F040F151F261F66
:102B5800371F0D831E832F83388709841A840B85BA
:102B68001C85001911090B871C87B0E0BD87BE873B
:102B78000091EF20003009F0ABC00091D1201091F6
:102B8800D2200A831B83B0E0B98309812091F22007
:102B98003091F32010E00217130708F090C000915D
:102BA800BE201091BF200C8B1D8BB0E0BC83B0E021
:102BB800B88318810B89101708F077C00C81003092
:102BC80009F055C00D851E850F5F1F4F0D871E87A5
:102BD80029853A850F85188920173107E0F52D8555
:102BE8003E8509851A8502171307A8F5B1E0BD8748
:102BF800B0E0BE878E01075F1F4F3F922F924801BA
:102C08006B847C842D803E804F805884E091F42032
:102C1800F091F52009952F903F90098B1A8B0B8521
:102C28001C850F87188B4D815E816F81788509859A
:102C38001A8520E0322F040F151F261F371F0D831A
:102C48001E832F83388709841A840B851C850019F5
:102C580011090B871C87E989FA8900810E8B09897C
:102C68001A890F5F1F4F098B1A8BB1E0BC831E892D
:102C78000C81012369F03F922F926090F0207090B0
:102C8800F1204A805B802C883D889CDB2F903F9008
:102C98000C891D890F5F1F4F0C8B1D8B0C81000F3A
:102CA8000C8308810F5F088384CF0A811B810F5F23
:102CB8001F4F0A831B8309810F5F098366CF0C8925
:102CC8001D890F5F1F4F0093BE201093BF20AAC01D
:102CD8000091BE201091BF200A831B83B0E0B98306
:102CE80009812091F2203091F32010E00217130798
:102CF80008F090C00091D1201091D2200C8B1D8B30
:102D0800B0E0BC83B0E0B88318810B89101708F0D5
:102D180077C00C81003009F055C00D851E850F5F06
:102D28001F4F0D871E8729853A850F85188920171B
:102D38003107E0F52D853E8509851A8502171307A9
:102D4800A8F5B1E0BD87B0E0BE878E01075F1F4FD1
:102D58003F922F9248016B847C842D803E804F8067
:102D68005884E091F420F091F52009952F903F9038
:102D7800098B1A8B0B851C850F87188B4D815E81FB
:102D88006F81788509851A8520E0322F040F151F79
:102D9800261F371F0D831E832F83388709841A84C3
:102DA8000B851C85001911090B871C87E989FA898D
:102DB80000810E8B09891A890F5F1F4F098B1A8BA7
:102DC800B1E0BC831E890C81012369F03F922F92E8
:102DD8006090F0207090F1204C885D882A803B80BC
:102DE800F1DA2F903F900C891D89015010400C8B0F
:102DF8001D8B0C81000F0C8308810F5F088384CF23
:102E08000A811B810F5F1F4F0A831B8309810F5F94
:102E1800098366CF0C891D89015010400093D12089
:102E28001093D2209F908F907F906F905F904F90DB
:102E38003F902F906696CDBFDEBFDF91CF9108956A
:002E48008A
:10231000CF93DF93CDB7DEB72497CDBFDEBF219635
:102320008F929F92B1EEBA83B0E2BB8300E010E0DF
:102330000615170508F042C08E017F926F925F92DA
:102340004F923F922F924801E091F420F091F520B6
:1023500009952F903F904F905F906F907F90B801BC
:1023600020E030E0AB010881198120173107A8F483
:10237000FA010081EA81FB8100830A811B810F5FE2
:102380001F4F0A831B838A010F5F1F4FB80189010A
:102390000F5F1F4FAB019801E6CF088019808301C2
:1023A0000019110938010881198120E0322F020D2E
:1023B000131D241D351D18012901B8CF9F908F9042
:0C23C0002396CDBFDEBFDF91CF910895C2
:102300009801249F8001259F100D349F100D089582
:00231000CD
:102E4800CF93DF93CDB7DEB72B97CDBFDEBF2196EB
:102E58004F925F926F927F928F92B0E0B887B98756
:102E6800B0E0BA8700910520003091F402E012E149
:102E78003F922F928824662477241801B0E04B2EC5
:102E8800542C0E9429262F903F90B1E0B093052042
:102E98000091EB201091EC202016310608F43DC17A
:102EA8000091ED201091EE200215130508F435C1AC
:102EB8000090EB201090EC20810100191109A80165
:102EC800440F551F440F551F8090D3209090D42055
:102ED800A090D520B090D62084019501085F1F4F9F
:102EE8002F4F3F4F2A01B0E06B2E762C400E511E1B
:102EF800621E731E6BBEF20106910F83820193015D
:102F08000F5F1F4F2F4F3F4F2BBFF8010691402FE8
:102F180050E0652F752F820193010E5F1F4F2F4FD1
:102F28003F4F2BBFF801069110E0212F312F322F90
:102F3800212F102F0027400F511F621F731F82017E
:102F480093010D5F1F4F2F4F3F4F2BBFF801069185
:102F580010E0212F312F312F202F00271127040FA8
:102F6800151F261F371F080D191D2A1D3B1D0B8312
:102F78001C832D833E830091EF20003009F067C049
:102F88006091D1207091D220B0E0B983098120915D
:102F9800F2203091F32010E00217130708F04EC01A
:102FA8000091BE201091BF2008871987B0E0BA832E
:102FB800B0E0B88318810F811017C0F50A8100307E
:102FC800A1F40D810BBFEB81FC8106910A870B816F
:102FD8001C812D813E810F5F1F4F2F4F3F4F0B8369
:102FE8001C832D833E83B1E0BA831A850A810123AD
:102FF80081F07F936F933F922F926090F0207090B2
:10300800F1202B0128843984DDD92F903F906F91CE
:103018007F91088519850F5F1F4F088719870A81D7
:10302800000F0A8308810F5F0883C4CF8B010F5FED
:103038001F4FB80109810F5F0983A8CF088519853B
:103048000F5F1F4F0093BE201093BF2066C0609192
:10305800BE207091BF20B0E0B98309812091F22091
:103068003091F32010E00217130708F04EC00091CA
:10307800D1201091D22008871987B0E0BA83B0E038
:10308800B88318810F811017C0F50A810030A1F4A8
:103098000D810BBFEB81FC8106910A870B811C8196
:1030A8002D813E810F5F1F4F2F4F3F4F0B831C8396
:1030B8002D833E83B1E0BA831A850A81012381F00A
:1030C8007F936F933F922F926090F0207090F12041
:1030D800488459841B0176D92F903F906F917F9136
:1030E8000885198501501040088719870A81000F43
:1030F8000A8308810F5F0883C4CF8B010F5F1F4FBE
:10310800B80109810F5F0983A8CF08851985015087
:1031180010400093D1201093D2208F907F906F9011
:103128005F904F902A96CDBFDEBFDF91CF91089573
:0031380097
:104F58002F923F924F925F926F927F928F929F9281
:104F6800F101B0E0B083BBE9B093950482D83F92D9
:104F78002F92882466247724B2E02B2EB2E13B2EB0
:104F8800B0E04B2E542C61DEB1E04B2EBFEF2B2E40
:104F98003B2E0E943D1B7724882466245524BFEFAE
:104FA8003B2E4B2EB1E02B2EB0E0BF93BF930E9457
:104FB800471BADB7BEB71296ADBFBEBFB4E66B2EEA
:104FC800B0E07B2EBAE54B2EB0E05B2EBFE92B2E6E
:104FD800B0E23B2E93DE32E025E41DEA07E00A95B5
:104FE800F1F71A95E1F72A95D1F73A95C1F7B2E8A2
:104FF8008B2EB0E09B2EBAEF6B2EB0E07B2EB6E482
:105008004B2EB0E05B2EB6E42B2EB0E03B2E3FDA01
:1050180014DA2F903F90003009F53F922F92B4E6B2
:105028006B2EB0E07B2EBAE54B2EB0E05B2EB5E8D8
:105038002B2EB0E23B2E62DE2F903F90F101B1E0C3
:10504800B08332E025E41DEA07E00A95F1F71A95E6
:10505800E1F72A95D1F73A95C1F714C03F922F92FC
:10506800B4E66B2EB0E07B2EBAE54B2EB0E05B2E9B
:10507800B8E22B2EB0E23B2E41DE2F903F90F1019B
:10508800B2E0B083B2E88B2EB0E09B2EBAEF6B2E65
:10509800B0E07B2EB6E44B2EB0E05B2EB6E42B2EB0
:1050A800B0E03B2EF4D99F908F907F906F905F90E7
:0850B8004F903F902F900895E6
:10449600CF93DF93CDB7DEB72597CDBFDEBF21968D
:1044A6000091062106959101201BB0E03B0BA90166
:1044B60000E010E0201731071CF440E050E00FC088
:1044C6000091C7201091C8204017510740F0009175
:1044D600C7201091C82001501040A80100C00091CB
:1044E600062110E001501040159507959801260DFC
:1044F600371D2B833C8300E010E02017310724F49E
:10450600B0E0BB83BC8311C02B813C810091C720E6
:104516001091C8202017310740F00091C720109154
:10452600C820015010400B831C83009106210023F4
:1045360009F457C05F934F939F928F927F926F9229
:104546005F924F923F922F9232014B805C801A010C
:104556000E94EF132F903F904F905F906F907F9047
:104566008F909F904F915F919F928F927F926F92C3
:104576005F924F923F922F9234014B805C801A01DA
:104586000E94EF132F903F904F905F906F907F9017
:104596008F909F909F928F927F926F925F924F9291
:1045A6003F922F9231011201240149DC2F903F9056
:1045B6004F905F906F907F908F909F909F928F9279
:1045C6007F926F925F924F923F922F921201240137
:1045D60036DC2F903F904F905F906F907F908F903A
:1045E6009F900091C920002309F41EC10091C420A8
:1045F6001091C52008831983409106214A83042F10
:1046060010E00F5F1F4F9801359527958901020D20
:10461600131D18018901040D151D2801042F10E032
:104626000E5F1F4F9801359527958301021B130BCB
:1046360038018401021B130B48010091C620002398
:1046460009F4B5C00091CE20003009F058C0C2016F
:10465600AC018416950608F451C094012419350955
:104666008A01041915095F934F939F928F927F9247
:104676006F925F924F923F922F924901380140907C
:10468600CA205090CB202090CF203090D0200E947E
:10469600CC182F903F904F905F906F907F908F90A7
:1046A6009F904F915F915F924F923F922F92B1E010
:1046B6004B2E18010E943D1B2F903F904F905F900C
:1046C6005F934F939F928F927F926F925F924F92DA
:1046D6003F922F9223013A010E94EF132F903F90B1
:1046E6004F905F906F907F908F909F904F915F91CA
:1046F6008A010F5F1F4FC801AC01ABCF57C0C10184
:10470600AC016416750608F451C0930122193309E9
:104716008A01021913095F934F939F928F927F929A
:104726006F925F924F923F922F92490138014090CB
:10473600CA205090CB202090CF203090D0200E94CD
:10474600CC182F903F904F905F906F907F908F90F6
:104756009F904F915F915F924F923F922F92B1E05F
:104766004B2E18010E943D1B2F903F904F905F905B
:104776005F934F939F928F927F926F925F924F9229
:104786003F922F923A011201240159DB2F903F905C
:104796004F905F906F907F908F909F904F915F9119
:1047A6008A010F5F1F4FC801AC01ABCF34C05F92C7
:1047B6004F923F922F92B1E04B2E2090CC2030901A
:1047C600CD200E943D1B2F903F904F905F9092010D
:1047D6008216930600F13F932F939F928F927F92BA
:1047E6006F925F924F923F922F92230139010E945E
:1047F600EF132F903F904F905F906F907F908F9028
:104806009F902F913F9189010F5F1F4F502F612F6E
:10481600252F362FDDCF088119810093C4201093F0
:10482600C5200A81009306212496CDBFDEBFDF9105
:04483600CF91089581
:10319800CF93DF93CDB7DEB72897CDBFDEBF21969B
:1031A8002F923F924F925F92B0E07B1611F4B0E0FD
:1031B8006B1611F4810185C06814790411F4820139
:1031C80080C0AE014A5F5F4F9E012D5F3F4F8E0169
:1031D8009F928F927F926F925F924F924A0139012C
:1031E80028013ED94F905F90AE01495F5F4F9E0125
:1031F8002C5F3F4F8E010F5F1F4F4A0139011201AB
:1032080028012ED96F907F908F909F90A30160E046
:10321800762F098110E00880B0E01B2E00191109F3
:1032280020E017FD2FEF322F78D99F928F927F924F
:103238006F92A40160E0762F2FD989019A016F90CF
:103248007F908F909F904881040F0A83A30160E0CC
:10325800762F0C8110E00B80B0E01B2E00191109AD
:1032680020E017FD2FEF322F58D99F928F927F922F
:103278006F92A40160E0762F0FD989019A016F90AF
:103288007F908F909F904B81040F0D83A30160E086
:10329800762F0F8110E00E80B0E01B2E0019110967
:1032A80020E017FD2FEF322F38D9A40160E0762FE8
:1032B800F3D889019A014E81040F402E3D802A805F
:1032C8004AD95F904F903F902F902796CDBFDEBF91
:0632D800DF91CF91089583
:10246800BBE0810116950795BA95E1F7000F000FBB
:10247800000FF2010083B5E0810116950795BA9522
:10248800E1F7000F000FF3010083022D000F000F8A
:08249800000FF4010083089518
:10255E00022D069506950695202EBBE0202F30E025
:10256E00220F331FBA95E1F7032D06950695302EEF
:10257E00B5E010E0000F111FBA95E1F7202B312BBB
:10258E00042D069506950695402E10E0022B132B72
:02259E0008959E
:10252200049FD001159FF001249FE00DF11D069F2D
:10253200E00DF11D349FF00D259FF00D169FF00D5B
:10254200079FF00D3327149FB00DE11DF31F059F68
:0C255200B00DE11DF31F8D019F010895E5
:1024A000C9019A01AB01B80197FB092E05260ED090
:1024B00057FD04D014D00AD0001C38F45095409534
:1024C000309521953F4F4F4F5F4F0895F6F7909508
:1024D0008095709561957F4F8F4F9F4F0895A1E232
:1024E0001A2EAA1BBB1BFD010DC0AA1FBB1FEE1F8E
:1024F000FF1FA217B307E407F50720F0A21BB30BD9
:10250000E40BF50B661F771F881F991F1A9469F754
:1025100060957095809590959B01AC01BD01CF01B0
:0225200008951C
:104442002F923F923324BDE22B2E0E94AF182224DA
:104452000E949C18053E11F002E019C0B8E03B2E04
:10446200B1E32B2E0E94AF18BAE03B2EBCE22B2EFA
:104472000E94AF18B0E83B2EB8E32B2E0E94AF1873
:10448200B8E03B2EBDE22B2E0E94AF1800E03F9019
:044492002F900895CA
:10315E002F9260D82F92BAE32B2E32DA2F9030DADC
:0A316E00232C2EDA29DA2F900895A1
:10222200B0E0B093D82010E0123358F40091940437
:102232000370013011F401E005C0012F0F5F102F70
:06224200F3CF00E0089557
:1025CE000091D820003079F420929604022D0170EB
:1025DE00003029F4B0919404B6FD01C0FBCFB1E0F8
:1025EE00B093D82007C020929704B0919404B6FD02
:0625FE0001C0FBCF0895AF
:0825C600B7E0B09393040895FF
:103138002F9273D82F92BAE32B2E45DA2F9043DAC9
:103148006CD8BBE32B2E3FDA22249CDA102F37DA17
:06315800012F2F900895E5
:10268C00B0919404B7FD01C0FBCF10919704B1E059
:0E269C002B1619F4B2E0B0939304012F0895A9
:0E407A00B8E0B0939104B1E0B09394040895BF
:1050C0002F923F924F925F926F927F92B6E46B2E37
:1050D000B0E07B2EBAE54B2EB0E05B2EB6E52B2E72
:1050E000B0E23B2E0FDE1FD87DD80E944420A5DB06
:1050F00021E218E709E90A95F1F71A95E1F72A95EF
:10510000D1F700007F906F905F904F903F902F906D
:02511000089500
:10412600CF93DF93CDB7DEB72897CDBFDEBF2196FD
:10413600B0E0BE83BF83B0E0BC83BD83B0E0BA838A
:10414600BB83B0E0B883B9832881398100E110E0F0
:1041560020173107ECF40DD82A813B81020F131F7B
:104166000A831B83B9D82C813D81020F131F0C8350
:104176001D830E94DF132E813F81020F131F0E83C2
:104186001F83088119810F5F1F4F08831983DCCFB6
:104196000A811B81B4E015950795BA95E1F700935E
:1041A6007B2010937C200C811D81B4E0159507952A
:1041B600BA95E1F700937D2010937E200E811F8132
:1041C600B4E015950795BA95E1F700937F20109313
:0E41D60080202796CDBFDEBFDF91CF910895E8
:103178002F92B3E32B2EDCDF402F50E0B2E32B2E4F
:10318800D7DF342F222710E0022B132B2F9008951E
:0031980037
:1032DE002F92B5E32B2E29DF402F50E0B4E32B2E97
:1032EE0024DF342F222710E0022B132B2F9008956A
:0032FE00D0
:1027BE002F92B7E32B2EB9D4402F50E0B6E32B2E39
:1027CE00B4D4342F222710E0022B132B2F90089510
:0027DE00FB
:1041E4002F923F924F925F926F927F928F929F9203
:1041F400B3E78B2EB0E09B2EB8EC6B2EB0E07B2E99
:10420400B4E64B2EB0E05B2EB0EA2B2EB0E03B2E92
:1042140040D1B4E66B2EB0E07B2EBCE84B2EB0E070
:104224005B2EB2E52B2EB0E23B2E6AD5B6EF4B2EB9
:10423400B0E25B2E20907B2030907C200E947F1384
:10424400B4E66B2EB0E07B2EB0EA4B2EB0E05B2ED2
:10425400B6EF2B2EB0E23B2E53D521E11CE30CEC40
:104264000A95F1F71A95E1F72A95D1F79F908F9067
:0E4274007F906F905F904F903F902F90089535
:1026FE00CF93DF93CDB7DEB72497CDBFDEBF219644
:10270E002F923F92B0E0B883B9832A823B8200E0D9
:10271E0010E02016310654F4B1E0B883B0E0B9836E
:10272E0000E010E0021913090A831B832A803B8004
:10273E0062DF66E070E0AB0100E010E00417150701
:10274E0090F49A01240D351D8A0101501040F801B4
:10275E00E40DF51D0081F90100838A01015010403E
:10276E00B801AB01E9CFF201B0E2B0830881198163
:10277E00B02FB12BA9F020E030E0F901E40DF51DEA
:10278E000081003229F489010F5F1F4F9801F5CFA8
:10279E00890101501040F801E40DF51DBDE2B08332
:1027AE003F902F902396CDBFDEBFDF91CF9108953E
:0027BE001B
:10260400CF93DF93CDB7DEB72297CDBFDEBF219640
:1026140010E0153050F4E12FF0E0E40DF51DB0E2C8
:10262400B083012F0F5F102FF4CFE12FF0E0E40D02
:10263400F51DB0E0B083012F0150302F032F10E0BF
:10264400040D151D088319834AE050E08101CBDD98
:102654008D01202F205D08811981F80120834AE033
:1026640050E08101C0DD8C011801103009F4003004
:1026740009F404C0032F0150302FE0CF2196CDBFC1
:08268400DEBFDF91CF91089544
:1021EA00C801BA01AA1BBB1B51E107C0AA1FBB1F2A
:1021FA00A617B70710F0A61BB70B881F991F5A9589
:08220A00A9F780959095089555
:104088002F923F924F925F926F927F928F929F9260
:10409800B1E98B2EB0E09B2EB8EC6B2EB0E07B2EF6
:1040A800B2E84B2EB0E05B2EB0EA2B2EB0E03B2EF0
:1040B800EED1B2E86B2EB0E07B2EBCE84B2EB0E020
:1040C8005B2EB1E82B2EB0E23B2E18D6B6EF4B2E66
:1040D800B0E25B2E20907D2030907E200E947F13DE
:1040E800B2E86B2EB0E07B2EB0EA4B2EB0E05B2E30
:1040F800B6EF2B2EB0E23B2E01D621E11CE30CECEF
:104108000A95F1F71A95E1F72A95D1F79F908F90C4
:0E4118007F906F905F904F903F902F90089592
:10483A002F923F924F925F926F927F928F929F92A6
:10484A00BFEA8B2EB0E09B2EB8EC6B2EB0E07B2E2D
:10485A00B0EA4B2EB0E05B2EB0EA2B2EB0E03B2E36
:10486A0015DEB0EA6B2EB0E07B2EBCE84B2EB0E032
:10487A005B2EB6EB2B2EB0E23B2E3FD2B6EF4B2E81
:10488A00B0E25B2E20907F20309080200E947F1320
:10489A00B0EA6B2EB0E07B2EB0EA4B2EB0E05B2E76
:1048AA00B6EF2B2EB0E23B2E28D221E11CE30CEC12
:1048BA000A95F1F71A95E1F72A95D1F79F908F900B
:0E48CA007F906F905F904F903F902F900895D9
:0A4DD00005900D920197E1F7089598
:10513A00A0E0B0E2E3E2F1E28AEB90E00E94E82626
:02514A000895C6
:10120200000020007F001000018801000398010007
:1012120005A8010008B8010007C801000DD80100A7
:101222000AF801000318020005280200053802002E
:1012320007480200095802000378020005880200EC
:101242000398020006A8020007B8020007C80200BD
:1012520007D8020007E8020007F8020007080300A7
:101262000718030007280300073803000748030094
:101272000358030003680300097803000998030078
:1012820009B8030006D8030009E8030009080400AE
:101292000728040007380400084804000658040020
:1012A2000668040007780400088804000498040013
:1012B20005A8040007B8040006C804000AD8040000
:1012C20007F80400080805000718050008280500AB
:1012D200083805000748050006580500076805009C
:1012E200087805000C88050008A8050008B8050064
:1012F20006C8050005D8050006E8050005F8050042
:1013020009080600082806000538060007480600F6
:1013120007580600066806000778060007880600D8
:101322000598060007A8060007B8060002C80600CE
:1013320003D8060006E8060002F806000A080700BD
:101342000728070007380700074807000758070063
:101352000568070006780700058807000798070058
:1013620007A807000AB8070006D8070007E8070021
:1013720006F80700060808000418080006280800F6
:101382000A3808000B5808000000000000000000A6
:101392000000000000000000000000000606060633
:1013A20006060006060000000000001B1B1B1B00B7
:1013B2000000000000000000000000004848FEFE9F
:1013C200247F7F1212000000000008083E4B0B0B26
:1013D2003E6868693E080800000000000000000046
:1013E2001E0033023301B3005E0FA0199019881951
:1013F200000F0000000000000000000000000000DC
:101402003C006600660066003C036603C601C60037
:10141200BC030000000000000000000606060600F3
:101422000000000000000000000000180C0C06067E
:1014320006060606060C0C18000000060C0C18180E
:1014420018181818180C0C06000000185A3C5A18E4
:10145200000000000000000000000000000000008A
:101462000000200020002000FC01200020002000BD
:10147200000000000000000000000000000000006A
:101482000000000606030300000000000000000048
:101492001F0000000000000000000000000000002B
:1014A20000000006060000000000002020101008C6
:1014B2000804040202010100000000003E636363AD
:1014C200636363633E00000000000000181E1818EA
:1014D200181818187E000000000000003E616160CC
:1014E20030180C067F000000000000003E616060C2
:1014F2003C6060613E000000000000003038343281
:10150200317F303030000000000000007E06063ED1
:10151200606060613E000000000000003C06033F86
:10152200636363633E000000000000007F603030B0
:1015320018180C0C0C000000000000003E636363EE
:101542003E6363633E000000000000003E6363638D
:10155200637E60301E0000000000000000000606EE
:101562000000000606000000000000000000060661
:101572000000000606030300000000000000000057
:1015820000008001600018000600060018006000DC
:1015920080010000000000000000000000000000C8
:1015A20000000000FE0100000000FE01000000003B
:1015B2000000000000000000000000000000000029
:1015C2000000060018006000800180016000180021
:1015D2000600000000000000000000001E3130186C
:1015E2000C0C000C0C0000000000000000000000C9
:1015F2007C00820079016D016D016D016D01D900E0
:101602000200FC00000000000000000000000000DA
:10161200380038006C006C00C600FE00C600830172
:101622008301000000000000000000003F636363CC
:101632003F6363633F000000000000003E4343033A
:10164200030343433E000000000000003F63C3C3A6
:10165200C3C3C3633F000000000000003F03030355
:101662001F0303033F000000000000003F030303C9
:101672001F03030303000000000000003E43430376
:10168200736363637E00000000000000C3C3C3C332
:10169200FFC3C3C3C3000000000000000F0606061C
:1016A200060606060F000000000000001E181818AB
:1016B200181818180F0000000000000063331B0FF9
:1016C200070F1B3363000000000000000303030345
:1016D200030303033F0000000000000000000000BD
:1016E200870387034D034D033903390311031103A4
:1016F20001030000000000000000000047474D4DBC
:101702005959717161000000000000007EC3C3C31B
:10171200C3C3C3C37E000000000000003F636363D5
:10172200633F030303000000000000007EC3C3C345
:10173200C3C3C3C37E60C000000000003F63636395
:101742003F1B3363C3000000000000003E4343031D
:101752003E6061613E000000000000003F0C0C0C86
:101762000C0C0C0C0C0000000000000063636363AF
:10177200636363633E00000000000000C3C3C366EE
:10178200663C3C1818000000000000000000000049
:10179200630C630C630CF30CF6069E079E070C03A6
:1017A2000C0300000000000000000000C3C3663C00
:1017B200183C66C3C300000000000000C3C3666695
:1017C2003C18181818000000000000003F303018C4
:1017D2000C0603033F0000000000001E060606067A
:1017E2000606060606061E000000000101020204AB
:1017F20004080810102020000000001E18181818F5
:101802001818181818181E00000000000000000028
:1018120030004800840002010000000000000000C7
:1018220000000000000000000000000000000000B6
:10183200000000000000FF000000000C1800000083
:1018420000000000000000000000000000003C62F8
:10185200607E63637E0000000000000303033B67B9
:10186200636363633F0000000000000000001E236A
:10187200030303231E0000000000006060607E631B
:10188200636363736E0000000000000000003E63AB
:10189200637F03433E0000000000001C06060F06A3
:1018A20006060606060000000000000000007E6337
:1018B200636363736E60613E0000000303033B6772
:1018C200636363636300000000000003030003031B
:1018D20003030303030000000000000606000706DE
:1018E2000606060606060603000000030303331B72
:1018F2000F070F1B33000000000000030303030364
:1019020003030303030000000000000000000000C6
:1019120000000000DF0133033303330333033303D7
:1019220033030000000000000000000000003B67DD
:1019320063636363630000000000000000003E6315
:10194200636363633E0000000000000000003B6729
:10195200636363633F0303030000000000007E63D0
:10196200636363736E6060600000000000001B1F11
:1019720003030303030000000000000000001E2315
:10198200071E38311E0000000000000006061F0678
:10199200060606061C00000000000000000063634B
:1019A200636363736E000000000000000000636365
:1019B2006336361C1C00000000000000000000001E
:1019C2000000000033033303B601B601CE01CC00A0
:1019D200CC000000000000000000000000003333D3
:1019E2001E0C1E3333000000000000000000636381
:1019F2006336361C1C180C0C0000000000003F303F
:101A0200180C06033F000000000000380C0C0C0C00
:101A1200070C0C0C0C0C38000000000C0C0C0C0C0D
:101A22000C0C0C0C0C0C0C00000000070C0C0C0C29
:101A3200380C0C0C0C0C0700000000000000000029
:101A42000000000000001E023F02F103E10100005D
:101A52000000000000000000000000000000FE077F
:101A62000204020402040204020402040204020444
:081A7200FE0700000000000067
:1001F400000020007F00160001880100059E010018
:1002040006B401000ECA01000EF60100112202001C
:100214000F6402000390020006A6020006BC02005E
:1002240009D202000EFE0200032A03000640030066
:1002340003560300086C03000E82030004AE03009F
:100244000CC403000BF003000F1C04000C48040052
:100254000E7404000CA004000DCC04000DF804007E
:1002640003240500033A05000D5005000D7C05002C
:100274000DA805000DD40500120006000F4206006B
:100284000D6E06000C9A06000EC606000CF206005F
:100294000C1E07000E4A07000C76070004A2070094
:1002A40009B807000DE407000A100800103C080014
:1002B4000D6808000F9408000DC0080010EC080039
:1002C4000E1809000E4409000B7009000D9C09006A
:1002D4000EC8090015F409000D360A000C620A0064
:1002E4000D8E0A0006BA0A0008D00A0005E60A00C4
:1002F4000FFC0A000A280B0007540B000B6A0B00C2
:100304000B960B000AC20B000BEE0B000A1A0C0032
:1003140008460C000B5C0C000A880C0004B40C00AA
:1003240004CA0C000BE00C00040C0D000E220D009E
:100334000A4E0D000C7A0D000BA60D000BD20D0019
:1003440008FE0D000B140E0008400E000A560E00A5
:100354000B820E0011AE0E000AF00E000A1C0F00F4
:100364000A480F0008740F00068A0F0007A00F0048
:100374000DB60F000BE20F000000000000000000AB
:100384000000000000000000000000000000000069
:1003940000001C1C1C1C1C1C1C1C1C1C1C001C1CED
:1003A400000000000000000000363636363600003B
:1003B4000000000000000000000000000000000039
:1003C4000000C01CC00C600C600EFC3FFC1F32031C
:1003D4003003FE1FFF0F98018C01CC00CE000000FB
:1003E4000000000000000000000000008000F81F72
:1003F400FC1F9E008E008E009E00FC0FF81F8038AC
:1004040080388038803CFC1FFC0F80000000000016
:1004140000000000000000000000000000003E0892
:10042400007F0C006304006306006302007F030086
:100434003E010080F90080FD01808C01C08C0140E8
:100444008C0160FC0120F8000000000000000000A6
:10045400000000000000000000000000F803FC039E
:100464001E000E000E001E007C7E7C7E1E1C0E1CD8
:100474000E0E1E0FFC07F801000000000000000033
:10048400000000000006060606060000000000004A
:100494000000000000000000000038180C0C0C06DE
:1004A40006060606060C0C0C1838000000000000B6
:1004B4000E0C1818183030303030301818180C0E54
:1004C400000000000000000000003000B400FE0145
:1004D4007800FE01B40030000000000000000000BD
:1004E4000000000000000000000000000000000008
:1004F4000000000000000000000080018001800175
:1005040080018001FC3FFC3F80018001800180016B
:100514008001000000000000000000000000000056
:1005240000000000000000000000060604020000B5
:100534000000000000000000000000003F3F000039
:1005440000000000000000000000000000000000A7
:10055400000000000000060600000000000000008B
:10056400C04040602030101808080C040602020342
:1005740000000000000000000000F003FC0F1E1E3D
:100584000E1C0738073807380738073807380E1C99
:100594001E1EFC0FF003000000000000000000001D
:1005A40000000E0E0E0E0E0E0E0E0E0E0E0E0E0E83
:1005B400000000000000000000000000FF03FF072F
:1005C400000E000E000E000EFC07FE030F000700D5
:1005D40007000700FF0FFF0F0000000000000000ED
:1005E4000000000000000000FF01FF038007000777
:1005F40000078007FE03FE0380070007000780074B
:10060400FF03FF01000000000000000000000000E4
:1006140000000000001E001F801FC01FE01DF01C12
:10062400781C3C1C1E1CFE7FFE7F001C001C001C52
:1006340000000000000000000000000000000000B6
:10064400FF07FF070700070007000700FF03FF0776
:10065400000E000E000E000EFF07FF030000000056
:10066400000000000000000000000000E01FF81F70
:100674003C001C000E000E00FE0FFE1F0E380E384C
:100684001C383C3CF81FE00700000000000000009C
:100694000000000000000000FF0FFF0F000F000724
:1006A4008003C003C001E000F000780038003C0083
:1006B4001E000F0000000000000000000000000009
:1006C40000000000FC07FE0F0F1E071C071C0F1E76
:1006D400FE0FFE0F0F1E071C071C0F1EFE0FFC074C
:1006E4000000000000000000000000000000000006
:1006F400F801FE070F0F070E071C071CFE1FFC1F47
:10070400001C001C000E000FFE07FE01000000008C
:1007140000000000000000000000000000000006CF
:1007240006000000060600000000000000000000B3
:100734000000000000060600000006060402000097
:100744000000000000000000000000000000001095
:10075400001E800FE0037C001C007C00E003800F7F
:10076400001E001000000000000000000000000057
:100774000000000000000000000000000000FC1F5A
:10078400FC1F00000000FC1FFC1F00000000000014
:100794000000000000000000000000000000000055
:1007A40000000000000004003C00F800E003001F0B
:1007B400001C001FE003F8003C00040000000000DF
:1007C400000000000000000000000000FE07FE0F13
:1007D400001C001C001C001CF80FFC071E000E006F
:1007E4000E0000000E000E000000000000000000DB
:1007F400000000000000000000000000801F00E076
:100804007F0070E0003880019CB703CC1703C61842
:1008140003661803661803668C0166CC01E6FB00C8
:10082400CC79001C000078E000F03F00C00F00000D
:1008340000000000000000000000E001E003E0030D
:10084400F00330073807380E180EFC1FFC1F0E1C6F
:100854000E38063807780000000000000000000091
:10086400000000000000FE07FE0F0E1C0E1C0E1CF4
:100874000E1CFE0FFE0F0E1C0E1C0E1C0E1CFE0F7B
:10088400FE0700000000000000000000000000005F
:100894000000F00FF80F1C001C000E000E000E00EC
:1008A4000E000E000E000C001C00F80FF00F0000EC
:1008B4000000000000000000000000000000FE072F
:1008C400FE0F0E1C0E1C0E380E380E380E380E3865
:1008D4000E380E1C0E1CFE0FFE0700000000000068
:1008E40000000000000000000000F00FF80F1C00E2
:1008F4001C000E000E00FE0FFE0F0E000E000C007A
:100904001C00F80FF00F00000000000000000000C1
:10091400000000000000F00FFC0F1C000E000E0091
:100924000E00FE0FFE0F0E000E000E000E000E0055
:100934000E000000000000000000000000000000A5
:100944000000F03FF83F3C001C000E000E008E3FFC
:100954008E3F0E380E381C383C38F83FF03F00000C
:1009640000000000000000000000000000000E0E67
:100974000E0E0E0E0E0E0E0E0E0EFE0FFE0F0E0EB1
:100984000E0E0E0E0E0E0E0E0E0E000000000000D7
:100994000000000000000E0E0E0E0E0E0E0E0E0EC7
:1009A4000E0E0E0E0000000000000000000000000B
:1009B400C001C001C001C001C001C001C001C0012B
:1009C400C001C001C001E001FF007F000000000081
:1009D4000000000000000000000000000E1E0E0FCA
:1009E4008E078E03CE01EE00FE00FE00EE01CE0166
:1009F4008E038E070E0F0E1E000000000000000084
:100A040000000000000000000E000E000E000E00AA
:100A14000E000E000E000E000E000E000E001E0052
:100A2400FC03F803000000000000000000000000C8
:100A3400000000001EF03EF83EF83EF87EFC7EFC0E
:100A44006EEC6EEEEEEECEE6CEE6CEE78EE38EE311
:100A54000000000000000000000000000000000092
:100A64001E1C1E1C3E1C7E1C7E1CEE1CCE1CCE1DA1
:100A74008E1D8E1F0E1F0E1F0E1E0E1E0000000068
:100A8400000000000000000000000000E007F81F64
:100A94003C3C1C380E700E700E700E700E700E7092
:100AA4001C383C3CF81FE007000000000000000078
:100AB4000000000000000000FE07FE0F0E1E0E1CCA
:100AC4000E1C0E1C0E1EFE0FFE070E000E000E0066
:100AD4000E000E00000000000000000000000000F6
:100AE40000000000E007F81F3C3C1C380E700E703C
:100AF4000E700E700E700E701C783C3CF83FE0F7E0
:100B040000000000000000000000000000000000E1
:100B1400FE07FE0F0E1C0E1C0E1C0E1CFE0FFE0705
:100B24000E070E070E0E0E0E0E1C0E3C00000000EB
:100B3400000000000000000000000000F81FFC1F7F
:100B44001E000E000E000E00FC0FF81F00380038C7
:100B540000380038FC1FFC0F0000000000000000FB
:100B64000000000000000000FF07FF077000700095
:100B740070007000700070007000700070007000F1
:100B84007000700000000000000000000000000081
:100B9400000000000E1C0E1C0E1C0E1C0E1C0E1C55
:100BA4000E1C0E1C0E1C0E1C0E1C1E1EFC0FF00335
:100BB4000000000000000000000000000000000031
:100BC4000738071C071C0F1E0E0E1E0F1C071C07E0
:100BD400B803B803F803F001F001E00000000000DE
:100BE4000000000000000000000000000000000001
:100BF400070E1C070F1C061F0E0E1F0E0E1B0E8C5D
:100C04003B069C3B079C39079C3107F8F103F8F13C
:100C140003F8F103F0E001F0E0010000000000003F
:100C240000000000000000000000000000000F1E93
:100C34000E0F1C07BC03F803F001F000F001F001F3
:100C4400B803BC071C070E0F0F1E000000000000B5
:100C540000000000000000000000030F07078E03DF
:100C64008E03DC01F800F800700070007000700062
:100C74007000700070000000000000000000000020
:100C8400000000000000FE1FFE1F001E000F800772
:100C9400C003E001E001F00078003C001E00FE1FEC
:100CA400FE1F0000000000000000000000003E3EA7
:100CB4000606060606060606060606063E3E00006C
:100CC4000000000003020206040C08081010302083
:100CD400604040C00000000000001F1F18181818D2
:100CE40018181818181818181F1F00000000000002
:100CF400000000000007800FC01DE0387070000085
:100D040000000000000000000000000000000000DF
:100D140000000000000000000000000000000000CF
:100D240000000000000000000000000000000000BF
:100D340000000000000000000000000000000000AF
:100D44000000FF03000000001C30600000000000F1
:100D5400000000000000000000000000000000008F
:100D640000000000000000000000FC01FC0300077C
:100D74000007FC07FE070E070E07FE07FC0700002E
:100D840000000000000000000000000000000E0051
:100D94000E000E000E00FE01FE038E070E070E0766
:100DA4000E070E078E03FE03FE0100000000000084
:100DB400000000000000000000000000000000002F
:100DC4000000F003FC031C000E000E000E000E00D9
:100DD4001C00FC03F0030000000000000000000001
:100DE4000000000000000007000700070007F807E4
:100DF400FC071E070E070E070E070E071C07FC074D
:100E0400F8070000000000000000000000000000DF
:100E140000000000000000000000F803FC030E00C6
:100E24000E00FE03FE030E000E00FC03F803000098
:100E340000000000000000000000F8FC1C1CFFFF84
:100E44001C1C1C1C1C1C1C1C0000000000000000BE
:100E5400000000000000000000000000F807FC078C
:100E64001C070E070E070E070E071E07FC07F807E0
:100E740000070007FC03FC01000000000000000064
:100E84000E000E000E000E00FE01FE038E038E0304
:100E94008E038E038E038E038E038E0300000000E8
:100EA4000000000000000000000E0E000E0E0E0EEA
:100EB4000E0E0E0E0E0E0000000000000000000ECC
:100EC4000E000E0E0E0E0E0E0E0E0E0E0E0E07075A
:100ED40000000000000000000E000E000E000E00D6
:100EE4000E078E03CE01EE007E007E00EE00CE01E2
:100EF4008E038E07000000000000000000000000C8
:100F04000E0E0E0E0E0E0E0E0E0E0E0E0E0E000019
:100F140000000000000000000000000000000000CD
:100F24000000FE1FFE3FCE39CE39CE39CE39CE3940
:100F3400CE39CE39CE390000000000000000000098
:100F44000000000000000000000000000000FE019E
:100F5400FE038E038E038E038E038E038E038E0395
:100F64008E030000000000000000000000000000EC
:100F740000000000000000000000F001FC071C0756
:100F84000E0E0E0E0E0E0E0E1C07FC07F0010000D6
:100F9400000000000000000000000000000000004D
:100FA400000000000000FE01FE038E030E070E0782
:100FB4000E070E078E07FE03FE010E000E000E0044
:100FC4000E0000000000000000000000000000000F
:100FD4000000F807FC071C070E070E070E070E0794
:100FE4001E07FC07F80700070007000700070000BA
:100FF4000000000000007EFEEEEE0E0E0E0E0E0E41
:1010040000000000000000000000000000000000DC
:1010140000000000FC03FE030E000E00FE03FC07AC
:1010240000070007FE07FE030000000000000000A8
:10103400000000001C1C1C1CFFFF1C1C1C1C1C1C96
:10104400FCF80000000000000000000000000000A8
:101054000000000000008E038E038E038E038E03B7
:101064008E038E038E03FE03F803000000000000CD
:10107400000000000000000000000000000000006C
:101084000000070706038E038E039C01DC01D800D1
:10109400F800F800700000000000000000000000EC
:1010A400000000000000000000000000000000003C
:1010B40000000000000083C301C7C701C6C700C603
:1010C400C600EEEE00EC6E006C6C007C7C00783C9C
:1010D400003838000000000000000000000000009C
:1010E40000000000000000000000000000000000FC
:1010F4008703CE01FC00FC00780078007C00FC0033
:10110400CE01870300000000000000000000000082
:101114000000000000000000000000008E038E03A9
:101124008E038E038E038E038E038E03FE03FC0355
:1011340080038003FE01FE000000000000000000A8
:101144000000000000000000FE03FE03C003E001F5
:10115400F00078003C001E00FE03FE0300000000C7
:101164000000000000000000E0F03030303030308B
:101174001C1C303030303030F0E0000000303030B3
:10118400303030303030303030303030303030305B
:10119400000000000E1E181818181818707018187F
:1011A400181818181E0E00000000000000000000AF
:1011B400000000000000000000000000F810FC1F08
:1011C400040F000000000000000000000000000008
:1011D400000000000000000000000000FE07020400
:1011E40002040204020402040204020402040204CB
:0E11F400020402040204020402040204FE07C4
:101A7A00000020007F000D0001880100039501008D
:101A8A0004A2010008AF010006BC01000BC9010055
:101A9A0008E3010002F0010004FD0100040A02004B
:101AAA00061702000824020003310200043E020065
:101ABA00034B020005580200066502000672020086
:101ACA00067F0200068C02000699020006A60200A2
:101ADA0006B3020006C0020006CD020006DA0200C2
:101AEA0003E7020003F4020007010300080E0300E3
:101AFA00081B03000528030009350300074F0300EC
:101B0A00075C0300086903000876030006830300E4
:101B1A0006900300089D030007AA030004B7030008
:101B2A0004C4030007D1030006DE030008EB030028
:101B3A0007F803000805040006120400081F040041
:101B4A00072C040007390400074604000753040061
:101B5A00076004000A6D0400078704000794040064
:101B6A0007A1040004AE040005BB040004C8040075
:101B7A0008D5040007E2040004EF040006FC040090
:101B8A0006090500061605000623050006300500AD
:101B9A00043D0500064A05000657050002640500D3
:101BAA0003710500067E0500028B05000A980500F0
:101BBA0006B2050006BF050006CC050006D90500D9
:101BCA0005E6050005F3050004000600060D0600FB
:101BDA00061A060008270600063406000641060013
:101BEA00054E0600065B0600036806000675060039
:101BFA0008820600098F06000000000000000000AD
:101C0A0000000000000000000404040404040004AE
:101C1A00000000000A0A0A0000000000000000009C
:101C2A0000005050FC28287E141400000000080808
:101C3A003C0A0A1C28281E08080000000000008C24
:101C4A0000920052004C002003A0049004100300EC
:101C5A000000000000000C12124C5222629C00008C
:101C6A00000002020200000000000000000000085C
:101C7A000404020202020204040800000204040826
:101C8A00080808080404020000082A1C2A080000A0
:101C9A000000000000000000101010FE10101000DC
:101CAA00000000000000000000000404040200001C
:101CBA0000000000000E000000000000000000000C
:101CCA0000000000040400000000101008080404CA
:101CDA0002020101000000001C2222222222221CF0
:101CEA000000000000080E08080808083E0000006E
:101CFA0000001C2220100804023E00000000001C04
:101D0A002220182020221C000000000010181412A3
:101D1A00113F101000000000003E02021E20202287
:101D2A001C00000000001804021E2222221C0000CF
:101D3A000000003E20101008080404000000000003
:101D4A001C22221C2222221C00000000001C22222B
:101D5A00223C20100C0000000000000004040000D7
:101D6A00040400000000000000040400000404044D
:101D7A000200000000006018061860000000000061
:101D8A0000000000FE00FE0000000000000000004D
:101D9A000C30C0300C0000000000000E10100804C7
:101DAA000400040000000000000000F800040172B2
:101DBA00014A014A014A01B2000400780000000009
:101DCA00000018182424247E424200000000001E4D
:101DDA0022223E4242423E00000000007884020273
:101DEA000202847800000000003E4282828282421F
:101DFA003E00000000003E02023E0202023E0000D7
:101E0A000000003E02021E02020202000000000060
:101E1A0078840202E2828478000000000042424292
:101E2A007E4242424200000000000E040404040400
:101E3A00040E00000000000E080808080808070041
:101E4A00000000004222120A0E1222420000000084
:101E5A0000020202020202023E0000000000C6C6A0
:101E6A00AAAA92928282000000000046464A4A527A
:101E7A005262620000000000384482828282443842
:101E8A0000000000001E2222221E020202000000A0
:101E9A000000384482828282443820C00000001E3A
:101EAA002222221E12224200000000003C42020CA2
:101EBA003040423C00000000007F0808080808087B
:101ECA00080000000000424242424242423C0000F6
:101EDA000000004242422424241818000000000096
:101EEA0000000022022202540154015401540188C4
:101EFA000088000000000000000042422418182454
:101F0A0042420000000000412214080808080800A4
:101F1A00000000007E4020100804027E000000003D
:101F2A000E0202020202020202020E000001010275
:101F3A00020404080810100000000E080808080827
:101F4A00080808080E00000010284482000000005B
:101F5A0000000000000000000000000000007F00F8
:101F6A00000408000000000000000000000000005B
:101F7A00001C203C22223C000000000202021E2219
:101F8A002222221E000000000000001C220202225F
:101F9A001C000000002020203C222222223C0000BB
:101FAA0000000000001C223E02221C000000000C5F
:101FBA0002020F0202020202000000000000003CBE
:101FCA00222222223C201C00000202021E2222227D
:101FDA0022220000000002000002020202020200A5
:101FEA0000000004000006040404040404030000C2
:101FFA0002020222120A0E1222000000000202024B
:10200A0002020202020200000000000000000000BA
:10201A000000DE0122022202220222022202000023
:10202A00000000000000001E2222222222000000DE
:10203A00000000001C222222221C000000000000D6
:10204A00001E222222221E020200000000003C2260
:10205A002222223C202000000000001A060202026E
:10206A0002000000000000001C020618100E00000A
:10207A0000000002020F020202020C00000000002F
:10208A00000022222222223C00000000000000223E
:10209A002214140808000000000000009292AAAA64
:1020AA004444000000000000002214080814220022
:1020BA00000000000000221414140808080400009C
:1020CA000000001E100804021E000000003008086C
:1020DA000808060808080830000004040404040478
:1020EA000404040404000006080808083008080864
:1020FA0008060000000000008C9262000000000048
:10210A000000000000FE01020102010201020102B8
:09211A00010201FE0100000000B9
:0121230000BB
:022124000000B9
:0121260000B8
:0121270000B7
:0121280000B6
:0121290000B5
:10212A006D696B726F6D6564696120666F722058A4
:05213A004D4547410086
:0C213F00414343454C20205445535400BC
:10214B004572726F7220647572696E6720416363AA
:10215B00656C206D6F64756C6520696E697469615F
:0A216B006C697A6174696F6E2E00D2
:04217500583A2000B4
:1021790052656164696E6720617869732076616C64
:06218900756573203A00A9
:0F218F007777772E6D696B726F652E636F6D00BA
:06219E000000000000003B
:0421A400593A200084
:1021A800416363656C206D6F64756C6520696E6949
:0A21B8007469616C697A65642E0099
:1021C2005374617274696E6720416363656C207435
:0721D2006573742E2E2E0030
:0421D9005A3A20004E
:00000001FF
